:020000040800F2
:1000000078070020450100082F190008451800084E
:100010002D190008E908000805220008000000006A
:10002000000000000000000000000000551B000858
:10003000EB080008000000006B1A0008A11C000873
:100040005F0100085F0100085F0100085F01000810
:100050005F0100085F0100085F0100085F01000800
:100060005F0100085F0100085F0100085F010008F0
:100070005F0100085F0100085F0100085F010008E0
:100080005F0100085F0100085F0100085F010008D0
:100090005F0100085F0100085F0100085F010008C0
:1000A0005F0100085F0100085F0100085F010008B0
:1000B0005F0100085F0100085F0100085F010008A0
:1000C0005F0100085F0100085F0100085F01000890
:1000D0005F0100085F010008F92100085F010008C6
:1000E0005F0100085F0100085F0100085F01000870
:1000F0005F0100085F0100085F0100085F01000860
:100100005F0100085F0100085F0100085F0100084F
:100110005F0100085F0100085F0100085F0100083F
:100120005F0100085F0100085F0100085F0100082F
:10013000DFF80CD000F0C6FB00480047052400089B
:10014000780700200648804706480047FEE7FEE79C
:10015000FEE7FEE7FEE7FEE7FEE7FEE7FEE7FEE777
:10016000F51C000831010008202A04DB203A21FA9E
:1001700002F00021704721FA02F3D040C2F12002C0
:100180009140084319467047D2B201E000F8012BB4
:10019000491EFBD270470022F6E710B513460A4607
:1001A00004461946FFF7F0FF204610BDF0B480EA80
:1001B0000102D40F4200B2EB410F02D202460846C0
:1001C00011464A0042D0C30DDDB2C1F3C752AD1A89
:1001D000202D35DAC1F3160141F4000204B1524278
:1001E000C5F1200602FA06F12A411044B3EBD05FB4
:1001F00023D0C4B1012DA0EBC35009DCF0BC4FF0FB
:10020000004202EAC352DBB200F5000000F0CEBAB1
:10021000400000F1807000EBC350A0F1807040EA14
:10022000D170490009E0490841EAC071A0EBC35010
:1002300000F50000400800EBC350F0BC00F0ADBA80
:100240006142012202EB4101001BF6E7F0BC70475E
:1002500081F00041AAE780F00040A7E780EA0102B0
:1002600010B502F00043400022D04A001FD0010E1A
:1002700001EB1261C0F35600C2F3560240F40000D5
:1002800042F40002A0FB022000047F39140400D0D5
:10029000401C50EA124001D44000491EC2B20C0674
:1002A00004EBD010401C4008802A02D003E000205C
:1002B00010BD20F00100002900DA0020184310BD15
:1002C0002DE9FE4F804681EA0300C00F0C460090E6
:1002D00021F0004123F00045B8EB0200A94105D20E
:1002E0004046214690461C460B46024623F00040FD
:1002F000104347D0270DC7F30A00C3F30A510290F9
:10030000401A019040286BDAC3F3130040F4801BBD
:100310000098924620B10023D2EB030A63EB0B0B4B
:1003200001985946C0F14002504600F015FA0646C1
:100330000D4650465946019A00F01DFA10EB080090
:100340006141002487EA115284EAE7731A4340D0DE
:10035000009A62B3019A012A4FEA075215DC001B8A
:1003600061EB02014FF0004202EA0752CDE9004280
:10037000001C41F5801132462B4600F054FA03B0C0
:10038000BDE8F08F40462146F9E7001B61EB020112
:10039000001C41F5801300185B412018A2F50017DE
:1003A00047EB030140EAD570B6196D4111E06D08C5
:1003B0004FEA360645EAC0754FEA0752001B61EB6B
:1003C0000201001C41F5801149084FEA3000001974
:1003D000514132462B4603B0BDE8F04F00F014BA4D
:1003E0000098012240000023D0EB020263EBE0738F
:1003F000009821464FEAE074B8EB000061EB04017D
:10040000E9E783F000435BE781F0004158E72DE91D
:10041000FE4F81EA030404F0004421F000410094FF
:100420004FF0000B23F0004350EA01045ED052EA83
:1004300003045BD0C3F30A54C1F30A552C44A4F25D
:10044000F3340194A0FB0254C1F3130141F4801171
:10045000C3F3130343F4801301FB024400FB034E78
:10046000840A970A44EA815447EA8357A4FB076841
:1004700002958D0A05FB07854FEA932C04FB0C546B
:100480002705029D4FEA065847EA1637B5EB0805DF
:100490006EEB070C870E920E47EA811742EA831231
:1004A000A7FB0201B6EB0B0164EB00042B0D43EA42
:1004B0000C335E1844EB1C50DA465146E7FB020150
:1004C000C5F313044FEA0B3343EA14534FEA0432E3
:1004D000019C43EA0603A4F10C040294009CCDE9BC
:1004E00000B400F0A0F903B0BDE8F08F0020014691
:1004F000F9E72DE9F04D81EA030404F0004B21F007
:10050000004514464FF0000A23F0004150EA05026E
:1005100020D054EA01021DD0C5F30A570246C5F3A4
:100520001303C1F31300C1F30A5640F4801543F4DA
:100530008013A7EB0608101BD64608F2FD3873EBB4
:10054000050002D308F1010801E092185B41B8F1FF
:10055000000F03DA00200146BDE8F08D00204FF4C3
:100560008011064684460EE0171B73EB050705D382
:10057000121B63EB050306434CEA010C49084FEAE2
:10058000300092185B4150EA0107EDD152EA0300B6
:1005900012D082EA040083EA0501084305D0101B4B
:1005A000AB4106D20122002306E000224FF00043B7
:1005B00002E06FF0010253101AEB06004CEB0851F9
:1005C00010EB0A0041EB0B01BDE8F04D00F01CB947
:1005D00070B521F0004303430CD0C1F30A55002449
:1005E000D5EB040564EB0403D617AD1AB34102DB67
:1005F0000020014670BD201841EB025170BDC10FB3
:1006000080EAE0700844CA079623002100F0CEB8C3
:1006100096230022114600F0C9B800F0004220F0F5
:100620000040C10DC0F3160040F400007F2901DA3C
:1006300000207047962903DCC1F19601C84001E013
:1006400096398840002AF4D04042704770B5C1F313
:100650000A5201F000450024C1F3130140F2FF33B8
:1006600041F480119A4201DA002070BD40F2334318
:100670009A42A2F2334203DC5242FFF775FD00E0DA
:1006800090402C43F1D0404270BD00F0004230F069
:1006900000400AD0C10D01F56071C0F3160042EAB6
:1006A0000151C208400711437047002001467047BE
:1006B00030B5041E71F1000404DB4FF000444042E9
:1006C00064EB0101141E73F1000405DB1C464FF0BE
:1006D0000043524263EB0403994208BF904230BD8D
:1006E00001F0004330B421F0004150EA010206D08D
:1006F0000A0DA2F56072C1F31301002A02DC30BCBE
:1007000000207047440F44EAC104C100E01830BC27
:1007100000EBC25000F041B8002801DBC0F10040FE
:10072000002901DBC1F100418842704730B50B461A
:10073000014600202022012409E021FA02F59D4211
:1007400005D303FA02F5491B04FA02F52844151EE5
:10075000A2F10102F1DC30BD202A04DB203A00FACC
:1007600002F1002070479140C2F1200320FA03F308
:10077000194390407047202A06DBCB17203A41FAF4
:1007800002F043EAE07306E041FA02F3D040C2F11E
:10079000200291400843194670470029A8BF7047BE
:1007A000401C490008BF20F00100704710B4B0FAA7
:1007B00080FC00FA0CF050EA010404BF10BC704742
:1007C00049B1CCF1200421FA04F411FA0CF118BF5C
:1007D000012121430843A3EB0C01CB1D4FEA00612B
:1007E0004FEA102042BF002010BC704700EBC350FE
:1007F00010440029A4BF10BC7047401C490008BF2A
:1008000020F0010010BC704710B5141E73F10004F5
:1008100008DA401C41F1000192185B411A4301D1F2
:1008200020F0010010BD2DE9F04D92469B4611B11C
:10083000B1FA81F202E0B0FA80F220329046FFF77E
:100840008BFF04460F4640EA0A0041EA0B0153467B
:100850005A46084313D0114653EA010019D0C8F193
:1008600040025046FFF780FC05460E46504659466A
:100870004246FFF771FF084305D0012004E02046FF
:100880003946BDE8F08D0020054346EAE0762C436A
:1008900037430A986305E40AA0EB08000022FD0A2A
:1008A00044EA47540A3002D500200146E9E7010531
:1008B00010196941DDE9084500196941BDE8F04DAD
:1008C000A2E70000064C074D06E0E06840F0010397
:1008D00094E8070098471034AC42F6D3FFF72CFC9D
:1008E0003425000854250008FEE770472DE9F05F25
:1008F00090F821100024022903D0042181630124EF
:1009000085E001680A6822F00E020A6001680A6840
:1009100022F001020A603F4E3E4FB215DFF8F4C0EC
:10092000DFF8F090DFF8ECA0DFF8E8B0DFF8E4E003
:100930000168783F13011502ACF1640CA9F150096C
:10094000AAF13C0AABF1280BAEF1140E4FF480185B
:10095000B14227D9B9420ED0614512D049451DD0C8
:10096000514518D0594518D0714501D1424615E07E
:10097000294EB14201D1012210E0274E1436B14276
:1009800001D110220AE0244E2836B14206D0224A74
:100990003C32914201D11A4600E02A461E49091F05
:1009A0000A602BE0B94213D0614517D0494522D0E7
:1009B00051451DD059451DD0714501D142461AE01F
:1009C000B14202D14FF0807215E0134EB14201D115
:1009D000012210E0104E1436B14201D110220AE07B
:1009E0000D4E2836B14206D00B4A3C32914201D11D
:1009F0001A4600E02A46074980394A60012180F8FA
:100A00002110002180F82010416B01B18847204659
:100A1000BDE8F09F80000240080402402DE9F84F35
:100A2000DFF8C891002409F1040A0AF1040B2346F7
:100A30000F270BF1040ED1E00125A54006EA0502BF
:100A4000AA4276D1DFF8A8C14E68A6EB0C0866452D
:100A50002BD00DDC032E34D005DC36B3012E19D09B
:100A6000022E2FD11BE0112E16D0122E2AD119E002
:100A7000B8F5881F19D006DCB8F5803F15D0B8F559
:100A8000801F1FD111E0B8F5001F0ED0B8F5041F6C
:100A900018D10AE0CB6815E0CB681B1D12E0CB68CB
:100AA00008330FE0CB680C330CE08B682BB1012BC3
:100AB0004FF0080303D0456104E0042302E0056120
:100AC00000E00023FF2A01D8064601E000F10406F9
:100AD0004FEA840501D9A5F12005D6F8008007FA70
:100AE00005FC28EA0C0803FA05F548EA0508C6F8EB
:100AF00000804D68ED0070D53E4DAE6946F00106B0
:100B0000AE61AD6924F0030605F0010500953A4D8C
:100B100006EB050CDCF80850A607360F07FA06F8B6
:100B200025EA0805DFF8D480404503D14FF00008DE
:100B300025E052E0DFF8C880404502D14FF00108BF
:100B40001DE0DFF8C080404502D14FF0020816E0FA
:100B5000DFF8B480404502D14FF003080FE0DFF822
:100B6000AC80404502D14FF0040808E0DFF8A080D7
:100B7000404502D14FF0050801E04FF0060808FAA1
:100B800006F848EA0508CCF808804D68D9F80060F6
:100B9000ED034D4601D5164300E096432E604D68A7
:100BA000DAF80060AD03554601D5164300E09643E0
:100BB0002E604D68DBF80060ED025D4601D51643FE
:100BC00000E096432E604D68DEF80060AD02754689
:100BD00001D5164300E096432E60641C0A68164651
:100BE000E2407FF429AFBDE8F88F00000004014027
:100BF00000001110001002400000014000080140F8
:100C0000000C014000100140001401400018014098
:100C1000001C01400AB1016170470904FBE70000B4
:100C20000148806870470000100000200248816879
:100C3000027811448160704710000020074810B509
:100C4000016841F010010160032000F075F80020F8
:100C500000F006F800F024F8002010BD002002404B
:100C600070B50D4D04464FF47A712878B1FBF0F061
:100C70000A490968B1FBF0F000F0ECFA48B9102C11
:100C800007D200222146501E00F036F800206C608A
:100C900070BD012070BD0000100000201C0000206D
:100CA0000C4808B5816941F001018161816901F059
:100CB00001010091C16941F08051C161C06900F03A
:100CC000805000900448416821F0E06141F080616B
:100CD000416008BD0010024000000140002809DB0F
:100CE00000F01F02012191404009800000F1E02046
:100CF000C0F8001170470000F0B40E4B1B680C46A2
:100D0000C3F30223C3F10705042D00D90425191DDF
:100D1000072901D2002300E0DB1E012606FA05F1B7
:100D2000491E214099409E40761E16403143F0BC3A
:100D300001F07ABA0CED00E0064900F007020868FD
:100D40004FF6FF03184040EA0220034A10430860B0
:100D5000704700000CED00E00000FA052DE9F047B7
:100D60000F46050061D0434E306800F00700B842DE
:100D700009D2306820F0070038433060306800F056
:100D80000700B84251D128683B4C810712D5400773
:100D900003D5606840F4E06060602878000703D500
:100DA000606840F4605060606068A96820F0F000FE
:100DB000084360602878C00728D06868012810D0F0
:100DC0002168022810D0890700292EDA616821F0F5
:100DD000030101436160FFF723FF804641F2883938
:100DE0000DE021688903EFE78901EDE7FFF718FFC0
:100DF000A0EB0801494502D90320BDE8F0876068EF
:100E0000696800F00C00B0EB810FEFD1306800F0A2
:100E10000700B8420BD9306820F007003843306033
:100E2000306800F00700B84201D00120E5E72878DB
:100E3000400705D56068E96820F4E0600843606019
:100E40002878000706D56068296920F4605040EAD8
:100E5000C100606000F038F86168084AC1F303110E
:100E6000515CC8400649086006480068FFF7F8FE74
:100E70000020C2E700200240001002401C250008AC
:100E80001C0000201400002004480549006849683F
:100E9000044AC1F30221515CC84070471C00002085
:100EA000001002402C2500080448054900684968E4
:100EB000044AC1F3C221515CC84070471C000020A5
:100EC000001002402C25000812A185B00FC98DE842
:100ED0000F0014A0144A006804905168134801F0F0
:100EE0000C03042B10D0082B0ED1C1F38343C9038C
:100EF0001DF803000AD5516804AAC1F34041515CB2
:100F00000A4A5043B0FBF1F005B070470849484326
:100F1000FAE7000002030405060708090A0B0C0D96
:100F20000E0F1010010200000010024000127A00A3
:100F300000093D002DE9F84F040070D02078C04D25
:100F4000C00749D06868C0F38100012807D06868ED
:100F5000C0F38100022809D16868C00306D528685B
:100F6000800339D560680028E7D035E06068B0F5C7
:100F7000803F0BD010B1B0F5A02F11D0286820F41D
:100F800080302860286820F4802002E0286840F43F
:100F900080302860606890B1FFF742FE06460AE0A4
:100FA000286840F480202860F0E700BFFFF738FE93
:100FB000801B642873D828688003F7D50CE0FFF7FE
:100FC0002FFE064605E000BFFFF72AFE801B6428BF
:100FD000F0D828688003F7D420789A4E80074FF025
:100FE00001094FF0000839D5686810F00C0F07D0E0
:100FF0006868C0F38100022809D16868C00306D47C
:101000002868800714D52069012808D110E02069DC
:10101000B0B1C6F80090FFF703FE074605E00AE10D
:10102000FFF7FEFDC01B0228C4D828688007F7D54B
:101030002868616920F0F80040EAC10028600DE0EE
:10104000C6F80080FFF7ECFD074604E0FFF7E8FD77
:10105000C01B022823D828688007F7D4207800070F
:101060002CD57948A169D9B1C0F80090FFF7D8FD17
:10107000074604E0FFF7D4FDC01B02280FD8686ABA
:101080008007F7D571484FF4FA510068B0FBF1F0D2
:10109000009000BF0098411E0091FAD20EE080E05F
:1010A000C0F80080FFF7BCFD074604E0FFF7B8FD7D
:1010B000C01B022875D8686A8007F7D420784007DB
:1010C00060D5E8690027C00008D4E86940F0805086
:1010D000E861E869012700F0805000905C480168F1
:1010E000C90513D40168834641F480710160FFF79C
:1010F00097FD824606E000BFFFF792FDA0EB0A00D5
:1011000064284ED8DBF80000C005F5D5E06801285A
:101110000AD008B1052813D0286A20F001002862FF
:10112000286A20F0040002E0286A40F001002862EA
:10113000E06841F2883B98B1FFF772FD82460BE010
:10114000286A40F004002862EEE700BFFFF768FD60
:10115000A0EB0A0159455AD8286A8007F6D50CE059
:10116000FFF75EFD824605E0FFF75AFDA0EB0A019E
:1011700059454CD8286A8007F6D41FB1E86920F099
:101180008050E861E06988B36968C1F38101022990
:1011900044D00228C6F8608004D0FFF741FD044621
:1011A00038E034E0FFF73CFD074604E0FFF738FD88
:1011B000C01B02282BD828688001F7D4206AB0F51C
:1011C000803F05D16868A16820F40030084368605A
:1011D000D4E908010843696821F474110843686080
:1011E000C6F86090FFF71CFD044606E025E000BF4E
:1011F000FFF716FD001B022809D828688001F7D5E3
:101200001BE000BFFFF70CFD001B022802D90320E2
:10121000BDE8F88F28688001F4D40EE00128F7D0EB
:101220006868226A00F48031914204D1616A00F456
:101230007010884201D00120EAE70020E8E70000B2
:101240000010024000004242800442421C00002084
:101250000070004010B5401EB0F1807F01D3012026
:1012600010BD4FF0E02460610F21601700F0DCFF3B
:101270000020A06107202061002010BD70B590F80B
:101280003C20012A19D0012400F83C4F0222427070
:1012900050F83C3C5A689D6822F070060A6849681C
:1012A000324325F0800529435A6050F83C2C916068
:1012B000447000210170084670BD022070BD10B559
:1012C000040003D094F83D0010B107E0012010BDE8
:1012D000002084F83C00204600F00CF8022084F83E
:1012E0003D00211D206800F029FD012084F83D000B
:1012F000002010BD08B500680649884208D106489C
:10130000C16941F00201C161C06900F002000090B2
:1013100008BD00000004004000100240022180F8D7
:101320003D1001688A6802F00702062A03D00A68A5
:1013300042F001020A60012180F83D100020704750
:10134000022180F83D1001680A6A41F211131A4225
:1013500007D10A6A9B101A4203D10A6822F00102DF
:101360000A60012180F83D100020704770B50446E6
:1013700090F83C00012817D0012584F83C50022049
:1013800084F83D002068826822F0770222F47F42D0
:1013900082600868502830D00DDC20284DD005DC54
:1013A00098B310283BD148E0022070BD302844D0CB
:1013B000402834D139E0602828D0702806D0B0F514
:1013C000805F2CD0B0F5005F29D10AE0CB68D1E96D
:1013D0000121206800F0F8FC2068816841F0770165
:1013E00009E0CB68D1E90121206800F0EDFC20681C
:1013F000816841F48041816011E0CA6849682068D1
:1014000000F0B6FD5021206807E016E0CA68496880
:10141000206800F0BEFD6021206800F0DFFC84F849
:101420003D50002084F83C0070BDCA6849682068BF
:1014300000F09EFD40212068EFE72268014610463B
:10144000EBE770B5044690F83C0001280DD001256B
:1014500084F83C50022084F83D0042B1042A0AD0AE
:10146000082A0CD00C2A11D10DE0022070BD206892
:1014700000F0BCFC0AE0206800F0E8FC06E0206810
:1014800000F01AFD02E0206800F04AFD84F83D50AB
:10149000002084F83C0070BD10B5040003D094F81F
:1014A0003D0010B107E0012010BD002084F83C0091
:1014B000204600F00CF8022084F83D00211D206831
:1014C00000F03CFC012084F83D00002010BD704776
:1014D0007047000070B5026804461068D16853690F
:1014E00010F00F0F51D003F0010501F49076354351
:1014F0005DD0C20705D0CA0503D5E26B42F00102F8
:10150000E263420705D5DA0703D0E26B42F002023C
:10151000E263820705D5DA0703D0E26B42F00402EA
:10152000E263020705D5DA0703D0E26B42F0080256
:10153000E263E26B002A34D0800604D5880602D527
:10154000204600F04EFD20684069E16BC0F380103A
:1015500001F008010143204624D000F034FD20684A
:10156000416949061AD5416921F040014161606B2A
:10157000A0B11B494163606BFFF7B8F9002810D098
:10158000606B416BBDE87040084783060FD58B0642
:101590000DD52046BDE8704000F023BD2046FFF782
:1015A00097FF70BDFFF794FF0020E06370BD030656
:1015B00006D50B0604D52046BDE8704000F0B8BD46
:1015C0004006F3D54806F1D5D168204621F0400108
:1015D000D160202184F8391000F033F970BD00008B
:1015E000B71F000870B5040004D094F83900002536
:1015F00010B106E0012070BD84F83850204600F09C
:1016000023F8242084F839002068C16821F40051AF
:10161000C160204600F030FD2068016921F490414E
:1016200001612068416921F02A0141612068C16897
:1016300041F40051C160E563202084F8390084F84A
:101640003A00002070BD000070B586B00024009400
:101650000194029403942B4E03682B490220032229
:101660002A4DB34221D18B6943F480438B618B694E
:1016700003F4804304938B6943F004038B6189690D
:10168000039201F0040104910102CDE900106946C2
:101690002846FFF7C3F92815CDE900046946284616
:1016A0000294FFF7BBF906B070BD194EB342FAD1F0
:1016B000CB6943F40033CB61CB6903F4003304936B
:1016C0008B6943F004038B618969039201F0040183
:1016D00004910421CDE9001069462846FFF79EF9E0
:1016E0000820CDE90004694628460294FFF796F9E0
:1016F000002211462620FFF7FFFA2620FFF7EEFA18
:10170000D1E700000038014000100240000801400D
:101710000044004090F83A30202B22D1F9B1F2B1C8
:1017200090F83830012B1CD081628285C28500215F
:10173000C163222280F83A2080F838100168CA6814
:1017400042F48072CA6001684A6942F001024A614B
:101750000068C16841F02001C1600020704701208D
:101760007047022070470000054810B5007800F06F
:101770007DF9BDE81040012201490248FFF7CABFC8
:1017800000000020B40000202DE9F843044690F842
:1017900039001F4616460D46202850D1A5B19EB1EE
:1017A00094F8380001284AD0012084F838004FF01E
:1017B0000008C4F83C80212084F83900FFF730FA93
:1017C000A6848146E68426E00120BDE8F883E08C0B
:1017D000401EE084A0684B46B0F5805F4FF00002E9
:1017E0004FF080012046009703D000F0D2FCE8B90A
:1017F0000DE000F0CEFCC8B928882168C0F30800CD
:101800004860206908B16D1C05E0AD1C03E021684B
:1018100015F8010B4860E08C0028D8D14B46002217
:1018200040212046009700F0B4FC08B10320CCE72B
:10183000202084F8390084F838800020C5E7022091
:10184000C3E77047FEE7000010B586B000200090A7
:101850000190029003901648816941F02001816156
:10186000816901F020010491816941F010018161D9
:10187000816901F010010491816941F004018161E5
:1018800080690C4C00F004000490002205212046E1
:10189000FFF7C0F90520009001200190022002907E
:1018A0000320039069462046FFF7B8F806B010BD44
:1018B000001002400010014010B58EB000240794C3
:1018C000089409940A940B941C2168460C94FEF722
:1018D00062FC1548134901604721C0E90114012148
:1018E000C0E9031480218161FFF7E9FC4FF48050C7
:1018F000079007A90C48FFF739FD0B48FFF7CCFD0F
:101900000B940BA908480C94FFF7B8FC00940194C1
:1019100002940022694604480494FFF792FD0EB039
:1019200010BD00000004004034000020FEE77047B6
:101930002DE9F04704468160C0692062A069E0613A
:101940006068FEF785FCA061B0F5000F0ADA80F050
:101950000040616BFEF7E0FE01D2012000E00020B4
:10196000FEF756FE10F0FF4F04D0207828B1012872
:1019700023D055E0206BBDE8F087A569E0682946D3
:10198000FEF76CFC606229462069FEF767FCA16ADD
:10199000FEF70CFC2749A062884200DD0846264974
:1019A000A062884200D90846A0622846E169FEF795
:1019B0004FFC6169FEF752FC31E0D4E906952946F7
:1019C0004846FEF745FCE168FEF748FC6062494680
:1019D0002069FEF743FCA062206AFEF756FE064629
:1019E00088462846FEF751FE0122FEF7F1FD074624
:1019F0000D464846FEF749FE3A462B46FEF701FDE6
:101A000032464346FEF75CFC06460D466069FEF72B
:101A10003CFE32462B46FEF7FAFCFEF761FEE06222
:101A2000D4E90901FEF7C2FBE16AFEF7BFFB2063C0
:101A3000A1E7000000003442000034C22DE9F04765
:101A40000746DDE908891C4615460E46382000F099
:101A50002FFD0770C0F83490C0F814800021466054
:101A60008162C0E90354BDE8F087704770B51B4C34
:101A7000002521461A4E097863684A1CD2B233B158
:101A8000012B08D0022B10D0032B15D005E01D2808
:101A900003D1012305E0D12802D0656025700EE056
:101AA000022363607054227070BD70542270072A44
:101AB000FAD30320606070BDED2806D06560BDE8F4
:101AC000704080210648FEF766BB705422700448BF
:101AD00000F008F86560257070BD0000200000204F
:101AE000F400002010B5174C024681782068FF29C9
:101AF00004D03F2904D00F2904D005E0002102E0E2
:101B0000012100E00221017032F8031F49BA09B235
:101B10004180528852BA82800BA000F075FB206889
:101B2000B0F90200FEF76BFD014608480068FFF7B8
:101B3000FFFEFEF772FD014605480068BDE8104053
:101B400000F009B80400002025640A000800002005
:101B50000C000020704710B50446002905DB08463C
:101B6000FEF74DFD0146012205E04842FEF747FD24
:101B700001464FF0FF322046BDE8104000F012B899
:101B80002DE9F04107461C4615460E46102000F090
:101B90008FFC07600681456044810021C160BDE87B
:101BA000F08100002DE9F05F044616460846FEF776
:101BB0006CFD384F8B468246354B3A46FEF799FC12
:101BC0000322FEF705FD002289460546B846134666
:101BD000FEF76EFD02D22846494608E050465946B7
:101BE00042462D4BFEF785FC0322FEF7F1FCFEF783
:101BF0002DFDDFF8A89005464FF47A77012E22D00C
:101C0000761C42D0BDE8F09FE068FEF73EFD4246FC
:101C10004B46FEF755FBFEF763FDE060618900224D
:101C20006068FEF7F7FF218901222068FEF7F2FFC6
:101C3000384600F0CFFB218900222068FEF7EAFF3A
:101C4000384600F0C7FB6D1EDED2DBE7E068FEF72A
:101C50001CFD42464B46FEF7D4FBFEF741FDE0601B
:101C6000618901226068FEF7D5FF21890122206881
:101C7000FEF7D0FF384600F0ADFB21890022206836
:101C8000FEF7C8FF384600F0A5FB6D1EDED2B9E7AF
:101C9000CCCCFC3FCDCCCCCCCCCCFCBFCCCCCC3F4A
:101CA000FEF7C4BF30B58FB028216846FEF773FA3F
:101CB00014210AA8FEF76FFA01210804CDE90010EB
:101CC0000024029402250491CDE907504FF4E0105E
:101CD00009906846FFF72EF90F20CDE90A05680242
:101CE000CDE90C4002210AA80E94FFF737F80FB097
:101CF00030BD00000D48016841F0010101604168FC
:101D00000B4A1140416001680A4A114001600168B4
:101D100021F480210160416821F4FE0141604FF40B
:101D20001F0181600449C003086070470010024031
:101D30000000FFF8FFFFF6FE08ED00E0F0B50268D6
:101D40001C4B1D4D1D4E1E4F1E4C4FF0804C98429B
:101D500009D0A04207D0604505D0A84203D0B042C8
:101D600001D0B84204D122F0700E4A6842EA0E0255
:101D7000984209D0A04207D0604505D0A84203D0C0
:101D8000B04201D0B84203D122F44075CA682A4358
:101D90004D6922F080022A4302608A68C2620A68A2
:101DA0008262984201D0A04201D1096901630121F8
:101DB0004161F0BD002C01400004004000080040DB
:101DC000000C00400034014010B5846842EA032250
:101DD00024F47F440A432243826010BD826822F0CB
:101DE00070020A4342F0070181607047F0B5026A51
:101DF00022F001020262036A42688469124E24F0F2
:101E000073050C682C4323F002058B682B430D4DA2
:101E1000A84201D0B04205D123F00807CB683B436C
:101E200023F00403A84201D0B04205D14D6922F449
:101E3000407215438A692A4342608461496841635C
:101E40000362F0BD002C014000340140F0B5026A8D
:101E500022F010020262026A436884690D6824F469
:101E6000E64444EA05248D6822F0200242EA051285
:101E70000F4D104EA84201D0B04206D1CF6822F0DB
:101E8000800242EA071222F04002A84201D0B0428A
:101E900007D14D6923F4406343EA85038D6943EA22
:101EA000850343608461496881630262F0BD00007C
:101EB000002C014000340140F0B5026A22F4807227
:101EC0000262026A4368C46922F4007224F0730556
:101ED0000C68124E2C438D6842EA05220E4DA84232
:101EE00001D0B04206D1CF6822F4006242EA072254
:101EF00022F48062A84201D0B04207D14D6923F498
:101F0000405343EA05138D6943EA05134360C461F6
:101F10004968C1630262F0BD002C014000340140F9
:101F200030B5026A22F480520262046A4268C369D0
:101F30000D6823F4E64343EA05238D6824F4005436
:101F400044EA0534084DA84202D0084DA84204D105
:101F50004D6922F4804242EA85124260C3614968B9
:101F60000164046230BD0000002C014000340140D7
:101F700010B5036A046A24F001040462846924F041
:101F8000F00444EA021423F00A020A438461026264
:101F900010BD10B5036A23F0100303628369046A5D
:101FA00023F4704343EA023224F0A00343EA011110
:101FB0008261016210BD10B5406A0021C185C184F3
:101FC000FFF786FA10BD0168CA6822F49072CA60F1
:101FD00001684A6922F001024A61202180F83A1022
:101FE000704710B590F83A10222901D0022010BD98
:101FF0008168B1F5805F11D00169002901681FD0A7
:10200000496801F07F03816A4A1C82620B70C18DAE
:10201000491E0904090CC18518D02BE00269816AA8
:10202000002A0268526805D0D2B20A80816A491C2F
:102030008162ECE7C2F308020A80816A891CF7E733
:102040004A68816A4B1C83620A70E0E70168CA68CB
:1020500022F02002CA600168CA6822F48072CA6055
:1020600001684A6922F001024A61202180F83A1091
:10207000FFF77AFB002010BD2DE9F041044600680F
:102080000169E26821F44051114301612169A068AE
:102090000843616908432168CA6841F20C639A43A6
:1020A0000243CA6020684169A26921F4407111436A
:1020B00041611E49206864253226884202D1FEF71C
:1020C000F3FE01E0FEF7E0FE00EBC00101EB0011C2
:1020D00060686FF018078000B1FBF0F2B2FBF5F218
:1020E000B1FBF0F37A4303EB8202B1FBF0F306EBB2
:1020F0000212B2FBF5F2B3FBF5F302F0F00202EBD1
:102100000312B1FBF0F3B1FBF0F0B0FBF5F0784354
:1021100003EB800006EB0010B0FBF5F0216800F047
:102120000F0010448860BDE8F081000000380140D5
:1021300090F83910212901D0022070478168B1F54B
:10214000805F016A0BD04A1C026202680978516004
:10215000C18C491E0904090CC1840ED017E00988FE
:102160000268C1F30801516001690029016A02D0C7
:10217000491C0162ECE7891CFBE70168CA6822F090
:102180008002CA600068C16841F04001C16000205F
:1021900070472DE9F041984617460E460446069DC5
:1021A0001DE0681C1BD02DB1FEF73AFDA0EB080026
:1021B000A84214D92068C16821F4D071C160206898
:1021C000416921F001014161202084F8390084F83F
:1021D0003A00002084F838000320BDE8F081206830
:1021E000006836EA000004D00020B842D9D00020B0
:1021F000F3E70120F9E700000148FFF76BB90000A1
:10220000B4000020FEE700000FB4054B10B503A991
:10221000044A029800F028F810BC5DF814FB000096
:10222000BD230008280000200907090E002804DB50
:1022300000F1E02080F80014704700F00F0000F17A
:10224000E02080F8141D704702E008C8121F08C182
:10225000002AFAD170477047002001E001C1121F27
:10226000002AFBD1704700002DE9FF4F89B09B4643
:102270000446002506E025280BD05A460B999047C6
:10228000641C6D1C20780028F5D10DB02846BDE8EF
:10229000F08F0027B8460122474900E0074314F8B1
:1022A000013F203B02FA03F00842F7D120782E28A4
:1022B00019D114F8010F47F004072A280ED06FF047
:1022C0002F022078A0F1300109290CD808EB8801F1
:1022D00002EB410100EB0108641CF2E70A98641C60
:1022E00050F8048B0A9020780028CED0642808D0BB
:1022F000692806D075281ED05A460B9990476D1C48
:1023000058E00A994FF00A0901C90A91002802DA37
:1023100040422D2102E0390504D52B218DF82010F3
:10232000012103E0F90704D02021F7E78A4608AE2F
:102330000DE00021FAE70A994FF00A0901C90A9154
:10234000F7E74946FEF7F2F9303106F8011D00289B
:10235000F7D1ADEB060000F12009780701D44FF06A
:102360000108C84502DDA8EB090000E00020804616
:10237000002706E008A85A46C05D0B9990476D1CDF
:102380007F1C5745F6DB04E030205A460B999047F6
:102390006D1CB8F10001A8F10108F5DC05E016F8A4
:1023A000010B5A460B9990476D1CB9F10001A9F138
:1023B0000109F4DC641C65E70928010013B54FF638
:1023C000FF73012269460248FFF7DEF900981CBD41
:1023D0007400002070B54FF6FA75281A84B20848C8
:1023E000FEF79CFF064801684C62006801E0416A04
:1023F0008CB2AC42FBD3BDE870400148FEF7A0BFF1
:10240000340000201CB5FEF719FC204801230246C9
:102410000421FFF7B5FB1E4CE060062000F048F8F1
:102420001C4960601C48CDE9000100211B4B1C4A7F
:102430000846FFF703FBA060FFF734FCFFF704FA40
:10244000194818494FF4E13500240160C0E90154EE
:102450000C26C460C0E904468461C461FFF7C2F879
:10246000FFF72AFA1048114940380160C0E90154C9
:10247000C460C0E904468461C461FFF7B3F8012277
:1024800003490948FFF746F9FEE700000010014044
:1024900000000020000040400AD7A33C6F12033C1C
:1024A000CDCC4C3E00440040B40000200038014038
:1024B000F0B50B30154D20F007010024144A0FE051
:1024C00003688B420BD38B4205D95E1A43184768C9
:1024D000C3E9006700E04368136002C004E0021D26
:1024E00010680028ECD12046002802D1286808B1E5
:1024F0000020F0BD064A07481060074A121A22F071
:102500000702C0E9002401202860D7E7300000203E
:102510002C0000207C010020780300200000000037
:102520000000000001020304060708090000000083
:1025300001020304542500080000002034000000BC
:1025400048220008882500083400002044070000C5
:1025500058220008000000000000000000000000F9
:10256000000000000100000010000000000000005A
:102570000024F40000000000000000000000000043
:08258000000000000000000053
:0400000508000131BD
:00000001FF
