:020000040800F2
:10000000500B002045010008991E00081D1D000826
:10001000751E0008E90800081D2A000800000000FD
:100020000000000000000000000000003D22000869
:10003000EB080008000000003F200008B924000879
:100040005F0100085F0100085F0100085F01000810
:100050005F0100085F0100085F0100085F01000800
:100060005F0100085F0100085F0100085F010008F0
:100070005F0100085F0100085F0100085F010008E0
:100080005F0100085F0100085F0100085F010008D0
:100090005F0100085F0100085F0100085F010008C0
:1000A0005F0100085F0100085F0100085F010008B0
:1000B0005F0100085F0100085F0100085F010008A0
:1000C0005F0100085F0100085F0100085F01000890
:1000D0005F0100085F010008112A00085F010008A5
:1000E0005F0100085F0100085F0100085F01000870
:1000F0005F0100085F0100085F0100085F01000860
:100100005F0100085F0100085F0100085F0100084F
:100110005F0100085F0100085F0100085F0100083F
:100120005F0100085F0100085F0100085F0100082F
:10013000DFF80CD000F0C6FB004800476D2C00082B
:10014000500B00200648804706480047FEE7FEE7C0
:10015000FEE7FEE7FEE7FEE7FEE7FEE7FEE7FEE777
:100160000D25000831010008202A04DB203A21FA7D
:1001700002F00021704721FA02F3D040C2F12002C0
:100180009140084319467047D2B201E000F8012BB4
:10019000491EFBD270470022F6E710B513460A4607
:1001A00004461946FFF7F0FF204610BDF0B480EA80
:1001B0000102D40F4200B2EB410F02D202460846C0
:1001C00011464A0042D0C30DDDB2C1F3C752AD1A89
:1001D000202D35DAC1F3160141F4000204B1524278
:1001E000C5F1200602FA06F12A411044B3EBD05FB4
:1001F00023D0C4B1012DA0EBC35009DCF0BC4FF0FB
:10020000004202EAC352DBB200F5000000F0CEBAB1
:10021000400000F1807000EBC350A0F1807040EA14
:10022000D170490009E0490841EAC071A0EBC35010
:1002300000F50000400800EBC350F0BC00F0ADBA80
:100240006142012202EB4101001BF6E7F0BC70475E
:1002500081F00041AAE780F00040A7E780EA0102B0
:1002600010B502F00043400022D04A001FD0010E1A
:1002700001EB1261C0F35600C2F3560240F40000D5
:1002800042F40002A0FB022000047F39140400D0D5
:10029000401C50EA124001D44000491EC2B20C0674
:1002A00004EBD010401C4008802A02D003E000205C
:1002B00010BD20F00100002900DA0020184310BD15
:1002C0002DE9FE4F804681EA0300C00F0C460090E6
:1002D00021F0004123F00045B8EB0200A94105D20E
:1002E0004046214690461C460B46024623F00040FD
:1002F000104347D0270DC7F30A00C3F30A510290F9
:10030000401A019040286BDAC3F3130040F4801BBD
:100310000098924620B10023D2EB030A63EB0B0B4B
:1003200001985946C0F14002504600F015FA0646C1
:100330000D4650465946019A00F01DFA10EB080090
:100340006141002487EA115284EAE7731A4340D0DE
:10035000009A62B3019A012A4FEA075215DC001B8A
:1003600061EB02014FF0004202EA0752CDE9004280
:10037000001C41F5801132462B4600F054FA03B0C0
:10038000BDE8F08F40462146F9E7001B61EB020112
:10039000001C41F5801300185B412018A2F50017DE
:1003A00047EB030140EAD570B6196D4111E06D08C5
:1003B0004FEA360645EAC0754FEA0752001B61EB6B
:1003C0000201001C41F5801149084FEA3000001974
:1003D000514132462B4603B0BDE8F04F00F014BA4D
:1003E0000098012240000023D0EB020263EBE0738F
:1003F000009821464FEAE074B8EB000061EB04017D
:10040000E9E783F000435BE781F0004158E72DE91D
:10041000FE4F81EA030404F0004421F000410094FF
:100420004FF0000B23F0004350EA01045ED052EA83
:1004300003045BD0C3F30A54C1F30A552C44A4F25D
:10044000F3340194A0FB0254C1F3130141F4801171
:10045000C3F3130343F4801301FB024400FB034E78
:10046000840A970A44EA815447EA8357A4FB076841
:1004700002958D0A05FB07854FEA932C04FB0C546B
:100480002705029D4FEA065847EA1637B5EB0805DF
:100490006EEB070C870E920E47EA811742EA831231
:1004A000A7FB0201B6EB0B0164EB00042B0D43EA42
:1004B0000C335E1844EB1C50DA465146E7FB020150
:1004C000C5F313044FEA0B3343EA14534FEA0432E3
:1004D000019C43EA0603A4F10C040294009CCDE9BC
:1004E00000B400F0A0F903B0BDE8F08F0020014691
:1004F000F9E72DE9F04D81EA030404F0004B21F007
:10050000004514464FF0000A23F0004150EA05026E
:1005100020D054EA01021DD0C5F30A570246C5F3A4
:100520001303C1F31300C1F30A5640F4801543F4DA
:100530008013A7EB0608101BD64608F2FD3873EBB4
:10054000050002D308F1010801E092185B41B8F1FF
:10055000000F03DA00200146BDE8F08D00204FF4C3
:100560008011064684460EE0171B73EB050705D382
:10057000121B63EB050306434CEA010C49084FEAE2
:10058000300092185B4150EA0107EDD152EA0300B6
:1005900012D082EA040083EA0501084305D0101B4B
:1005A000AB4106D20122002306E000224FF00043B7
:1005B00002E06FF0010253101AEB06004CEB0851F9
:1005C00010EB0A0041EB0B01BDE8F04D00F01CB947
:1005D00070B521F0004303430CD0C1F30A55002449
:1005E000D5EB040564EB0403D617AD1AB34102DB67
:1005F0000020014670BD201841EB025170BDC10FB3
:1006000080EAE0700844CA079623002100F0CEB8C3
:1006100096230022114600F0C9B800F0004220F0F5
:100620000040C10DC0F3160040F400007F2901DA3C
:1006300000207047962903DCC1F19601C84001E013
:1006400096398840002AF4D04042704770B5C1F313
:100650000A5201F000450024C1F3130140F2FF33B8
:1006600041F480119A4201DA002070BD40F2334318
:100670009A42A2F2334203DC5242FFF775FD00E0DA
:1006800090402C43F1D0404270BD00F0004230F069
:1006900000400AD0C10D01F56071C0F3160042EAB6
:1006A0000151C208400711437047002001467047BE
:1006B00030B5041E71F1000404DB4FF000444042E9
:1006C00064EB0101141E73F1000405DB1C464FF0BE
:1006D0000043524263EB0403994208BF904230BD8D
:1006E00001F0004330B421F0004150EA010206D08D
:1006F0000A0DA2F56072C1F31301002A02DC30BCBE
:1007000000207047440F44EAC104C100E01830BC27
:1007100000EBC25000F041B8002801DBC0F10040FE
:10072000002901DBC1F100418842704730B50B461A
:10073000014600202022012409E021FA02F59D4211
:1007400005D303FA02F5491B04FA02F52844151EE5
:10075000A2F10102F1DC30BD202A04DB203A00FACC
:1007600002F1002070479140C2F1200320FA03F308
:10077000194390407047202A06DBCB17203A41FAF4
:1007800002F043EAE07306E041FA02F3D040C2F11E
:10079000200291400843194670470029A8BF7047BE
:1007A000401C490008BF20F00100704710B4B0FAA7
:1007B00080FC00FA0CF050EA010404BF10BC704742
:1007C00049B1CCF1200421FA04F411FA0CF118BF5C
:1007D000012121430843A3EB0C01CB1D4FEA00612B
:1007E0004FEA102042BF002010BC704700EBC350FE
:1007F00010440029A4BF10BC7047401C490008BF2A
:1008000020F0010010BC704710B5141E73F10004F5
:1008100008DA401C41F1000192185B411A4301D1F2
:1008200020F0010010BD2DE9F04D92469B4611B11C
:10083000B1FA81F202E0B0FA80F220329046FFF77E
:100840008BFF04460F4640EA0A0041EA0B0153467B
:100850005A46084313D0114653EA010019D0C8F193
:1008600040025046FFF780FC05460E46504659466A
:100870004246FFF771FF084305D0012004E02046FF
:100880003946BDE8F08D0020054346EAE0762C436A
:1008900037430A986305E40AA0EB08000022FD0A2A
:1008A00044EA47540A3002D500200146E9E7010531
:1008B00010196941DDE9084500196941BDE8F04DAD
:1008C000A2E70000064C074D06E0E06840F0010397
:1008D00094E8070098471034AC42F6D3FFF72CFC9D
:1008E000A0350008C0350008FEE77047FEB5054694
:1008F00000228321132002F093F840F2622002F0DC
:100900009DF940208DF8040000208DF8080018485B
:10091000006A802802D1C0208DF80400002001F078
:10092000ABFA4FF6FF763346012201A9104800F0DA
:100930005DFD4B2002F082F900244FF461772A1903
:10094000012302A90A48009600F0FEFD285D00F090
:100950003F0028550A2002F071F9641CBC42EEDB0E
:10096000012001F089FA042002F068F9FEBD0000C0
:10097000340000202DE9F05F90F8211000240229B6
:1009800003D004218163012485E001680A6822F014
:100990000E020A6001680A6822F001020A603F4EF6
:1009A0003E4FB215DFF8F4C0DFF8F090DFF8ECA0AE
:1009B000DFF8E8B0DFF8E4E00168783F13011502E2
:1009C000ACF1640CA9F15009AAF13C0AABF1280B77
:1009D000AEF1140E4FF48018B14227D9B9420ED0AF
:1009E000614512D049451DD0514518D0594518D000
:1009F000714501D1424615E0294EB14201D1012293
:100A000010E0274E1436B14201D110220AE0244EE4
:100A10002836B14206D0224A3C32914201D11A46D0
:100A200000E02A461E49091F0A602BE0B94213D094
:100A3000614517D0494522D051451DD059451DD09B
:100A4000714501D142461AE0B14202D14FF08072A5
:100A500015E0134EB14201D1012210E0104E1436C0
:100A6000B14201D110220AE00D4E2836B14206D023
:100A70000B4A3C32914201D11A4600E02A4607490E
:100A800080394A60012180F82110002180F820106F
:100A9000416B01B188472046BDE8F09F80000240CD
:100AA0000804024070B5044600F010F90546601CC9
:100AB00002D004480078044400F008F9401BA0422A
:100AC000FAD370BD100000202DE9F84FDFF8C8916F
:100AD000002409F1040A0AF1040B23460F270BF145
:100AE000040ED1E00125A54006EA0502AA4276D10E
:100AF000DFF8A8C14E68A6EB0C0866452BD00DDCCC
:100B0000032E34D005DC36B3012E19D0022E2FD19E
:100B10001BE0112E16D0122E2AD119E0B8F5881F2D
:100B200019D006DCB8F5803F15D0B8F5801F1FD16D
:100B300011E0B8F5001F0ED0B8F5041F18D10AE077
:100B4000CB6815E0CB681B1D12E0CB6808330FE0C3
:100B5000CB680C330CE08B682BB1012B4FF00803F2
:100B600003D0456104E0042302E0056100E00023B6
:100B7000FF2A01D8064601E000F104064FEA840589
:100B800001D9A5F12005D6F8008007FA05FC28EA6E
:100B90000C0803FA05F548EA0508C6F800804D6818
:100BA000ED0070D53E4DAE6946F00106AE61AD690F
:100BB00024F0030605F0010500953A4D06EB050CFF
:100BC000DCF80850A607360F07FA06F825EA0805EC
:100BD000DFF8D480404503D14FF0000825E052E013
:100BE000DFF8C880404502D14FF001081DE0DFF872
:100BF000C080404502D14FF0020816E0DFF8B48013
:100C0000404502D14FF003080FE0DFF8AC804045CB
:100C100002D14FF0040808E0DFF8A080404502D17F
:100C20004FF0050801E04FF0060808FA06F848EA18
:100C30000508CCF808804D68D9F80060ED034D46F2
:100C400001D5164300E096432E604D68DAF8006047
:100C5000AD03554601D5164300E096432E604D681E
:100C6000DBF80060ED025D4601D5164300E09643D7
:100C70002E604D68DEF80060AD02754601D5164362
:100C800000E096432E60641C0A681646E2407FF43A
:100C900029AFBDE8F88F00000004014000001110EA
:100CA000001002400000014000080140000C01401B
:100CB000001001400014014000180140001C0140D8
:100CC0000AB1016170470904FBE700000148806830
:100CD000704700001000002002488168027811442B
:100CE0008160704710000020074810B5016841F08E
:100CF00010010160032000F075F8002000F006F8F4
:100D000000F024F8002010BD0020024070B50D4D09
:100D100004464FF47A712878B1FBF0F00A4909686B
:100D2000B1FBF0F000F001FD48B9102C07D2002211
:100D30002146501E00F036F800206C6070BD012086
:100D400070BD0000100000201C0000200C4808B5F9
:100D5000816941F001018161816901F00101009126
:100D6000C16941F08051C161C06900F080500090BC
:100D70000448416821F0E06141F08061416008BDB4
:100D80000010024000000140002809DB00F01F02B3
:100D9000012191404009800000F1E020C0F80011DD
:100DA00070470000F0B40E4B1B680C46C3F30223DF
:100DB000C3F10705042D00D90425191D072901D207
:100DC000002300E0DB1E012606FA05F1491E214042
:100DD00099409E40761E16403143F0BC01F058BE4B
:100DE0000CED00E0064900F0070208684FF6FF032B
:100DF000184040EA0220034A104308607047000090
:100E00000CED00E00000FA052DE9F0470F46050063
:100E100061D0434E306800F00700B84209D2306814
:100E200020F0070038433060306800F00700B84217
:100E300051D128683B4C810712D5400703D5606823
:100E400040F4E06060602878000703D5606840F4F3
:100E5000605060606068A96820F0F000084360603E
:100E60002878C00728D06868012810D02168022897
:100E700010D0890700292EDA616821F003010143AF
:100E80006160FFF723FF804641F288390DE0216859
:100E90008903EFE78901EDE7FFF718FFA0EB0801F1
:100EA000494502D90320BDE8F0876068696800F011
:100EB0000C00B0EB810FEFD1306800F00700B842B2
:100EC0000BD9306820F0070038433060306800F0FC
:100ED0000700B84201D00120E5E72878400705D592
:100EE0006068E96820F4E0600843606028780007E3
:100EF00006D56068296920F4605040EAC10060604E
:100F000000F038F86168084AC1F30311515CC84029
:100F10000649086006480068FFF7F8FE0020C2E7AF
:100F20000020024000100240C42D00081C000020D8
:100F3000140000200448054900684968044AC1F3C8
:100F40000221515CC84070471C0000200010024084
:100F5000D42D00080448054900684968044AC1F3D3
:100F6000C221515CC84070471C00002000100240A4
:100F7000D42D000812A185B00FC98DE80F0014A070
:100F8000144A006804905168134801F00C03042BC4
:100F900010D0082B0ED1C1F38343C9031DF8030001
:100FA0000AD5516804AAC1F34041515C0A4A504332
:100FB000B0FBF1F005B0704708494843FAE700007C
:100FC00002030405060708090A0B0C0D0E0F10108A
:100FD000010200000010024000127A0000093D00EA
:100FE0002DE9F84F040070D02078C04DC00749D0DB
:100FF0006868C0F38100012807D06868C0F38100E9
:10100000022809D16868C00306D52868800339D54D
:1010100060680028E7D035E06068B0F5803F0BD00D
:1010200010B1B0F5A02F11D0286820F480302860CE
:10103000286820F4802002E0286840F4803028608E
:10104000606890B1FFF742FE06460AE0286840F467
:1010500080202860F0E700BFFFF738FE801B64287F
:1010600073D828688003F7D50CE0FFF72FFE0646FB
:1010700005E000BFFFF72AFE801B6428F0D828682F
:101080008003F7D420789A4E80074FF001094FF083
:10109000000839D5686810F00C0F07D06868C0F3F5
:1010A0008100022809D16868C00306D42868800737
:1010B00014D52069012808D110E02069B0B1C6F824
:1010C0000090FFF703FE074605E00AE1FFF7FEFD8B
:1010D000C01B0228C4D828688007F7D52868616932
:1010E00020F0F80040EAC10028600DE0C6F800805A
:1010F000FFF7ECFD074604E0FFF7E8FDC01B022800
:1011000023D828688007F7D4207800072CD57948A1
:10111000A169D9B1C0F80090FFF7D8FD074604E0F7
:10112000FFF7D4FDC01B02280FD8686A8007F7D5E7
:1011300071484FF4FA510068B0FBF1F0009000BF25
:101140000098411E0091FAD20EE080E0C0F80080C5
:10115000FFF7BCFD074604E0FFF7B8FDC01B0228FF
:1011600075D8686A8007F7D42078400760D5E869A9
:101170000027C00008D4E86940F08050E861E869C1
:10118000012700F0805000905C480168C90513D425
:101190000168834641F480710160FFF797FD824644
:1011A00006E000BFFFF792FDA0EB0A0064284ED8CE
:1011B000DBF80000C005F5D5E06801280AD008B1C9
:1011C000052813D0286A20F001002862286A20F040
:1011D000040002E0286A40F001002862E06841F261
:1011E000883B98B1FFF772FD82460BE0286A40F019
:1011F00004002862EEE700BFFFF768FDA0EB0A01DC
:1012000059455AD8286A8007F6D50CE0FFF75EFDED
:10121000824605E0FFF75AFDA0EB0A0159454CD87C
:10122000286A8007F6D41FB1E86920F08050E86191
:10123000E06988B36968C1F38101022944D00228BA
:10124000C6F8608004D0FFF741FD044638E034E082
:10125000FFF73CFD074604E0FFF738FDC01B0228FE
:101260002BD828688001F7D4206AB0F5803F05D1DB
:101270006868A16820F4003008436860D4E9080178
:101280000843696821F4741108436860C6F86090E7
:10129000FFF71CFD044606E025E000BFFFF716FD42
:1012A000001B022809D828688001F7D51BE000BF81
:1012B000FFF70CFD001B022802D90320BDE8F88FC0
:1012C00028688001F4D40EE00128F7D06868226A0B
:1012D00000F48031914204D1616A00F470108842B8
:1012E00001D00120EAE70020E8E7000000100240FA
:1012F00000004242800442421C0000200070004076
:1013000070B5040005D00025A56294F8510010B115
:1013100006E0012070BD84F85050204600F02EF801
:10132000022084F851002068016821F0400101602A
:10133000D4E901010843D4E9031211430843616968
:101340000843218B01F400710843E1690843216AD5
:101350000843A16A084321680860A069042101EAE2
:101360001040216848602068C16921F40061C161B2
:101370006565012084F85100002070BD30B585B04E
:101380000024009401940294039400681449884254
:1013900023D11448816941F480518161816901F44C
:1013A00080510491816941F00401816180690E4D91
:1013B00000F004000490A02000900220019003207F
:1013C000039069462846FFF77FFB4020CDE90004E3
:1013D000694628460294FFF777FB05B030BD000050
:1013E0000030014000100240000801402DE9F84F94
:1013F000044690F8500000271D46164689460128ED
:101400000DD04FF0010B84F850B0FFF75FFC804621
:1014100094F85100BA46012804D002278EE0022039
:10142000BDE8F88FB9F1000F7DD0002E7BD00320EE
:1014300084F85100C4F854A0C4F83090A686E6861B
:10144000C4F838A0A4F83CA0A4F83EA0C4F844A076
:10145000C4F840A0A068B0F5004F04D1206801682E
:1014600041F48041016020680168490603D40168A5
:1014700041F040010160E068B0F5006F606803D0A2
:1014800030B3012E24D040E008B1012E1CD1206BD6
:1014900021680088C86006E020688168890709D54E
:1014A000216B0988C160206B801C2063E08E401E88
:1014B000E08609E0FFF70AFCA0EB0800A84202D38F
:1014C000681C01D031E07DB3E08E0028E4D11FE03C
:1014D000206B21680078087306E02068816889071E
:1014E00009D5216B09780173206B401C2063E08EC5
:1014F000401EE08609E0FFF7E9FBA0EB0800A842E8
:1015000002D3681C01D010E075B1E08E0028E4D150
:1015100042462946204600F037FE08B1202060658B
:10152000A06820B107E008E0FFE7032706E0206895
:10153000C16880680090606D00B1012784F851B0E7
:1015400084F850A038466BE72DE9F84F044690F830
:10155000500000270A9E1D4692468B464FF0010917
:1015600001280ED0012084F85000FFF7AFFB804621
:1015700094F85100616801280CD0B1F5827F07D141
:1015800002E00220BDE8F88FA16809B9042801D063
:101590000227C2E0BBF1000F27D0BAF1000F24D020
:1015A0001DB394F85100042802D0052084F851009E
:1015B00000206065C4F838A0E587A587C4F830B07E
:1015C000E586A5862064606420680168490603D426
:1015D000016841F040010160E068B0F5006F6068AB
:1015E00005D0E8B3012D46D07FE0012795E008B192
:1015F000012D39D1206B21680088C860206B801CC8
:101600002063E08E401EE0862EE020688168890716
:101610000FD5E18E69B1B9F1010F0AD1216B0988AB
:10162000C160206B801C2063E08E401EE0864FF07E
:10163000000920688168C9070CD0E18F51B1C068EA
:10164000A16B0880A06B801CA063E08F401EE08728
:101650004FF00109FFF73AFBA0EB0800B04200E0B1
:1016600009E001D3701C50D1E08E0028CDD1E08F6D
:101670000028CAD13FE0206B216800780873206BF6
:10168000401C2063E08E401EE0862EE020688168CA
:1016900089070FD5E18E69B1B9F1010F0AD1216B2C
:1016A00009780173206B401C2063E08E401EE086A9
:1016B0004FF0000920688168C9070CD0E18F51B153
:1016C000C068A16B0870A06B401CA063E08F401E37
:1016D000E0874FF00109FFF7F9FAA0EB0800B042EC
:1016E00002D3701C01D010E07EB1E08E0028CDD175
:1016F000E08F0028CAD142463146204600F044FD22
:1017000028B101272020606507E0032705E0A068D5
:1017100018B92068C16880680090012084F85100E1
:10172000002084F8500038462CE710B5401EB0F178
:10173000807F01D3012010BD4FF0E02460610F21B4
:10174000601701F0A5F90020A061072020610020AA
:1017500010BD70B590F83C20012A19D0012400F882
:101760003C4F0222427050F83C3C5A689D6822F07F
:1017700070060A684968324325F0800529435A609B
:1017800050F83C2C9160447000210170084670BDF7
:10179000022070BD10B5040003D094F83D0010B1D4
:1017A00007E0012010BD002084F83C00204600F036
:1017B0000DF8022084F83D00211D206800F0CAFECB
:1017C000012084F83D00002010BD000008B500682D
:1017D0000649884208D10648C16941F00201C16149
:1017E000C06900F00200009008BD00000004004045
:1017F00000100240022180F83D1001688A6802F062
:101800000702062A03D00A6842F001020A60012199
:1018100080F83D1000207047022180F83D100168DB
:101820000A6A41F211131A4207D10A6A9B101A423E
:1018300003D10A6822F001020A60012180F83D10FC
:101840000020704770B5044690F83C00012817D07E
:10185000012584F83C50022084F83D00206882680D
:1018600022F0770222F47F4282600868502830D04C
:101870000DDC20284DD005DC98B310283BD148E082
:10188000022070BD302844D0402834D139E060288F
:1018900028D0702806D0B0F5805F2CD0B0F5005F5E
:1018A00029D10AE0CB68D1E90121206800F098FE37
:1018B0002068816841F0770109E0CB68D1E9012116
:1018C000206800F08DFE2068816841F480418160CD
:1018D00011E0CA684968206800F056FF502120686E
:1018E00007E016E0CA684968206800F05EFF6021E2
:1018F000206800F07FFE84F83D50002084F83C0012
:1019000070BDCA684968206800F03EFF4021206829
:10191000EFE7226801461046EBE770B5044690F801
:101920003C0001280DD0012584F83C50022084F8A9
:101930003D0042B1042A0AD0082A0CD00C2A11D149
:101940000DE0022070BD206800F05CFE0AE0206817
:1019500000F088FE06E0206800F0BAFE02E0206891
:1019600000F0EAFE84F83D50002084F83C0070BD91
:1019700010B5040003D094F83D0010B107E0012039
:1019800010BD002084F83C00204600F00CF8022036
:1019900084F83D00211D206800F0DCFD012084F862
:1019A0003D00002010BD70477047000070B5026810
:1019B00004461068D168536910F00F0F51D003F03E
:1019C000010501F4907635435DD0C20705D0CA0504
:1019D00003D5E26B42F00102E263420705D5DA0764
:1019E00003D0E26B42F00202E263820705D5DA0718
:1019F00003D0E26B42F00402E263020705D5DA0786
:101A000003D0E26B42F00802E263E26B002A34D0BA
:101A1000800604D5880602D5204600F0EEFE206838
:101A20004069E16BC0F3801001F0080101432046DA
:101A300024D000F0D4FE2068416949061AD54169D6
:101A400021F040014161606BA0B11B494163606BB3
:101A5000FEF790FF002810D0606B416BBDE870402E
:101A6000084783060FD58B060DD52046BDE870408C
:101A700000F0C3BE2046FFF797FF70BDFFF794FF4D
:101A80000020E06370BD030606D50B0604D5204692
:101A9000BDE8704000F058BF4006F3D54806F1D5C8
:101AA000D168204621F04001D160202184F839100E
:101AB00000F033F970BD0000CF27000870B50400B6
:101AC00004D094F83900002510B106E0012070BD63
:101AD00084F83850204600F023F8242084F8390098
:101AE0002068C16821F40051C160204600F0D0FE9A
:101AF0002068016921F4904101612068416921F069
:101B00002A0141612068C16841F40051C160E56368
:101B1000202084F8390084F83A00002070BD0000CD
:101B200070B586B0002400940194029403942B4E67
:101B300003682B49022003222A4DB34221D18B692D
:101B400043F480438B618B6903F4804304938B6976
:101B500043F004038B618969039201F0040104914D
:101B60000102CDE9001069462846FEF7ADFF2815B1
:101B7000CDE90004694628460294FEF7A5FF06B0A9
:101B800070BD194EB342FAD1CB6943F40033CB6137
:101B9000CB6903F4003304938B6943F004038B6136
:101BA0008969039201F0040104910421CDE9001038
:101BB00069462846FEF788FF0820CDE900046946FB
:101BC00028460294FEF780FF002211462620FFF7E8
:101BD000E9F82620FFF7D8F8D1E7000000380140E7
:101BE00000100240000801400044004090F83A30E4
:101BF000202B22D1F9B1F2B190F83830012B1CD052
:101C000081628285C2850021C163222280F83A2048
:101C100080F838100168CA6842F48072CA600168AE
:101C20004A6942F001024A610068C16841F020013E
:101C3000C1600020704701207047022070470000FB
:101C4000054810B5007800F02BFABDE810400122DD
:101C500001490248FFF7CABF000000200C01002024
:101C60002DE9F843044690F839001F4616460D4604
:101C7000202850D1A5B19EB194F8380001284AD04F
:101C8000012084F838004FF00008C4F83C8021207F
:101C900084F83900FFF71AF8A6848146E68426E026
:101CA0000120BDE8F883E08C401EE084A0684B462C
:101CB000B0F5805F4FF000024FF0800120460097A2
:101CC00003D000F072FEE8B90DE000F06EFEC8B976
:101CD00028882168C0F308004860206908B16D1C9D
:101CE00005E0AD1C03E0216815F8010B4860E08CAD
:101CF0000028D8D14B46002240212046009700F012
:101D000054FE08B10320CCE7202084F8390084F881
:101D100038800020C5E70220C3E77047FEE70000D7
:101D20002DE9F04186B000200090019002900390D0
:101D30002248816941F020018161816901F020011F
:101D40000491816941F010018161816901F0100104
:101D50000491816941F0040181618069184F00F0AC
:101D600004000490002240F205213846FEF7A8FF47
:101D70000122DFF85080160231464046FEF7A0FFF0
:101D80000520012402258DE83100032003906946D7
:101D90003846FEF799FE60028DE831006946384604
:101DA0000395FEF791FECDE9006469464046CDE912
:101DB0000245FEF789FE06B0BDE8F0810010024042
:101DC00000100140000801400C480B49022201604C
:101DD0004FF48271416000218160C0E90312012249
:101DE0004261520282612822C0E907214162816278
:101DF0000A21C162FFF784BA00300140340000209C
:101E000010B58EB000240794089409940A940B949A
:101E10001C2168460C94FEF7BEF915481349016071
:101E20004721C0E901140121C0E903148021816127
:101E3000FFF7B0FC4FF48050079007A90C48FFF75C
:101E400001FD0B48FFF794FD0B940BA908480C9477
:101E5000FFF77FFC00940194029400226946044835
:101E60000494FFF75AFD0EB010BD000000040040BE
:101E70008C000020FEE70000064B4FF4807128B173
:101E8000012805D101221846FEF71ABF0022FAE701
:101E900070470000000801407047000070B50D4D0C
:101EA0004FF40074002221462846FEF709FF052062
:101EB000FEF7F8FD012221462846FEF701FF052026
:101EC000FEF7F0FD21462846BDE870400022FEF7EF
:101ED000F7BE00000010014010B500F0F7F900F067
:101EE000AFF9BDE8104001A000F0C2BD4F507469C9
:101EF00063616C466C6F77496E6974204F766572CA
:101F00000A0000002DE9F04704468160C0692062A4
:101F1000A069E0616068FEF79BF9A061B0F5000F71
:101F20000ADA80F00040616BFEF7F6FB01D2012077
:101F300000E00020FEF76CFB10F0FF4F04D020788B
:101F400028B1012823D055E0206BBDE8F087A569B2
:101F5000E0682946FEF782F9606229462069FEF7AB
:101F60007DF9A16AFEF722F92749A062884200DDC7
:101F700008462649A062884200D90846A062284641
:101F8000E169FEF765F96169FEF768F931E0D4E9C6
:101F9000069529464846FEF75BF9E168FEF75EF9CB
:101FA000606249462069FEF759F9A062206AFEF78F
:101FB0006CFB064688462846FEF767FB0122FEF7C3
:101FC00007FB07460D464846FEF75FFB3A462B46A1
:101FD000FEF717FA32464346FEF772F906460D46FB
:101FE0006069FEF752FB32462B46FEF710FAFEF709
:101FF00077FBE062D4E90901FEF7D8F8E16AFEF761
:10200000D5F82063A1E7000000003442000034C28C
:102010002DE9F0470746DDE908891C4615460E46BE
:10202000382000F099FE0770C0F83490C0F8148092
:10203000002146608162C0E90354BDE8F087704723
:1020400011B583B000208DF804001448006A802880
:1020500005D19DF80C0040F080008DF80C000020A8
:10206000FFF70AFF4FF6FF742346012203A90B482E
:10207000FFF7BCF9322000F0E1FD012302AA01A91B
:1020800006480094FFF760FA0120FFF7F5FE0120F3
:1020900000F0D4FD9DF8080004B010BD340000200D
:1020A00070B51B4C002521461A4E097863684A1CFE
:1020B000D2B233B1012B08D0022B10D0032B15D094
:1020C00005E01D2803D1012305E0D12802D0656079
:1020D00025700EE0022363607054227070BD70544E
:1020E0002270072AFAD30320606070BDED2806D065
:1020F0006560BDE8704080210648FEF74CB870541A
:102100002270044800F008F86560257070BD00007A
:1021100020000020D004002010B5174C0246817822
:102120002068FF2904D03F2904D00F2904D005E0FE
:10213000002102E0012100E00221017032F8031FBA
:1021400049BA09B24180528852BA82800BA000F08D
:102150008FFC2068B0F90200FEF751FA01460848EA
:102160000068FFF7CFFEFEF758FA01460548006801
:10217000BDE8104000F0FCB80400002025640A000F
:10218000080000200C00002038B50B4600920446E1
:102190000022802100F008F8002804D0606D40F093
:1021A00020006065032038BD2DE9F0411D4617462B
:1021B0000E460446DDF8188008E0681C06D0FEF7DD
:1021C00085FDA0EB0800A8420BD255B120688068BD
:1021D00036EA000030D00020B842EED10020BDE841
:1021E000F0812068416821F0E00141606068B0F54D
:1021F000827F0BD1A068B0F5004F02D0B0F5806FA0
:1022000004D12068016821F040010160A06AB0F5A6
:10221000005F09D12068016821F400510160206845
:10222000016841F400510160012084F85100002050
:1022300084F850000320D2E70120CDE7704700006A
:1022400070B50B20FFF7FCFE40F0010100220B20CF
:1022500000F0E6FBC02512240B20FFF7F1FEC009B9
:1022600004D008A0BDE8704000F002BC002229465E
:10227000192000F0D5FB002221461A2000F0D0FBE7
:1022800008A0EFE74572726F723A205365742046DA
:1022900072616D6520506572696F64204572726F5E
:1022A000720A0000496E666F3A204672616D6520C1
:1022B000506572696F64206973207365742073754B
:1022C0006365737366756C6C790A0000F8B5FFF787
:1022D000E5FD0020FFF7D0FD01224421202000F081
:1022E0009FFB01220721232000F09AFB0122882175
:1022F000242000F095FB0120FFF7BEFDC82000F070
:102300009DFC00221821142000F08AFB282000F0F8
:1023100095FC0020FFF7B0FD60208DF800004FF61F
:10232000FF752B46012269460F48FFF75FF80A2028
:1023300000F084FC0D4E002440F2C27731192B4688
:1023400001220948FFF752F80A2000F077FC641CCC
:10235000BC42F3DB0120FFF78FFD042000F06EFC90
:10236000642000F06BFCF8BD34000020DC2D000878
:1023700010B50446002905DB0846FEF740F9014682
:10238000012205E04842FEF73AF901464FF0FF32DC
:102390002046BDE8104000F011B82DE9F041074695
:1023A0001C4615460E46102000F0D6FC076006813C
:1023B000456044810021C160BDE8F0812DE9F05FF6
:1023C000044616460846FEF760F9384F8B468246AB
:1023D000354B3A46FEF78DF80322FEF7F9F8002256
:1023E00089460546B8461346FEF762F902D22846EA
:1023F000494608E05046594642462D4BFEF779F8CB
:102400000322FEF7E5F8FEF721F9DFF8A89005466C
:102410004FF47A77012E22D0761C42D0BDE8F09F8F
:10242000E068FEF732F942464B46FDF749FFFEF7FA
:1024300057F9E060618900226068FEF741FC21895C
:1024400001222068FEF73CFC384600F0F7FB2189AA
:1024500000222068FEF734FC384600F0EFFB6D1ECA
:10246000DED2DBE7E068FEF710F942464B46FDF7A7
:10247000C8FFFEF735F9E060618901226068FEF768
:102480001FFC218901222068FEF71AFC384600F063
:10249000D5FB218900222068FEF712FC384600F0A7
:1024A000CDFB6D1EDED2B9E7CCCCFC3FCDCCCCCC85
:1024B000CCCCFCBFCCCCCC3FFEF70EBC30B58FB043
:1024C00028216846FDF767FE14210AA8FDF763FE80
:1024D00001210804CDE90010002402940225049192
:1024E000CDE907504FF4E01009906846FEF778FDFB
:1024F0000F20CDE90A056802CDE90C4002210AA8A7
:102500000E94FEF781FC0FB030BD00000D4801684D
:1025100041F00101016041680B4A114041600168CE
:102520000A4A11400160016821F48021016041687C
:1025300021F4FE0141604FF41F0181600449C00392
:1025400008607047001002400000FFF8FFFFF6FE31
:1025500008ED00E0F0B502681C4B1D4D1D4E1E4FEE
:102560001E4C4FF0804C984209D0A04207D06045E5
:1025700005D0A84203D0B04201D0B84204D122F025
:10258000700E4A6842EA0E02984209D0A04207D073
:10259000604505D0A84203D0B04201D0B84203D173
:1025A00022F44075CA682A434D6922F080022A430A
:1025B00002608A68C2620A688262984201D0A042C0
:1025C00001D10969016301214161F0BD002C014085
:1025D0000004004000080040000C004000340140AE
:1025E00010B5846842EA032224F47F440A4322435C
:1025F000826010BD826822F070020A4342F0070137
:1026000081607047F0B5026A22F001020262036A3B
:1026100042688469124E24F073050C682C4323F041
:1026200002058B682B430D4DA84201D0B04205D165
:1026300023F00807CB683B4323F00403A84201D0F2
:10264000B04205D14D6922F4407215438A692A438C
:1026500042608461496841630362F0BD002C01401F
:1026600000340140F0B5026A22F010020262026AF0
:10267000436884690D6824F4E64444EA05248D68BF
:1026800022F0200242EA05120F4D104EA84201D05E
:10269000B04206D1CF6822F0800242EA071222F04F
:1026A0004002A84201D0B04207D14D6923F44063F3
:1026B00043EA85038D6943EA850343608461496881
:1026C00081630262F0BD0000002C01400034014033
:1026D000F0B5026A22F480720262026A4368C46939
:1026E00022F4007224F073050C68124E2C438D689E
:1026F00042EA05220E4DA84201D0B04206D1CF6871
:1027000022F4006242EA072222F48062A84201D049
:10271000B04207D14D6923F4405343EA05138D6954
:1027200043EA05134360C4614968C1630262F0BDB6
:10273000002C01400034014030B5026A22F480527E
:102740000262046A4268C3690D6823F4E64343EAFF
:1027500005238D6824F4005444EA0534084DA8424A
:1027600002D0084DA84204D14D6922F4804242EAC9
:1027700085124260C36149680164046230BD000093
:10278000002C01400034014010B5036A046A24F0B3
:1027900001040462846924F0F00444EA021423F082
:1027A0000A020A438461026210BD10B5036A23F075
:1027B000100303628369046A23F4704343EA02321C
:1027C00024F0A00343EA01118261016210BD10B53B
:1027D000406A0021C185C184FFF7E6F810BD016899
:1027E000CA6822F49072CA6001684A6922F0010244
:1027F0004A61202180F83A10704710B590F83A10DD
:10280000222901D0022010BD8168B1F5805F11D06E
:102810000169002901681FD0496801F07F03816ABE
:102820004A1C82620B70C18D491E0904090CC185C6
:1028300018D02BE00269816A002A0268526805D02C
:10284000D2B20A80816A491C8162ECE7C2F30802B5
:102850000A80816A891CF7E74A68816A4B1C836297
:102860000A70E0E70168CA6822F02002CA600168C5
:10287000CA6822F48072CA6001684A6922F00102C3
:102880004A61202180F83A10FFF7DAF9002010BDE4
:102890002DE9F041044600680169E26821F44051E5
:1028A000114301612169A0680843616908432168F7
:1028B000CA6841F20C639A430243CA6020684169C6
:1028C000A26921F44071114341611E4920686425C9
:1028D0003226884202D1FEF73DFB01E0FEF72AFBDB
:1028E00000EBC00101EB001160686FF01807800079
:1028F000B1FBF0F2B2FBF5F2B1FBF0F37A4303EB7C
:102900008202B1FBF0F306EB0212B2FBF5F2B3FB6D
:10291000F5F302F0F00202EB0312B1FBF0F3B1FBAE
:10292000F0F0B0FBF5F0784303EB800006EB00100D
:10293000B0FBF5F0216800F00F0010448860BDE89E
:10294000F08100000038014090F83910212901D0B1
:10295000022070478168B1F5805F016A0BD04A1C84
:102960000262026809785160C18C491E0904090C91
:10297000C1840ED017E009880268C1F308015160D4
:1029800001690029016A02D0491C0162ECE7891C37
:10299000FBE70168CA6822F08002CA600068C1686B
:1029A00041F04001C160002070472DE9F041984698
:1029B00017460E460446069D1DE0681C1BD02DB12F
:1029C000FEF784F9A0EB0800A84214D92068C1687A
:1029D00021F4D071C1602068416921F00101416199
:1029E000202084F8390084F83A00002084F8380068
:1029F0000320BDE8F0812068006836EA000004D0BA
:102A00000020B842D9D00020F3E70120F9E7000008
:102A10000148FEF7CBBF00000C010020FEE70000DC
:102A200037B512481446006A28B99DF8000040F0F6
:102A300080008DF8000014B90020FFF71DFA4FF652
:102A4000FF752B46012269460848FEF7CFFC2B464E
:102A5000012201A90548FEF7C9FC14B90120FFF7BE
:102A60000BFA322000F0EAF83EBD000034000020EE
:102A70000FB4054B10B503A9044A029800F028F8DA
:102A800010BC5DF814FB0000252C00082800002075
:102A90000907090E002804DB00F1E02080F800148B
:102AA000704700F00F0000F1E02080F8141D70471F
:102AB00002E008C8121F08C1002AFAD17047704707
:102AC000002001E001C1121F002AFBD17047000065
:102AD0002DE9FF4F89B09B460446002506E02528D6
:102AE0000BD05A460B999047641C6D1C2078002827
:102AF000F5D10DB02846BDE8F08F0027B846012279
:102B0000474900E0074314F8013F203B02FA03F075
:102B10000842F7D120782E2819D114F8010F47F078
:102B200004072A280ED06FF02F022078A0F1300180
:102B300009290CD808EB880102EB410100EB0108E0
:102B4000641CF2E70A98641C50F8048B0A90207801
:102B50000028CED0642808D0692806D075281ED059
:102B60005A460B9990476D1C58E00A994FF00A0994
:102B700001C90A91002802DA40422D2102E03905FC
:102B800004D52B218DF82010012103E0F90704D092
:102B90002021F7E78A4608AE0DE00021FAE70A99FE
:102BA0004FF00A0901C90A91F7E74946FDF7BEFD52
:102BB000303106F8011D0028F7D1ADEB060000F119
:102BC0002009780701D44FF00108C84502DDA8EBC1
:102BD000090000E000208046002706E008A85A46C9
:102BE000C05D0B9990476D1C7F1C5745F6DB04E0D8
:102BF00030205A460B9990476D1CB8F10001A8F19E
:102C00000108F5DC05E016F8010B5A460B999047D0
:102C10006D1CB9F10001A9F10109F4DC641C65E740
:102C20000928010013B54FF6FF73012269460248D7
:102C3000FFF716F800981CBDCC00002070B54FF6C9
:102C4000FA75281A84B20848FEF7D4FD06480168D0
:102C50004C62006801E0416A8CB2AC42FBD3BDE833
:102C600070400148FEF7D8BD8C0000201CB5FEF76F
:102C70003BF82E48012302460421FFF78EFB2C4C23
:102C8000E060062000F068F82A4960602A48CDE933
:102C900000010021294B2A4A0846FFF7B9F9A06034
:102CA000FFF70CFCFFF73CF8274826494FF4E135C5
:102CB00000240160C0E901540C26C460C0E9044648
:102CC0008461C461FEF7FAFEFFF79AF81E481F49B7
:102CD00040380160C0E90154C460C0E90446846121
:102CE000C461FEF7EBFEFFF76FF8012210491648AA
:102CF000FEF77CFFFFF7F0F8072000F02DF8124DEB
:102D00004FF4617640354FF4FA670F484030FDF7D5
:102D1000EDFD002421462A5D0DA0FFF7A9FE641CED
:102D2000B442F7DB3846FDF7BDFEEEE70010014088
:102D300000000020000040400AD7A33C6F12033C73
:102D4000CDCC4C3E004400400C0100200038014036
:102D500025643A25640A0000F0B50B30154D20F0CB
:102D600007010024144A0FE003688B420BD38B4207
:102D700005D95E1A43184768C3E9006700E0436855
:102D8000136002C004E0021D10680028ECD1204648
:102D9000002802D1286808B10020F0BD064A074883
:102DA0001060074A121A22F00702C0E9002401202D
:102DB0002860D7E7300000202C00002054050020B8
:102DC0005007002000000000000000000102030482
:102DD000060708090000000001020304E6FF402284
:102DE00086AA9F73DC345F1D0D05E2AE5CE75E676B
:102DF0002FD245AAB72DF971C0E2898F18C050B102
:102E00004C5B1EB35332563A14E764584124033CDA
:102E1000C52A9C8C06A7A21F23F764E61B50973A8D
:102E20008A86164AF5775B285DA6E0CFC14A2862FC
:102E3000FB85098007CE1159D489CFC1421D05EA0F
:102E4000A2472E0FA1100CB4E13F95706D4DC0CE7E
:102E50008B49466EFD77847E620A5DAAC75DA764D2
:102E60008DC6170D446ADC56AEA235D0D9DBA768F3
:102E7000C1A5CBDBDADFE965B95549F08FE86E4BC8
:102E8000CAFCE414917AAF5974541169F1CE80C030
:102E9000D19940813620486992B144DC974F0E9514
:102EA000C32723CF7ACDE8331B129FDE2F600405A2
:102EB00043806B0CA17226364651BD6CA24B934BDE
:102EC0003E9B5A60D823A5376B043711A832EC1B00
:102ED0000B066E59E8F76C2603B7F2EC979DC974A0
:102EE00065F39058A7367B6FE83105FE049AA4730A
:102EF000A7CF27788FDCD3C6145576A124CCB03861
:102F0000537F7BF823D709D7EEB8191D0A9A70DDD5
:102F1000D85E706FD4E92C2344E03EA77D31F4796C
:102F2000D040FE8E8F01BC4E7FBD16DE9BD5CBF50B
:102F300018B02A003126894B62149521452A6A99D6
:102F4000388EF3AD25FDD01D4A91F6B771015ACDEB
:102F5000C19950AD775595FD880EDEEBB654E18DE5
:102F6000FD6D023D00157543881704153995AA2596
:102F70004067919B7E1D6BF2AA738FF38F750C5582
:102F80001A418CABAB79F8C891C270E0CA2A8BDECB
:102F9000971CCCC7A58F559F080DE88990F9E2A131
:102FA00087B625A05A71C5286E17EFB2588CC6E2B5
:102FB000CF2693296359BC718EE0916106B06507F5
:102FC00051452EA3A77C756B573670B2BCE4086BD5
:102FD000E28C44063911E0D79C134B09DC169ADACF
:102FE0002064D58AE54B58696C96050703D22DCE2F
:102FF000BB4C88E26405A44841EB15D842AAD583AE
:103000005279CFA53B5456A2E2CBF3F2CBF2170292
:103010006BFF32274DBBE7657D8836AD66648B1A42
:1030200065EEA20CC3DECE7ED74DE2D75CC1D6C31F
:10303000E291315DAF9C93B84A8322076217E8732F
:10304000068FFF9E24D9F711DB0FBD5CDA937F96C4
:10305000D198F82B8C77FCC3C4975D743AA442F5E1
:1030600097E9817371F38194479691606E8F0DF2A9
:10307000A4621E58CF037C315BA8241BC9313007E2
:10308000DDAA3186559342EC17CADC202A602D4E0A
:10309000CEAEA46648097AA54D4DDDC2B3851A6F40
:1030A0000C27A85DF82EDEA3DEF4E8AA64A7699ACF
:1030B000F878BA738AFDEE06725DF2E490F7A046E6
:1030C000E50644E3C1EE9223C27CD1D231BAEB2FA4
:1030D000164DE2F0CF9838BC1168D7C2EB91E634B8
:1030E00060D14895543049B3308A5AB2EC1441E962
:1030F000F48446EA315ABC29B9A1C52C0716FD90C3
:103100005F9541DCF2C36E57F0EA0FDCF0585C8348
:10311000598AFFE2C9335AFCDE4F4289BE66FE2758
:1031200093942AFBCAD578794A6471B0B2DA842CB8
:10313000D616F379FC318913B8392B375CD31EB618
:10314000FA4A79629C86B62200CCC6058C8698D550
:103150006111C267068A1434E9D30AAE455052237E
:1031600043D56D1F457C91E52B2D2CEFBF703A0A9E
:103170008C50C1F4210C1E34C5E3AD7C9487499674
:1031800058918CF926A6B6720EAD3675380E84406D
:10319000A160C2EBD0A8BD138D3C14874996484D61
:1031A0009F214CC2F6CE6CD95A2F554047D48C7D06
:1031B0009BBFFFBE88067E7296D3660C9C2962AFC9
:1031C000B1D83284190844ACDC800347188EB52D81
:1031D000DE6A2ACD41828C1978C808A842011F9B5B
:1031E00073AB714299977544F37C4247895BB1B1E7
:1031F00034E173F26068C6253B12DB9E1F9088B6EF
:103200009B49A0A69E0EB70C42B4624A0F5C59C2FD
:1032100083D953EA4E5EF08C9DB1E11CA67F077600
:10322000398C4FC0108FAFF153E8400E8C969D95AE
:103230007A5B0780B1ACE96FD1B2C7369607F0CCA4
:10324000089E8D94999D8BB68E269B7BD8E38E79B4
:103250004329C20A84894BA51B9E877990CE0E8193
:10326000B5D01183B8F71FC414CA11B2EA12DDB386
:10327000E0F557ED172E440F8EBEA6AFDFE9CB3B2E
:103280007012E25567675E13762D71079E7CEDC95B
:10329000E57F04E4581F6E7357E07143D9F4440886
:1032A000808EADBD114CFA4340B24095D88D198542
:1032B0004D8914FB295835ED838B61353CD618AA0E
:1032C000E0AD73112461697B1456F99548FC02E95D
:1032D000F7F128154CA073C5297DAB4C67D9C5D033
:1032E00086EC38B9A821F45378783CC6FB12E5B3D4
:1032F00094377E1953C1750357AB592ACC9A603461
:10330000088F1E36EC89B827DC8D3D2DBD3F5E54FD
:10331000125F6A2CFC179A92C0387F7C6737478E01
:103320000E1D952C100D73CD9D562C685B052FF549
:10333000075D7829F6BB22B8588C8589E2891CD1B3
:10334000830F8D2E4FE8FF6C3F994DA7CA15A959E1
:10335000EA3325FF80AF886E930DAB610018119A98
:1033600067DA4283F8F78D193CE4366469F0075553
:103370007F1F23BF0355B05C08844BC10AB9537546
:103380009A090B3755639CA57F62AB341EB4244861
:10339000835793FF1F08035CE6B66F9B9897699766
:1033A000DB67C9D78466C9B69F40074B93956D9F6D
:1033B00065E6CFBA9D70A70B2F954CDD1ECCFC9C0B
:1033C000358970A566CC1B73D8F68855B78F7A906F
:1033D000C0BA352FAC034C7C7449A7C5B50B260980
:1033E00066BBF01E1996BCC13C2F0E36312B043E35
:1033F0006A4F397FEB057453DF67ACB65CE1E5C714
:103400005F2534D2E3836233E6108DA4591D36C89C
:10341000E9BFF80E0DB55AEF7710106EB1E70CC783
:103420007D371D1767A72EBE56273803BB3A0B11F1
:103430001682B72264B142070560B6FEA04C276829
:10344000A6C246330507DC2669D7DA876A7091F988
:10345000906535AB2CF7E220B3DB6CA2B6D78F7743
:10346000ED55826A25D2A4A3470D6B4E1977B2049D
:103470006A70471973824551C2C1A15DA7D5987E74
:10348000D1014464B2EB940C8E68AFC7613115E68C
:1034900021C176437756A2D6CB7A7D73D2EAD8354E
:1034A000FB2C5C38E84C899C9D8F6C428880986C22
:1034B000C93D6A6CBEDDFCD41568F1C6F4417F27B6
:1034C0004FF3910F88A73ABA453244E5EDD720640F
:1034D000BCB661215A0A528856797341F03A71603C
:1034E000580D0BB9581F07B007E202B0E7441B8D17
:1034F000F85F26F1F3284038746EFBDA2BB1030332
:103500005C3455120565FDB6FDE0D5E4B9CA7564B5
:10351000EFD36FB658FEF2419A6BF1EF7EE529B317
:10352000F530470A8CA55B1919BE64768B1BF7D65C
:103530002ADC2BCC9A998B8A0584F94A7064EFB205
:10354000BC3205EE68C07D426644DE70325BA3E9A2
:10355000A3DFBDD3E0CD73AF4B395C3E6457E8BC0D
:103560009F4A178D89A943293AFEE476AA5955DE68
:1035700039FC4A2F4F31785CDED8699806A243A205
:10358000BCF2A44D046FB3D0AFD5F2A8C4D892A7B3
:1035900036E2E9DF6D84A9365F20510D0088000016
:1035A000C03500080000002034000000B02A0008E8
:1035B000F4350008340000201C0B0000C02A00086D
:1035C00000000000000000000000000000000000FB
:1035D0000100000010000000000000000024F400C2
:1035E00000000000000000000000000000000000DB
:0435F00000000000D7
:0400000508000131BD
:00000001FF
