:020000040800F2
:10000000600B0020450100084D610008811D0008BB
:100010002961000835090008316D00080000000062
:100020000000000000000000000000005165000812
:10003000370900080000000053630008CD6700087E
:100040005F0100085F0100085F0100085F01000810
:100050005F0100085F0100085F0100085F01000800
:100060005F0100085F0100085F0100085F010008F0
:100070005F0100085F0100085F0100085F010008E0
:100080005F0100085F0100085F0100085F010008D0
:100090005F0100085F0100085F0100085F010008C0
:1000A0005F0100085F0100085F0100085F010008B0
:1000B0005F0100085F0100085F0100085F010008A0
:1000C0005F0100085F0100085F0100085F01000890
:1000D0005F0100085F010008256D00085F0100084E
:1000E0005F0100085F0100085F0100085F01000870
:1000F0005F0100085F0100085F0100085F01000860
:100100005F0100085F0100085F0100085F0100084F
:100110005F0100085F0100085F0100085F0100083F
:100120005F0100085F0100085F0100085F0100082F
:10013000DFF80CD000F0ECFB00480047816F0008AE
:10014000600B00200648804706480047FEE7FEE7B0
:10015000FEE7FEE7FEE7FEE7FEE7FEE7FEE7FEE777
:100160002168000831010008202A04DB203A21FA26
:1001700002F00021704721FA02F3D040C2F12002C0
:100180009140084319467047D2B201E000F8012BB4
:10019000491EFBD270470022F6E710B513460A4607
:1001A00004461946FFF7F0FF204610BDF0B480EA80
:1001B0000102D40F4200B2EB410F02D202460846C0
:1001C00011464A0042D0C30DDDB2C1F3C752AD1A89
:1001D000202D35DAC1F3160141F4000204B1524278
:1001E000C5F1200602FA06F12A411044B3EBD05FB4
:1001F00023D0C4B1012DA0EBC35009DCF0BC4FF0FB
:10020000004202EAC352DBB200F5000000F0F4BA8B
:10021000400000F1807000EBC350A0F1807040EA14
:10022000D170490009E0490841EAC071A0EBC35010
:1002300000F50000400800EBC350F0BC00F0D3BA5A
:100240006142012202EB4101001BF6E7F0BC70475E
:1002500081F00041AAE780F00040A7E780EA0102B0
:1002600010B502F00043400022D04A001FD0010E1A
:1002700001EB1261C0F35600C2F3560240F40000D5
:1002800042F40002A0FB022000047F39140400D0D5
:10029000401C50EA124001D44000491EC2B20C0674
:1002A00004EBD010401C4008802A02D003E000205C
:1002B00010BD20F00100002900DA0020184310BD15
:1002C0002DE9FE4F804681EA0300C00F0C460090E6
:1002D00021F0004123F00045B8EB0200A94105D20E
:1002E0004046214690461C460B46024623F00040FD
:1002F000104347D0270DC7F30A00C3F30A510290F9
:10030000401A019040286BDAC3F3130040F4801BBD
:100310000098924620B10023D2EB030A63EB0B0B4B
:1003200001985946C0F14002504600F03BFA06469B
:100330000D4650465946019A00F043FA10EB08006A
:100340006141002487EA115284EAE7731A4340D0DE
:10035000009A62B3019A012A4FEA075215DC001B8A
:1003600061EB02014FF0004202EA0752CDE9004280
:10037000001C41F5801132462B4600F07AFA03B09A
:10038000BDE8F08F40462146F9E7001B61EB020112
:10039000001C41F5801300185B412018A2F50017DE
:1003A00047EB030140EAD570B6196D4111E06D08C5
:1003B0004FEA360645EAC0754FEA0752001B61EB6B
:1003C0000201001C41F5801149084FEA3000001974
:1003D000514132462B4603B0BDE8F04F00F03ABA27
:1003E0000098012240000023D0EB020263EBE0738F
:1003F000009821464FEAE074B8EB000061EB04017D
:10040000E9E783F000435BE781F0004158E72DE91D
:10041000FE4F81EA030404F0004421F000410094FF
:100420004FF0000B23F0004350EA01045ED052EA83
:1004300003045BD0C3F30A54C1F30A552C44A4F25D
:10044000F3340194A0FB0254C1F3130141F4801171
:10045000C3F3130343F4801301FB024400FB034E78
:10046000840A970A44EA815447EA8357A4FB076841
:1004700002958D0A05FB07854FEA932C04FB0C546B
:100480002705029D4FEA065847EA1637B5EB0805DF
:100490006EEB070C870E920E47EA811742EA831231
:1004A000A7FB0201B6EB0B0164EB00042B0D43EA42
:1004B0000C335E1844EB1C50DA465146E7FB020150
:1004C000C5F313044FEA0B3343EA14534FEA0432E3
:1004D000019C43EA0603A4F10C040294009CCDE9BC
:1004E00000B400F0C6F903B0BDE8F08F002001466B
:1004F000F9E72DE9F04D81EA030404F0004B21F007
:10050000004514464FF0000A23F0004150EA05026E
:1005100020D054EA01021DD0C5F30A570246C5F3A4
:100520001303C1F31300C1F30A5640F4801543F4DA
:100530008013A7EB0608101BD64608F2FD3873EBB4
:10054000050002D308F1010801E092185B41B8F1FF
:10055000000F03DA00200146BDE8F08D00204FF4C3
:100560008011064684460EE0171B73EB050705D382
:10057000121B63EB050306434CEA010C49084FEAE2
:10058000300092185B4150EA0107EDD152EA0300B6
:1005900012D082EA040083EA0501084305D0101B4B
:1005A000AB4106D20122002306E000224FF00043B7
:1005B00002E06FF0010253101AEB06004CEB0851F9
:1005C00010EB0A0041EB0B01BDE8F04D00F042B921
:1005D00070B521F0004303430CD0C1F30A55002449
:1005E000D5EB040564EB0403D617AD1AB34102DB67
:1005F0000020014670BD201841EB025170BDC10FB3
:1006000080EAE0700844CA079623002100F0F4B89D
:1006100096230022114600F0EFB80EB540F23341A8
:1006200002910021CDE900110A460B4600F021F9A4
:1006300003B000BD00F0004220F00040C10DC0F347
:10064000160040F400007F2901DA00207047962947
:1006500003DCC1F19601C84001E096398840002AC8
:10066000F4D04042704770B5C1F30A5201F0004522
:100670000024C1F3130140F2FF3341F480119A4288
:1006800001DA002070BD40F233439A42A2F23342B5
:1006900003DC5242FFF768FD00E090402C43F1D0AC
:1006A000404270BDC1F30A5210B5C1F3130140F2CC
:1006B000FF3341F480119A4201DA002010BD40F26C
:1006C00033439A42A2F2334203DC5242FFF74CFD1D
:1006D00010BD904010BD00F0004230F000400AD044
:1006E000C10D01F56071C0F3160042EA0151C20864
:1006F00040071143704700200146704730B5041E83
:1007000071F1000404DB4FF00044404264EB01014E
:10071000141E73F1000405DB1C464FF000435242E7
:1007200063EB0403994208BF904230BD01F00043DF
:1007300030B421F0004150EA010206D00A0DA2F5C2
:100740006072C1F31301002A02DC30BC0020704744
:10075000440F44EAC104C100E01830BC00EBC250B1
:1007600000F041B8002801DBC0F10040002901DBA6
:10077000C1F100418842704730B50B460146002068
:100780002022012409E021FA02F59D4205D303FA53
:1007900002F5491B04FA02F52844151EA2F10102D4
:1007A000F1DC30BD202A04DB203A00FA02F10020FF
:1007B00070479140C2F1200320FA03F3194390409F
:1007C0007047202A06DBCB17203A41FA02F043EAB1
:1007D000E07306E041FA02F3D040C2F120029140FA
:1007E0000843194670470029A8BF7047401C4900BC
:1007F00008BF20F00100704710B4B0FA80FC00FA86
:100800000CF050EA010404BF10BC704749B1CCF1B0
:10081000200421FA04F411FA0CF118BF012121433C
:100820000843A3EB0C01CB1D4FEA00614FEA1020F7
:1008300042BF002010BC704700EBC3501044002999
:10084000A4BF10BC7047401C490008BF20F0010045
:1008500010BC704710B5141E73F1000408DA401C78
:1008600041F1000192185B411A4301D120F00100CF
:1008700010BD2DE9F04D92469B4611B1B1FA81F2BF
:1008800002E0B0FA80F220329046FFF78BFF044678
:100890000F4640EA0A0041EA0B0153465A46084314
:1008A00013D0114653EA010019D0C8F14002504656
:1008B000FFF75AFC05460E46504659464246FFF79A
:1008C00071FF084305D0012004E020463946BDE809
:1008D000F08D0020054346EAE0762C4337430A9822
:1008E0006305E40AA0EB08000022FD0A44EA47542D
:1008F0000A3002D500200146E9E7010510196941D7
:10090000DDE9084500196941BDE8F04DA2E70000A6
:10091000064C074D06E0E06840F0010394E807004C
:1009200098471034AC42F6D3FFF706FCFC78000879
:100930001C790008FEE770472DE9FE4305460022BA
:100940008321132006F0F6F940F2622006F000FB46
:1009500040208DF8040000208DF808001D48006A32
:10096000802802D1C0208DF80400002005F0DEFBB5
:100970004FF6FF763346012201A9164800F068FDC4
:100980004B2006F0E5FA00244FF003084FF0FF3942
:100990004FF461772A19012302A90E48009600F04E
:1009A00005FE2CB92978B8EB911F01D04C4603E025
:1009B000285D00F03F0028550A2006F0C9FA641CA3
:1009C000BC42E7DB012005F0B1FB042006F0C0FAD1
:1009D000BDE8FE83340000202DE9F05F90F821107F
:1009E0000024022903D004218163012485E00168E9
:1009F0000A6822F00E020A6001680A6822F0010209
:100A00000A603F4E3E4FB215DFF8F4C0DFF8F090B9
:100A1000DFF8ECA0DFF8E8B0DFF8E4E00168783F49
:100A200013011502ACF1640CA9F15009AAF13C0ABA
:100A3000ABF1280BAEF1140E4FF48018B14227D958
:100A4000B9420ED0614512D049451DD0514518D04C
:100A5000594518D0714501D1424615E0294EB142A1
:100A600001D1012210E0274E1436B14201D11022EB
:100A70000AE0244E2836B14206D0224A3C32914246
:100A800001D11A4600E02A461E49091F0A602BE0E0
:100A9000B94213D0614517D0494522D051451DD0E8
:100AA00059451DD0714501D142461AE0B14202D1EB
:100AB0004FF0807215E0134EB14201D1012210E0D7
:100AC000104E1436B14201D110220AE00D4E2836E4
:100AD000B14206D00B4A3C32914201D11A4600E0A5
:100AE0002A46074980394A60012180F821100021F7
:100AF00080F82010416B01B188472046BDE8F09F87
:100B0000800002400804024070B5044600F010F96D
:100B10000546601C02D004480078044400F008F93F
:100B2000401BA042FAD370BD100000202DE9F84F01
:100B3000DFF8C891002409F1040A0AF1040B2346E6
:100B40000F270BF1040ED1E00125A54006EA0502AE
:100B5000AA4276D1DFF8A8C14E68A6EB0C0866451C
:100B60002BD00DDC032E34D005DC36B3012E19D08A
:100B7000022E2FD11BE0112E16D0122E2AD119E0F1
:100B8000B8F5881F19D006DCB8F5803F15D0B8F548
:100B9000801F1FD111E0B8F5001F0ED0B8F5041F5B
:100BA00018D10AE0CB6815E0CB681B1D12E0CB68BA
:100BB00008330FE0CB680C330CE08B682BB1012BB2
:100BC0004FF0080303D0456104E0042302E005610F
:100BD00000E00023FF2A01D8064601E000F10406E8
:100BE0004FEA840501D9A5F12005D6F8008007FA5F
:100BF00005FC28EA0C0803FA05F548EA0508C6F8DA
:100C000000804D68ED0070D53E4DAE6946F001069E
:100C1000AE61AD6924F0030605F0010500953A4D7B
:100C200006EB050CDCF80850A607360F07FA06F8A5
:100C300025EA0805DFF8D480404503D14FF00008CD
:100C400025E052E0DFF8C880404502D14FF00108AE
:100C50001DE0DFF8C080404502D14FF0020816E0E9
:100C6000DFF8B480404502D14FF003080FE0DFF811
:100C7000AC80404502D14FF0040808E0DFF8A080C6
:100C8000404502D14FF0050801E04FF0060808FA90
:100C900006F848EA0508CCF808804D68D9F80060E5
:100CA000ED034D4601D5164300E096432E604D6896
:100CB000DAF80060AD03554601D5164300E09643CF
:100CC0002E604D68DBF80060ED025D4601D51643ED
:100CD00000E096432E604D68DEF80060AD02754678
:100CE00001D5164300E096432E60641C0A68164640
:100CF000E2407FF429AFBDE8F88F00000004014016
:100D000000001110001002400000014000080140E6
:100D1000000C014000100140001401400018014087
:100D2000001C01400AB1016170470904FBE70000A3
:100D30000148806870470000100000200248816868
:100D4000027811448160704710000020074810B5F8
:100D5000016841F010010160032000F075F80020E7
:100D600000F006F800F024F8002010BD002002403A
:100D700070B50D4D04464FF47A712878B1FBF0F050
:100D80000A490968B1FBF0F000F001FD48B9102CE8
:100D900007D200222146501E00F036F800206C6079
:100DA00070BD012070BD0000100000201C0000205C
:100DB0000C4808B5816941F001018161816901F048
:100DC00001010091C16941F08051C161C06900F029
:100DD000805000900448416821F0E06141F080615A
:100DE000416008BD0010024000000140002809DBFE
:100DF00000F01F02012191404009800000F1E02035
:100E0000C0F8001170470000F0B40E4B1B680C4690
:100E1000C3F30223C3F10705042D00D90425191DCE
:100E2000072901D2002300E0DB1E012606FA05F1A6
:100E3000491E214099409E40761E16403143F0BC29
:100E400005F0B0BF0CED00E0064900F007020868AD
:100E50004FF6FF03184040EA0220034A104308609F
:100E6000704700000CED00E00000FA052DE9F047A6
:100E70000F46050061D0434E306800F00700B842CD
:100E800009D2306820F0070038433060306800F045
:100E90000700B84251D128683B4C810712D5400762
:100EA00003D5606840F4E06060602878000703D5EF
:100EB000606840F4605060606068A96820F0F000ED
:100EC000084360602878C00728D06868012810D0DF
:100ED0002168022810D0890700292EDA616821F0E4
:100EE000030101436160FFF723FF804641F2883927
:100EF0000DE021688903EFE78901EDE7FFF718FFAF
:100F0000A0EB0801494502D90320BDE8F0876068DD
:100F1000696800F00C00B0EB810FEFD1306800F091
:100F20000700B8420BD9306820F007003843306022
:100F3000306800F00700B84201D00120E5E72878CA
:100F4000400705D56068E96820F4E0600843606008
:100F50002878000706D56068296920F4605040EAC7
:100F6000C100606000F038F86168084AC1F30311FD
:100F7000515CC8400649086006480068FFF7F8FE63
:100F80000020C2E70020024000100240207100084B
:100F90001C0000201400002004480549006849682E
:100FA000044AC1F30221515CC84070471C00002074
:100FB0000010024030710008044805490068496883
:100FC000044AC1F3C221515CC84070471C00002094
:100FD000001002403071000812A185B00FC98DE8E1
:100FE0000F0014A0144A006804905168134801F0DF
:100FF0000C03042B10D0082B0ED1C1F38343C9037B
:101000001DF803000AD5516804AAC1F34041515CA0
:101010000A4A5043B0FBF1F005B070470849484315
:10102000FAE7000002030405060708090A0B0C0D85
:101030000E0F1010010200000010024000127A0092
:1010400000093D002DE9F84F040070D02078C04D14
:10105000C00749D06868C0F38100012807D06868DC
:10106000C0F38100022809D16868C00306D528684A
:10107000800339D560680028E7D035E06068B0F5B6
:10108000803F0BD010B1B0F5A02F11D0286820F40C
:1010900080302860286820F4802002E0286840F42E
:1010A00080302860606890B1FFF742FE06460AE093
:1010B000286840F480202860F0E700BFFFF738FE82
:1010C000801B642873D828688003F7D50CE0FFF7ED
:1010D0002FFE064605E000BFFFF72AFE801B6428AE
:1010E000F0D828688003F7D420789A4E80074FF014
:1010F00001094FF0000839D5686810F00C0F07D0CF
:101100006868C0F38100022809D16868C00306D46A
:101110002868800714D52069012808D110E02069CB
:10112000B0B1C6F80090FFF703FE074605E00AE1FC
:10113000FFF7FEFDC01B0228C4D828688007F7D53A
:101140002868616920F0F80040EAC10028600DE0DD
:10115000C6F80080FFF7ECFD074604E0FFF7E8FD66
:10116000C01B022823D828688007F7D420780007FE
:101170002CD57948A169D9B1C0F80090FFF7D8FD06
:10118000074604E0FFF7D4FDC01B02280FD8686AA9
:101190008007F7D571484FF4FA510068B0FBF1F0C1
:1011A000009000BF0098411E0091FAD20EE080E04E
:1011B000C0F80080FFF7BCFD074604E0FFF7B8FD6C
:1011C000C01B022875D8686A8007F7D420784007CA
:1011D00060D5E8690027C00008D4E86940F0805075
:1011E000E861E869012700F0805000905C480168E0
:1011F000C90513D40168834641F480710160FFF78B
:1012000097FD824606E000BFFFF792FDA0EB0A00C3
:1012100064284ED8DBF80000C005F5D5E068012849
:101220000AD008B1052813D0286A20F001002862EE
:10123000286A20F0040002E0286A40F001002862D9
:10124000E06841F2883B98B1FFF772FD82460BE0FF
:10125000286A40F004002862EEE700BFFFF768FD4F
:10126000A0EB0A0159455AD8286A8007F6D50CE048
:10127000FFF75EFD824605E0FFF75AFDA0EB0A018D
:1012800059454CD8286A8007F6D41FB1E86920F088
:101290008050E861E06988B36968C1F3810102297F
:1012A00044D00228C6F8608004D0FFF741FD044610
:1012B00038E034E0FFF73CFD074604E0FFF738FD77
:1012C000C01B02282BD828688001F7D4206AB0F50B
:1012D000803F05D16868A16820F400300843686049
:1012E000D4E908010843696821F47411084368606F
:1012F000C6F86090FFF71CFD044606E025E000BF3D
:10130000FFF716FD001B022809D828688001F7D5D1
:101310001BE000BFFFF70CFD001B022802D90320D1
:10132000BDE8F88F28688001F4D40EE00128F7D0DA
:101330006868226A00F48031914204D1616A00F445
:101340007010884201D00120EAE70020E8E70000A1
:101350000010024000004242800442421C00002073
:101360000070004070B5040005D00025A56294F817
:10137000510010B106E0012070BD84F850502046A5
:1013800000F02EF8022084F851002068016821F056
:1013900040010160D4E901010843D4E9031211437B
:1013A000084361690843218B01F400710843E16936
:1013B0000843216A0843A16A084321680860A069BC
:1013C000042101EA1040216848602068C16921F4C5
:1013D0000061C1616565012084F85100002070BD85
:1013E00030B585B000240094019402940394006801
:1013F0001449884223D11448816941F480518161A4
:10140000816901F480510491816941F00401816195
:1014100080690E4D00F004000490A020009002208E
:1014200001900320039069462846FFF77FFB402088
:10143000CDE90004694628460294FFF777FB05B022
:1014400030BD0000003001400010024000080140A3
:101450002DE9F84F044690F8500000271D46164627
:10146000894601280DD04FF0010B84F850B0FFF7EA
:101470005FFC804694F85100BA46012804D0022748
:101480008EE00220BDE8F88FB9F1000F7DD0002E6C
:101490007BD0032084F85100C4F854A0C4F83090E5
:1014A000A686E686C4F838A0A4F83CA0A4F83EA01E
:1014B000C4F844A0C4F840A0A068B0F5004F04D11F
:1014C0002068016841F48041016020680168490694
:1014D00003D4016841F040010160E068B0F5006F9D
:1014E000606803D030B3012E24D040E008B1012E53
:1014F0001CD1206B21680088C86006E020688168E4
:10150000890709D5216B0988C160206B801C206385
:10151000E08E401EE08609E0FFF70AFCA0EB080021
:10152000A84202D3681C01D031E07DB3E08E0028D0
:10153000E4D11FE0206B21680078087306E0206882
:101540008168890709D5216B09780173206B401CDC
:101550002063E08E401EE08609E0FFF7E9FBA0EB88
:101560000800A84202D3681C01D010E075B1E08EDB
:101570000028E4D142462946204604F08FFF08B1F6
:1015800020206065A06820B107E008E0FFE703279E
:1015900006E02068C16880680090606D00B1012796
:1015A00084F851B084F850A038466BE72DE9F84F25
:1015B000044690F8500000270A9E1D4692468B462E
:1015C0004FF0010901280ED0012084F85000FFF7E8
:1015D000AFFB804694F85100616801280CD0B1F54A
:1015E000827F07D102E00220BDE8F88FA16809B927
:1015F000042801D00227C2E0BBF1000F27D0BAF1C6
:10160000000F24D01DB394F85100042802D0052007
:1016100084F8510000206065C4F838A0E587A587EC
:10162000C4F830B0E586A58620646064206801684F
:10163000490603D4016841F040010160E068B0F55B
:10164000006F606805D0E8B3012D46D07FE0012728
:1016500095E008B1012D39D1206B21680088C86060
:10166000206B801C2063E08E401EE0862EE0206808
:10167000816889070FD5E18E69B1B9F1010F0AD1EF
:10168000216B0988C160206B801C2063E08E401EA6
:10169000E0864FF0000920688168C9070CD0E18F0F
:1016A00051B1C068A16B0880A06B801CA063E08F63
:1016B000401EE0874FF00109FFF73AFBA0EB08005E
:1016C000B04200E009E001D3701C50D1E08E002848
:1016D000CDD1E08F0028CAD13FE0206B216800788F
:1016E0000873206B401C2063E08E401EE0862EE0D5
:1016F0002068816889070FD5E18E69B1B9F1010FC2
:101700000AD1216B09780173206B401C2063E08EA5
:10171000401EE0864FF0000920688168C9070CD0A0
:10172000E18F51B1C068A16B0870A06B401CA06331
:10173000E08F401EE0874FF00109FFF7F9FAA0EBB8
:101740000800B04202D3701C01D010E07EB1E08EE0
:101750000028CDD1E08F0028CAD14246314620462C
:1017600004F09CFE28B101272020606507E00327D4
:1017700005E0A06818B92068C16880680090012061
:1017800084F85100002084F8500038462CE710B54A
:10179000401EB0F1807F01D3012010BD4FF0E02446
:1017A00060610F21601705F0FDFA0020A06107209D
:1017B0002061002010BD70B590F83C20012A19D09E
:1017C000012400F83C4F0222427050F83C3C5A6819
:1017D0009D6822F070060A684968324325F080054A
:1017E00029435A6050F83C2C9160447000210170EC
:1017F000084670BD022070BD10B5040003D094F8F7
:101800003D0010B107E0012010BD002084F83C002D
:10181000204600F00DF8022084F83D00211D2068CC
:1018200005F022F8012084F83D00002010BD0000E2
:1018300008B500680649884208D10648C16941F0E8
:101840000201C161C06900F00200009008BD000003
:101850000004004000100240022180F83D100168A1
:101860008A6802F00702062A03D00A6842F00102E1
:101870000A60012180F83D1000207047022180F8A5
:101880003D1001680A6A41F211131A4207D10A6A2F
:101890009B101A4203D10A6822F001020A6001215A
:1018A00080F83D100020704770B5044690F83C0069
:1018B000012817D0012584F83C50022084F83D000F
:1018C0002068826822F0770222F47F4282600868F2
:1018D000502830D00DDC20284DD005DC98B31028DE
:1018E0003BD148E0022070BD302844D0402834D19C
:1018F00039E0602828D0702806D0B0F5805F2CD061
:10190000B0F5005F29D10AE0CB68D1E90121206858
:1019100004F0F0FF2068816841F0770109E0CB68AE
:10192000D1E90121206804F0E5FF2068816841F4D5
:101930008041816011E0CA684968206805F0AEF80E
:101940005021206807E016E0CA684968206805F061
:10195000B6F86021206804F0D7FF84F83D500020DD
:1019600084F83C0070BDCA684968206805F096F8A4
:1019700040212068EFE7226801461046EBE770B58A
:10198000044690F83C0001280DD0012584F83C5015
:10199000022084F83D0042B1042A0AD0082A0CD063
:1019A0000C2A11D10DE0022070BD206804F0B4FFB4
:1019B0000AE0206804F0E0FF06E0206805F012F875
:1019C00002E0206805F042F884F83D50002084F8D9
:1019D0003C0070BD10B5040003D094F83D0010B178
:1019E00007E0012010BD002084F83C00204600F0F4
:1019F0000CF8022084F83D00211D206804F034FF1B
:101A0000012084F83D00002010BD704770470000A1
:101A100070B5026804461068D168536910F00F0F62
:101A200051D003F0010501F4907635435DD0C20733
:101A300005D0CA0503D5E26B42F00102E26342071A
:101A400005D5DA0703D0E26B42F00202E2638207B7
:101A500005D5DA0703D0E26B42F00402E263020725
:101A600005D5DA0703D0E26B42F00802E263E26BCD
:101A7000002A34D0800604D5880602D5204605F019
:101A800046F820684069E16BC0F3801001F008015E
:101A90000143204624D005F02CF82068416949060E
:101AA0001AD5416921F040014161606BA0B11B4929
:101AB0004163606BFEF790FF002810D0606B416BB4
:101AC000BDE87040084783060FD58B060DD520462C
:101AD000BDE8704005F01BB82046FFF797FF70BDCA
:101AE000FFF794FF0020E06370BD030606D50B06E8
:101AF00004D52046BDE8704005F0B0B84006F3D5E7
:101B00004806F1D5D168204621F04001D16020215E
:101B100084F8391000F033F970BD0000E36A000862
:101B200070B5040004D094F83900002510B106E027
:101B3000012070BD84F83850204600F023F824209E
:101B400084F839002068C16821F40051C160204642
:101B500005F028F82068016921F4904101612068AE
:101B6000416921F02A0141612068C16841F40051B6
:101B7000C160E563202084F8390084F83A00002031
:101B800070BD000070B586B00024009401940294EA
:101B900003942B4E03682B49022003222A4DB342A3
:101BA00021D18B6943F480438B618B6903F48043BB
:101BB00004938B6943F004038B618969039201F0FC
:101BC000040104910102CDE9001069462846FEF7A0
:101BD000ADFF2815CDE90004694628460294FEF7BA
:101BE000A5FF06B070BD194EB342FAD1CB6943F4DC
:101BF0000033CB61CB6903F4003304938B6943F06A
:101C000004038B618969039201F0040104910421AA
:101C1000CDE9001069462846FEF788FF0820CDE987
:101C20000004694628460294FEF780FF0022114610
:101C30002620FFF7E9F82620FFF7D8F8D1E70000C3
:101C400000380140001002400008014000440040FC
:101C500090F83A30202B22D1F9B1F2B190F8383017
:101C6000012B1CD081628285C2850021C1632222A2
:101C700080F83A2080F838100168CA6842F480720F
:101C8000CA6001684A6942F001024A610068C1689D
:101C900041F02001C1600020704701207047022000
:101CA00070470000054810B5007804F083FBBDE8DC
:101CB0001040012201490248FFF7CABF000000207E
:101CC0000C0100202DE9F843044690F839001F4626
:101CD00016460D46202850D1A5B19EB194F8380083
:101CE00001284AD0012084F838004FF00008C4F8D9
:101CF0003C80212084F83900FFF71AF8A684814639
:101D0000E68426E00120BDE8F883E08C401EE084F4
:101D1000A0684B46B0F5805F4FF000024FF08001A5
:101D20002046009703D004F0CAFFE8B90DE004F0A4
:101D3000C6FFC8B928882168C0F308004860206938
:101D400008B16D1C05E0AD1C03E0216815F8010B1E
:101D50004860E08C0028D8D14B4600224021204624
:101D6000009704F0ACFF08B10320CCE7202084F8F2
:101D7000390084F838800020C5E70220C3E77047A7
:101D8000FEE700002DE9F0431B4C8146002520882A
:101D900066884643A088A0F5D041043902D1A079D5
:101DA00001280CD00021084603F0FCFE04F0C4F822
:101DB00012484FF480734115114C802218E0002026
:101DC000A0712A2767814FF02B08A4F80C800146E8
:101DD00003F0E8FE0120A071A4F80A80A781E5E7DE
:101DE00003614161C4F800904261026101616D1CB0
:101DF000B542F5D3BDE8F083500500200010014046
:101E00000C0C01402DE9F04F4A492A242B258988E2
:101E100045F2105A4FF4305B4FF4285E4FF4487689
:101E20004FF0F00C49F241394FF4A07345F21037EE
:101E30004FF4F07280B13F484FF00108494580F8F7
:101E400006800380A0F802C001D0B9423ED12C2602
:101E500006814481858157E036484FF000084945A6
:101E600080F80680A0F800C0438006D0A1F5D04CD1
:101E7000BCF1040C01D0B9420CD12C26068144815E
:101E8000A1F5D0448581043C01D0B94244D10380FE
:101E9000428041E0514507D1A0F808B0A0F80AE01F
:101EA0004FF42C5181810EE0A1F5C853633B06D05D
:101EB0002221018120214181212181812CE02C21BD
:101EC0000181458184810280468025E0A1F5D04CC6
:101ED000BCF1040C09D051450BD1A0F808B0A0F812
:101EE0000AE04FF42C54848121E02C2606814581A0
:101EF00009E0A1F5C85CBCF1630C12D02224048176
:101F00002124448120248481A1F5D044043C01D0C3
:101F1000B94201D102804380BDE8F04F002003F0B8
:101F200099BC4FF02C0CA0F808C044818581068034
:101F30004280E9E7500500202DE9F84F274E1D4665
:101F40008146B3880A9FA3F5D040043802D1B07906
:101F500001280BD0A2EB0900401C86B20C464FF4BE
:101F60008078DFF87CA04FF4007B33E034880846AB
:101F7000A11AA4EB09030024B4712A462A2474810F
:101F80002B25491E5B1EB58189B29BB20097FFF7D6
:101F9000D3FF0120B0717581B481BDE8F88F21466F
:101FA000484603F0FFFD03F0C7FF002150465A46A4
:101FB000DFF830C0802309E0C0F810804261CCF81F
:101FC0000070436103610261491C89B2B142F3D3DD
:101FD000641CA4B2AC42E2D9DFE700005005002047
:101FE000001001400C0C01402DE9F05F3220FEF79B
:101FF0008BFD0121002003F0A5FF3220FEF784FDB8
:10200000002003F0D1FBFE4D4FF4807449F24138BB
:10201000A88046F6040945F2103A45F21057FF2809
:1020200006D3A0F57F41FF3902D0B0F5134F6DD133
:10203000D32003F06FFF03F07FFB03F07DFB03F081
:102040007BFB4FF6FF7606EA0020A88003F074FBC6
:10205000A9880843A880404558D0BF2003F05AFF04
:1020600003F06AFB03F068FB03F066FB03F064FB1C
:1020700006EA0020A88003F05FFBA9880843A88037
:10208000484543D0D42003F045FF03F055FB03F04F
:1020900053FB03F051FB06EA0020A88003F04CFB41
:1020A000A9880843A880504530D04FF45A4003F027
:1020B00031FF03F041FB4FF45B4003F02BFF03F0D3
:1020C0003BFB06EA0020A8804FF45C4003F022FFAF
:1020D00003F032FBA9880843A880B0F5004F7DD0FB
:1020E000B84213D0A12003F015FF03F025FBA88010
:1020F00003F022FB06EA0020A88003F01DFBA9885C
:102100000843A0F5AE41A880613968D080B240454F
:1021100066D1CF2003F0FEFE002003F0E9FEC120CF
:1021200003F0E6FE302003F0E3FEED2003F0F2FEC4
:10213000642003F0DDFE032003F0DAFE122003F03A
:10214000D7FE812003F0D4FEE82003F0E3FE8520D3
:1021500003F0CEFE102003F0CBFE7A2003F0C8FE81
:10216000CB2003F0D7FE392003F0C2FE2C2003F071
:10217000BFFE002003F0BCFE342003F0B9FE0220B5
:1021800003F0B6FEF72003F0C5FE202003F0B0FEFA
:10219000EA2003F0BFFE002003F0AAFE002003F0B7
:1021A000A7FEC02003F0B6FE1B2003F0A1FEC12055
:1021B00003F0B0FE012003F09BFEC52003F0AAFE51
:1021C000302003F095FE302003F092FEC72003F08C
:1021D000A1FEB72003F08CFE362002E0B1E0ABE0B8
:1021E000B2E003F097FE482003F082FE3A2003F0AD
:1021F00091FE552003F07CFEB12003F08BFE002001
:1022000003F076FE1A2003F073FEB62003F082FE80
:102210000A2003F06DFEA22003F06AFEF22003F014
:1022200079FE002003F064FE262003F073FE0120F7
:1022300003F05EFEE02003F06DFE0F2003F058FE79
:102240002A2003F055FE282003F052FE082003F058
:102250004FFE0E2003F04CFE082003F049FE5420F0
:1022600003F046FEA92003F043FE432003F040FEA6
:102270000A2003F03DFE0F2003F03AFE002003F099
:1022800037FE002003F034FE002003F031FE002072
:1022900003F02EFEE12003F03DFE002003F028FEB7
:1022A000152003F025FE172003F022FE072003F07F
:1022B0001FFE112003F01CFE062003F019FE2B2048
:1022C00003F016FE562003F013FE3C2003F010FE30
:1022D000052003F00DFE102003F00AFE0F2003F08E
:1022E00007FE3F2003F004FE3F2003F001FE0F2015
:1022F00003F0FEFD2B2003F00DFE002003F0F8FD9F
:10230000002003F0F5FD012003F0F2FD3F2003F073
:10231000EFFD2A2003F0FEFD002003F0E9FD002080
:1023200003F0E6FD002003F0E3FDEF2003F0E0FD05
:10233000112003F0EFFDB1E041F66310A88003F037
:102340006EB8AF8001F02EB848457DD1112003F062
:10235000E1FD1420FEF7D8FBD02003F0DBFD0720C1
:1023600003F0C6FD422003F0C3FD1D2003F0C0FDB5
:10237000D12003F0CFFD002003F0BAFD1A2003F0B6
:10238000B7FD092003F0B4FDD22003F0C3FD012006
:1023900003F0AEFD222003F0ABFDC02003F0BAFD38
:1023A000102003F0A5FD3B2003F0A2FD002003F068
:1023B0009FFD022003F09CFD112003F099FDC52034
:1023C00003F0A8FD032003F093FDC82003F0A2FD55
:1023D000002003F08DFD252003F08AFD212003F06D
:1023E00087FD052003F084FD002003F081FD0A2015
:1023F00003F07EFD652003F07BFD252002E0000058
:102400005005002003F074FD772003F071FD50208B
:1024100003F06EFD0F2003F06BFD002003F068FD5C
:10242000F82003F077FD012003F062FDFE2003F0A9
:1024300071FD002003F05CFD022003F059FD202017
:1024400003F068FD362000E02EE003F063FD082075
:1024500003F04EFD3A2003F05DFD552003F048FDEA
:102460002B2003F057FD002003F042FD002003F075
:102470003FFD012003F03CFD3F2003F039FD2A2001
:1024800003F048FD002003F033FD002003F030FD91
:10249000012003F02DFDDF2003F02AFD7820FEF758
:1024A00033FB292001F0FBBE50457CD1ED2003F029
:1024B00031FD012003F01CFDFE2003F019FDEE208C
:1024C00003F028FDDE2003F013FD212003F010FDB2
:1024D000F12003F01FFD012003F00AFDDF2003F0CF
:1024E00019FD102003F004FDC42003F013FD8F201C
:1024F00003F0FEFCC62003F00DFD002003F0F8FC05
:10250000E22003F0F5FCE22003F0F2FCE22003F00D
:10251000EFFCBF2003F0FEFCAA2003F0E9FCB02092
:1025200003F0F8FC0D2003F0E3FC002003F0E0FCD6
:102530000D2003F0DDFC002003F0DAFC112003F095
:10254000D7FC002003F0D4FC192003F0D1FC0020BC
:1025500003F0CEFC212003F0CBFC002003F0C8FCEC
:102560002D2003F0C5FC002003F0C2FC3D2003F049
:10257000BFFC002003F0BCFC5D2003F0B9FC002090
:1025800003F0B6FC5D2003F0B3FC002003F0B0FCC8
:10259000B12003F0BFFC802003F0AAFC002003F070
:1025A000A7FC8B2000E0FCE303F0A2FC002003F07A
:1025B0009FFC962003F09CFC002003F099FCB220C5
:1025C00003F0A8FC002003F093FC002003F090FC33
:1025D000022003F08DFC002003F08AFC032003F0AE
:1025E00087FC002003F084FCB32003F093FC002060
:1025F00003F07EFC002003F07BFC002003F078FC5D
:10260000002003F075FC002003F072FC002003F0B2
:102610006FFC002003F06CFC002003F069FC00203C
:1026200003F066FC002003F063FC002003F060FC74
:10263000002003F05DFC002003F05AFC002003F0B2
:1026400057FC002003F054FC002003F051FC002054
:1026500003F04EFC002003F04BFC002003F048FC8C
:10266000002003F045FC002003F042FC002003F0B2
:102670003FFC002003F03CFC002003F039FCB420B8
:1026800003F048FC8B2003F033FC002003F030FC07
:10269000962003F02DFC002003F02AFCA12003F07B
:1026A00027FC002003F024FCB52003F033FC0220BB
:1026B00003F01EFC002003F01BFC032003F018FCB9
:1026C000002003F015FC042003F012FC002003F0AE
:1026D0000FFCB62003F01EFC002003F009FC0020D4
:1026E00003F006FCB72003F015FC002003F000FC0B
:1026F000002003F0FDFB3F2003F0FAFB002003F075
:10270000F7FB5E2003F0F4FB002003F0F1FB6420F4
:1027100003F0EEFB002003F0EBFB8C2003F0E8FB62
:10272000002003F0E5FBAC2003F0E2FB002003F007
:10273000DFFBDC2003F0DCFB002003F0D9FB702082
:1027400003F0D6FB002003F0D3FB902003F0D0FB76
:10275000002003F0CDFBEB2003F0CAFB002003F0C8
:10276000C7FBDC2003F0C4FB002003F0C1FBB82052
:1027700003F0D0FB002003F0BBFB002003F0B8FB0C
:10278000002003F0B5FB002003F0B2FB002003F0B3
:10279000AFFB002003F0ACFB002003F0A9FB0020FE
:1027A00003F0A6FBBA2003F0B5FB242003F0A0FB46
:1027B000002003F09DFB002003F09AFB002003F0B3
:1027C00097FBC12003F0A6FB202003F091FB002023
:1027D00003F08EFB542003F08BFB002003F088FBFA
:1027E000FF2003F085FB002003F082FBC22003F0F2
:1027F00091FB0A2003F07CFB002003F079FB04200E
:1028000003F076FB002003F073FBC32003F082FB90
:102810003C2003F06DFB002003F06AFB3A2003F03C
:1028200067FB002003F064FB392003F061FB00200C
:1028300003F05EFB372003F05BFB002003F058FB46
:102840003C2003F055FB002003F052FB362003F040
:102850004FFB002003F04CFB322003F049FB00202B
:1028600003F046FB2F2003F043FB002003F040FB66
:102870002C2003F03DFB002003F03AFB292003F05D
:1028800037FB002003F034FB262003F031FB00204F
:1028900003F02EFB242003F02BFB002003F028FB89
:1028A000242003F025FB002003F022FB232003F06B
:1028B0001FFB002003F01CFB3C2003F019FB002051
:1028C00003F016FB362003F013FB002003F010FB8F
:1028D000322003F00DFB002003F00AFB2F2003F051
:1028E00007FB002003F004FB2C2003F001FB002079
:1028F00003F0FEFA292003F0FBFA002003F0F8FAB7
:10290000262003F0F5FA002003F0F2FA242003F069
:10291000EFFA002003F0ECFA242003F0E9FA00209B
:1029200003F0E6FA232003F0E3FA002003F0E0FAD4
:10293000C42003F0EFFA622003F0DAFA002003F07B
:10294000D7FA052003F0D4FA002003F0D1FA84204E
:1029500003F0CEFA002003F0CBFAF02003F0C8FA1F
:10296000002003F0C5FA182003F0C2FA002003F09B
:10297000BFFAA42003F0BCFA002003F0B9FA182033
:1029800003F0B6FA002003F0B3FA502003F0B0FAD7
:10299000002003F0ADFA0C2003F0AAFA002003F0A7
:1029A000A7FA172003F0A4FA002003F0A1FA95205B
:1029B00003F09EFA002003F09BFAF32003F098FA4C
:1029C000002003F095FAE62003F092FA002003F0CD
:1029D0008FFAC52003F09EFA322003F089FA002016
:1029E00003F086FA442003F083FA002003F080FA13
:1029F000652003F07DFA002003F07AFA762003F0D8
:102A000077FA002003F074FA882003F071FA0020AE
:102A100003F06EFAC62003F07DFA202003F068FA76
:102A2000002003F065FA172003F062FA002003F09B
:102A30005FFA012003F05CFA002003F059FAC72086
:102A400003F068FA002003F053FA002003F050FA74
:102A5000002003F04DFA002003F04AFAC82003F0EA
:102A600059FA002003F044FA002003F041FA002054
:102A700003F03EFA002003F03BFAC92003F04AFAC3
:102A8000002003F035FA002003F032FA002003F0B2
:102A90002FFA002003F02CFA002003F029FA00207E
:102AA00003F026FA002003F023FA002003F020FAB6
:102AB000002003F01DFA002003F01AFA002003F0B2
:102AC00017FA002003F014FA002003F011FA002096
:102AD00003F00EFA002003F00BFA002003F008FACE
:102AE000E02003F017FA162003F002FA002003F0AA
:102AF000FFF91C2003F0FCF9002003F0F9F9212074
:102B000003F0F6F9002003F0F3F9362003F0F0F9B2
:102B1000002003F0EDF9462003F0EAF9002003F06D
:102B2000E7F9522003F0E4F9002003F0E1F9642012
:102B300003F0DEF9002003F0DBF97A2003F0D8F986
:102B4000002003F0D5F98B2003F0D2F9002003F028
:102B5000CFF9992003F0CCF9002003F0C9F9A8209F
:102B600003F0C6F9002003F0C3F9B92003F0C0F95F
:102B7000002003F0BDF9C42003F0BAF9002003F0EF
:102B8000B7F9CA2003F0B4F9002003F0B1F9D2205C
:102B900003F0AEF9002003F0ABF9D92003F0A8F957
:102BA000002003F0A5F9E02003F0A2F9002003F0D3
:102BB0009FF9F32003F09CF9002003F099F9E1203C
:102BC00003F0A8F9162003F093F9002003F090F920
:102BD0001C2003F08DF9002003F08AF9222003F075
:102BE00087F9002003F084F9362003F081F90020F2
:102BF00003F07EF9452003F07BF9002003F078F91B
:102C0000522003F075F9002003F072F9642003F0FC
:102C10006FF9002003F06CF97A2003F069F90020C5
:102C200003F066F98B2003F063F9002003F060F9EC
:102C3000992003F05DF9002003F05AF9A82003F071
:102C400057F9002003F054F9B92003F051F900209E
:102C500003F04EF9C42003F04BF9002003F048F9CB
:102C6000CA2003F045F9002003F042F9D22003F016
:102C70003FF9002003F03CF9D82003F039F9002097
:102C800003F036F9E02003F033F9002003F030F9C7
:102C9000F32003F02DF9002003F02AF9E22003F0DD
:102CA00039F9052003F024F9002003F021F90B2065
:102CB00003F01EF9002003F01BF91B2003F018F9A4
:102CC000002003F015F9342003F012F9002003F07E
:102CD0000FF9442003F00CF9002003F009F94F200C
:102CE00003F006F9002003F003F9612003F000F976
:102CF000002003F0FDF8792003F0FAF8002003F03B
:102D0000F7F8882003F0F4F8002003F0F1F897209A
:102D100003F0EEF8002003F0EBF8A62003F0E8F84B
:102D2000002003F0E5F8B72003F0E2F8002003F0FC
:102D3000DFF8C22003F0DCF8002003F0D9F8C72048
:102D400003F0D6F8002003F0D3F8D12003F0D0F838
:102D5000002003F0CDF8D62003F0CAF8002003F0DD
:102D6000C7F8DD2003F0C4F8002003F0C1F8F32019
:102D700003F0BEF8002003F0BBF8E32003F0CAF82C
:102D8000052003F0B5F8002003F0B2F80A2003F0A4
:102D9000AFF8002003F0ACF81C2003F0A9F80020E5
:102DA00000E0FDE203F0A4F8332003F0A1F80020D6
:102DB00003F09EF8442003F09BF8002003F098F8FD
:102DC000502003F095F8002003F092F8622003F001
:102DD0008FF8002003F08CF8782003F089F80020A9
:102DE00003F086F8882003F083F8002003F080F8D1
:102DF000972003F07DF8002003F07AF8A62003F076
:102E000077F8002003F074F8B72003F071F8002081
:102E100003F06EF8C22003F06BF8002003F068F8AE
:102E2000C72003F065F8002003F062F8D12003F01A
:102E30005FF8002003F05CF8D52003F059F800207B
:102E400003F056F8DD2003F053F8002003F050F8AB
:102E5000F32003F04DF8002003F04AF8E42003F0DB
:102E600059F8012003F044F8002003F041F8012054
:102E700003F03EF8002003F03BF8022003F038F89E
:102E8000002003F035F82A2003F032F8002003F088
:102E90002FF83C2003F02CF8002003F029F84B20F9
:102EA00003F026F8002003F023F85D2003F020F85B
:102EB000002003F01DF8742003F01AF8002003F03E
:102EC00017F8842003F014F8002003F011F8932081
:102ED00003F00EF8002003F00BF8A22003F008F82E
:102EE000002003F005F8B32003F002F8002002F000
:102EF000FFFFBE2002F0FCFF002002F0F9FFC4201B
:102F000002F0F6FF002002F0F3FFCD2002F0F0FF08
:102F1000002002F0EDFFD32002F0EAFF002002F0D3
:102F2000E7FFDD2002F0E4FF002002F0E1FFF320E4
:102F300002F0DEFF002002F0DBFFE52002F0EAFFF6
:102F4000002002F0D5FF002002F0D2FF002002F0A6
:102F5000CFFF002002F0CCFF022002F0C9FF0020CA
:102F600002F0C6FF292002F0C3FF002002F0C0FFDC
:102F70003C2002F0BDFF002002F0BAFF4B2002F01F
:102F8000B7FF002002F0B4FF5D2002F0B1FF002087
:102F900002F0AEFF742002F0ABFF002002F0A8FFA9
:102FA000842002F0A5FF002002F0A2FF932002F08F
:102FB0009FFF002002F09CFFA22002F099FF00205A
:102FC00002F096FFB32002F093FF002002F090FF82
:102FD000BE2002F08DFF002002F08AFFC42002F024
:102FE00087FF002002F084FFCD2002F081FF002047
:102FF00002F07EFFD32002F07BFF002002F078FF7A
:10300000DC2002F075FF002002F072FFF32002F0D6
:103010006FFF002002F06CFFE62002F07BFF112022
:1030200002F066FF002002F063FF342002F060FF30
:10303000002002F05DFF562002F05AFF002002F04F
:1030400057FF762002F054FF002002F051FF772056
:1030500002F04EFF002002F04BFF662002F048FF16
:10306000002002F045FF882002F042FF002002F01D
:103070003FFF992002F03CFF002002F039FFBB2007
:1030800002F036FF002002F033FF992002F030FFFB
:10309000002002F02DFF662002F02AFF002002F03F
:1030A00027FF552002F024FF002002F021FF5520C9
:1030B00002F01EFF002002F01BFF452002F018FF67
:1030C000002002F015FF432002F012FF002002F062
:1030D0000FFF442002F00CFF002002F009FFE72060
:1030E00002F018FF322002F003FF002002F000FF80
:1030F000552002F0FDFE002002F0FAFE762002F0DC
:10310000F7FE002002F0F4FE662002F0F1FE00203F
:1031100002F0EEFE672002F0EBFE002002F0E8FE77
:10312000672002F0E5FE002002F0E2FE872002F0B8
:10313000DFFE002002F0DCFE992002F0D9FE002024
:1031400002F0D6FEBB2002F0D3FE002002F0D0FE3B
:10315000992002F0CDFE002002F0CAFE772002F096
:10316000C7FE002002F0C4FE442002F0C1FE002091
:1031700002F0BEFE562002F0BBFE002002F0B8FEB8
:10318000232002F0B5FE002002F0B2FE332002F050
:10319000AFFE002002F0ACFE452002F0A9FE0020A8
:1031A00002F0A6FEE82002F0B5FE002002F0A0FE2C
:1031B000002002F09DFE992002F09AFE002002F00D
:1031C00097FE872002F094FE002002F091FE8820F6
:1031D00002F08EFE002002F08BFE772002F088FEC7
:1031E000002002F085FE662002F082FE002002F040
:1031F0007FFE882002F07CFE002002F079FEAA20EB
:1032000002F076FE002002F073FEBB2002F070FE9A
:10321000002002F06DFE992002F06AFE002002F00C
:1032200067FE662002F064FE002002F061FE552079
:1032300002F05EFE002002F05BFE552002F058FE18
:10324000002002F055FE442002F052FE002002F061
:103250004FFE442002F04CFE002002F049FE5520B3
:1032600002F046FE002002F043FEE92002F052FE8A
:10327000AA2002F03DFE002002F03AFE002002F0FB
:1032800037FE002002F034FE002002F043FEAA20A8
:1032900002F02EFECF2002F03DFE002002F028FEBC
:1032A000002002F025FE002002F022FE002002F0A5
:1032B0001FFE002002F01CFE002002F019FE00207C
:1032C00002F016FE002002F013FE002002F010FEB5
:1032D000002002F00DFE002002F00AFE002002F0A5
:1032E00007FE002002F004FE002002F001FE002094
:1032F00002F0FEFD002002F0FBFD002002F0F8FDD0
:10330000F02002F007FE002002F0F2FD502002F053
:10331000EFFD002002F0ECFD002002F0E9FD0020AE
:1033200002F0E6FDF32002F0F5FD002002F0E0FDE2
:10333000F92002F0EFFD062002F0DAFD102002F085
:10334000D7FD292002F0D4FD002002F0D1FD3A2063
:1033500002F0E0FD552002F0CBFD112002F0DAFD75
:103360006420FDF7D1FB292002F0D4FD352002F0C6
:10337000D1FD002002F0BCFD512002F0CBFDFF206A
:1033800002F0B6FD532002F0C5FD2C2002F0B0FD86
:10339000552002F0BFFD822002F0AAFD2C20FCE3A4
:1033A000B8427DD14FF470445521204602F0CAFD49
:1033B000651CAA21284602F0C5FDA61C52213046F4
:1033C00002F0C0FDE71C0821384602F0BBFD4FF2B9
:1033D00004080121404602F0B5FD0D214FF43040B4
:1033E00002F0B0FD0D214BF2010002F0ABFD0D210A
:1033F0004BF2020002F0A6FD4FF436493421484654
:1034000002F0A0FD34214BF2016002F09BFD34215B
:103410004BF2026002F096FD4FF4314A0D21504606
:1034200002F090FD4BF2011B0D21584602F08AFD7F
:103430000D214BF2021002F085FD34214FF437408C
:1034400002F080FD34214BF2017002F07BFD34214B
:103450004BF2027002F076FD00214FF4324002F090
:1034600071FD00214BF2012002F06CFD00214BF2B6
:10347000022002F067FD24214FF4384002F062FD83
:1034800024214BF6010002F05DFD24214BF60200E1
:1034900002F058FD01214FF43F4002F053FD00E0DF
:1034A000FEE30F214FF4334002F04CFD0F214BF2AD
:1034B000013002F047FD0F214BF2023002F042FDD5
:1034C00034214FF4394002F03DFD34214BF6011018
:1034D00002F038FD34214BF6021002F033FD0821D2
:1034E0004FF4354002F02EFD08214BF2015002F05E
:1034F00029FD08214BF2025002F024FD03214FF474
:10350000424002F01FFD24214FF43A4002F01AFD20
:1035100024214BF6012002F015FD24214BF6022058
:1035200002F010FD00214FF43C4002F00BFD782129
:103530004BF6014002F006FD00214BF6024002F07E
:1035400001FD00214FF43D4002F0FCFC78214BF6D8
:10355000015002F0F7FC00214BF6025002F0F2FCA1
:1035600000214FF43E4002F0EDFC64214BF6016077
:1035700002F0E8FC00214FF4514002F0E3FC33215B
:103580004DF2011002F0DEFC00214DF2021002F0BB
:10359000D9FC34214DF2031002F0D4FC00214DF28D
:1035A000041002F0CFFC3A214DF2051002F0CAFCE3
:1035B00000214DF2061002F0C5FC4A214DF2071021
:1035C00002F0C0FC00214DF2081002F0BBFC5C21AF
:1035D0004DF2091002F0B6FC00214DF20A1002F083
:1035E000B1FC81214DF20B1002F0ACFC00214DF238
:1035F0000C1002F0A7FCA6214DF20D1002F0A2FC67
:1036000000214DF20E1002F09DFCE5214DF20F104D
:1036100002F098FC01214DF2101002F093FC1321EE
:103620004DF2111002F08EFC01214DF2121002F049
:1036300089FC54214DF2131002F084FC01214DF25B
:10364000141002F07FFC82214DF2151002F07AFC7A
:1036500001214DF2161002F075FCCA214DF217102F
:1036600002F070FC02214DF2181002F06BFC0021F8
:103670004DF2191002F066FC02214DF21A1002F010
:1036800061FC01214DF21B1002F05CFC02214DF2A5
:103690001C1002F057FC34214DF21D1002F052FCB8
:1036A00002214DF21E1002F04DFC67214DF21F1059
:1036B00002F048FC02214DF2201002F043FC84216C
:1036C0004DF2211002F03EFC02214DF2221002F0D8
:1036D00039FCA4214DF2231002F034FC02214DF2FA
:1036E000241002F02FFCB7214DF2251002F02AFC25
:1036F00002214DF2261002F025FCCF214DF22710B9
:1037000002F020FC02214DF2281002F01BFCDE2109
:103710004DF2291002F016FC02214DF22A1002F09F
:1037200011FCF2214DF22B1002F00CFC02214DF2A3
:103730002C1002F007FCFE214DF22D1002F002FCCD
:1037400003214DF22E1002F0FDFB10214DF22F103F
:1037500002F0F8FB03214DF2301002F0F3FB3321AD
:103760004DF2311002F0EEFB03214DF2321002F067
:10377000E9FB6D214DF2331002F0E4FB00214FF420
:10378000524002F0DFFB33214DF2012002F0DAFB60
:1037900000214DF2022002F0D5FB34214DF203202E
:1037A00002F0D0FB00214DF2042002F0CBFB3A21C5
:1037B0004DF2052002F0C6FB00214DF2062002F07A
:1037C000C1FB4A214DF2072002F0BCFB00214DF263
:1037D000082002F0B7FB5C214DF2092002F0B2FB99
:1037E00000214DF20A2002F0ADFB81214DF20B20A9
:1037F00002F0A8FB00214DF20C2002F0A3FBA62151
:103800004DF20D2002F09EFB00214DF20E2002F041
:1038100099FBE5214DF20F2002F094FB01214DF2BE
:10382000102002F08FFB13214DF2112002F08AFBD1
:1038300001214DF2122002F085FB54214DF213209C
:1038400002F080FB01214DF2142002F07BFB82216B
:103850004DF2152002F076FB01214DF2162002F008
:1038600071FBCA214DF2172002F06CFB02214DF2D0
:10387000182002F067FB00214DF2192002F062FBD4
:1038800002214DF21A2002F05DFB01214DF21B20B6
:1038900002F058FB02214DF21C2002F053FB3421B0
:1038A0004DF21D2002F04EFB02214DF21E2002F0CF
:1038B00049FB67214DF21F2002F044FB02214DF22B
:1038C000202002F03FFB84214DF2212002F03AFB40
:1038D00002214DF2222002F035FBA4214DF22320DB
:1038E00002F030FB02214DF2242002F02BFBB72125
:1038F0004DF2252002F026FB02214DF2262002F097
:1039000021FBCF214DF2272002F01CFB02214DF2BA
:10391000282002F017FBDE214DF2292002F012FBD5
:1039200002214DF22A2002F00DFBF2214DF22B2054
:1039300002F008FB02214DF22C2002F003FBFE21D5
:103940004DF22D2002F0FEFA03214DF22E2002F05E
:10395000F9FA10214DF22F2002F0F4FA03214DF272
:10396000302002F0EFFA33214DF2312002F0EAFA72
:1039700003214DF2322002F0E5FA6D214DF23320A1
:1039800002F0E0FA00214FF4534002F0DBFA332159
:103990004DF2013002F0D6FA00214DF2023002F071
:1039A000D1FA34214DF2033002F0CCFA00214DF26D
:1039B000043002F0C7FA3A214DF2053002F0C2FAA3
:1039C00000214DF2063002F0BDFA4A214DF20730D7
:1039D00002F0B8FA00214DF2083002F0B3FA5C218F
:1039E0004DF2093002F0AEFA00214DF20A3002F039
:1039F000A9FA81214DF20B3002F0A4FA00214DF218
:103A00000C3002F09FFAA6214DF20D3002F09AFA26
:103A100000214DF20E3002F095FAE5214DF20F3003
:103A200002F090FA01214DF2103002F08BFA1321CE
:103A30004DF2113002F086FA01214DF2123002F0FF
:103A400081FA54214DF2133002F07CFA01214DF23B
:103A5000143002F077FA82214DF2153002F072FA3A
:103A600001214DF2163002F06DFACA214DF21730E5
:103A700002F068FA02214DF2183002F063FA0021D8
:103A80004DF2193002F05EFA02214DF21A3002F0C6
:103A900059FA01214DF21B3002F054FA02214DF285
:103AA0001C3002F04FFA34214DF21D3002F04AFA78
:103AB00002214DF21E3002F045FA67214DF21F300F
:103AC00002F040FA02214DF2203002F03BFA84214C
:103AD0004DF2213002F036FA02214DF2223002F08E
:103AE00031FAA4214DF2233002F02CFA02214DF2DA
:103AF000243002F027FAB7214DF2253002F022FAE5
:103B000002214DF2263002F01DFACF214DF227306E
:103B100002F018FA02214DF2283002F013FADE21E9
:103B20004DF2293002F00EFA02214DF22A3002F055
:103B300009FAF2214DF22B3002F004FA02214DF283
:103B40002C3002F0FFF9FE214DF22D3002F0FAF98F
:103B500003214DF22E3002F0F5F910214DF22F30F5
:103B600002F0F0F903214DF2303002F0EBF933218D
:103B70004DF2313002F0E6F903214DF2323002F01D
:103B8000E1F96D214DF2333002F0DCF900214FF400
:103B9000544002F0D7F9332100E080E34DF20140B8
:103BA00002F0D0F900214DF2024002F0CBF93421AD
:103BB0004DF2034002F0C6F900214DF2044002F03C
:103BC000C1F93A214DF2054002F0BCF900214DF255
:103BD000064002F0B7F94A214DF2074002F0B2F96F
:103BE00000214DF2084002F0ADF95C214DF2094090
:103BF00002F0A8F900214DF20A4002F0A3F9812158
:103C00004DF20B4002F09EF900214DF20C4002F003
:103C100099F9A6214DF20D4002F094F900214DF2E0
:103C20000E4002F08FF9E5214DF20F4002F08AF9C3
:103C300001214DF2104002F085F913214DF211409F
:103C400002F080F901214DF2124002F07BF954217B
:103C50004DF2134002F076F901214DF2144002F0CA
:103C600071F982214DF2154002F06CF901214DF2FB
:103C7000164002F067F9CA214DF2174002F062F9CE
:103C800002214DF2184002F05DF900214DF2194079
:103C900002F058F902214DF21A4002F053F900E007
:103CA00001E301214DF21B4002F04CF902214DF2DB
:103CB0001C4002F047F934214DF21D4002F042F958
:103CC00002214DF21E4002F03DF967214DF21F40E6
:103CD00002F038F902214DF2204002F033F984213C
:103CE0004DF2214002F02EF902214DF2224002F065
:103CF00029F9A4214DF2234002F024F902214DF2CA
:103D0000244002F01FF9B7214DF2254002F01AF9C4
:103D100002214DF2264002F015F9CF214DF2274045
:103D200002F010F902214DF2284002F00BF9DE21D9
:103D30004DF2294002F006F902214DF22A4002F02C
:103D400001F9F2214DF22B4002F0FCF802214DF274
:103D50002C4002F0F7F8FE214DF22D4002F0F2F86F
:103D600003214DF22E4002F0EDF810214DF22F40CC
:103D700002F0E8F803214DF2304002F0E3F833217D
:103D80004DF2314002F0DEF803214DF2324002F0F4
:103D9000D9F86D214DF2334002F0D4F800214FF4F0
:103DA000554002F0CFF833214DF2015002F0CAF82D
:103DB00000214DF2025002F0C5F834214DF20350BB
:103DC00002F0C0F800214DF2045002F0BBF83A2195
:103DD0004DF2055002F0B6F800214DF2065002F007
:103DE000B1F84A214DF2075002F0ACF800214DF233
:103DF000085002F0A7F85C214DF2095002F0A2F839
:103E000000214DF20A5002F09DF881214DF20B5035
:103E100002F098F800214DF20C5002F093F8A62120
:103E20004DF20D5002F08EF800214DF20E5002F0CE
:103E300089F8E5214DF20F5002F084F801214DF28E
:103E4000105002F07FF813214DF2115002F07AF871
:103E500001214DF2125002F075F854214DF2135029
:103E600002F070F801214DF2145002F06BF882213B
:103E70004DF2155002F066F801214DF2165002F095
:103E800061F8CA214DF2175002F05CF802214DF2A0
:103E9000185002F057F800214DF2195002F052F874
:103EA00002214DF21A5002F04DF801214DF21B5043
:103EB00002F048F802214DF21C5002F043F8342180
:103EC0004DF21D5002F03EF802214DF21E5002F05C
:103ED00039F867214DF21F5002F034F802214DF2FB
:103EE000205002F02FF884214DF2215002F02AF8E0
:103EF00002214DF2225002F025F8A4214DF2235068
:103F000002F020F802214DF2245002F01BF8B721F4
:103F10004DF2255002F016F802214DF2265002F023
:103F200011F8CF214DF2275002F00CF802214DF28A
:103F3000285002F007F8DE214DF2295002F002F875
:103F400002214DF22A5001F0FDFFF2214DF22B50DB
:103F500001F0F8FF02214DF22C5001F0F3FFFE2199
:103F60004DF22D5001F0EEFF03214DF22E5001F0E5
:103F7000E9FF10214DF22F5001F0E4FF03214DF233
:103F8000305001F0DFFF33214DF2315001F0DAFF04
:103F900003214DF2325001F0D5FF6D214DF2335027
:103FA00001F0D0FF00214FF4564001F0CBFF332148
:103FB0004DF2016001F0C6FF00214DF2026001F0F8
:103FC000C1FF34214DF2036001F0BCFF00214DF22E
:103FD000046001F0B7FF3A214DF2056001F0B2FF35
:103FE00000214DF2066001F0ADFF4A214DF207605D
:103FF00001F0A8FF00214DF2086001F0A3FF5C2151
:104000004DF2096001F09EFF00214DF20A6001F0BF
:1040100099FF81214DF20B6001F094FF00214DF2D8
:104020000C6001F08FFFA6214DF20D6001F08AFFB8
:1040300000214DF20E6001F085FFE5214DF20F6089
:1040400001F080FF01214DF2106001F07BFF132190
:104050004DF2116001F076FF01214DF2126001F086
:1040600071FF54214DF2136001F06CFF01214DF2FC
:10407000146001F067FF82214DF2156001F062FFCC
:1040800001214DF2166001F05DFFCA214DF217606B
:1040900001F058FF02214DF2186001F053FF00219A
:1040A0004DF2196001F04EFF02214DF21A6001F04D
:1040B00049FF01214DF21B6001F044FF02214DF246
:1040C0001C6001F03FFF34214DF21D6001F03AFF0A
:1040D00002214DF21E6001F035FF67214DF21F6095
:1040E00001F030FF02214DF2206001F02BFF84210E
:1040F0004DF2216001F026FF02214DF2226001F015
:1041000021FFA4214DF2236001F01CFF02214DF29A
:10411000246001F017FFB7214DF2256001F012FF76
:1041200002214DF2266001F00DFFCF214DF22760F4
:1041300001F008FF02214DF2286001F003FFDE21AB
:104140004DF2296001F0FEFE02214DF22A6001F0DD
:10415000F9FEF2214DF22B6001F0F4FE02214DF246
:104160002C6001F0EFFEFE214DF22D6001F0EAFE21
:1041700003214DF22E6001F0E5FE10214DF22F607B
:1041800001F0E0FE03214DF2306001F0DBFE33214F
:104190004DF2316001F0D6FE03214DF2326001F0A4
:1041A000D1FE6D214DF2336001F0CCFE5521204649
:1041B00001F0C8FEAA21284601F0C4FE5221304673
:1041C00001F0C0FE0821384601F0BCFE0021404647
:1041D00001F0B8FECC21504601F0B4FE0021584653
:1041E00001F0B0FE0521484601F0ACFE70214FF40D
:1041F000374001F0A7FE70214BF2017001F0A2FEE2
:1042000001214FF4384001F09DFE03214BF60100DF
:1042100001F098FE03214BF6020001F093FE03210A
:104220004BF6030001F08EFE02214FF43C4001F0FA
:1042300089FE00214BF6014001F084FE00214BF67F
:10424000024001F07FFED0214FF4494001F07AFE98
:1042500002214CF6011001F075FE50214CF60210BF
:1042600001F070FE50214CF6031001F06BFE50215E
:104270004CF6041001F066FE00214FF4545001F09A
:1042800061FE55214FF4685001F05CFE4FF48850F8
:1042900001F040FE782002F05BFE4FF4245001F064
:1042A00039FE01F037BAA0F513414FF4E06740F250
:1042B000022840F23F154FF4274A253935D0FE1D1C
:1042C000A0F513414FF4017928397DD0A0F51341B1
:1042D0004FF4887B4FF41C5A203976D0A0F5134157
:1042E000313973D0A0F5A841083970D0A0F5A85194
:1042F0004FF4407B05396BD0A0F53541053968D0C6
:10430000A0F54541053965D0A0F5094189397DD031
:10431000A0F58A4131397AD0A0F58A41353977D074
:10432000A0F5C851633974D0BBE747F6F001E5202A
:1043300001F008FE2146012001F004FE394602206A
:1043400001F000FE41F23001032001F0FBFD0021ED
:10435000042001F0F7FD4146082001F0F3FD0021A3
:10436000092001F0EFFD00210A2001F0EBFD002102
:104370000C2001F0E7FD00210D2001F0E3FD0021FC
:104380000F2001F0DFFD0021102001F0DBFD0721EF
:10439000112001F0D7FD0021122001F0D3FD0021F2
:1043A000132001F0CFFD0021072001F0CBFD41F2E9
:1043B0009061102001F0C6FD40F22721112001F08C
:1043C000C1FD9D21122006E087E030E1D3E1A5E2A6
:1043D0003FE3FDE3FDE301F0B5FD4FF4C8511320C9
:1043E00001F0B0FD2521292001F0ACFD0D212B208D
:1043F00001F0A8FD0721302001F0A4FD40F20331B7
:10440000312001F09FFD0321322003E0FEE3FEE3B3
:10441000FEE3FEE301F096FD40F20621352001F0B7
:1044200091FD0821362001F08DFD40F20641372034
:1044300001F088FD4FF44171382001F083FD072120
:10444000392001F07FFD40F202613C2001F07AFD4D
:1044500008213D2001F076FD0021502001F072FD81
:10446000EF21512001F06EFD0021522001F06AFD84
:104470002946532001F066FD5146602001F062FD9F
:104480000121612001F05EFD00216A2001F05AFD4A
:104490000021802001F056FD0021812001F052FD15
:1044A0000021822001F04EFD0021832001F04AFD11
:1044B0000021842001F046FD0021852001F042FD0D
:1044C0001021902001F03EFD4FF4C061922001F0D8
:1044D00039FD40F233110720FEE341F28F01EC2059
:1044E00001F030FD41F23421EF2001F02BFD214697
:1044F000012001F027FD3946022001F023FD41F2A1
:104500003001032001F01EFD0021042001F01AFDFE
:104510004146082001F016FD0021092001F012FD9E
:1045200000210A2001F00EFD01210C2001F00AFDFE
:1045300000210D2001F006FD00210F2001F002FDF9
:104540000021102001F0FEFC0721112001F0FAFCEF
:104550000021122001F0F6FC0021132001F0F2FCF2
:104560000121072001F0EEFC3220FCF7CDFA41F2E8
:104570009041102001F0E6FC40F22721112001F0CB
:10458000E1FC3220FCF7C0FA8A21122001F0DAFCAB
:104590003220FCF7B9FA4FF4D051132001F0D2FCCD
:1045A0000621292001F0CEFC0D212B2001F0CAFCB0
:1045B0003220FCF7A9FA0021202001F0C3FC0021E1
:1045C000212001F0BFFC3220FCF79EFA00213020B0
:1045D00001F0B8FC40F20461312001F0B3FC40F27C
:1045E0000531322001F0AEFC0021352001F0AAFC9B
:1045F00040F60941362001F0A5FC4946372001F07C
:10460000A1FC40F20131382001F09CFC31463920F8
:1046100001F098FC00213C2001F094FC40F60A21B6
:104620003D2001F08FFC3220FCF76EFA3AE10021C8
:10463000084601F087FC2146012001F083FC394641
:10464000022001F07FFC41F23001032001F07AFCEE
:104650000021042001F076FC4146082001F072FCA4
:104660000021092001F06EFC00210A2001F06AFC03
:1046700001210C2001F066FC00210D2001F062FCFC
:1046800000210F2001F05EFC3220FCF73DFA40F2E1
:104690000111072001F056FC3220FCF735FA4FF4E7
:1046A0008651102001F04EFC0721112001F04AFC38
:1046B0005C465946122001F045FC4FF4306113204E
:1046C00001F040FC0021292001F03CFC44F21001E3
:1046D0002B2001F037FC0021502001F033FCEF21AA
:1046E000512001F02FFC0021522001F02BFC294623
:1046F000532001F027FC5146602001F023FC0121EA
:10470000612001F01FFC00216A2001F01BFC002148
:10471000802001F017FC0021812001F013FC002112
:10472000822001F00FFC0021832001F00BFC00210E
:10473000842001F007FC0021852001F003FC1021FA
:10474000902001F0FFFB0021922001F0FBFB0121F2
:10475000932001F0F7FB2146952001F0F3FB0021A7
:10476000972001F0EFFB0021982001F0EBFB40F2D5
:104770007311072079E341F21401E72001F0E2FB15
:104780002146012001F0DEFB4FF40071022001F010
:10479000D9FB41F23801032001F0D4FB4146082047
:1047A00001F0D0FB0021092001F0CCFB00210A2000
:1047B00001F0C8FB00210C2001F0C4FB00210D20FA
:1047C00001F0C0FB00210F2001F0BCFB00211020F4
:1047D00001F0B8FB0721112001F0B4FB00211220E9
:1047E00001F0B0FB0021132001F0ACFBC820FCF766
:1047F0008BF941F29061102001F0A4FB40F22721D7
:10480000112001F09FFB3220FCF77EF90C211220D1
:1048100001F098FB3220FCF777F94FF40061132088
:1048200001F090FB1121292001F08CFB0B212B20A2
:1048300001F088FB3220FCF767F90021202001F00D
:1048400081FB2946212001F07DFB0021302001F071
:1048500079FB4FF483742146312001F073FB002172
:10486000322001F06FFB4946352001F06BFB41F22D
:104870000A61362001F066FB3146372001F062FB09
:104880002146382001F05EFB3146392001F05AFB09
:1048900040F202413C2001F055FB40F60F413D2023
:1048A00001F050FB0021502001F04CFBEF21512082
:1048B00001F048FB0021522001F044FB294653201F
:1048C00001F040FB5146602001F03CFB01216120DA
:1048D00001F038FB00216A2001F034FB0021802028
:1048E00001F030FB0021812001F02CFB002182200F
:1048F00001F028FB0021832001F024FB002184200B
:1049000001F020FB0021852001F01CFB10219020EC
:1049100001F018FB4FF4C0619220FDE32146012015
:1049200001F010FB3946022001F00CFB41F230018E
:10493000032001F007FB0021042001F003FB40F2FB
:104940000721082001F0FEFA0021092001F0FAFAFF
:1049500000210A2001F0F6FA00210C2001F0F2FA01
:1049600000210D2001F0EEFA00210F2001F0EAFAFB
:104970001420FCF7C9F841F2B061102001F0E2FA0E
:104980000121112001F0DEFA0121172001F0DAFAED
:104990004FF49C71122001F0D5FA4FF400611320FE
:1049A00001F0D0FA0921292001F0CCFA09212A20AE
:1049B00001F0C8FA0021A42001F0C4FA002150201F
:1049C00001F0C0FAEF21512001F0BCFA0021522081
:1049D00001F0B8FA2946532001F0B4FA514660209C
:1049E00001F0B0FA0121612001F0ACFA00216A2047
:1049F00001F0A8FA0021802001F0A4FA0021812012
:104A000001F0A0FA0021822001F09CFA002183200D
:104A100001F098FA0021842001F094FA0021852009
:104A200001F090FA1321902001F08CFA00219220DD
:104A300001F088FA0321932001F084FA5946952069
:104A400001F080FA40F27311072001F07BFA322066
:104A50000DE10021072001F075FA3220FCF754F82F
:104A60004FF48E71122001F06DFA0121A42001F0A3
:104A700069FA0F21082001F065FA08210A2001F0E7
:104A800061FA08210D2001F05DFA3146302001F075
:104A900059FA0721312001F055FA40F20361322022
:104AA00001F050FA3946332001F04CFA41463420E7
:104AB00001F048FA0221352001F044FA41F60F7165
:104AC000362001F03FFA3146372001F03BFA002151
:104AD000382001F037FA0021392001F033FA31464D
:104AE0003A2001F02FFA00213B2001F02BFA072198
:104AF0003C2001F027FA00213D2001F023FA32206A
:104B0000FCF702F80121072001F01CFA012117200F
:104B100001F018FA3220FBF7F7FF4FF4BD511020D7
:104B200001F010FA40F21721112001F00BFA4FF4B6
:104B30008F71122001F006FA4FF47061132001F01A
:104B400001FA00212A2001F0FDF90A21292001F0B3
:104B5000F9F94FF49F71122001F0F4F9002150206F
:104B600001F0F0F9EF21512001F0ECF90021522081
:104B700001F0E8F92946532001F0E4F9514660209C
:104B800001F0E0F90121612001F0DCF900216A2047
:104B900001F0D8F90021802001F0D4F90021812012
:104BA00001F0D0F90021822001F0CCF9002183200E
:104BB00001F0C8F90021842001F0C4F9002185200A
:104BC00001F0C0F91321902001F0BCF9594601E031
:104BD00050E04BE1922001F0B5F90521932001F05E
:104BE000B1F90021952001F0ADF90021972001F0E5
:104BF000A9F90021982001F0A5F92146012001F032
:104C0000A1F93946022001F09DF903E0F6E1A9E29D
:104C10005CE3FDE341F23801032001F093F9002148
:104C2000042001F08FF900210C2001F08BF9002104
:104C30000F2001F087F90021202001F083F90021E5
:104C4000212001F07FF92121072001F07BF91420B8
:104C5000FBF75AFF6121072001F074F91420FBF7DC
:104C600053FF40F27311072001F06CF91420FBF799
:104C70004BFF2AE30021084601F064F900210846B1
:104C800001F060F90021084601F05CF900210846B6
:104C900001F058F90121A42001F054F91420FBF788
:104CA00033FF5146602001F04DF946464146082049
:104CB00001F048F94FF40571302001F043F943F257
:104CC0001571312001F03EF940F20461322001F00B
:104CD00039F940F6166100E0C3E0332001F032F903
:104CE00042F21121342001F02DF94FF4A851352062
:104CF00001F028F948F20751362001F023F941F27A
:104D00000741372001F01EF941F20341382001F03C
:104D100019F92021392001F015F91A21902001F00C
:104D200011F90021102001F00DF90721112001F0E7
:104D300009F90021122001F005F90021132001F0EA
:104D400001F91420FBF7E0FE4FF4E661102001F0BA
:104D5000F9F840F23711112001F0F4F81420FBF7B4
:104D6000D3FE4FF4DC71122001F0ECF81420FBF7B5
:104D7000CBFE4FF47061132001F0E4F880212A206B
:104D800001F0E0F84821292001F0DCF81420FBF7BD
:104D9000BBFE2146012001F0D5F83946022001F082
:104DA000D1F841F23801032001F0CCF83146082057
:104DB00001F0C8F800210A2001F0C4F800210C20FD
:104DC00001F0C0F800210D2001F0BCF830210E20C8
:104DD00001F0B8F80021502001F0B4F8EF21512083
:104DE00001F0B0F80021522001F0ACF82946532020
:104DF00001F0A8F85146602001F0A4F801216120DB
:104E000001F0A0F800216A2001F09CF81121902007
:104E100001F098F84FF4C061922001F093F840F24D
:104E20000241932001F08EF80221942001F08AF8CB
:104E30001420FBF769FE0121072001F083F81420FC
:104E4000FBF762FE6121072001F07CF840F273114C
:104E5000072001F077F80021202001F073F80021ED
:104E6000212001F06FF8222100202CE200210846C9
:104E700001F068F80021084601F064F81420FBF7FF
:104E800043FE0021084601F05DF80021084601F0CC
:104E900059F80021084601F055F80021084601F0B4
:104EA00051F80121A42001F04DF81420FBF72CFE4D
:104EB0005146602001F046F840F60601082001F056
:104EC00041F840F203773946302001F03BF80121E8
:104ED000312001F037F80421322001F033F84FF48B
:104EE0008171332001F02EF85E465946342001F0DE
:104EF00029F840F20311352001F024F81F21362053
:104F000001F020F83946372001F01CF80121382043
:104F100001F018F80421392001F014F8152190202F
:104F200001F010F84FF48261102001F00BF840F20C
:104F30004721112001F006F84FF4DE71122001F034
:104F400001F84FF46061132000F0FCFF7820FBF7BC
:104F5000DBFD2146012000F0F5FF4FF40071022037
:104F600000F0F0FF41F23001032000F0EBFF0821D8
:104F70000A2000F0E7FF00210C2000F0E3FF2021D1
:104F80000E2000F0DFFF00210F2000F0DBFF0021EA
:104F9000202000F0D7FF0021212000F0D3FF3D2189
:104FA0002A2000F0CFFF1420FBF7AEFD2D21292091
:104FB00000F0C8FF0021502000F0C4FF4DF2EF01C7
:104FC000512000F0BFFF0021522000F0BBFF294616
:104FD000532000F0B7FF0021612000F0B3FF002153
:104FE0006A2000F0AFFF3146922000F0ABFF0521B0
:104FF000932000F0A7FF2146FFF7BBBB0121002053
:1050000000F0A0FF4AF6A401032000F09BFF00215E
:105010000C2000F097FF40F60C010D2000F092FFED
:105020004FF42C510E2000F08DFFB0211E2000F017
:1050300089FF42F63F31012000F084FF4FF4C06148
:10504000022000F07FFF0021102000F07BFF46F2DD
:105050007801112000F076FF0021052000F072FF9A
:105060000021062000F06EFF4EF61C71162000F0A5
:1050700069FF0321172000F065FF40F2332107206C
:1050800000F060FF00210B2000F05CFF00210F20EA
:1050900000F058FF0021412000F054FF0021422081
:1050A00000F050FF0021482000F04CFF2946492025
:1050B00000F048FF00214A2000F044FF00214B206F
:1050C00000F040FF4FF46F41442000F03BFF00210F
:1050D000452000F037FF2946462000F033FF3146D7
:1050E000302000F02FFF4C464946312000F02AFFC7
:1050F0002146322000F026FF40F202552946332097
:1051000000F020FF691D342000F01CFF21463520EF
:1051100000F018FF214600E07CE1362000F012FF8D
:105120002946372000F00EFF40F2023421463A2093
:1051300000F008FF21463B2000F004FF002123205F
:1051400000F000FF0021242000F0FCFE4FF400419D
:10515000252000F0F7FE00214F2000F0F3FE002193
:105160004E20B0E00121002000F0ECFE0A20FBF709
:10517000CBFC41F22861102000F0E4FE0E21122049
:1051800000F0E0FE40F63921132000F0DBFE0A209B
:10519000FBF7BAFC4021112000F0D4FE502115206D
:1051A00000F0D0FE0A20FBF7AFFC1E21122000F019
:1051B000C9FE0A20FBF7A8FC4FF4B151102000F003
:1051C000C1FE42F63921132000F0BCFE0A20FBF795
:1051D0009BFC2146012000F0B5FE5946022000F05C
:1051E000B1FE41F23801032000F0ACFE4146082038
:1051F00000F0A8FE08210A2000F0A4FE00213020C3
:1052000000F0A0FE40F20241312000F09BFE4FF47E
:105210008371322000F096FE40F20351332000F0FB
:1052200091FE4FF48271342000F08CFE40F2013187
:10523000352000F087FE3146362000F083FE40F234
:105240000531372000F07EFE4FF40271382000F067
:1052500079FE40F60B71392000F074FE02214120E6
:1052600000F070FE5146602000F06CFE01216120CC
:1052700000F068FE4FF40471902000F063FE4FF4DC
:105280008571922000F05EFE0421932000F05AFE0A
:105290002146A02000F056FE0121072000F052FE1A
:1052A0002121072000F04EFE2321072000F04AFEB6
:1052B0003321072000F046FE40F23311072000F0B2
:1052C00041FE0021A02000F03DFE23E23021152008
:1052D00000F038FE10219A2000F034FE2021112029
:1052E00000F030FE43F22841102000F02BFE022196
:1052F000122000F027FE41F23801132000F022FEB8
:105300002820FBF701FC1221084600F01BFE282094
:10531000FBF7FAFB43F22041102000F013FE43F2AA
:105320003801132000F00EFE4620FBF7EDFB0021B4
:10533000302000F007FE40F20241312000F002FE72
:1053400040F20731322000F0FDFD4FF4417133206F
:1053500000F0F8FD0421342000F0F4FD40F201419A
:10536000352000F0EFFD3146362000F0EBFD40F235
:105370000531372000F0E6FD4FF4C265294638209C
:1053800000F0E0FD2946392000F0DCFD2146012037
:1053900000F0D8FD5946022000F0D4FD41F2300162
:1053A000032000F0CFFD40F60801082000F0CAFD00
:1053B00008210A2000F0C6FD5146602000F0C2FD21
:1053C0000121612000F0BEFD4FF49F71902000F09C
:1053D000B9FD2146922000F0B5FD2146932000F052
:1053E000B1FD4FF44051A02000F0ACFD1021A320EE
:1053F00000F0A8FD0121072000F0A4FD21210720D5
:1054000000F0A0FD2321072000F09CFD332100E0E7
:1054100005E0072000F096FD40F23311ECE5E220B4
:1054200000F078FD2746C24C276165156561DFF8FD
:1054300004831D21C8F8001080266661266125615D
:10544000276165610220C8F8000066612661256158
:10545000276165610420C8F8000066612661256146
:10546000642001F075FDE02000F054FD27616561C6
:105470004FF0010AC8F800A06661266125610A2084
:10548000FBF742FBE02000F045FD276165614FF02E
:10549000030BC8F800B06661266125610C20FBF79C
:1054A00033FB012000F036FD0A20FBF72DFBE62040
:1054B00000F030FD276165612F21C8F8001066619A
:1054C0002661256127616561FF20C8F800006661DB
:1054D0002661256127616561C8F800006661266163
:1054E0002561B02000F016FD276165612021C8F814
:1054F0000010666126612561276165614FF0000932
:10550000C8F8009066612661256127616561C8F869
:1055100000B06661266125612761656140F21F3137
:10552000C8F8001066612661256127616561C8F8C9
:1055300000A06661266125612761656140F2DF1187
:10554000C8F8001066612661256127616561C8F8A9
:105550000090666126612561B42000F0DBFC2761C4
:1055600065610420C8F80000666126612561276135
:10557000656140F21F41C8F800106661266125612F
:1055800027616561C8F80090666126612561276121
:1055900065612E21C8F800106661266125612761CA
:1055A00065614146C8F80090666126612561276102
:1055B0006561C8F8009066612661256127616561B3
:1055C000C8F8009066612661256127616561C1F8B0
:1055D0000090666126612561B62000F09BFC276182
:1055E00065610220C8F800006661266125612761B7
:1055F00065614FF40371C8F800106661266125618A
:1056000027616561C8F800906661266125612761A0
:1056100065611721C8F80010666126612561276160
:1056200065611521C8F80010666126612561276152
:105630006561C8F800906661266125612761656132
:10564000C8F80090666126612561F02000F062FCD8
:1056500027616561C8F800B066612661256129206F
:1056600000F058FCD02000F055FC27616561C8F8B7
:105670000090666126612561BE2000F04BFC276129
:1056800065610521C8F80010666126612561276102
:105690006561FE21C8F800106661266125612761F9
:1056A00065614146C8F800A06661266125612761F1
:1056B0006561C8F8009066612661256127616561B2
:1056C000C8F8009066612661256127616561C1F8AF
:1056D0000090666126612561B82000F01BFC2761FF
:1056E0006561C8F800B06661266125612761656162
:1056F000C8F800A0666126612561BA2000F00AFCA6
:1057000027616561C8F800A0666126612561642093
:1057100000F052F80020FCF775FB012291020448CA
:10572000FBF700FBBDE8F05F4FF6FF70FCF72ABB0C
:10573000001001400C0C01402DE9F047DFF85C90AF
:105740004FF08830C9F8000009F104052860134EB5
:1057500000200C363060124CA815206147006761AC
:105760004FF04008C4F814800E488088A0F5094125
:10577000893902D1022001F0EBFB084808300068AB
:10578000C4F8108080B227614FF03331C9F800109F
:1057900029604FF6FF713160BDE8F087000C0140D1
:1057A000001001405005002010B500F0B3FBBDE82B
:1057B0001040FFF7C1BF00002DE9F0478146BE2031
:1057C00000F0A8FB204C4FF48077276165156561D8
:1057D000DFF878800521C8F8001080266661266110
:1057E0002561276165614846FAF717FF4FF0663279
:1057F000174BFAF70CFEFAF755FFC8F80000666180
:1058000026612561276165610121C8F80010666184
:105810002661256127616561FF21C8F80010666176
:1058200026612561276165610020C8F80000666176
:105830002661256127616561C8F8000066612661FF
:105840002561BDE8F0870000001001400C0C01400C
:10585000666604402DE9F04FCF4C00252146A37920
:10586000898846F6040241F66316012B01D02BB15C
:105870001DE091421BD0B14202D118E0B14216D1D5
:10588000082814D2DFE800F00406080A0C0E1012F3
:1058900006200CE007200AE0042008E0052006E0CE
:1058A000012004E0002002E0032000E00220A1F536
:1058B000134C45F2103345F21057BCF1410C07D0A0
:1058C000914205D0994203D0B94201D0B1427CD176
:1058D000082812D2DFE800F0110406080A0C0E10A6
:1058E00080250AE0402508E0C02506E0202504E0E8
:1058F000602502E0A02500E0E025B94202D14FF486
:10590000585000E03620994205D0B94203D0B14248
:1059100001D045F00805914201D145F00205294624
:1059200000F010FBA088B0420AD0A9062188628846
:1059300002D5914202D303E0914201D922806180D5
:105940004FF48076DFF854827500DFF854B24FF0E0
:10595000000AB8427ED1608900F0DCFAB146C8F88E
:105960001060C8F814505F46CBF800A08026C8F835
:105970001460C8F81060C8F810506089401C80B2EC
:1059800000F0C8FAC8F81090C8F81450C7F800A082
:10599000C8F81460C8F81060C8F810506089801CFE
:1059A00080B200F0B7FAC8F81090C8F814502088F8
:1059B000401E01123960C8F81460C8F81060C8F8B9
:1059C00010506089C01C80B200E0C9E000F0A2FA6B
:1059D000C8F81090C8F814502078401EC1B2396041
:1059E000C8F81460C8F81060C8F81050A08900F01A
:1059F00091FAC8F81090C8F81450C7F800A0C8F879
:105A00001460C8F81060C8F81050A089401C80B21B
:105A100000F080FAC8F81090C8F81450C7F800A039
:105A2000C8F81460C8F81060C8F81050A089801C2D
:105A300080B200F06FFAC8F81090C8F8145060886F
:105A4000401E01123960C8F81460C8F81060C8F828
:105A5000105000E011E0A089C01C80B200F05AFA9A
:105A6000C8F81090C8F81450A078401EC1B2396030
:105A7000C8F81460C8F810606EE0A146608900F0B4
:105A800049FAC8F81060C8F814505F465946CBF878
:105A900000A08024C8F81440C8F81040C8F810507E
:105AA000C8F81060C8F81450CBF800A0C8F814402B
:105AB000C8F81040C8F81050C8F81060C8F8145062
:105AC000B9F80000401E02120A60C8F81440C8F875
:105AD0001040C8F81050C8F81060C8F81450C1B28F
