:020000040800F2
:1000000098540020DD010008113000087329000811
:100010007D2E0008010C00082548000800000000A3
:100020000000000000000000000000004501000882
:10003000050C00080000000089010008D13E0008FE
:10004000F7010008F7010008F7010008F7010008B0
:10005000F7010008F7010008F7010008F7010008A0
:10006000F7010008F7010008F7010008F701000890
:10007000F7010008F7010008F7010008F701000880
:10008000F7010008F7010008F7010008F701000870
:10009000F7010008F7010008F7010008F701000860
:1000A000F7010008C53F0008F7010008F701000844
:1000B000F7010008D53F000899400008F701000843
:1000C000F7010008F7010008F7010008F701000830
:1000D000F7010008F701000815480008F7010008BB
:1000E000F7010008F7010008F7010008F701000810
:1000F000F7010008F7010008F7010008F701000800
:10010000F7010008F7010008A9400008F7010008FE
:10011000F7010008F7010008F7010008F7010008DF
:10012000F7010008F7010008F7010008F7010008CF
:10013000DFF80CD000F056FC00480047614A000888
:1001400098540020224B19680868B0E8F00F80F33B
:100150000988BFF36F8F4FF0000080F311884EF0D5
:100160000D0E70470000000006480068006880F32C
:10017000088862B661B6BFF34F8FBFF36F8F00DFA1
:1001800000BF00BF08ED00E0EFF30980BFF36F8F01
:100190000F4B1A6820E9F00F106008B54FF05000BF
:1001A00080F31188BFF34F8FBFF36F8F05F074FE9C
:1001B0004FF0000080F31188BDE808401968086816
:1001C000B0E8F00F80F30988BFF36F8F704700BF6E
:1001D00040000020EFF3058070470000064880478C
:1001E00006480047FEE7FEE7FEE7FEE7FEE7FEE71C
:1001F000FEE7FEE7FEE7FEE76D3F0008310100087D
:10020000202A04DB203A21FA02F00021704721FA6B
:1002100002F3D040C2F120029140084319467047D2
:1002200040EA01039B0703D009E008C9121F08C078
:10023000042AFAD203E011F8013B00F8013B521EF8
:10024000F9D27047D2B201E000F8012B491EFBD26F
:1002500070470022F6E710B513460A4604461946D1
:10026000FFF7F0FF204610BDF0B480EA0102D40F82
:100270004200B2EB410F02D20246084611464A0044
:1002800042D0C30DDDB2C1F3C752AD1A202D35DA0D
:10029000C1F3160141F4000204B15242C5F1200637
:1002A00002FA06F12A411044B3EBD05F23D0C4B167
:1002B000012DA0EBC35009DCF0BC4FF0004202EA74
:1002C000C352DBB200F5000000F000BB400000F1BB
:1002D000807000EBC350A0F1807040EAD1704900FB
:1002E00009E0490841EAC071A0EBC35000F50000E5
:1002F000400800EBC350F0BC00F0DFBA61420122BD
:1003000002EB4101001BF6E7F0BC704781F00041B1
:10031000AAE780F00040A7E780EA010210B502F0EA
:100320000043400022D04A001FD0010E01EB1261B1
:10033000C0F35600C2F3560240F4000042F400023B
:10034000A0FB022000047F39140400D0401C50EAB6
:10035000124001D44000491EC2B20C0604EBD0107A
:10036000401C4008802A02D003E0002010BD20F08D
:100370000100002900DA0020184310BD30B480EAE3
:10038000010202F0004530F0004221F0004013D09D
:1003900090B1C30DD40DC2F31601C0F31600E41AD8
:1003A00041F4000140F400027D34914201D3641C09
:1003B00000E04900002C02DA30BC002070474FF406
:1003C00000000023914201D3891A034340084FEAF9
:1003D0004101F7D151B1914202D14FF0004105E006
:1003E00002D24FF0010101E06FF0010103EBC450B4
:1003F000284430BC00F061BA2DE9FE4F804681EA06
:100400000300C00F0C46009021F0004123F000458E
:10041000B8EB0200A94105D24046214690461C4651
:100420000B46024623F00040104347D0270DC7F388
:100430000A00C3F30A510290401A019040286BDA77
:10044000C3F3130040F4801B0098924620B10023B0
:10045000D2EB030A63EB0B0B01985946C0F1400243
:10046000504600F009FA06460D4650465946019A94
:1004700000F011FA10EB08006141002487EA1152E4
:1004800084EAE7731A4340D0009A62B3019A012AC2
:100490004FEA075215DC001B61EB02014FF00042EE
:1004A00002EA0752CDE90042001C41F580113246B4
:1004B0002B4600F048FA03B0BDE8F08F40462146D5
:1004C000F9E7001B61EB0201001C41F580130018E5
:1004D0005B412018A2F5001747EB030140EAD570F5
:1004E000B6196D4111E06D084FEA360645EAC07550
:1004F0004FEA0752001B61EB0201001C41F580111D
:1005000049084FEA30000019514132462B4603B0EA
:10051000BDE8F04F00F008BA009801224000002327
:10052000D0EB020263EBE073009821464FEAE074DF
:10053000B8EB000061EB0401E9E783F000435BE7FF
:1005400081F0004158E72DE9FE4F81EA030404F0F1
:10055000004421F0004100944FF0000B23F00043D1
:1005600050EA01045ED052EA03045BD0C3F30A549C
:10057000C1F30A552C44A4F2F3340194A0FB0254B5
:10058000C1F3130141F48011C3F3130343F4801347
:1005900001FB024400FB034E840A970A44EA81549B
:1005A00047EA8357A4FB076802958D0A05FB078578
:1005B0004FEA932C04FB0C542705029D4FEA065882
:1005C00047EA1637B5EB08056EEB070C870E920E5F
:1005D00047EA811742EA8312A7FB0201B6EB0B013F
:1005E00064EB00042B0D43EA0C335E1844EB1C5003
:1005F000DA465146E7FB0201C5F313044FEA0B3319
:1006000043EA14534FEA0432019C43EA0603A4F17F
:100610000C040294009CCDE900B400F094F903B0FE
:10062000BDE8F08F00200146F9E72DE9F04D81EAA1
:10063000030404F0004B21F0004514464FF0000A7B
:1006400023F0004150EA050220D054EA01021DD0F7
:10065000C5F30A570246C5F31303C1F31300C1F3F0
:100660000A5640F4801543F48013A7EB0608101BCC
:10067000D64608F2FD3873EB050002D308F10108F5
:1006800001E092185B41B8F1000F03DA0020014647
:10069000BDE8F08D00204FF48011064684460EE040
:1006A000171B73EB050705D3121B63EB050306430A
:1006B0004CEA010C49084FEA300092185B4150EABD
:1006C0000107EDD152EA030012D082EA040083EA66
:1006D0000501084305D0101BAB4106D201220023BF
:1006E00006E000224FF0004302E06FF001025310D9
:1006F0001AEB06004CEB085110EB0A0041EB0B0122
:10070000BDE8F04D00F010B9C10F80EAE070084478
:10071000CA079623002100F0D9B89623002211467B
:1007200000F0D4B800F0004220F00040C10DC0F34A
:10073000160040F400007F2901DA00207047962956
:1007400003DCC1F19601C84001E096398840002AD7
:10075000F4D04042704770B5C1F30A5201F0004531
:100760000024C1F3130140F2FF3341F480119A4297
:1007700001DA002070BD40F233439A42A2F23342C4
:1007800003DC5242FFF73CFD00E090402C43F1D0E7
:10079000404270BD00F0004230F000400AD0C10D70
:1007A00001F56071C0F3160042EA0151C20840072A
:1007B00011437047002001467047000030B5041E09
:1007C00071F1000404DB4FF00044404264EB01018E
:1007D000141E73F1000405DB1C464FF00043524227
:1007E00063EB0403994208BF904230BD01F000431F
:1007F00030B421F0004150EA010206D00A0DA2F502
:100800006072C1F31301002A02DC30BC0020704783
:10081000440F44EAC104C100E01830BC00EBC250F0
:1008200000F04BB8002801DBC0F10040002901DBDB
:10083000C1F1004181427047002801DBC0F1004056
:10084000002901DBC1F100418842704730B50B46F9
:10085000014600202022012409E021FA02F59D42F0
:1008600005D303FA02F5491B04FA02F52844151EC4
:10087000A2F10102F1DC30BD202A04DB203A00FAAB
:1008800002F1002070479140C2F1200320FA03F3E7
:10089000194390407047202A06DBCB17203A41FAD3
:1008A00002F043EAE07306E041FA02F3D040C2F1FD
:1008B000200291400843194670470029A8BF70479D
:1008C000401C490008BF20F00100704710B4B0FA86
:1008D00080FC00FA0CF050EA010404BF10BC704721
:1008E00049B1CCF1200421FA04F411FA0CF118BF3B
:1008F000012121430843A3EB0C01CB1D4FEA00610A
:100900004FEA102042BF002010BC704700EBC350DC
:1009100010440029A4BF10BC7047401C490008BF08
:1009200020F0010010BC704710B5141E73F10004D4
:1009300008DA401C41F1000192185B411A4301D1D1
:1009400020F0010010BD2DE9F04D92469B4611B1FB
:10095000B1FA81F202E0B0FA80F220329046FFF75D
:100960008BFF04460F4640EA0A0041EA0B0153465A
:100970005A46084313D0114653EA010019D0C8F172
:1009800040025046FFF73CFC05460E46504659468D
:100990004246FFF771FF084305D0012004E02046DE
:1009A0003946BDE8F08D0020054346EAE0762C4349
:1009B00037430A986305E40AA0EB08000022FD0A09
:1009C00044EA47540A3002D500200146E9E7010510
:1009D00010196941DDE9084500196941BDE8F04D8C
:1009E000A2E70000064C074D06E0E06840F0010376
:1009F00094E8070098471034AC42F6D3FFF79CFB0D
:100A0000F07C0008107D000800B587B002F02CFBD8
:100A10000120022354A200210090084602F086FC27
:100A20000821554801F0C2FD0C21534801F0BEFDDC
:100A30000821524801F0BAFD0C21504801F0B6FDE2
:100A400000214F4801F0B2FB04214D4801F0AEFBFC
:100A500008214B4801F0AAFB0C21494801F0A6FBF4
:100A60000C2045494FF40052464BCDE90232CDE906
:100A70000410901044494300424ACDE90010014659
:100A8000104602F0FDF9414908600846006810B9B7
:100A90003FA003F0C9FE082037490122394BCDE9B8
:100AA0000232CDE90410C001374904233E4ACDE9A2
:100AB00000100221334802F0E3F93C49086008467F
:100AC000006810B93AA003F0AFFE0C202B494FF498
:100AD00080622C4BCDE90232CDE9041050102A4936
:100AE00043010A46CDE900108101274802F0C8F908
:100AF000354908600846006810B934A003F094FE38
:100B000008201E491F4BCDE90230CDE904104001F9
:100B10001D4903010A46CDE9001041011A4802F0BF
:100B2000AFF9304908600846006810B92EA003F0FC
:100B30007BFE502200211548006802F0C9F95022BE
:100B400000211A48006802F0C3F9502200211E4813
:100B5000006802F0BDF9502200212248006802F02E
:100B6000B7F907B000BD00004C4620204C422020C1
:100B7000524620205242000084010020040200203E
:100B8000C401002000100140000C0140C000002002
:100B90004572726F723A206D6F746F724C46204EC0
:100BA000554C4C0A0000000000140140C400002015
:100BB0004572726F723A206D6F746F724C42204EA4
:100BC000554C4C0A00000000C80000204572726FAE
:100BD000723A206D6F746F725246204E554C4C0A1B
:100BE00000000000CC0000204572726F723A206D48
:100BF0006F746F725242204E554C4C0A0000000038
:100C000000BFFEE77047704770B50446002594F8B2
:100C10002100022803D00420A0630125C1E0206840
:100C2000006820F00E00216808602068006820F04D
:100C30000100216808605C492068884252D95A49FD
:100C400078392068884201D1012047E0564964394B
:100C50002068884201D1102040E053495039206873
:100C6000884201D1801539E04F493C3920688842DB
:100C700001D1801432E04C4928392068884202D1E1
:100C80004FF480302AE0484914392068884202D164
:100C90004FF4801022E044492068884201D140048A
:100CA0001CE042492068884201D1012016E03F49FA
:100CB00014312068884201D110200FE03B492831CF
:100CC0002068884201D1801508E038493C3120680D
:100CD000884201D1801401E04FF480303349091F6C
:100CE000086051E0304978392068884201D10120FC
:100CF00047E02D4964392068884201D1102040E046
:100D0000294950392068884201D1801539E02649A7
:100D10003C392068884201D1801432E022492839C8
:100D20002068884202D14FF480302AE01E491439ED
:100D30002068884202D14FF4801022E01A492068CE
:100D4000884201D140041CE018492068884201D142
:100D5000012016E0154914312068884201D1102085
:100D60000FE0124928312068884201D1801508E03F
:100D70000E493C312068884201D1801401E04FF4D3
:100D80008030094980394860012084F8210000BF83
:100D9000002084F8200000BF606B10B12046616B1A
:100DA0008847284670BD00008000024008040240C9
:100DB0002DE9F847024600239C467BE14FF00108ED
:100DC00008FA03F4D1F8008008EA0400A0427DD1BB
:100DD000DFF8F4A2D1F80480A8EB0A09D0453AD094
:100DE00014DCB8F1030F50D009DCB8F1000F31D09A
:100DF000B8F1010F1CD0B8F1020F49D120E0B8F1D1
:100E0000110F18D0B8F1120F42D11EE0B9F5881FAA
:100E100025D006DCB9F5803F20D0B9F5801F37D149
:100E20001AE0B9F5001F18D0B9F5041F30D117E04A
:100E3000D1F80CC02DE0D1F80C8008F1040C28E0AA
:100E4000D1F80C8008F1080C23E0D1F80C8008F1EF
:100E50000C0C1EE000BF00BF00BF00BF00BF00BF02
:100E6000D1F80880B8F1000F02D14FF0040C0BE06C
:100E7000D1F80880B8F1010F03D14FF0080C1461CC
:100E800002E04FF0080C546103E04FF0000C00E06A
:100E900000BF00BFFF2801D8904601E002F104081E
:100EA0004646FF2802D84FEA830803E0A3F108086A
:100EB0004FEA88084746D6F800804FF00F0909FA34
:100EC00007F928EA09080CFA07F900E07AE048EA8D
:100ED0000908C6F80080D1F8048008F08058B8F1FD
:100EE000805F6FD100BFDFF8E481D8F8188048F048
:100EF0000108DFF8D891C9F81880C846D8F81880DA
:100F000008F00108CDF8008000BF00BF4FEAB938F3
:100F10004FEA930958F829504FEA83784FEA187935
:100F20004FF00F0808FA09F825EA0805DFF8A08154
:100F3000424502D14FF0000824E0DFF89881424595
:100F400002D14FF001081DE0DFF88C81424502D14B
:100F50004FF0020816E0DFF88481424502D14FF0DD
:100F600003080FE0DFF87881424502D14FF0040812
:100F700008E0DFF87081424502D14FF0050801E03A
:100F80004FF006084FEA83794FEA197908FA09F811
:100F900048EA0505DFF850814FEA930948F82950DF
:100FA000D1F8048008F48038B8F5803F0BD1DFF821
:100FB0003C81D8F8008048EA0008DFF83091C9F891
:100FC00000800AE075E0DFF82481D8F8008028EA84
:100FD0000008DFF81891C9F80080D1F8048008F4FF
:100FE0000038B8F5003F0ED1DFF8008108F10408A1
:100FF000D8F8008048EA0008DFF8F09009F1040909
:10100000C9F800800DE0DFF8E48008F10408D8F8A2
:10101000008028EA0008DFF8D49009F10409C9F833
:101020000080D1F8048008F48018B8F5801F0ED134
:10103000DFF8B88008F10808D8F8008048EA00080E
:10104000DFF8A89009F10809C9F800800DE0DFF881
:101050009C8008F10808D8F8008028EA0008DFF82A
:101060008C9009F10809C9F80080D1F8048008F4CF
:101070000018B8F5001F0ED1DFF8708008F10C08D9
:10108000D8F8008048EA0008DFF8609009F10C0900
:10109000C9F800800DE0DFF8548008F10C08D8F89A
:1010A000008028EA0008DFF8449009F10C09C9F82B
:1010B00000805B1CD1F8008028FA03F8B8F1000F1B
:1010C0007FF47CAEBDE8F8870000111000100240EC
:1010D00000080140000C01400010014000140140D4
:1010E00000180140001C01400800014000040140BC
:1010F0000AB1016101E00B04036170470148006817
:10110000704700003000002070B504460CB9012083
:1011100070BD94F83D0028B9002084F83C002046BA
:1011200000F0CEF8242084F83D002068006820F00C
:1011300001002168086000F0E1FA05465C4960683A
:10114000884206D85B48854201D2012007E0002092
:1011500005E05948854201D2012000E00020012825
:1011600000D1D5E75548B5FBF0F62068406820F07F
:101170003F003043216848604D496068884201D88B
:10118000701C07E04FF4967070434FF47A71B0FB17
:10119000F1F0401C2168096A21F03F0108432168F1
:1011A000086243496068884214D8681E6168490033
:1011B000B0FBF1F0401CC0F30B00042801D2042066
:1011C0003DE0681E61684900B0FBF1F0401CC0F3CF
:1011D0000B0034E0A06838B9681E616801EB41017A
:1011E000B0FBF1F0401C0AE0681E616801EBC1022F
:1011F00002EB0111B0FBF1F0401C40F48040C0F361
:101200000B0008B901201AE0A06848B9681E61689F
:1012100001EB4101B0FBF1F0401CC0F30B000CE00E
:10122000681E616801EBC10202EB0111B0FBF1F035
:10123000401CC0F30B0040F4804040F400402168A3
:10124000C9694CF6FF72914308432168C861D4E92B
:10125000070108432168096821F0C001084321689B
:101260000860D4E9031008432168896848F2FF3216
:101270009143084321688860D4E905010843216847
:10128000C96821F0FF0108432168C8602068006830
:1012900040F001002168086000202064202084F8CC
:1012A0003D000020206384F83E0000BF30E70000CE
:1012B000A086010080841E0000093D0040420F000E
:1012C00010B586B00446002002900390049005906B
:1012D00015492068884225D100BF1448806940F034
:1012E0000800124988610846806900F008000190F2
:1012F00000BF00BFC0200290122003900320059081
:1013000002A90B48FFF754FD00BF0848C06940F42C
:1013100000100649C8610846C06900F40010019039
:1013200000BF00BF06B010BD0054004000100240D6
:10133000000C01400348006803490978084401494A
:1013400008607047300000203800002010B50848C1
:10135000006840F0100006490860032000F0CCF857
:10136000002000F007F800F049F8002010BD000050
:101370000020024070B588B00446002500260022F7
:101380002146192000F07AF8192000F067F800BF14
:101390001648806940F400601449886108468069F5
:1013A00000F40060019000BF00BF02A903A800F094
:1013B0007DF900F0B3F905460D48B5FBF0F0461E87
:1013C0000C480D49086040F2E7310B48C1604660A7
:1013D00000210161816000F0DFFC20B9064800F0C7
:1013E000A4FD08B070BD0120FBE700000010024022
:1013F00040420F00002C01400403002008B500BF4C
:101400001448806940F001001249886108468069EB
:1014100000F00100009000BF00BF00BF0846C06997
:1014200040F08050C8610846C06900F080500090CC
:1014300000BF00BF00220F21901E00F01FF800BF68
:101440000549486820F0E06040F00070486000BF47
:1014500008BD00000010024000000140014608469F
:10146000002809DB00F01F0301229A4043099B007A
:1014700003F1E023C3F8002100BF70472DE9F05FBE
:1014800080460D461646002703F0DEF9074639462A
:101490002A46334601F00700C0F1070ABAF1040FEB
:1014A00002D94FF0040A01E0C0F1070AD14600F169
:1014B000040ABAF1070F02D24FF0000A01E0A0F1CE
:1014C000030AD4464FF0010A0AFA09FAAAF1010AFE
:1014D0000AEA020A0AFA0CFA4FF0010B0BFA0CFBAB
:1014E000ABF1010B0BEA030B4AEA0B042146404621
:1014F00003F0B2F9BDE8F09F00BF00F00702064B11
:1015000019684FF6FF031940044B0B4343EA0221CD
:10151000014B196000BF70470CED00E00000FA05B8
:1015200070B504460D460CB9012070BD5A480068DC
:1015300000F00700A8420ED25748006820F00700CC
:101540002843554908600846006800F00700A84293
:1015500001D00120E9E7207800F0020002281DD127
:10156000207800F00400042805D14C48406840F47D
:10157000E0604A494860207800F00800082805D15A
:101580004648406840F460504449486043484068D9
:1015900020F0F000A168084340494860207800F03E
:1015A000010078B36068012806D13C48006800F467
:1015B000003090B90120B8E76068022806D13748AA
:1015C000006800F0007040B90120AEE733480068C1
:1015D00000F0020008B90120A7E73048406820F079
:1015E0000300616808432D494860FFF787FD064600
:1015F00009E0FFF783FD801B41F28831884202D960
:10160000032092E707E02548406800F00C0061687D
:10161000B0EB810FEDD12048006800F00700A84230
:101620000ED91D48006820F0070028431A490860B9
:101630000846006800F00700A84201D0012074E7C6
:10164000207800F00400042807D11448406820F4F2
:10165000E060E168084311494860207800F0080024
:10166000082808D10D48406820F46050216940EAFC
:10167000C1000A49486000F061F808494968C1F3AF
:101680000311074A515CC8400649086006480068D3
:10169000FFF770FE002048E70020024000100240E3
:1016A000146D00083C000020340000200F2202606E
:1016B0000D4A526802F0030242600B4A526802F07F
:1016C000F0028260084A526802F4E062C260064A90
:1016D000526802F46052D2080261044A126802F0B1
:1016E00007020A607047000000100240002002401C
:1016F00001480068704700003C00002000B5FFF77B
:10170000F7FF04494968C1F30221034A515CC8400C
:1017100000BD000000100240246D000800B5FFF776
:10172000E7FF04494968C1F3C221034A515CC8403C
:1017300000BD000000100240246D0008F0B585B027
:101740000FF26C0C9CE8E01001A8A0E8E0101CA5CA
:101750002D68009500210022002300240020194D4F
:10176000696801F00C05F5B1042D02D0082D19D1DE
:1017700001E0154819E001ADC1F38346AC5D01F409
:10178000803555B10F4D6D68C5F340451DF80520F6
:101790000D4D6543B5FBF2F302E00C4D04FB05F380
:1017A000184602E000BF084800BF00BF05B0F0BD0A
:1017B00002030405060708090A0B0C0D0E0F101092
:1017C000010200000010024000127A0000093D00F2
:1017D000F8B504460CB90120F8BD207800F00100EE
:1017E000002878D0F848406800F00C0004280CD09D
:1017F000F548406800F00C00082811D1F248406814
:1018000000F48030B0F5803F0AD1EF48006800F462
:10181000003000285FD0606800285CD10120DBE741
:1018200000BF6068B0F5803F06D1E748006840F42B
:101830008030E549086028E0606858B9E2480068EF
:1018400020F48030E04908600846006820F48020D9
:1018500008601AE06068B0F5A02F0BD1DA48006884
:1018600040F48020D84908600846006840F4803081
:1018700008600AE0D448006820F48030D24908604B
:101880000846006820F48020086000BF606888B1C6
:10189000FFF734FC054606E0FFF730FC401B6428E8
:1018A00001D9032098E7C848006800F400300028F8
:1018B000F2D010E0FFF722FC054606E0FFF71EFC21
:1018C000401B642801D9032086E7BF48006800F464
:1018D00000300028F2D1207800F00200022857D111
:1018E000B948406800F00C0050B1B748406800F0BB
:1018F0000C00082818D1B448406800F4803098B92A
:10190000B148006800F0020020B12069012801D030
:10191000012061E7AC48006820F0F800616940EA06
:10192000C100A949086033E02069E8B10120A74956
:101930000860FFF7E3FB054606E0FFF7DFFB401B0F
:10194000022801D9032047E79F48006800F0020001
:101950000028F2D09C48006820F0F800616940EA55
:10196000C1009949086013E0002098490860FFF71A
:10197000C5FB054606E0FFF7C1FB401B022801D965
:10198000032029E79048006800F002000028F2D107
:10199000207800F0080008282DD1A069B8B10120F6
:1019A0008B490860FFF7AAFB054606E0FFF7A6FB98
:1019B000401B022801D903200EE78348406A00F04B
:1019C00002000028F2D0012001F052FE13E00020B6
:1019D0007F490860FFF792FB054606E0FFF78EFBA4
:1019E000401B022801D90320F6E67748406A00F040
:1019F00002000028F2D1207800F00400042873D1FE
:101A000000277148C06900F0805070B900BF6E486F
:101A1000C06940F080506C49C8610846C06900F058
:101A20008050009000BF00BF01276A48006800F4A2
:101A30008070B0B96748006840F4807065490860FC
:101A4000FFF75CFB054606E0FFF758FB401B6428E8
:101A500001D90320C0E65F48006800F480700028C8
:101A6000F2D000BFE068012806D15748006A40F074
:101A700001005549086227E0E06858B95248006AF9
:101A800020F00100504908620846006A20F0040076
:101A9000086219E0E06805280BD14B48006A40F065
:101AA0000400494908620846006A40F001000862E3
:101AB0000AE04548006A20F00100434908620846F0
:101AC000006A20F00400086200BFE068A0B1FFF7E0
:101AD00015FB054609E0FFF711FB401B41F2883179
:101AE000884202D9032077E622E03748006A00F0F6
:101AF00002000028EFD012E0FFF700FB054608E0E7
:101B0000FFF7FCFA401B41F28831884201D90320DB
:101B100062E62D48006A00F002000028F0D1012F93
:101B200005D12948C06920F080502749C86100BF0D
:101B3000E069C8B32448406800F00C00082860D071
:101B4000E069022848D1002020490866FFF7D6FA4C
:101B5000054606E0FFF7D2FA401B022801D9032010
:101B60003AE61948006800F000700028F2D1206AB7
:101B7000B0F5803F07D11448406820F40030A168D8
:101B8000084311494860D4E9080108430E494968EF
:101B900021F4741108430C49486001200B49086680
:101BA000FFF7ACFA054607E03DE0FFF7A7FA401B58
:101BB000022801D903200FE60348006800F00070F6
:101BC0000028F2D02FE00000001002400000424246
:101BD0008004424200700040002014490866FFF76C
:101BE0008DFA054606E0FFF789FA401B022801D965
:101BF0000320F1E50E48006800F000700028F2D1E3
:101C000011E0E069012800D1E6E50948466806F4DC
:101C10008031206A814204D106F47011606A8142E9
:101C200001D00120D8E50020D6E5000000004242A6
:101C30000010024010B504460CB9012010BD606AC6
:101C400000B900BF0021A16294F8510028B900201A
:101C500084F85000204600F031F8022084F851004A
:101C60002068006820F0400021680860D4E9010184
:101C70000843E16808432169084361690843218BEF
:101C800001F400710843E1690843216A0843A16A2D
:101C90000843216808600421A06901EA1040216816
:101CA00048602068C06920F400602168C861002095
:101CB0006065012084F851000020BFE710B586B0B0
:101CC0000446002002900390049005901949206872
:101CD00088422DD100BF1848806940F480501649D1
:101CE00088610846806900F48050019000BF00BF01
:101CF00000BF0846806940F004008861084680699A
:101D000000F00400019000BF00BFA020029002205C
:101D100003900320059002A90848FFF749F84020E6
:101D2000029000200390049002A90448FFF740F8B5
:101D300006B010BD00300140001002400008014014
:101D40007047704710B5024600BF92F83C0001286A
:101D500001D1022010BD012082F83C0000BF02200A
:101D600082F83D00106843681068846823F07003AF
:101D70000868034324F08004486804431068436003
:101D800010688460012082F83D0000BF002082F8C6
:101D90003C0000BF00BFDDE710B504460CB90120D0
:101DA00010BD94F83D0028B9002084F83C0020467E
:101DB00000F00CF8022084F83D00211D206802F09C
:101DC0009BF9012084F83D000020E9E710B586B0BA
:101DD0000446002002900390049005902068B0F122
:101DE000804F0DD100BF4048C06940F001003E491E
:101DF000C8610846C06900F00100019000BF71E0B1
:101E00003A492068884238D100BF3748C06940F05D
:101E100002003549C8610846C06900F0020001901F
:101E200000BF00BF00BF0846806940F0080088611D
:101E30000846806900F00800019000BF00BF332011
:101E40000290002003900220049002A92848FEF787
:101E5000AFFF00BF2749486820F4406040F0E060D1
:101E600040F40060486000BF002205211D20FFF7FC
:101E700005FB1D20FFF7F2FA34E01F492068884275
:101E800016D100BF1848C06940F004001649C86167
:101E90000846C06900F00400019000BF00BF0022A6
:101EA00005211E20FFF7EAFA1E20FFF7D7FA19E0F6
:101EB00012492068884215D100BF0B48C06940F024
:101EC00008000949C8610846C06900F0080001908F
:101ED00000BF00BF002205213220FFF7CFFA3220D9
:101EE000FFF7BCFA06B010BD00100240000400402D
:101EF000000C01400000014000080040000C0040C0
:101F00000146022081F83D000868806800F0070261
:101F1000062A05D00868006840F001000B681860C8
:101F2000012081F83D000020704701460868C06824
:101F300040F001000B68D8600868806800F0070274
:101F4000062A05D00868006840F001000B68186098
:101F5000002070470146022081F83D0000BF08685C
:101F6000006A41F21112104050B90868006A9210DC
:101F7000104028B90868006820F001000A68106065
:101F800000BF012081F83D00002070472DE9F0419D
:101F900004460D4600BF94F83C00012802D10220FF
:101FA000BDE8F081012084F83C0000BF022084F8E5
:101FB0003D002068866826F0770626F47F46206874
:101FC00086602868502833D00CDC202850D004DCF0
:101FD00000284BD0102851D149E0302849D0402862
:101FE0004CD139E060282DD0702807D0B0F5805F43
:101FF00003D0B0F5005F41D10DE040E0D5E9021318
:102000006A68206802F0D7F82068866846F077068C
:102010002068866033E0D5E902136A68206802F020
:10202000CAF82068806840F480402168886026E013
:10203000EA686968206802F0AFF95021206802F070
:10204000C5F81CE0EA686968206802F0F7F96021C9
:10205000206802F0BBF812E0EA686968206802F0C4
:102060009BF94021206802F0B1F808E000BF00BFF2
:1020700000BF2968206802F0A9F800E000BF00BF97
:10208000012084F83D0000BF002084F83C0000BF20
:1020900000BF85E770472DE9F04104460D4616461E
:1020A00000BF94F83C00012802D10220BDE8F08175
:1020B000012084F83C0000BF022084F83D0096B95E
:1020C000EB68D5E90012206802F07AF9206880698F
:1020D00020F00C002168886120688069A9680843A5
:1020E000216888613DE0042E13D1EB68D5E9001228
:1020F000206802F0B7F92068806920F44060216808
:10210000886120688069A96840EA012021688861A7
:1021100027E0082E12D1EB68D5E90012206802F002
:10212000BEF92068C06920F00C002168C8612068F1
:10213000C069A96808432168C86112E0EB68D5E965
:102140000012206802F0C7F92068C06920F44060DE
:102150002168C8612068C069A96840EA0120216837
:10216000C861012084F83D0000BF002084F83C00D5
:1021700000BF00BF9AE710B504460CB9012010BD9E
:1021800094F83D0028B9002084F83C00204600F077
:102190000CF8022084F83D00211D206801F0ACFFFE
:1021A000012084F83D000020E9E7704770B504463F
:1021B0000D4635B1042D0BD0082D10D00C2D1CD19F
:1021C00014E02068C06840F002002168C86015E093
:1021D0002068C06840F004002168C8600EE02068F4
:1021E000C06840F008002168C86007E02068C06847
:1021F00040F010002168C86000E000BF00BF01226D
:102200002946206801F0C6FF2068806800F00706B4
:10221000062E05D02068006840F0010021680860A3
:10222000002070BD10B5044620680069C0F340006E
:10223000D8B12068C068C0F34000B0B16FF00200B0
:1022400021680861012020772068806900F0030080
:1022500018B12046FFF71EFF05E0204600F004F904
:10226000204600F0A1F90020207720680069C0F323
:102270008000D8B12068C068C0F38000B0B16FF0B2
:10228000040021680861022020772068806900F43A
:10229000407018B12046FFF7FDFE05E0204600F033
:1022A000E3F8204600F080F90020207720680069DC
:1022B000C0F3C000D8B12068C068C0F3C000B0B19E
:1022C0006FF0080021680861042020772068C06949
:1022D00000F0030018B12046FFF7DCFE05E02046C1
:1022E00000F0C2F8204600F05FF900202077206857
:1022F0000069C0F30010D8B12068C068C0F30010B6
:10230000B0B16FF0100021680861082020772068C4
:10231000C06900F4407018B12046FFF7BBFE05E02D
:10232000204600F0A1F8204600F03EF9002020777A
:102330002068006900F0010058B12068C06800F012
:10234000010030B16FF0010021680861204600F003
:1023500059F920680069C0F3C01058B12068C068FE
:10236000C0F3C01030B16FF08000216808612046D2
:10237000FFF7E6FC20680069C0F3801058B12068C0
:10238000C068C0F3801030B16FF040002168086170
:10239000204600F043F920680069C0F3401058B1AE
:1023A0002068C068C0F3401030B16FF02000216891
:1023B00008612046FFF7C5FC10BD000010B586B0CF
:1023C0000446002002900390049005902068B0F12C
:1023D000804F22D100BF2048806940F008001E498C
:1023E00088610846806900F00800019000BF00BFC6
:1023F0004FF44060029002200390059002A9174814
:10240000FEF7D6FC00BF1649486820F4407040F043
:10241000E06040F4007048601BE012492068884288
:1024200017D100BF0C48806940F008000A49886154
:102430000846806900F00800019000BF00BF4FF41B
:102440004070029002200390059002A90348FEF715
:10245000AFFC06B010BD000000100240000C0140AF
:102460000000014000080040704770B504460D466A
:10247000164600BF94F83C00012801D1022070BD2F
:10248000012084F83C0000BF022084F83D0036B1F2
:10249000042E1BD0082E31D00C2E5ED145E02946EB
:1024A000206801F09DFE2068806940F008002168E6
:1024B00088612068806920F00400216888612068B4
:1024C0008069296908432168886147E029462068B6
:1024D00001F0BEFE2068806940F4006021688861D8
:1024E0002068806920F480602168886120688069A4
:1024F000296940EA0120216888612FE02946206887
:1025000001F0E4FE2068C06940F008002168C8615D
:102510002068C06920F004002168C8612068C06993
:10252000296908432168C86118E02946206801F03C
:1025300009FF2068C06940F400602168C861206814
:10254000C06920F480602168C8612068C069296979
:1025500040EA01202168C86100E000BF00BF0120FF
:1025600084F83D0000BF002084F83C0000BF00BF9D
:1025700085E710B504460CB9012010BD94F83D0064
:1025800028B9002084F83C00204600F00CF8022016
:1025900084F83D00211D206801F0AEFD012084F883
:1025A0003D000020E9E770477047000070B5044621
:1025B0000E4601223146206801F0ECFD0F492068EB
:1025C000884203D00E492068884201D1012000E0F2
:1025D000002028B12068406C40F400402168486425
:1025E0002068806800F00705062D05D02068006887
:1025F00040F0010021680860002070BD002C0140FF
:102600000034014010B5044603492068884201D1D6
:10261000FEF790FE10BD0000002C0140704770478F
:102620002DE9F0470446206805682068C6682068E0
:1026300047694FF00008C14605F00F08B8F1000FD8
:102640000AD105F0200038B106F0200020B1204664
:1026500001F089FFBDE8F087B8F1000F6DD007F0F9
:10266000010018B906F49070002866D005F001004A
:1026700030B106F4807018B1E06B40F00100E06307
:1026800005F0040030B107F0010018B1E06B40F034
:102690000200E06305F0020030B107F0010018B15C
:1026A000E06B40F00400E06305F0080030B107F093
:1026B000010018B1E06B40F00800E063E06B68B324
:1026C00005F0200028B106F0200010B1204601F0EE
:1026D0004AFF20684069C0F38019E06B00F00800F1
:1026E00010B9B9F1000F22D0204601F01CFF20687C
:1026F000406900F04000B0B12068406920F040001F
:1027000021684861606B50B11748616B4863606B2A
:10271000FEF77AFA10B1606B416B88470CE02046F7
:10272000FFF77DFF08E02046FFF779FF04E0204631
:10273000FFF775FF0020E0638CE705F0800030B103
:1027400006F0800018B1204602F030F882E705F06C
:10275000400030B106F0400018B1204601F0F3FE11
:1027600078E700BF76E700001345000810B504467F
:102770000CB9012010BDA06900B100E000BF94F8C1
:10278000390028B9002084F83800204600F028F8E5
:10279000242084F839002068C06820F400502168A3
:1027A000C860204601F032FF2068006920F49040A4
:1027B000216808612068406920F02A00216848618A
:1027C0002068C06840F400502168C8600020E063C1
:1027D000202084F8390084F83A000020CAE700007D
:1027E00010B586B004460020029003900490059036
:1027F0003749206888422FD100BF3648806940F4AD
:102800008040344988610846806900F48040019026
:1028100000BF00BF00BF0846806940F00400886127
:102820000846806900F00400019000BF00BF481511
:102830000290022003900320059002A92648FEF78B
:10284000B7FA4FF48060029000200390049002A930
:102850002148FEF7ADFA39E020492068884235D199
:1028600000BF1C48C06940F400301A49C8610846DE
:10287000C06900F40030019000BF00BF00BF0846EF
:10288000806940F0040088610846806900F0040017
:10289000019000BF00BF042002900220039003209B
:1028A000059002A90C48FEF783FA08200290002048
:1028B0000390049002A90848FEF77AFA0022052145
:1028C0002620FEF7DBFD2620FEF7C8FD06B010BD72
:1028D0000038014000100240000801400044004060
:1028E00010B5034693F83A0020282FD101B10AB958
:1028F000012010BD00BF93F83800012801D102204B
:10290000F7E7012083F8380000BF99629A85DA85DD
:102910000020D863222083F83A0000BF002083F80B
:10292000380000BF1868C06840F480701C68E06020
:102930001868406940F001001C6860611868C06850
:1029400040F020001C68E0600020D2E70220D0E7C1
:1029500010B504460448007800F09EFE01220249AA
:102960000248FFF7BDFF10BD20000020C402002078
:10297000704700BFFEE7000000B585B00020019061
:1029800002900390049000BF5148806940F02000FD
:102990004F4988610846806900F02000009000BF20
:1029A00000BF00BF0846806940F0100088610846FB
:1029B000806900F01000009000BF00BF00BF084613
:1029C000806940F0040088610846806900F00400D6
:1029D000009000BF00BF00BF0846806940F00800BB
:1029E00088610846806900F00800009000BF00BFC1
:1029F000002241F6C6313748FEF77AFB00224FF439
:102A000070413548FEF774FB012211023348FEF78E
:102A10006FFB00224FF400613048FEF769FB002293
:102A200004212F48FEF764FB41F6020001900120CB
:102A3000029002200390049001A92648FEF7B8F9FD
:102A40004FF4717001900120029002200390032046
:102A5000049001A91F48FEF7ABF9202001902148FE
:102A600002900120039001A91A48FEF7A1F94FF442
:102A7000704001900120029002200390049001A96F
:102A80001548FEF795F94FF48070019001200290EF
:102A900003900220049001A91048FEF789F94FF431
:102AA000006001900120029002200390049001A98F
:102AB0000A48FEF77DF904200190012002900220CF
:102AC0000390049001A90648FEF772F905B000BD15
:102AD0000010024000100140000C014000080140BD
:102AE000001401400000211010B50B480B4908608C
:102AF0000B484860002109488160C1604FF4804163
:102B00000161002141618161C1610162FEF7FCFA4E
:102B100008B1FEF778F810BD00540040D80000203E
:102B2000A086010010B50F480F4908604FF482706D
:102B3000486000210C488160C160022101610121CF
:102B40004161490281612821C16100210162416224
:102B500081620A21C162FFF76DF808B1FEF753F8F0
:102B600010BD0000003001402C01002000B58DB0E8
:102B7000002009900A900B900C90079008901C215F
:102B80006846FDF766FB4FF0804023490860472008
:102B900048600021204881606421C16000210161FA
:102BA00080218161FFF7F8F808B1FEF72CF84FF4A7
:102BB0008050099009A91848FFF7E8F908B1FEF715
:102BC00022F81548FFF7D5FC08B1FEF71CF80020E5
:102BD0000790089007A91048FFF7B4F808B1FEF76E
:102BE00012F86020009000200190029004900822CA
:102BF00069460948FFF739FC08B1FEF704F80C22D2
:102C000069460548FFF731FC08B1FDF7FCFF0248B3
:102C1000FFF7D4FB0DB000BD8401002000B58BB0E0
:102C200000200790089009900A9005900690019066
:102C30000290039004902B482B490860472048607D
:102C40000021294881606421C16000210161802147
:102C50008161FFF7A1F808B1FDF7D5FF4FF480506F
:102C6000079007A92048FFF791F908B1FDF7CBFFBE
:102C70001D48FFF780FA08B1FDF7C5FF0020059059
:102C8000069005A91848FFF75DF808B1FDF7BBFFEE
:102C90000020019001200290002003900490002267
:102CA00001A91148FFF7F7F908B1FDF7ACFF0422BD
:102CB00001A90D48FFF7EFF908B1FDF7A4FF0822BD
:102CC00001A90948FFF7E7F908B1FDF79CFF0C22BD
:102CD00001A90548FFF7DFF908B1FDF794FF0BB034
:102CE00000BD000000040040C401002000B58DB00C
:102CF000002009900A900B900C90079008901C21DE
:102D00006846FDF7A6FA2448244908604720486031
:102D10000021224881606421C1600021016180217D
:102D20008161FFF739F808B1FDF76DFF4FF480506E
:102D3000099009A91948FFF729F908B1FDF763FFC0
:102D40001648FFF716FC08B1FDF75DFF002007905D
:102D5000089007A91148FEF7F5FF08B1FDF753FFEA
:102D600060200090002001900290049008226946A3
:102D70000A48FFF77AFB08B1FDF745FF0C226946C8
:102D80000648FFF772FB08B1FDF73DFF0348FFF768
:102D900015FB0DB000BD000000080040040200203B
:102DA00000B587B000200390049005900690019034
:102DB00002901448144908604720486000211248D6
:102DC00081606421C1600021016180218161FEF781
:102DD000E3FF08B1FDF717FF4FF48050039003A9FC
:102DE0000948FFF7D3F808B1FDF70DFF0020019067
:102DF000029001A90448FEF7A5FF08B1FDF703FF03
:102E000007B000BD000C00404402002010B50B4884
:102E10000B4908604FF4E1304860002108488160A8
:102E2000C16001610C21416100218161C161FFF735
:102E30009DFC08B1FDF7E7FE10BD00000038014021
:102E40008402002010B50B480B4908604FF4E130B4
:102E50004860002108488160C16001610C21416126
:102E600000218161C161FFF781FC08B1FDF7CBFE54
:102E700010BD000000440040C402002000BFFEE777
:102E80002DE9F05F05460E4617469846DDE90BAB87
:102E9000DDF82890382002F03DFC04462560A6802D
:102EA000A760A4F80C80C4F81090A4F814A0C4F88B
:102EB00018B00D98A0830E9820620F98A08400206F
:102EC00084F82C00A062206360632046BDE8F09F78
:102ED00070B504460E461546256384F82C60A08C18
:102EE00018B9206A0068456310E0A08C042803D15B
:102EF000206A0068856309E0A08C082803D1206A55
:102F00000068C56302E0206A0068056494F82C003C
:102F100020B101280DD0022821D115E0A18800227E
:102F20002068FEF7E5F8A1890022A068FEF7E0F826
:102F300015E0A18800222068FEF7DAF8A1890122B5
:102F4000A068FEF7D5F80AE0A18801222068FEF704
:102F5000CFF8A1890022A068FEF7CAF800BF00BF21
:102F600070BD70B504460D462563606B002803DD17
:102F7000012084F82C0009E0606B002803DA0220AD
:102F800084F82C0002E0002084F82C00A08C18B9F2
:102F9000206A0068456310E0A08C042803D1206AF1
:102FA0000068856309E0A08C082803D1206A0068C6
:102FB000C56302E0206A0068056494F82C0020B123
:102FC00001280DD0022821D115E0A1880022206817
:102FD000FEF78EF8A1890022A068FEF789F815E0B7
:102FE000A18800222068FEF783F8A1890122A06849
:102FF000FEF77EF80AE0A18801222068FEF778F843
:10300000A1890022A068FEF773F800BF00BF70BD61
:10301000704709E040F2375100BF0A1EA1F10103D9
:1030200099B2FAD1421E90B20028F3D1704770B520
:103030000646002415E004F1B001C8B200F0DCF946
:10304000012000F0D9F9102000F0D6F9002504E0A5
:10305000304600F003FA681CC5B2802DF8DB601C16
:10306000C4B2082CE7DB70BD10B50122510236480E
:10307000FEF73EF8002280213348FEF739F832206F
:10308000FFF7C7FF012280212F48FEF731F8AE205D
:1030900000F0B2F9002000F0AFF9102000F0ACF918
:1030A000402000F0A9F9812000F0A6F9CF2000F01F
:1030B000A3F9A12000F0A0F9C82000F09DF9A620F6
:1030C00000F09AF9A82000F097F93F2000F094F959
:1030D000D32000F091F9002000F08EF9D52000F007
:1030E0008BF9802000F088F9D92000F085F9F120D3
:1030F00000F082F9DA2000F07FF9122000F07CF96C
:10310000DB2000F079F9402000F076F9202000F073
:1031100073F9022000F070F98D2000F06DF9142091
:1031200000F06AF9A42000F067F9A62000F064F925
:10313000AF2000F061F90020FFF779FF0021084679
:1031400000F044F910BD0000001001402DE9F05FCF
:1031500082460F4690469946DDF828B000240025A7
:1031600001266CE00024012611E019F8040018F88B
:103170000510884209D109EB0400407808EB0501ED
:103180004978884201D1260105E0A01CC4B219F893
:1031900004007F28E9DC00BFBAF1760F03DD4FF0B1
:1031A000000A781CC7B23946504600F00FF9012ECC
:1031B00022D03946504600F009F9002407E01BF8F8
:1031C000060000F04BF9701C86B2601CC4B2102CD3
:1031D000F5DB07F10800C1B2504600F0F7F8002413
:1031E00007E01BF8060000F039F9701C86B2601C7D
:1031F000C4B2102CF5DB1CE0681CC5B23946504641
:1032000000F0E4F8002404E0002000F027F9601C3E
:10321000C4B2102CF8DB781CC1B2504600F0D6F8CE
:10322000002404E0002000F019F9601CC4B2102C46
:10323000F8DB0AF1100000F0FF0AA81CC5B218F86C
:10324000050000288ED1BDE8F09F2DE9F047044627
:103250008846154699464FF0000A002600271FE0D1
:10326000E85D203800F0FF0A7E2C04DD002408F120
:10327000010000F0FF084146204600F0A7F80026B4
:1032800008E00AEB4A0109EB4101885D00F0E6F82D
:10329000701CC6B2062EF4DBA01DC4B2781CC7B2E7
:1032A000E85D0028DCD1BDE8F0872DE9F04706464F
:1032B0000F469046994600250024A24630E018F8B3
:1032C0000A002038C5B2782E02DD0026781CC7B26D
:1032D0003946304600F07AF8002406E009EB051183
:1032E000085D00F0BBF8601CC4B2082CF6DB07F1E7
:1032F0000800C1B2304600F069F8002407E009EB8D
:1033000005112144087A00F0A9F8601CC4B2082C09
:10331000F5DB06F10800C6B20AF1010000F0FF0A71
:1033200018F80A000028CAD1BDE8F0872DE9FC474B
:1033300006468846154699460A9F002438E0285DCF
:103340007F2817DD285D8DF80400281940788DF856
:10335000050000208DF806001848194B01AA4146C7
:1033600000903046FFF7F2FE06F11000C6B2A01C36
:10337000C4B21DE0285D8DF8040000208DF8050022
:10338000012F09D10F4B01AA41463046FFF78DFFAF
:1033900006F10800C6B209E0032F07D10A4B01AAC3
:1033A00041463046FFF751FFB01DC6B2601CC4B2A3
:1033B000285D0028C3D1BDE8FC870000F36F00083A
:1033C000546F0008937600082C6D000870B5044611
:1033D0000D46B02101EBE501C8B200F00DF8102157
:1033E00041EA141000F008F804F00F0141F0010068
:1033F00000F002F870BD000070B5044608250022F8
:1034000040211548FDF774FE0022A9011248FDF77E
:103410006FFE1BE004F0800028B1012211020E486B
:10342000FDF766FE05E000224FF480710A48FDF7C3
:103430005FFE012251020848FDF75AFE00224FF4B8
:1034400000710548FDF754FE6006040E281EA5F124
:103450000101CDB2DED170BD0010014070B504464F
:103460000825012240211548FDF742FE0022A9014E
:103470001248FDF73DFE1BE004F0800028B1012258
:1034800011020E48FDF734FE05E000224FF4807172
:103490000A48FDF72DFE012251020848FDF728FEDB
:1034A00000224FF400710548FDF722FE6006040E6D
:1034B000281EA5F10101CDB2DED170BD0010014082
:1034C0002DE9F0478CB0044689469246C4F8049032
:1034D000C4F808A0E0692062A069E061D4E90101B4
:1034E000FCF714FFA0610021A069FDF7A5F901D246
:1034F000A0690DE0A06980F000473846616BFDF7D8
:103500009BF901D2012000E000200646FDF7FCF8FF
:1035100005460021FDF786F97BD0207848BBA169DC
:10352000E068FCF7F9FE6062A1692069FCF7F4FE2F
:103530000546A16AFCF798FEA062A16BA06AFDF7A0
:1035400071F901D2A06A00E0A06BA062E16BA06AF1
:10355000FDF772F901D2A06A00E0E06BA062D4E945
:103560000601FCF7D3FE05466169FCF7D5FEE06273
:103570003FE0207801283CD1D4E90601FCF7C6FEE3
:103580000546E168FCF7C8FE6062A1692069FCF7A6
:10359000C3FEA062206AFDF7FDF8CDE90401E069F1
:1035A000FDF7F8F8074600224FF08043FCF7CBFF09
:1035B00005460E46A069FDF7EDF82A463346CDE9EB
:1035C0000001FCF7BAFFCDE90201DDE90423FCF7B5
:1035D00013FFCDE908016069FDF7DCF8CDE90601CC
:1035E000DDE90823FCF7AFFFCDE90A01FDF7FEF89E
:1035F000E062D4E90901FCF737FE0546E16AFCF711
:1036000033FE2063A16B206BFDF70CF902D2206B17
:1036100001E00AE0A06B2063E16B206BFDF70CF981
:1036200001D2206B00E0E06B2063206B0CB0BDE8A2
:10363000F0872DE9F05F05460E4617469846DDE90E
:103640000BABDDF82890402002F064F804462570AA
:10365000E6602761C4F814800020A062C4F83490AA
:10366000C4F838A0C4F83CB02046BDE8F09F000084
:1036700008B508490968C9084FF47A72B1FBF2F13C
:103680004143009100BF00BF00994A1E00920029EB
:10369000F9D108BD3C00002010B504462F48006851
:1036A00068B91D2C0BD101202C4908602C480178E9
:1036B0000078401C2A4A10702A4844544CE027489D
:1036C000006801280DD1D12C0BD1022023490860BC
:1036D000234801780078401C214A10702148445446
:1036E0003AE01E48006802280FD11D480178007892
:1036F000401C1B4A10701B48445410460078072891
:103700002ADB03201549086026E0144800680328D6
:1037100019D1ED2C0FD1124801780078401C104AC5
:1037200010701048445400F01FF800200B49086046
:103730000B49087010E00020084908608021094802
:10374000FCF787FD08E00020044908600449087080
:1037500080210448FCF77DFD10BD0000B80000206A
:10376000BC000020185000202DE9F0410446A0784C
:10377000FF2804D100202149096808700EE0A078D4
:103780003F2804D101201D490968087006E0A0788F
:103790000F2803D102201949096808702079E178BF
:1037A00040EA012000B2154909684880A079617992
:1037B00040EA012000B21149096888800F4800687A
:1037C000B0F902100EA001F02FF80C490968B1F908
:1037D0000200FCF799FF07463A46002109480068B5
:1037E000FFF76EFE0646FCF79DFF05462946064894
:1037F000006800F0B3FABDE8F0810000240000206A
:1038000025640A00280000202C00002086B0002437
:103810000020059004908B4803904FF08240029066
:1038200000BF0024002005900490DDE90310FCF7A0
:1038300073FD019084F0004000900599FCF766FD4F
:1038400083460199FCF762FD82460299FCF796FDDA
:103850008146FCF79FFF07467B4A7C4BFCF773FED3
:103860000546FCF778FF7A4909684863DDE90310EB
:10387000FCF752FD019084F0004000900599FCF7A0
:10388000F3FC83460199FCF741FD82460299FCF75F
:1038900075FD8146FCF77EFF07466B4A6B4BFCF7D4
:1038A00052FE0546FCF757FF6A4909684863DDE99F
:1038B0000310FCF731FD834620460599FCF726FDF1
:1038C00059460190FCF722FD82460299FCF756FD0D
:1038D0008146FCF75FFF07465B4A5C4BFCF733FE13
:1038E0000546FCF738FF5C4909684863DDE90310C9
:1038F000FCF712FD834620460599FCF7B5FC5946B6
:103900000190FCF703FD81460299FCF737FD8246E2
:10391000FCF740FF07464C4A4C4BFCF714FE0546AB
:10392000FCF719FF4D49096848634FF47A6001F0CC
:103930003FF900BF002005900490DDE90310FCF77B
:10394000EBFC84F0004B009058460599FCF7DEFC38
:1039500082460099FCF7DAFC81460299FCF70EFDDD
:103960000190FCF717FF0746374A384BFCF7EBFD91
:103970000546FCF7F0FE364909684863DDE90310A7
:10398000FCF7CAFC019084F0004000900599FCF718
:103990006BFC83460199FCF7B9FC82460299FCF75F
:1039A000EDFC8146FCF7F6FE0746274A274BFCF75D
:1039B000CAFD0546FCF7CFFE264909684863DDE9E4
:1039C0000310FCF7A9FC834620460599FCF79EFCF2
:1039D00059460190FCF79AFC82460299FCF7CEFC0E
:1039E0008146FCF7D7FE0746174A184BFCF7ABFD9C
:1039F0000546FCF7B0FE184909684863DDE9031085
:103A0000FCF78AFC834620460599FCF72DFC5946B5
:103A10000190FCF77BFC82460299FCF7AFFC8146E3
:103A2000FCF7B8FE0746084A084BFCF78CFD054634
:103A3000FCF791FE0949096848634FF47A7001F078
:103A4000B7F8EEE600008841B0C93E516219234044
:103A5000C0000020C4000020C8000020CC000020CE
:103A600000BF012001F0A4F8FBE700BF012001F036
:103A70009FF8FBE700BF00BF00BF01F097FF0021E8
:103A8000012001F0F7FE642141430D22B1FBF2F168
:103A90004C08044909688C6201F0B2FF0A2001F069
:103AA00087F8EAE7C400002000BF00BF00BF01F0B4
:103AB0007DFF0021012001F0DDFE642141430D2244
:103AC000B1FBF2F14C08044909688C6201F098FFDF
:103AD0000A2001F06DF8EAE7C000002086B07848BF
:103AE00078494FF07E52784BCDE900210290774A19
:103AF00077490020FFF79DFD0646714871494FF058
:103B00007E52714BCDE900210290704A704900202D
:103B1000FFF78FFD07466A486A494FF07E526A4BAD
:103B2000CDE900210290694A69490020FFF781FD33
:103B30008046634863494FF07E52634BCDE90021D4
:103B40000290624A62490020FFF773FD81464FF000
:103B5000000A002005900490039000BF002400BFDD
:103B600000BF01F023FF641C5A490968886AFCF70A
:103B7000D4FD834657490968496B002903DD55493F
:103B80000968496B03E053490968496B4942084693
:103B9000FCF7BAFD5A46014602903046FFF790FC0A
:103BA0000546FCF7BFFD82464B490968886AFCF769
:103BB000B4FD834648490968496B002903DD46493D
:103BC0000968496B03E044490968496B4942084662
:103BD000FCF79AFD5A46014602903846FFF770FC02
:103BE0000546FCF79FFD05903C490968886AFCF78B
:103BF00094FD834639490968496B002903DD37493B
:103C00000968496B03E035490968496B4942084630
:103C1000FCF77AFD5A46014602904046FFF750FCF9
:103C20000546FCF77FFD04902D490968886AFCF77A
:103C300074FD83462A490968496B002903DD284938
:103C40000968496B03E026490968496B49420846FF
:103C5000FCF75AFD5A46014602904846FFF730FCF1
:103C60000546FCF75FFD03901D480068806A1B490C
:103C70000968896ACDE9001017480068836A154809
:103C800000682146826A17A000F0CEFD5146114817
:103C90000068FFF766F9104805990068FFF761F9B9
:103CA0000E4804990068FFF75CF90D480399006815
:103CB000FFF757F901F0A4FE0A2000F079FF50E762
:103CC000000034420000C8420AD7233D0AD7A33D72
:103CD0009A99193FC0000020C4000020C8000020AD
:103CE000CC00002025642C25642C25642C25642C14
:103CF00025640A0000BF00BF00BF01F057FE00218D
:103D0000012001F0B7FD642141430D22B1FBF2F126
:103D10004C08044909688C6201F072FE0A2000F028
:103D200047FFEAE7CC00002000BF00BF00BF01F062
:103D30003DFE0021012001F09DFD642141430D2243
:103D4000B1FBF2F14C08044909688C6201F058FE9D
:103D50000A2000F02DFFEAE7C800002070B50546F4
:103D60000C46002C09DB2046FCF7CEFC064601225F
:103D70003146284600F00CF809E06042FCF7C4FC2C
:103D800006464FF0FF323146284600F001F870BD7C
:103D90002DE9FF5F0446894616464846FCF7FAFCC3
:103DA0008246474A474BFCF740FC0022464BCDE990
:103DB0000001FCF7C8FB00221346CDE90201FCF725
:103DC000FDFC01D2012000E0002070B14846FCF764
:103DD000E1FC82463A4A3B4BFCF727FC00223A4B77
:103DE000CDE90201FCF7AFFB0FE04846FCF7D2FC3F
:103DF0008246334A334BFCF718FC0022324BCDE9A4
:103E00000201FCF7A0FB81F000410746FCF7A3FC90
:103E10000546012E28D122E0E068FCF7BBFC0746EE
:103E2000274A2A4BFCF7E8FA8246FCF7DFFCE06001
:103E3000618900226068FDF75BF921890122206811
:103E4000FDF756F94FF47A7000F0EEFD218900225B
:103E50002068FDF74DF94FF47A7000F0E5FD281E5B
:103E6000A5F10105D8D129E0701C38BB22E0E0683B
:103E7000FCF790FC0746124A144BFCF75EFB8246A7
:103E8000FCF7B4FCE060618901226068FDF730F95D
:103E9000218901222068FDF72BF94FF47A7000F098
:103EA000C3FD218900222068FDF722F94FF47A70C2
:103EB00000F0BAFD281EA5F10105D8D1BDE8FF9F8D
:103EC000CDCCCCCCCCCCFC3F00002040CCCCCC3FEB
:103ED00010B500BF502080F31188BFF34F8FBFF3A0
:103EE0006F8F00BF02F046FC18B14FF080500449BC
:103EF000086000BF002080F3118800BF10BD0000E3
:103F000004ED00E000B58FB0282105A8FCF7A1F969
:103F100014216846FCF79DF90120059000040690E5
:103F2000002007900120099002200C90C1030D9100
:103F30004FF4E0110E9105A8FDF74AFC08B1FCF71B
:103F400062FE0F20009002200190002002904FF4AA
:103F5000806003900020049002216846FDF7E0FA9B
:103F600008B1FCF750FE0FB000BD0000114800681A
:103F700040F001000F490860084640680E490840BB
:103F80000C494860084600680C4908400949086027
:103F90000846006820F4802008600846406820F445
:103FA000FE0048604FF41F008860C80304490860A1
:103FB00070470000001002400000FFF8FFFFF6FE0F
:103FC00008ED00E010B50248FEF72CF910BD000026
:103FD0000403002008B5002000902948006800690B
:103FE000C0F3400050B126480068C068C0F34000EC
:103FF00020B169462348006801F036FE2048006879
:104000000069C0F3800050B11D480068C068C0F36B
:10401000800020B169461C48006801F025FE184860
:1040200000680069C0F3C00050B115480068C0685E
:10403000C0F3C00020B169461448006801F014FEC6
:104040000F4800680069C0F3001050B10C480068C8
:10405000C068C0F3001020B169460D48006801F047
:1040600003FE009838B14FF080500A490860BFF352
:104070004F8FBFF36F8F0248FEF7D4F808BD0000E2
:10408000C401002004000020080000200C000020D3
:104090001000002004ED00E010B50248FEF7C2F861
:1040A00010BD00000402002008B5002000900F4859
:1040B00000680069C0F3400050B10C480068C06857
:1040C000C0F3400020B169460948006801F0CCFD0A
:1040D000009838B14FF0805006490860BFF34F8F09
:1040E000BFF36F8F0148FEF79DF808BD4402002022
:1040F0000400002004ED00E010B50268204B984257
:104100000ED0204B98420BD0B0F1804F08D01E4B00
:10411000984205D01D4B984202D01D4B984203D1C6
:1041200022F070024B681A43154B98420ED0154B83
:1041300098420BD0B0F1804F08D0134B984205D075
:10414000124B984202D0124B984203D122F4407293
:10415000CB681A4322F080034C6943EA04020260F0
:104160008B68C3620B688362054B984202D0054B93
:10417000984201D10B6903630123436110BD000024
:10418000002C0140003401400004004000080040C1
:10419000000C004030B501F01F05012404FA05F3BE
:1041A000046A9C430462046A01F01F0502FA05F5E3
:1041B0002C43046230BD30B50C46816821F47F4148
:1041C00042EA032525432943816030BD0A468168C0
:1041D00021F0700142F0070319438160704700002D
:1041E00030B5056A25F001050562026A43688469F5
:1041F00024F0700424F003040D682C4322F0020222
:104200008D682A43104DA84200D103E00F4DA8420B
:1042100006D100BF22F00802CD682A4322F0040232
:10422000094DA84202D0094DA84207D123F480735A
:1042300023F400734D692B438D692B4343608461E4
:104240004D684563026230BD002C014000340140DE
:1042500030B5056A25F010050562026A4368846975
:1042600024F4E04424F440740D6844EA052422F068
:1042700020028D6842EA0512124DA84200D103E0E7
:10428000114DA84207D100BF22F08002CD6842EA5A
:10429000051222F040020B4DA84202D00A4DA8425E
:1042A00009D123F4806323F400634D6943EA850355
:1042B0008D6943EA8503436084614D6885630262CA
:1042C00030BD0000002C01400034014030B5056ACB
:1042D00025F480750562026A4368C46924F070049D
:1042E00024F003040D682C4322F400728D6842EA26
:1042F0000522124DA84200D103E0114DA84207D17A
:1043000000BF22F40062CD6842EA052222F48062F6
:104310000A4DA84202D00A4DA84209D123F4805385
:1043200023F400534D6943EA05138D6943EA0513ED
:104330004360C4614D68C563026230BD002C01401A
:104340000034014030B5056A25F480550562036AE2
:104350004468C26922F4E04222F440720D6842EAE5
:10436000052223F400538D6843EA0533084DA84223
:1043700002D0084DA84204D124F480444D6944EA97
:1043800085144460C2614D680564036230BD00005D
:10439000002C01400034014030B50B461446026A3F
:1043A000056A25F001050562816921F0F00141EA05
:1043B000041122F00A021A438161026230BD00003A
:1043C00070B50C461546066A26F00106066281693C
:1043D000026A154EB0420ED0144EB0420BD0B0F16E
:1043E000804F08D0124EB04205D0124EB04202D0DB
:1043F000114EB04201D1012600E000261EB121F08D
:104400000301294301E041F0010121F0F001F02610
:1044100006EA0316314322F00A0204F00A06324388
:104420008161026270BD0000002C01400034014037
:104430000004004000080040000C004030B50B466E
:104440001446056A25F0100505628169026A21F4A7
:10445000704141EA043122F0A00242EA0312816174
:10446000026230BD70B50C461546066A26F010068D
:1044700006628169026A21F4407141EA052121F452
:1044800070414FF4704606EA0336314322F0A00231
:10449000A02606EA041632438161026270BD70B53F
:1044A0000C461546066A26F480760662C169026AE1
:1044B00021F00301294321F0F001F02606EA03165A
:1044C000314322F400724FF4007606EA04263243A8
:1044D000C161026270BD70B50C461546066A26F4CD
:1044E00080560662C169026A21F4407141EA0521E1
:1044F00021F470414FF4704606EA0336314322F44A
:1045000000524FF4005606EA04363243C16102629B
:1045100070BD70B505466C6A0020E085E0842046D9
:10452000FEF77DF870BD0168C96821F490710268DA
:10453000D1600168496921F00101026851612021BF
:1045400080F83A10704710B504462068C06820F023
:1045500040002168C860202084F839002046FEF71A
:1045600007FA002010BD70B5044694F83A002228DE
:104570004AD1A068B0F5805F13D1A56A206940B91F
:1045800020684068C0F308002880A06A801CA062F0
:1045900019E020684068C0B22880A06A401CA06270
:1045A00011E0206938B920684068C1B2A26A501C85
:1045B000A062117007E02068406800F07F01A26AE5
:1045C000501CA0621170E08D401E80B2E085C8B919
:1045D0002068C06820F020002168C8602068C0689A
:1045E00020F480702168C8602068406920F00100D4
:1045F00021684861202084F83A002046FEF7A8F997
:10460000002070BD0020FCE70220FAE770B50446E8
:104610002168096921F44051E2681143226811615F
:104620002269A1681143626941EA02052168C968EB
:1046300041F20C62914329432268D16021684969A3
:1046400021F44071A269114322685161564A2168E0
:10465000914254D1FDF762F800EBC00101EB00116B
:1046600062689200B1FBF2F100EBC00202EB0012B3
:1046700063689B00B2FBF3F26423B2FBF3F202EB3C
:10468000C20303EB0212A1EB8201322202EB011101
:104690006422B1FBF2F101F0F00100EBC00202EB89
:1046A000001263689B00B2FBF3F26423B2FBF3F2E7
:1046B00001EB021200EBC00101EB001163689B00EB
:1046C000B1FBF3F100EBC00303EB00136668B60027
:1046D000B3FBF6F36426B3FBF6F303EBC30606EB7A
:1046E0000313A1EB8301322303EB01116423B1FB1C
:1046F000F3F101F00F0111442268916053E0FCF7DF
:10470000FDFF00EBC00101EB001162689200B1FBFC
:10471000F2F100EBC00202EB001263689B00B2FBF7
:10472000F3F26423B2FBF3F202EBC20303EB0212D7
:10473000A1EB8201322202EB01116422B1FBF2F102
:1047400001F0F00100EBC00202EB001263689B0075
:10475000B2FBF3F26423B2FBF3F201EB021200EBC3
:10476000C00101EB001163689B00B1FBF3F100EBAA
:10477000C00303EB00136668B600B3FBF6F36426D0
:10478000B3FBF6F303EBC30606EB0313A1EB8301C4
:10479000322303EB01116423B1FBF3F101F00F01AC
:1047A00011442268916070BD00380140014691F8C3
:1047B000390021282CD18868B0F5805F0FD10A6AB2
:1047C0001088C0F308000B685860086918B9086AB7
:1047D000801C086209E0086A401C086205E00B6A58
:1047E000581C086218780B685860C88C401E80B24C
:1047F000C88458B90868C06820F080000B68D86089
:104800000868C06840F040000B68D860002070471E
:104810000220FCE710B50248FDF702FF10BD0000C2
:10482000C402002000BFFEE70FB4054B10B503A97A
:10483000044A029800F03CF810BC5DF814FB00003C
:10484000054A0008D000002002480068C0F302209A
:10485000704700000CED00E010B5002804DB0A07EB
:10486000130E054A135406E00A07140E034A00F01B
:104870000F031B1FD45410BD00E400E018ED00E04E
:10488000EFF311807047EFF305807047EFF310806E
:10489000704702E008C8121F08C1002AFAD1704709
:1048A0007047002001E001C1121F002AFBD17047B0
:1048B0002DE9FF4F89B09B460446002506E02528D8
:1048C0000BD05A460B999047641C6D1C2078002829
:1048D000F5D10DB02846BDE8F08F0027B84601227B
:1048E000474900E0074314F8013F203B02FA03F078
:1048F0000842F7D120782E2819D114F8010F47F07B
:1049000004072A280ED06FF02F022078A0F1300182
:1049100009290CD808EB880102EB410100EB0108E2
:10492000641CF2E70A98641C50F8048B0A90207803
:104930000028CED0642808D0692806D075281ED05B
:104940005A460B9990476D1C58E00A994FF00A0996
:1049500001C90A91002802DA40422D2102E03905FE
:1049600004D52B218DF82010012103E0F90704D094
:104970002021F7E78A4608AE0DE00021FAE70A9900
:104980004FF00A0901C90A91F7E74946FBF75EFFB4
:10499000303106F8011D0028F7D1ADEB060000F11B
:1049A0002009780701D44FF00108C84502DDA8EBC3
:1049B000090000E000208046002706E008A85A46CB
:1049C000C05D0B9990476D1C7F1C5745F6DB04E0DA
:1049D00030205A460B9990476D1CB8F10001A8F1A0
:1049E0000108F5DC05E016F8010B5A460B999047D3
:1049F0006D1CB9F10001A9F10109F4DC641C65E743
:104A000009280100074A126802F0807242B100BF13
:104A10004FF060421268002AFAD04FF060431870DD
:104A200070470000FCED00E070B504464FF6FF70E3
:104A3000001B401F85B20948FDF762FA074800686D
:104A4000456203E005480068406A85B24FF6FA7097
:104A50008542F7DB0148FDF77DFA70BDC4010020F7
:104A6000C8B0FCF773FCFFF74DFAFDF785FFFEF7C2
:104A7000E9F9FEF7D3F8FEF7C9F9FEF753F8FEF7A8
:104A800075F8FEF733F9FEF78BF9FEF72DF8FBF713
:104A9000BBFF00F0A9F8242234493FA8FBF7C0FB74
:104AA0003FAA0021324800F0E1F832490860242290
:104AB0002E49243136A8FBF7B3FB36AA00212E4835
:104AC00000F0D4F82D4908602422284948312DA847
:104AD000FBF7A6FB2DAA0021294800F0C7F82949B9
:104AE0000860242221496C3124A8FBF799FB24AAF1
:104AF0000021254800F0BAF82449086024221B4907
:104B000090311BA8FBF78CFB1BAA0021204800F06A
:104B1000ADF82049086024221449B43112A8FBF7EB
:104B20007FFB12AA00211C4800F0A0F81B49086076
:104B300024220E49D83109A8FBF772FB09AA0021EB
:104B4000174800F093F81749086024220749FC3100
:104B50006846FBF765FB6A460021134800F086F8BB
:104B60001249086000F060F800BFFEE7F46B00082F
:104B7000613A000800000020A93A00080400002063
:104B8000753A000808000020293D00080C000020AC
:104B9000F53C000810000020DD3A00081400002059
:104BA0000D380008180000206B3A00081C00002097
:104BB00070B50546FFF767FE48B9FFF767FE30B9E5
:104BC00008480068022805D1FFF75AFE10B16FF0BF
:104BD000050404E0002415B1284601F005F820463C
:104BE00070BD00009000002010B5FFF74CFE48B9E2
:104BF000FFF74CFE30B90B480068022805D1FFF7DB
:104C00003FFE10B16FF0050409E00648006820B9C6
:104C1000012004490860002401E04FF0FF342046E1
:104C200010BD00009000002010B5FFF72CFE48B921
:104C3000FFF72CFE30B90C480068022805D1FFF7B9
:104C40001FFE10B16FF005040CE007480068012852
:104C500006D102200449086001F0BAF8002401E0FE
:104C60004FF0FF34204610BD900000202DE9F047A2
:104C700086B080468946144600200490FFF703FE64
:104C800000285DD1FFF702FE002859D12D480068A9
:104C9000022803D1FFF7F4FD002851D1B8F1000F2D
:104CA0004ED080261825002005900DF1140A471ECD
:104CB00044B3206808B1D4F800A0A06900B1A56988
:104CC0002DB1382D03D8207900F0010018B1002053
:104CD00006B0BDE8F087606908B160698608A06821
:104CE00040B1E0685C2805D3206918B1606908B15B
:104CF000012708E0A06830B9E06820B9206910B940
:104D0000002700E00027012F0CD12169A0684B4645
:104D10003246CDE9005102905146404601F0B8FCC0
:104D200004900DE067B904A8B2B24B465146CDE9F4
:104D30000050404601F07AFC012801D00020049088
:104D40000498C5E7900000202DE9F04105460E4685
:104D50001648076816480068001D00F0C5FD681C6D
:104D600038B936B112480168091D124800F012FE28
:104D70001AE07C190E4800684460BC4207D20C4817
:104D80000168091D0C48006800F0EAFD0CE00848C5
:104D90000168091D0948006800F0E2FD0848006844
:104DA000844201D206480460BDE8F081540000202E
:104DB000400000203408002048000020440000206B
:104DC0007000002010B5044600F0F0FD2448006893
:104DD000401C234908602348006840B9214804600A
:104DE0000846006801280DD100F0F8F90AE01E48D5
:104DF000006838B91B480068C06AE16A884201D877
:104E00001848046019480068401C184908600846A2
:104E1000006860641649E06A0968884202D914494A
:104E2000E06A0860E16A01EB8101124A02EB81004D
:104E3000211D00F0AFFD00F0E3FD0B48006868B1F4
:104E400008480068C06AE16A884207D24FF0805083
:104E500009490860BFF34F8FBFF36F8F10BD00008B
:104E600050000020400000205C0000206C0000206A
:104E7000580000208403002004ED00E008B500F095
:104E800095FD12480068E8B9114800F059FD114835
:104E900000F056FD0E48104908600E480F490860A2
:104EA00000200F4B0F4A102100900A2001F0B8F8A3
:104EB000064908600846006820B10BA10348006855
:104EC00000F056FE00F09CFD08BD000084000020AC
:104ED000480800205C0800207C00002080000020A2
:104EE00070080020C0080020546D725100000000BE
:104EF00010B516E000F05AFD0C48C068C468201DCB
:104F000000F0F2FC0A480068401E094908600948A0
:104F10000068401E0749086000F072FD204600F05E
:104F20005EF8044800680028E4D110BD2008002085
:104F3000500000204C00002070B504460D46206C47
:104F400070B1216CE0680844E0606168E068884204
:104F500001D32068E0602846226CE168FBF760F925
:104F600070BD2DE9F04104460F4615464FF000088C
:104F7000A66B206C40B9206860BB606801F09CFCA7
:104F800080460020606025E07DB93946226CA0682B
:104F9000FBF746F9216CA0680844A060D4E9011031
:104FA000884217D32068A06014E03946226CE0687C
:104FB000FBF736F9216CE068401AE0602168E06890
:104FC000884203D2216C6068401AE060022D01D152
:104FD00006B1761E701CA0634046BDE8F08110B596
:104FE000044694F8590030B9206B00F027FD2046A4
:104FF00000F024FD1AE094F85900012803D120465E
:1050000000F01CFD12E094F85900022801D10120A3
:1050100000E0002050B900BF502080F31188BFF39A
:105020004F8FBFF36F8F00BF00BFFEE710BD0000C2
:105030000146084A126812680AB9012200E00022FB
:105040000A600A6822B9034A1268D268106800E050
:10505000002070477C00002030B54FF48043174893
:1050600000F007042CB1C01D20F00700134C041BF6
:105070001B1B0246124C22600024114D6C60D0189C
:10508000083820F007000F4C206000240D4D2D68DB
:105090006C600C4D2D682C601146441A4C60094C14
:1050A00024680C60084D4C682C60084D4C682C60DE
:1050B0004FF00044064D2C6030BD00001810002059
:1050C000940000209C000020A4000020A0000020EC
:1050D000A800002000BFFFF70BFF0648006801286A
:1050E000F9D94FF0805004490860BFF34F8FBFF3E8
:1050F0006F8FF0E78403002004ED00E02DE9F0411C
:1051000006460D4617469846069C0DB9246000E0F9
:105110002760E66325640121204600F0F1FF84F852
:105120004C80BDE8F0812DE9F05F82460F46904645
:105130009B460A9E0C9C4FEA8801A522206BFBF738
:1051400081F8A8F10100216B01EB800929F0070922
:1051500009F0070008B9012000E0002050B900BFA5
:10516000502080F31188BFF34F8FBFF36F8F00BFC4
:1051700000BFFEE7002507E0795D04F134004155EA
:10518000785D00B902E06D1C102DF5D300BF002141
:1051900043200155382E00D33726E662E66400200E
:1051A0002065201D00F0D9FB04F1180000F0D5FBAC
:1051B0002461C6F13800A06164620020606584F853
:1051C00058005A465146484600F042FB20600B9872
:1051D00008B10B980460BDE8F09F000010B50024F2
:1051E00007E004EB84010F4A02EB810000F0A8FB0A
:1051F000641C382CF5D30C4800F0A2FB0B4800F0DF
:105200009FFB0B4800F09CFB0A4800F099FB0A4802
:1052100000F096FB04480949086004480849086002
:1052200010BD000084030020E4070020F8070020E0
:105230000C08002020080020340800204400002032
:105240004800002010B50146164800E000680368D9
:105250008B42FBD30246436813448B4204D143681C
:105260004C682344436001460A464B681344046873
:10527000A34211D10C4C03682468A34208D04B68A8
:105280000468646823444B6003681B680B6005E096
:10529000054B1B680B6001E003680B60884200D07F
:1052A000016010BD940000209C0000202DE9F04119
:1052B00004460D4616461F464FF0000865602461FF
:1052C000B5420CD8F01BA169884202D34FF0010807
:1052D00011E0211D0948006800F042FB0BE0BE42CE
:1052E00004D2BD4202D34FF0010804E0211D04485E
:1052F000006800F035FB4046BDE8F08180000020EA
:105300007C00002070B5054600F050FBA86B08B982
:10531000012400E0002400F073FB204670BD70B54E
:10532000054600F043FBA86BE96B884201D10124DC
:1053300000E0002400F064FB204670BDF8B505468F
:105340000F4616480068C068C468201D00F0CCFAFB
:10535000E06901281DD1A06941192B463A46204633
:10536000FFF7A4FFA8B1002003462A46014600909B
:10537000204601F0FDFB064656B900BF502080F3E1
:105380001188BFF34F8FBFF36F8F00BF00BFFEE7E1
:1053900000BF2046616A8847F8BD00007C000020FD
:1053A000F0B587B082E00398002811DA04AE56B950
:1053B00000BF502080F31188BFF34F8FBFF36F8F72
:1053C00000BF00BFFEE7D6E90020B168904700BFEC
:1053D000039800286ADB059C606908B9012000E099
:1053E000002010B9201D00F07FFA02A800F0C0F8DC
:1053F000054603980A2857D2DFE800F0090507316F
:10540000334F0608323400BF00BF00BF00BF04980E
:10541000A269811803462A462046FFF747FFE8B1F4
:105420002046616A8847E069012817D10020009072
:105430000498A169421800231946204601F098FB00
:10544000074657B900BF502080F31188BFF34F8F34
:10545000BFF36F8F00BF00BFFEE700BF25E000BFB6
:1054600023E000BF0498A061A06908B1012000E01A
:10547000002050B900BF502080F31188BFF34F8F38
:10548000BFF36F8F00BF00BFFEE7A06941192B4635
:105490002A462046FFF70AFF07E094F82C0010B9CF
:1054A000204600F0CBFA00E000BF00BF002203A9B5
:1054B0000448006800F0C0FF00287FF474AF07B014
:1054C000F0BD000084000020F8B505460C4600F051
:1054D000DBFC684600F04CF80646009820BB44B957
:1054E000B54206D801F086FA31462846FFF726FF76
:1054F0001CE03CB10E480068006808B9012000E0DB
:1055000000200446A91B22460A48006800F046FB1A
:1055100001F070FA50B94FF0805007490860BFF3AE
:105520004F8FBFF36F8F01E001F064FAF8BD000008
:10553000800000208400002004ED00E00A49096892
:10554000096809B9012100E0002121B14FF0FF31C4
:10555000064A116006E004490968C968C868034A38
:105560004168116070470000440000207000002076
:1055700070B5044601F0F8F8054607480068854212
:1055800004D200F00BF80120206001E00020206030
:1055900001480560284670BD8C0000202DE9F843C5
:1055A00032E024480068C068056822480068C06886
:1055B000C468201D00F098F92046616A8847E069B8
:1055C000012821D1A0694619AE4207D9666024613D
:1055D000211D1848006800F0C3F915E000200346BB
:1055E0002A4601460090204601F0C2FA074657B904
:1055F00000BF502080F31188BFF34F8FBFF36F8F30
:1056000000BF00BFFEE700BF0A480068006808B995
:10561000012000E000200028C3D00648D0F8008018
:1056200005480068034908600348C0F80080BDE8E9
:10563000F88300007C000020800000200E480068F5
:10564000401C08B9012000E0002050B900BF5020E4
:1056500080F31188BFF34F8FBFF36F8F00BF00BF80
:10566000FEE700BF502080F31188BFF34F8FBFF3D8
:105670006F8F00BF00BFFEE7AC00002008B500BF81
:105680006846FFF7D5FC044620460099FFF71CFF4B
:10569000FFF786FEF4E770B5044600F087F994F949
:1056A000455010E0606A08B9012000E0002038B9D8
:1056B00004F1240001F052F918B100F0CFFA00E033
:1056C00003E0681E45B2002DECDC00BFFF2084F82B
:1056D000450000F095F900F069F994F9445010E0A4
:1056E000206908B9012000E0002048B904F1100049
:1056F00001F034F908B100F0B1FA681E45B200E0DB
:1057000001E0002DECDC00BFFF2084F8440000F035
:1057100077F970BD2DE9F04104464FF0000800F024
:10572000B3FB4648006808B9FFF796FC4448006898
:10573000204000286BD1D4B1083404F00700B0B188
:1057400004F00700C0F10800044404F0070008B9A1
:10575000012000E0002050B900BF502080F31188E4
:10576000BFF34F8FBFF36F8F00BF00BFFEE7002C6A
:105770004DD034480068844249D8334E30460568DD
:1057800001E02E462D686868A04202D228680028F1
:10579000F7D12A480068854239D0306800F10808FE
:1057A000286830606868001B102819D92F1907F085
:1057B000070008B9012000E0002050B900BF5020C8
:1057C00080F31188BFF34F8FBFF36F8F00BF00BF0F
:1057D000FEE76868001B78606C603846FFF732FDB2
:1057E000184968680968081A164908600846006878
:1057F00016490968884203D21248006813490860B4
:105800000F4968680968084368600020286001F053
:10581000F1F808F0070008B9012000E0002050B9B5
:1058200000BF502080F31188BFF34F8FBFF36F8FFD
:1058300000BF00BFFEE74046BDE8F0819C000020AD
:10584000A8000020A000002094000020A400002058
:10585000001F4FF080730360001F21F001030360FD
:10586000001F034B036014380260203870470000AB
:105870003D56000870B506460D4600F097F81848EA
:105880000068406D88B901201549096881F8580001
:105890005DB101212846FFF757FA4FF080501149BA
:1058A0000860BFF34F8FBFF36F8F00F0A9F800F0CF
:1058B0007DF80B480068446D4CB126B100200849C2
:1058C0000968486503E0601E0549096848650020CD
:1058D0000349096881F8580000F092F8204670BD2D
:1058E0004000002004ED00E001460A69D1E90130E2
:1058F0009860D1E9010358605068884201D18868F6
:105900005060002008611068401E106010687047E9
:10591000034B0360034B0B60802313607047000050
:1059200060090020BC090020034B0360034B0B609F
:105930004FF4807313607047BC0B0020180C0020DC
:1059400000F1080141604FF0FF31816000F1080172
:10595000C160016100210160704700210161704751
:1059600010B502460B685C1C0CB9106907E002F127
:10597000080000E04068446824689C42FAD9446802
:105980004C604C68A160886041600A611468641CC6
:10599000146010BD42684A6093688B6093685960D8
:1059A0009160086103685B1C0360704700BF502072
:1059B00080F31188BFF34F8FBFF36F8F00BF0E4886
:1059C0000068401C0C49086008460068012812D194
:1059D0000A480068C0B208B9012000E0002050B9B0
:1059E00000BF502080F31188BFF34F8FBFF36F8F3C
:1059F00000BF00BFFEE77047AC00002004ED00E0F0
:105A00000D48006850B900BF502080F31188BFF3E3
:105A10004F8FBFF36F8F00BF00BFFEE706480068DF
:105A2000401E054908600846006820B9002080F340
:105A3000118800BF00BF7047AC00002070B506465B
:105A40003546002E3FD0083D2C461F496068096846
:105A5000084008B1012000E0002050B900BF5020EC
:105A600080F31188BFF34F8FBFF36F8F00BF00BF6C
:105A7000FEE7206808B9012000E0002050B900BF0F
:105A8000502080F31188BFF34F8FBFF36F8F00BF9B
:105A900000BFFEE70C4960680968084098B12068BB
:105AA00088B90949606809688843606000F0ECF9CA
:105AB0000649606809680844044908602046FFF701
:105AC000C1FB00F097FF70BDA8000020A0000020DF
:105AD00000204FF0E02108618861064800684FF41B
