:020000040800F2
:10000000A8540020DD010008D53E00083732000862
:100010001D3D00088D0E00087D5600080000000000
:100020000000000000000000000000004501000882
:10003000910E00080000000089010008794D0008B9
:10004000F7010008F7010008F7010008F7010008B0
:10005000F7010008F7010008F7010008F7010008A0
:10006000F7010008F7010008F7010008F701000890
:10007000F7010008F7010008F7010008F701000880
:10008000F7010008F7010008F7010008F701000870
:10009000F7010008F7010008F7010008F701000860
:1000A000F70100086D4E0008F7010008F70100088D
:1000B000F70100087D4E0008414F0008F7010008D5
:1000C000F7010008F7010008F7010008F701000830
:1000D000F7010008F70100086D560008F701000855
:1000E000F7010008F7010008F7010008F701000810
:1000F000F7010008F7010008F7010008F701000800
:10010000F7010008F7010008F7010008F7010008EF
:10011000F7010008F7010008F7010008F7010008DF
:10012000F7010008F7010008F7010008F7010008CF
:10013000DFF80CD000F018FD004800479D7A000859
:10014000A8540020224B19680868B0E8F00F80F32B
:100150000988BFF36F8F4FF0000080F311884EF0D5
:100160000D0E70470000000006480068006880F32C
:10017000088862B661B6BFF34F8FBFF36F8F00DFA1
:1001800000BF00BF08ED00E0EFF30980BFF36F8F01
:100190000F4B1A6820E9F00F106008B54FF05000BF
:1001A00080F31188BFF34F8FBFF36F8F0AF074F89D
:1001B0004FF0000080F31188BDE808401968086816
:1001C000B0E8F00F80F30988BFF36F8F704700BF6E
:1001D00040000020EFF3058070470000064880478C
:1001E00006480047FEE7FEE7FEE7FEE7FEE7FEE71C
:1001F000FEE7FEE7FEE7FEE7154E000831010008C6
:100200002DE9F0410024061B254671F1000605DAB0
:1002100001240027D0EB070067EB0101161E73F1E4
:10022000000605DA0027D2EB0702012567EB03037E
:1002300000F084FB86460E4617469C46AC4204D02E
:100240000025D0EB050E65EB010624B10020D2EBB2
:10025000000760EB030C704631463A466346BDE842
:10026000F081202A04DB203A21FA02F000217047B5
:1002700021FA02F3D040C2F120029140084319460E
:10028000704740EA01039B0703D009E008C9121F29
:1002900008C0042AFAD203E011F8013B00F8013B40
:1002A000521EF9D27047D2B201E000F8012B491E6C
:1002B000FBD270470022F6E710B513460A46044603
:1002C0001946FFF7F0FF204610BD30B50446002068
:1002D000034600E05B1C934203D2E05CCD5C401B14
:1002E000F8D030BDF0B480EA0102D40F4200B2EB86
:1002F000410F02D20246084611464A0042D0C30DC1
:10030000DDB2C1F3C752AD1A202D35DAC1F31601A3
:1003100041F4000204B15242C5F1200602FA06F18E
:100320002A411044B3EBD05F23D0C4B1012DA0EB20
:10033000C35009DCF0BC4FF0004202EAC352DBB20A
:1003400000F5000000F055BB400000F1807000EBAC
:10035000C350A0F1807040EAD170490009E049081B
:1003600041EAC071A0EBC35000F50000400800EB6B
:10037000C350F0BC00F034BB6142012202EB4101EA
:10038000001BF6E7F0BC704781F00041AAE780F05F
:100390000040A7E780EA010210B502F000434000E8
:1003A00022D04A001FD0010E01EB1261C0F35600AB
:1003B000C2F3560240F4000042F40002A0FB022007
:1003C00000047F39140400D0401C50EA124001D4CC
:1003D0004000491EC2B20C0604EBD010401C40087D
:1003E000802A02D003E0002010BD20F00100002987
:1003F00000DA0020184310BD30B480EA010202F098
:10040000004530F0004221F0004013D090B1C30D00
:10041000D40DC2F31601C0F31600E41A41F4000132
:1004200040F400027D34914201D3641C00E0490095
:10043000002C02DA30BC002070474FF4000000238B
:10044000914201D3891A034340084FEA4101F7D191
:1004500051B1914202D14FF0004105E002D24FF07C
:10046000010101E06FF0010103EBC450284430BCEE
:1004700000F0B6BA2DE9FE4F804681EA0300C00FB6
:100480000C46009021F0004123F00045B8EB02003B
:10049000A94105D24046214690461C460B460246DD
:1004A00023F00040104347D0270DC7F30A00C3F3E1
:1004B0000A510290401A019040286BDAC3F31300EE
:1004C00040F4801B0098924620B10023D2EB030A2F
:1004D00063EB0B0B01985946C0F14002504600F007
:1004E0005EFA06460D4650465946019A00F066FAF5
:1004F00010EB08006141002487EA115284EAE77397
:100500001A4340D0009A62B3019A012A4FEA075277
:1005100015DC001B61EB02014FF0004202EA0752BA
:10052000CDE90042001C41F5801132462B4600F017
:100530009DFA03B0BDE8F08F40462146F9E7001B65
:1005400061EB0201001C41F5801300185B4120188B
:10055000A2F5001747EB030140EAD570B6196D41CB
:1005600011E06D084FEA360645EAC0754FEA0752BA
:10057000001B61EB0201001C41F5801149084FEAA4
:1005800030000019514132462B4603B0BDE8F04F10
:1005900000F05DBA0098012240000023D0EB020277
:1005A00063EBE073009821464FEAE074B8EB00007B
:1005B00061EB0401E9E783F000435BE781F0004170
:1005C00058E72DE9FE4F81EA030404F0004421F0CE
:1005D000004100944FF0000B23F0004350EA010467
:1005E0005ED052EA03045BD0C3F30A54C1F30A5548
:1005F0002C44A4F2F3340194A0FB0254C1F3130180
:1006000041F48011C3F3130343F4801301FB02444C
:1006100000FB034E840A970A44EA815447EA835751
:10062000A4FB076802958D0A05FB07854FEA932C0A
:1006300004FB0C542705029D4FEA065847EA16377B
:10064000B5EB08056EEB070C870E920E47EA811793
:1006500042EA8312A7FB0201B6EB0B0164EB000434
:100660002B0D43EA0C335E1844EB1C50DA4651461E
:10067000E7FB0201C5F313044FEA0B3343EA1453BB
:100680004FEA0432019C43EA0603A4F10C040294ED
:10069000009CCDE900B400F0E9F903B0BDE8F08FAB
:1006A00000200146F9E72DE9F04D81EA030404F04A
:1006B000004B21F0004514464FF0000A23F00041A2
:1006C00050EA050220D054EA01021DD0C5F30A57B2
:1006D0000246C5F31303C1F31300C1F30A5640F4F5
:1006E000801543F48013A7EB0608101BD64608F2CA
:1006F000FD3873EB050002D308F1010801E0921800
:100700005B41B8F1000F03DA00200146BDE8F08D2F
:1007100000204FF48011064684460EE0171B73EB51
:10072000050705D3121B63EB050306434CEA010CD6
:1007300049084FEA300092185B4150EA0107EDD1B9
:1007400052EA030012D082EA040083EA050108435A
:1007500005D0101BAB4106D20122002306E0002287
:100760004FF0004302E06FF0010253101AEB060055
:100770004CEB085110EB0A0041EB0B01BDE8F04DCA
:1007800000F065B9C10F80EAE0700844CA079623FB
:10079000002100F02EB996230022114600F029B95D
:1007A0000EB5C10F80EAE0700844CA07002140F28C
:1007B00033438DE80E000A460B4600F057F903B0AC
:1007C00000BD00F0004220F00040C10DC0F3160053
:1007D00040F400007F2901DA00207047962903DCED
:1007E000C1F19601C84001E096398840002AF4D052
:1007F0004042704720F00040C10DC0F3160040F4A5
:1008000000007F2901DA00207047962903DCC1F13E
:100810009601C840704796398840704770B5C1F35B
:100820000A5201F000450024C1F3130140F2FF33E6
:1008300041F480119A4201DA002070BD40F2334346
:100840009A42A2F2334203DC5242FFF70AFD00E073
:1008500090402C43F1D0404270BD00F0004230F097
:1008600000400AD0C10D01F56071C0F3160042EAE4
:100870000151C208400711437047002001467047EC
:1008800030B5041E71F1000404DB4FF00044404217
:1008900064EB0101141E73F1000405DB1C464FF0EC
:1008A0000043524263EB0403994208BF904230BDBB
:1008B00001F0004330B421F0004150EA010206D0BB
:1008C0000A0DA2F56072C1F31301002A02DC30BCEC
:1008D00000207047440F44EAC104C100E01830BC56
:1008E00000EBC25000F07CB8002801DBC0F10040F2
:1008F000002901DBC1F1004181427047002801DB82
:10090000C0F10040002901DBC1F10041884270477D
:1009100030B50B46014600202022012409E021FACF
:1009200002F59D4205D303FA02F5491B04FA02F5CC
:100930002844151EA2F10102F1DC30BD2DE9F05F63
:100940000546002092469B4688460646814640243E
:100950001BE02846414647462246FFF782FC5346A5
:100960005A46C01A914110D311461846224600F04B
:1009700016F82D1A67EB01084F4622460120002188
:1009800000F00DF817EB00094E41201EA4F1010400
:10099000DFDC484631462A464346BDE8F09F202A20
:1009A00004DB203A00FA02F1002070479140C2F1C6
:1009B000200320FA03F3194390407047202A06DBF6
:1009C000CB17203A41FA02F043EAE07306E041FA1D
:1009D00002F3D040C2F1200291400843194670470B
:1009E0000029A8BF7047401C490008BF20F0010043
:1009F000704710B4B0FA80FC00FA0CF050EA010421
:100A000004BF10BC704749B1CCF1200421FA04F4B2
:100A100011FA0CF118BF012121430843A3EB0C018B
:100A2000CB1D4FEA00614FEA102042BF002010BCEE
:100A3000704700EBC35010440029A4BF10BC70479E
:100A4000401C490008BF20F0010010BC704710B5E1
:100A5000141E73F1000408DA401C41F100019218E1
:100A60005B411A4301D120F0010010BD2DE9F04D8A
:100A700092469B4611B1B1FA81F202E0B0FA80F2DF
:100A800020329046FFF78BFF04460F4640EA0A00EB
:100A900041EA0B0153465A46084313D0114653EA24
:100AA000010019D0C8F140025046FFF7DAFB0546B5
:100AB0000E46504659464246FFF771FF084305D09F
:100AC000012004E020463946BDE8F08D00200543B2
:100AD00046EAE0762C4337430A986305E40AA0EB24
:100AE00008000022FD0A44EA47540A3002D50020DB
:100AF0000146E9E7010510196941DDE908450019DA
:100B00006941BDE8F04DA2E770B521F00043034311
:100B10000CD0C1F30A550024D5EB040564EB0403A3
:100B2000D617AD1AB34102DB0020014670BD201874
:100B300041EB025170BDC1F30A52C1F3130140F2FF
:100B4000FF3341F480119A4202DA002001467047D7
:100B500040F233439A42A2F2334202DC5242FFF7A0
:100B600080BBFFF71CBF0000064C074D06E0E068A5
:100B700040F0010394E8070098471034AC42F6D3E4
:100B8000FFF7DAFA7CCE00089CCE00082DE9F04D84
:100B900000231A461B1A8A4103DB00200146BDE8E8
:100BA000F08DC1F30A52C1F3130141F480154FF0E7
:100BB000000BD10702D100186D41521E00270446D8
:100BC00040F2FF11384601EB620A3E46804602467B
:100BD00000204FF48011FFF744FBC2197141BB188C
:100BE00046EB0100B4EB030C75EB000C04D3E41AE4
:100BF00065EB000517460E46241908F101006D410A
:100C000080463428E3DDF91946EB0600091BA841AC
:100C100003D24FF0FF32134601E0002213461BEBD4
:100C2000070046EB0A51BDE8F04DFFF710BF00008A
:100C300000B587B003F07AF9012002235FA20021FA
:100C40000090084603F0D4FA60A004F019FD06E015
:100C500062A004F015FD4FF4FA7000F0EFF907F010
:100C60000FF90028F4D162A004F00AFD03F058F84F
:100C7000634908600821634802F0FAF80C216148D2
:100C800002F0F6F80821604802F0F2F80C215E4804
:100C900002F0EEF800215D4801F0EAFE04215B4815
:100CA00001F0E6FE0821594801F0E2FE0C21574808
:100CB00001F0DEFE0C2053494FF40052544BCDE9B5
:100CC0000232CDE90410901052494300504ACDE958
:100CD00000100146104603F035F84F4908600846F9
:100CE000006810B94DA004F0CBFC08204549012252
:100CF000474BCDE90232CDE90410C0014549042338
:100D00004C4ACDE900100221414803F01BF84A4942
:100D100008600846006810B948A004F0B1FC0C2037
:100D200039494FF480623A4BCDE90232CDE90410E3
:100D30005010384943010A46CDE900108101354879
:100D400003F000F8434908600846006810B942A063
:100D500004F096FC08202C492D4BCDE90230CDE95A
:100D6000041040012B4903010A46CDE9001041015E
:100D7000284802F0E7FF3E4908600846006810B9BD
:100D80003CA004F07DFC502200212348006803F0C1
:100D900001F8502200212848006802F0FBFF502291
:100DA00000212C48006802F0F5FF50220021304855
:100DB000006802F0EFFF07B000BD00004C462020A5
:100DC0004C42202052462020524200004D505536C1
:100DD00030353020544553540D0A00004D505536DF
:100DE000303530204572726F722121210D0A0000CA
:100DF0004D505536303530204F4B0D0A0000000065
:100E0000C0000020C4010020440200200402002091
:100E100000100140000C0140C40000204572726FB8
:100E2000723A206D6F746F724C46204E554C4C0ACE
:100E30000000000000140140C80000204572726FDD
:100E4000723A206D6F746F724C42204E554C4C0AB2
:100E500000000000CC0000204572726F723A206DD5
:100E60006F746F725246204E554C4C0A00000000C1
:100E7000D00000204572726F723A206D6F746F72ED
:100E80005242204E554C4C0A0000000000BFFEE7C5
:100E90007047704770B50446002594F82100022879
:100EA00003D00420A0630125C1E02068006820F081
:100EB0000E00216808602068006820F001002168A9
:100EC00008605C492068884252D95A4978392068BC
:100ED000884201D1012047E05649643920688842A0
:100EE00001D1102040E0534950392068884201D197
:100EF000801539E04F493C392068884201D180147F
:100F000032E04C4928392068884202D14FF48030C1
:100F10002AE0484914392068884202D14FF48010F1
:100F200022E044492068884201D140041CE0424943
:100F30002068884201D1012016E03F491431206821
:100F4000884201D110200FE03B49283120688842B7
:100F500001D1801508E038493C312068884201D130
:100F6000801401E04FF480303349091F086051E0DC
:100F7000304978392068884201D1012047E02D4965
:100F800064392068884201D1102040E02949503955
:100F90002068884201D1801539E026493C39206813
:100FA000884201D1801432E02249283920688842E1
:100FB00002D14FF480302AE01E491439206888425B
:100FC00002D14FF4801022E01A492068884201D1F2
:100FD00040041CE018492068884201D1012016E035
:100FE000154914312068884201D110200FE01249C0
:100FF00028312068884201D1801508E00E493C3133
:101000002068884201D1801401E04FF48030094902
:1010100080394860012084F8210000BF002084F856
:10102000200000BF606B10B12046616B88472846E6
:1010300070BD0000800002400804024070B5044604
:1010400000F060FA06462546681C10B10448007896
:10105000054400BF00F056FA801BA842FAD370BDC9
:10106000380000202DE9F04102460B4600208BE0BD
:101070000127874007EA030100297DD0464F4FEA48
:10108000900C57F82C4087074FEA177C0F2707FA78
:101090000CF73C40414FBA4201D1002719E0404FC4
:1010A000BA4201D1012714E03E4FBA4201D10227D2
:1010B0000FE03D4FBA4201D103270AE03B4FBA424D
:1010C00001D1042705E03A4FBA4201D1052700E0DB
:1010D00006274FEA807C4FEA1C7C07FA0CF7A742F0
:1010E00030D187074FEA177C0F2707FA0CF42A4FF5
:1010F0004FEA900C57F82C70A743DFF89CC04FEADA
:1011000090084CF828702B4F3F688F43DFF8A4C03D
:10111000CCF800700CF104073F688F430CF1040C0D
:10112000CCF800700CF104073F688F430CF1040CFD
:10113000CCF800700CF104073F688F430CF1040CED
:10114000CCF80070FF2901D8174600E0171D3D4676
:10115000FF2901D8870002E0A0F10807BF003E4642
:101160002F684FF00F0C0CFA06FC27EA0C074FF023
:10117000040C0CFA06FC00E005E047EA0C072F60BF
:10118000D7688F43D760401C23FA00F7002F7FF405
:101190006FAFBDE8F0810000080001400008014089
:1011A000000C0140001001400014014000180140F3
:1011B000001C0140000401402DE9F84702460023CD
:1011C0009C467BE14FF0010808FA03F4D1F8008057
:1011D00008EA0400A0427DD1DFF8F4A2D1F804802F
:1011E000A8EB0A09D0453AD014DCB8F1030F50D06F
:1011F00009DCB8F1000F31D0B8F1010F1CD0B8F103
:10120000020F49D120E0B8F1110F18D0B8F1120F38
:1012100042D11EE0B9F5881F25D006DCB9F5803F24
:1012200020D0B9F5801F37D11AE0B9F5001F18D0CA
:10123000B9F5041F30D117E0D1F80CC02DE0D1F87A
:101240000C8008F1040C28E0D1F80C8008F1080C9F
:1012500023E0D1F80C8008F10C0C1EE000BF00BFA9
:1012600000BF00BF00BF00BFD1F80880B8F1000F79
:1012700002D14FF0040C0BE0D1F80880B8F1010F57
:1012800003D14FF0080C146102E04FF0080C5461D8
:1012900003E04FF0000C00E000BF00BFFF2801D8C2
:1012A000904601E002F104084646FF2802D84FEAC2
:1012B000830803E0A3F108084FEA88084746D6F8F8
:1012C00000804FF00F0909FA07F928EA09080CFA1B
:1012D00007F900E07AE048EA0908C6F80080D1F88A
:1012E000048008F08058B8F1805F6FD100BFDFF84C
:1012F000E481D8F8188048F00108DFF8D891C9F8DF
:101300001880C846D8F8188008F00108CDF8008089
:1013100000BF00BF4FEAB9384FEA930958F8295087
:101320004FEA83784FEA18794FF00F0808FA09F866
:1013300025EA0805DFF8A081424502D14FF00008F8
:1013400024E0DFF89881424502D14FF001081DE00A
:10135000DFF88C81424502D14FF0020816E0DFF839
:101360008481424502D14FF003080FE0DFF8788115
:10137000424502D14FF0040808E0DFF87081424591
:1013800002D14FF0050801E04FF006084FEA8379DB
:101390004FEA197908FA09F848EA0505DFF850819B
:1013A0004FEA930948F82950D1F8048008F48038AE
:1013B000B8F5803F0BD1DFF83C81D8F8008048EACF
:1013C0000008DFF83091C9F800800AE075E0DFF826
:1013D0002481D8F8008028EA0008DFF81891C9F8BD
:1013E0000080D1F8048008F40038B8F5003F0ED131
:1013F000DFF8008108F10408D8F8008048EA000806
:10140000DFF8F09009F10409C9F800800DE0DFF879
:10141000E48008F10408D8F8008028EA0008DFF822
:10142000D49009F10409C9F80080D1F8048008F4C7
:101430008018B8F5801F0ED1DFF8B88008F10808D1
:10144000D8F8008048EA0008DFF8A89009F10809F8
:10145000C9F800800DE0DFF89C8008F10808D8F892
:10146000008028EA0008DFF88C9009F10809C9F823
:101470000080D1F8048008F40018B8F5001F0ED1E0
:10148000DFF8708008F10C08D8F8008048EA0008FE
:10149000DFF8609009F10C09C9F800800DE0DFF871
:1014A000548008F10C08D8F8008028EA0008DFF81A
:1014B000449009F10C09C9F800805B1CD1F8008048
:1014C00028FA03F8B8F1000F7FF47CAEBDE8F88786
:1014D000000011100010024000080140000C014003
:1014E000001001400014014000180140001C0140A0
:1014F00008000140000401400AB1016101E00B0451
:101500000361704701480068704700003000002008
:1015100010B504460CB9012010BD242084F83D000C
:101520002068006820F0010021680860204600F073
:1015300023FB0020206484F83D00206384F83E00F3
:1015400000BF84F83C0000BF00BFE5E770B504466B
:101550000CB9012070BD94F83D0028B9002084F832
:101560003C00204600F020FB242084F83D00206849
:10157000006820F001002168086000F03DFD05468C
:101580005C496068884206D85B48854201D20120E8
:1015900007E0002005E05948854201D2012000E023
:1015A0000020012800D1D5E75548B5FBF0F62068AA
:1015B000406820F03F003043216848604D49606832
:1015C000884201D8701C07E04FF4967070434FF4C6
:1015D0007A71B0FBF1F0401C2168096A21F03F01EB
:1015E00008432168086243496068884214D8681E2D
:1015F00061684900B0FBF1F0401CC0F30B00042807
:1016000001D204203DE0681E61684900B0FBF1F0A2
:10161000401CC0F30B0034E0A06838B9681E616854
:1016200001EB4101B0FBF1F0401C0AE0681E61686B
:1016300001EBC10202EB0111B0FBF1F0401C40F4E0
:101640008040C0F30B0008B901201AE0A06848B937
:10165000681E616801EB4101B0FBF1F0401CC0F372
:101660000B000CE0681E616801EBC10202EB011186
:10167000B0FBF1F0401CC0F30B0040F4804040F49C
:1016800000402168C9694CF6FF7291430843216804
:10169000C861D4E9070108432168096821F0C00145
:1016A000084321680860D4E9031008432168896869
:1016B00048F2FF329143084321688860D4E905016C
:1016C00008432168C96821F0FF0108432168C86008
:1016D0002068006840F00100216808600020206454
:1016E000202084F83D000020206384F83E0000BFE5
:1016F00030E70000A086010080841E0000093D0044
:1017000040420F002DE9FC5F04460F469046994683
:10171000DDE90CAB0E9EFFF7F5FE054694F83D00A3
:10172000202872D119230122B7492046009501F0E3
:10173000D3FE10B10220BDE8FC9F00BF94F83C002E
:10174000012801D10220F6E7012084F83C0000BF07
:101750002068006800F0010028B92068006840F0A7
:101760000100216808602068006820F4006021689A
:101770000860222084F83D00402084F83E000020CC
:101780002064C4F824A0A4F82AB0608D20859F4866
:10179000E0624B46424639462046CDE9006501F0FD
:1017A0006BFD08B10120C6E7208D88B900BF00207D
:1017B000019020684069019020688069019000BF15
:1017C00000BF2068006840F40070216808604BE0AA
:1017D000208D01281AD12068006820F480602168DB
:1017E000086072B600BF0020019020684069019037
:1017F00020688069019000BF00BF2068006840F445
:1018000000702168086062B62EE0FBE0208D02289F
:1018100019D12068006840F400602168086072B641
:1018200000BF002001902068406901902068806915
:10183000019000BF00BF2068006820F4806021682C
:10184000086062B610E02068006840F4806021689B
:10185000086000BF00200190206840690190206866
:101860008069019000BF00BFBDE0208D032870D8C3
:10187000208D012815D12A463146204601F0D1FE9F
:1018800008B1012057E720680069616A0870606A42
:10189000401C6062208D401E2085608D401E60854A
:1018A000A1E0208D02282CD1334600225849204641
:1018B000009501F011FE08B101203CE772B62068E6
:1018C000006840F400702168086020680069616A5F
:1018D0000870606A401C6062208D401E2085608D0B
:1018E000401E608562B620680069616A0870606A9F
:1018F000401C6062208D401E2085608D401E6085EA
:1019000071E03346002242492046009501F0E4FD93
:1019100008B101200FE72068006820F4806021688A
:10192000086072B620680069616A0870606A401CCD
:101930006062208D401E2085608D401E608533468C
:10194000002233492046009501F0C6FD10B1012068
:10195000F1E621E02068006840F40070216808602A
:1019600020680069616A0870606A401C6062208DAE
:10197000401E2085608D401E608562B6206800692B
:10198000616A0870606A401C6062208D401E20857C
:10199000608D401E608526E02A463146204601F0D3
:1019A00040FE08B10120C6E620680069616A08703F
:1019B000606A401C6062208D401E2085608D401E44
:1019C000608520684069C0F3800060B120680069CC
:1019D000616A0870606A401C6062208D401E20852C
:1019E000608D401E6085208D00287FF43EAF202052
:1019F00084F83D00002084F83E0000BF84F83C00DD
:101A000000BF98E6022096E6020010000000FFFFEB
:101A1000040001002DE9FC5F04460F4690469946FC
:101A2000DDE90CAB0E9EFFF76DFD054694F83D0019
:101A300020287DD1192301224D492046009501F02F
:101A40004BFD10B10220BDE8FC9F00BF94F83C00A4
:101A5000012801D10220F6E7012084F83C0000BFF4
:101A60002068006800F0010028B92068006840F094
:101A70000100216808602068006820F40060216887
:101A80000860212084F83D00402084F83E000020BA
:101A90002064C4F824A0A4F82AB0608D20853548BD
:101AA000E0624B46424639462046CDE9006501F0EA
:101AB0007FFC08B10120C6E731E02A4631462046C6
:101AC00001F0EFFD50B1206C042805D120680068BA
:101AD00040F40070216808600120B4E7606A007873
:101AE00021680861606A401C6062208D401E20856C
:101AF000608D401E608520684069C0F3800070B131
:101B0000208D60B1606A007821680861606A401CBD
:101B10006062208D401E2085608D401E6085208D76
:101B20000028CAD12A463146204601F0A7FC00E031
:101B30001CE050B1206C042805D12068006840F4F6
:101B400000702168086001207DE72068006840F48B
:101B5000007021680860202084F83D00002084F88F
:101B60003E0000BF84F83C0000BF6CE702206AE73B
:101B7000020010000000FFFF10B50446074920686E
:101B8000884209D10648C06920F400100449C861A0
:101B9000C0210448FFF766FA10BD00000054004061
:101BA00000100240000C014010B586B00446002031
:101BB00002900390049005901A49206888422FD122
:101BC00000BF1948C06940F400101749C8610846B1
:101BD000C06900F40010019000BF00BF00BF0846BC
:101BE000806940F0080088610846806900F00800BC
:101BF000019000BF00BFC02002901220039003207C
:101C0000059002A90948FFF7D7FA0748006940F490
:101C10000010054908610846006920F400100861B9
:101C200006B010BD0054004000100240000C0140FE
:101C3000034800680349097808440149086070476F
:101C4000300000203800002010B50848006840F03F
:101C5000100006490860032000F0CCF8002000F0D6
:101C600007F800F049F8002010BD000000200240F5
:101C700070B588B0044600250026002221461920B0
:101C800000F07AF8192000F067F800BF1648806964
:101C900040F40060144988610846806900F40060DF
:101CA000019000BF00BF02A903A800F07DF900F079
:101CB000B3F905460D48B5FBF0F0461E0C480D493A
:101CC000086040F2E7310B48C160466000210161C5
:101CD000816000F0DFFC20B9064800F088FD08B004
:101CE00070BD0120FBE700000010024040420F00E1
:101CF000002C01400403002008B500BF144880698F
:101D000040F00100124988610846806900F0010036
:101D1000009000BF00BF00BF0846C06940F080507F
:101D2000C8610846C06900F08050009000BF00BF45
:101D300000220F21901E00F01FF800BF05494868DF
:101D400020F0E06040F00070486000BF08BD000077
:101D5000001002400000014001460846002809DB4F
:101D600000F01F0301229A4043099B0003F1E02386
:101D7000C3F8002100BF70472DE9F05F80460D4693
:101D80001646002703F0A0FC074639462A4633468C
:101D900001F00700C0F1070ABAF1040F02D94FF0B1
:101DA000040A01E0C0F1070AD14600F1040ABAF1C1
:101DB000070F02D24FF0000A01E0A0F1030AD44657
:101DC0004FF0010A0AFA09FAAAF1010A0AEA020A1C
:101DD0000AFA0CFA4FF0010B0BFA0CFBABF1010BFA
:101DE0000BEA030B4AEA0B042146404603F074FC5D
:101DF000BDE8F09F00BF00F00702064B19684FF6E0
:101E0000FF031940044B0B4343EA0221014B1960C5
:101E100000BF70470CED00E00000FA0570B5044605
:101E20000D460CB9012070BD5A48006800F007004B
:101E3000A8420ED25748006820F0070028435549B1
:101E400008600846006800F00700A84201D00120A1
:101E5000E9E7207800F0020002281DD1207800F088
:101E60000400042805D14C48406840F4E0604A4929
:101E70004860207800F00800082805D146484068EE
:101E800040F46050444948604348406820F0F00006
:101E9000A168084340494860207800F0010078B309
:101EA0006068012806D13C48006800F4003090B911
:101EB0000120B8E76068022806D13748006800F0C2
:101EC000007040B90120AEE73348006800F002001E
:101ED00008B90120A7E73048406820F00300616896
:101EE00008432D494860FFF70DFB064609E0FFF760
:101EF00009FB801B41F28831884202D9032092E716
:101F000007E02548406800F00C006168B0EB810FE5
:101F1000EDD12048006800F00700A8420ED91D4806
:101F2000006820F0070028431A4908600846006846
:101F300000F00700A84201D0012074E7207800F0EB
:101F40000400042807D11448406820F4E060E168E8
:101F5000084311494860207800F00800082808D19B
:101F60000D48406820F46050216940EAC1000A49E8
:101F7000486000F061F808494968C1F30311074A55
:101F8000515CC8400649086006480068FFF770FECB
:101F9000002048E7002002400010024014B1000871
:101FA0003C000020340000200F2202600D4A5268DD
:101FB00002F0030242600B4A526802F0F0028260B3
:101FC000084A526802F4E062C260064A526802F4AB
:101FD0006052D2080261044A126802F007020A60E5
:101FE00070470000001002400020024001480068D5
:101FF000704700003C00002000B5FFF7F7FF0449E0
:102000004968C1F30221034A515CC84000BD000089
:102010000010024024B1000800B5FFF7E7FF0449B3
:102020004968C1F3C221034A515CC84000BD0000A9
:102030000010024024B10008F0B585B00FF26C0C1E
:102040009CE8E01001A8A0E8E0101CA52D68009510
:1020500000210022002300240020194D696801F0AE
:102060000C05F5B1042D02D0082D19D101E0154859
:1020700019E001ADC1F38346AC5D01F4803555B183
:102080000F4D6D68C5F340451DF805200D4D6543A6
:10209000B5FBF2F302E00C4D04FB05F3184602E039
:1020A00000BF084800BF00BF05B0F0BD0203040533
:1020B000060708090A0B0C0D0E0F10100102000094
:1020C0000010024000127A0000093D00F8B50446F5
:1020D0000CB90120F8BD207800F00100002878D06C
:1020E000F848406800F00C0004280CD0F54840681F
:1020F00000F00C00082811D1F248406800F480304C
:10210000B0F5803F0AD1EF48006800F400300028A5
:102110005FD0606800285CD10120DBE700BF606809
:10212000B0F5803F06D1E748006840F48030E549CB
:10213000086028E0606858B9E248006820F4803000
:10214000E04908600846006820F4802008601AE032
:102150006068B0F5A02F0BD1DA48006840F4802009
:10216000D84908600846006840F4803008600AE0FA
:10217000D448006820F48030D249086008460068DE
:1021800020F48020086000BF606888B1FFF7BAF9CA
:10219000054606E0FFF7B6F9401B642801D9032085
:1021A00098E7C848006800F400300028F2D010E03A
:1021B000FFF7A8F9054606E0FFF7A4F9401B6428DD
:1021C00001D9032086E7BF48006800F400300028EA
:1021D000F2D1207800F00200022857D1B9484068B7
:1021E00000F00C0050B1B748406800F00C0008281F
:1021F00018D1B448406800F4803098B9B1480068FC
:1022000000F0020020B12069012801D0012061E71F
:10221000AC48006820F0F800616940EAC100A949B3
:10222000086033E02069E8B10120A7490860FFF7A2
:1022300069F9054606E0FFF765F9401B022801D958
:10224000032047E79F48006800F002000028F2D012
:102250009C48006820F0F800616940EAC100994993
:10226000086013E0002098490860FFF74BF9054625
:1022700006E0FFF747F9401B022801D9032029E7B0
:102280009048006800F002000028F2D1207800F0A9
:10229000080008282DD1A069B8B101208B49086039
:1022A000FFF730F9054606E0FFF72CF9401B02283E
:1022B00001D903200EE78348406A00F0020000289D
:1022C000F2D0012002F036F913E000207F490860C7
:1022D000FFF718F9054606E0FFF714F9401B02283E
:1022E00001D90320F6E67748406A00F00200002892
:1022F000F2D1207800F00400042873D1002771483F
:10230000C06900F0805070B900BF6E48C06940F0ED
:1023100080506C49C8610846C06900F08050009048
:1023200000BF00BF01276A48006800F48070B0B9A0
:102330006748006840F4807065490860FFF7E2F87C
:10234000054606E0FFF7DEF8401B642801D90320AC
:10235000C0E65F48006800F480700028F2D000BF3B
:10236000E068012806D15748006A40F0010055494D
:10237000086227E0E06858B95248006A20F001007E
:10238000504908620846006A20F00400086219E01B
:10239000E06805280BD14B48006A40F00400494929
:1023A00008620846006A40F0010008620AE04548F9
:1023B000006A20F00100434908620846006A20F0E4
:1023C0000400086200BFE068A0B1FFF79BF8054673
:1023D00009E0FFF797F8401B41F28831884202D9A3
:1023E000032077E622E03748006A00F00200002868
:1023F000EFD012E0FFF786F8054608E0FFF782F815
:10240000401B41F28831884201D9032062E62D4801
:10241000006A00F002000028F0D1012F05D1294800
:10242000C06920F080502749C86100BFE069C8B387
:102430002448406800F00C00082860D0E0690228B9
:1024400048D1002020490866FFF75CF8054606E001
:10245000FFF758F8401B022801D903203AE6194833
:10246000006800F000700028F2D1206AB0F5803FCB
:1024700007D11448406820F40030A168084311498E
:102480004860D4E9080108430E49496821F47411F1
:1024900008430C49486001200B490866FFF732F8F1
:1024A000054607E03DE0FFF72DF8401B022801D963
:1024B00003200FE60348006800F000700028F2D007
:1024C0002FE000000010024000004242800442421F
:1024D00000700040002014490866FFF713F8054615
:1024E00006E0FFF70FF8401B022801D90320F1E5B1
:1024F0000E48006800F000700028F2D111E0E06999
:10250000012800D1E6E50948466806F48031206AD2
:10251000814204D106F47011606A814201D0012029
:10252000D8E50020D6E5000000004242001002403D
:1025300010B504460CB9012010BD606A00B900BF97
:102540000021A16294F8510028B9002084F85000BD
:10255000204600F031F8022084F85100206800681D
:1025600020F0400021680860D4E901010843E168D7
:1025700008432169084361690843218B01F4007114
:102580000843E1690843216A0843A16A08432168B6
:1025900008600421A06901EA1040216848602068B1
:1025A000C06920F400602168C861002060650120D6
:1025B00084F851000020BFE710B586B00446002023
:1025C00002900390049005901949206888422DD10B
:1025D00000BF1848806940F4805016498861084659
:1025E000806900F48050019000BF00BF00BF084622
:1025F000806940F0040088610846806900F00400AA
:10260000019000BF00BFA020029002200390032091
:10261000059002A90848FEF7CFFD40200290002057
:102620000390049002A90448FEF7C6FD06B010BD51
:102630000030014000100240000801407047704720
:1026400010B5024600BF92F83C00012801D10220DB
:1026500010BD012082F83C0000BF022082F83D003E
:10266000106843681068846823F0700308680343A7
:1026700024F0800448680443106843601068846054
:10268000012082F83D0000BF002082F83C0000BF1E
:1026900000BFDDE710B504460CB9012010BD94F869
:1026A0003D0028B9002084F83C00204600F00CF8DA
:1026B000022084F83D00211D206802F049FC012021
:1026C00084F83D000020E9E710B586B004460020FC
:1026D00002900390049005902068B0F1804F0DD1D6
:1026E00000BF3348C06940F001003149C861084665
:1026F000C06900F00100019000BF56E02D4920683C
:10270000884238D100BF2A48C06940F002002849F9
:10271000C8610846C06900F00200019000BF00BF18
:1027200000BF0846806940F008008861084680695B
:1027300000F00800019000BF00BF3320029000208D
:1027400003900220049002A91B48FEF735FD00BF4C
:102750001A49486820F4406040F0E06040F40060AE
:10276000486000BF002205211D20FFF705FB1D204A
:10277000FFF7F2FA19E012492068884215D100BF2C
:102780000B48C06940F004000949C8610846C069A7
:1027900000F00400019000BF00BF002205211E20B0
:1027A000FFF7EAFA1E20FFF7D7FA06B010BD0000C7
:1027B0000010024000040040000C014000000140F5
:1027C000000800400146022081F83D00086880684A
:1027D00000F00702062A05D00868006840F00100F2
:1027E0000B681860012081F83D0000207047014609
:1027F0000868C06840F001000B68D860086880680D
:1028000000F00702062A05D00868006840F00100C1
:102810000B681860002070470146022081F83D00D7
:1028200000BF0868006A41F21112104050B90868F0
:10283000006A9210104028B90868006820F0010072
:102840000A68106000BF012081F83D000020704739
:102850002DE9F04104460D4600BF94F83C000128E4
:1028600002D10220BDE8F081012084F83C0000BFC5
:10287000022084F83D002068866826F0770626F45A
:102880007F46206886602868502833D00CDC2028DA
:1028900050D004DC00284BD0102851D149E030281A
:1028A00049D040284CD139E060282DD0702807D07D
:1028B000B0F5805F03D0B0F5005F41D10DE040E09E
:1028C000D5E902136A68206802F0A1FB20688668D7
:1028D00046F077062068866033E0D5E902136A681F
:1028E000206802F094FB2068806840F480402168F2
:1028F000886026E0EA686968206802F079FC502167
:10290000206802F08FFB1CE0EA686968206802F02A
:10291000C1FC6021206802F085FB12E0EA6869686A
:10292000206802F065FC4021206802F07BFB08E093
:1029300000BF00BF00BF2968206802F073FB00E001
:1029400000BF00BF012084F83D0000BF002084F8D4
:102950003C0000BF00BF85E770472DE9F041044609
:102960000D46164600BF94F83C00012802D1022013
:10297000BDE8F081012084F83C0000BF022084F80B
:102980003D0096B9EB68D5E90012206802F044FCDE
:102990002068806920F00C002168886120688069C7
:1029A000A9680843216888613DE0042E13D1EB68D3
:1029B000D5E90012206802F081FC2068806920F4CB
:1029C00040602168886120688069A96840EA012028
:1029D0002168886127E0082E12D1EB68D5E9001242
:1029E000206802F088FC2068C06920F00C00216893
:1029F000C8612068C069A96808432168C86112E0FD
:102A0000EB68D5E90012206802F091FC2068C069EB
:102A100020F440602168C8612068C069A96840EA64
:102A200001202168C861012084F83D0000BF00201A
:102A300084F83C0000BF00BF9AE710B504460CB90B
:102A4000012010BD94F83D0028B9002084F83C0016
:102A5000204600F00CF8022084F83D00211D20687B
:102A600002F076FA012084F83D000020E9E7704783
:102A700070B504460D4635B1042D0BD0082D10D08D
:102A80000C2D1CD114E02068C06840F002002168C1
:102A9000C86015E02068C06840F004002168C86084
:102AA0000EE02068C06840F008002168C86007E0B8
:102AB0002068C06840F010002168C86000E000BFD6
:102AC00000BF01222946206802F090FA2068806841
:102AD00000F00706062E05D02068006840F00100CF
:102AE00021680860002070BD10B5044620680069A8
:102AF000C0F34000D8B12068C068C0F34000B0B156
:102B00006FF0020021680861012020772068806949
:102B100000F0030018B12046FFF71EFF05E0204635
:102B200000F004F9204600F0A1F900202077206889
:102B30000069C0F38000D8B12068C068C0F380008D
:102B4000B0B16FF00400216808610220207720688E
:102B5000806900F4407018B12046FFF7FDFE05E0E3
:102B6000204600F0E3F8204600F080F900202077AE
:102B700020680069C0F3C000D8B12068C068C0F305
:102B8000C000B0B16FF00800216808610420207710
:102B90002068C06900F0030018B12046FFF7DCFE92
:102BA00005E0204600F0C2F8204600F05FF9002062
:102BB000207720680069C0F30010D8B12068C06891
:102BC000C0F30010B0B16FF0100021680861082058
:102BD00020772068C06900F4407018B12046FFF7E4
:102BE000BBFE05E0204600F0A1F8204600F03EF9CB
:102BF000002020772068006900F0010058B12068AB
:102C0000C06800F0010030B16FF001002168086178
:102C1000204600F059F920680069C0F3C01058B18F
:102C20002068C068C0F3C01030B16FF08000216828
:102C300008612046FFF702FD20680069C0F380109C
:102C400058B12068C068C0F3801030B16FF0400008
:102C500021680861204600F043F920680069C0F34C
:102C6000401058B12068C068C0F3401030B16FF018
:102C70002000216808612046FFF7E1FC10BD00003C
:102C800010B586B004460020029003900490059091
:102C90002068B0F1804F22D100BF2048806940F009
:102CA00008001E4988610846806900F0080001900C
:102CB00000BF00BF4FF440600290022003900590D7
:102CC00002A91748FEF778FA00BF1649486820F4B1
:102CD000407040F0E06040F4007048601BE0124932
:102CE0002068884217D100BF0C48806940F0080076
:102CF0000A4988610846806900F00800019000BF19
:102D000000BF4FF44070029002200390059002A98A
:102D10000348FEF751FA06B010BD00000010024053
:102D2000000C01400000014000080040704770B5F1
:102D300004460D46164600BF94F83C00012801D118
:102D4000022070BD012084F83C0000BF022084F8FE
:102D50003D0036B1042E1BD0082E31D00C2E5ED192
:102D600045E02946206802F067F92068806940F054
:102D70000800216888612068806920F004002168CB
:102D8000886120688069296908432168886147E073
:102D90002946206802F088F92068806940F40060C4
:102DA000216888612068806920F4806021688861DA
:102DB00020688069296940EA0120216888612FE044
:102DC0002946206802F0AEF92068C06940F008008A
:102DD0002168C8612068C06920F004002168C861CA
:102DE0002068C069296908432168C86118E029463C
:102DF000206802F0D3F92068C06940F400602168BF
:102E0000C8612068C06920F480602168C8612068BA
:102E1000C069296940EA01202168C86100E000BF5B
:102E200000BF012084F83D0000BF002084F83C0072
:102E300000BF00BF85E710B504460CB9012010BDE6
:102E400094F83D0028B9002084F83C00204600F0AA
:102E50000CF8022084F83D00211D206802F078F86B
:102E6000012084F83D000020E9E77047704700002A
:102E700070B504460E4601223146206802F0B6F8CD
:102E80000F492068884203D00E492068884201D14A
:102E9000012000E0002028B12068406C40F4004090
:102EA000216848642068806800F00705062D05D079
:102EB0002068006840F0010021680860002070BDB3
:102EC000002C01400034014010B50446034920683D
:102ED000884201D1FEF7ACFE10BD0000002C01407D
:102EE000704770472DE9F047044620680568206860
:102EF000C668206847694FF00008C14605F00F0812
:102F0000B8F1000F0AD105F0200038B106F020001A
:102F100020B1204602F053FABDE8F087B8F1000F67
:102F20006DD007F0010018B906F49070002866D043
:102F300005F0010030B106F4807018B1E06B40F08C
:102F40000100E06305F0040030B107F0010018B1A2
:102F5000E06B40F00200E06305F0020030B107F0E2
:102F6000010018B1E06B40F00400E06305F00800D8
:102F700030B107F0010018B1E06B40F00800E063E9
:102F8000E06B68B305F0200028B106F0200010B116
:102F9000204602F014FA20684069C0F38019E06B03
:102FA00000F0080010B9B9F1000F22D0204602F05D
:102FB000E6F92068406900F04000B0B1206840693F
:102FC00020F0400021684861606B50B11748616B88
:102FD0004863606BFDF75EFF10B1606B416B884723
:102FE0000CE02046FFF77DFF08E02046FFF779FF61
:102FF00004E02046FFF775FF0020E0638CE705F052
:10300000800030B106F0800018B1204602F0FAFAD4
:1030100082E705F0400030B106F0400018B12046CC
:1030200002F0BDF978E700BF76E700006B530008B7
:1030300010B504460CB9012010BDA06900B100E034
:1030400000BF94F8390028B9002084F838002046E1
:1030500000F028F8242084F839002068C06820F4A3
:1030600000502168C860204602F0FCF92068006921
:1030700020F49040216808612068406920F02A000F
:10308000216848612068C06840F400502168C86029
:103090000020E063202084F8390084F83A00002002
:1030A000CAE7000010B586B00446002002900390E5
:1030B000049005903749206888422FD100BF3648D8
:1030C000806940F48040344988610846806900F492
:1030D0008040019000BF00BF00BF0846806940F0FB
:1030E000040088610846806900F00400019000BF78
:1030F00000BF48150290022003900320059002A90A
:103100002648FEF759F84FF48060029000200390A3
:10311000049002A92148FEF74FF839E020492068C1
:10312000884235D100BF1C48C06940F400301A49BC
:10313000C8610846C06900F40030019000BF00BFBC
:1031400000BF0846806940F0040088610846806935
:1031500000F00400019000BF00BF04200290022094
:1031600003900320059002A90C48FEF725F80820DB
:10317000029000200390049002A90848FEF71CF872
:10318000002205212620FEF7F7FD2620FEF7E4FDAC
:1031900006B010BD00380140001002400008014098
:1031A0000044004010B5034693F83A0020282FD180
:1031B00001B10AB9012010BD00BF93F83800012801
:1031C00001D10220F7E7012083F8380000BF99629F
:1031D0009A85DA850020D863222083F83A0000BF60
:1031E000002083F8380000BF1868C06840F4807081
:1031F0001C68E0601868406940F001001C6860616C
:103200001868C06840F020001C68E0600020D2E729
:103210000220D0E710B504460448007801F09EF97A
:10322000012202490248FFF7BDFF10BD2000002027
:10323000C4020020704700BFFEE7014608684069ED
:10324000C0F38020B0B16FF480600A685061002044
:103250000863202081F83D00002081F83E00086CC2
:1032600040F00400086400BF002081F83C0000BF6B
:10327000012070470020FCE72DE9F84304460F4683
:1032800015469946DDE908862068006840F48060AC
:10329000216808602068006840F480702168086038
:1032A000434600224FF001112046009600F014F929
:1032B00010B10120BDE8F88307F0FE002168086125
:1032C000334642463949204600F049F908B1012009
:1032D000F0E700BF0020009020684069009020685F
:1032E0008069009000BF00BF32464146204600F092
:1032F000D8F950B1206C042805D12068006840F44A
:103300000070216808600120D4E7B9F1010F03D1F2
:10331000E8B22168086117E0C5F307202168086159
:1033200032464146204600F0BCF950B1206C0428DA
:1033300005D12068006840F4007021680860012011
:10334000B8E7E8B22168086132464146204600F0FD
:10335000A8F950B1206C042805D12068006840F419
:103360000070216808600120A4E72068006840F42C
:10337000807021680860434600224FF0011120460A
:10338000009600F0A9F808B1012093E7F8B240F0E8
:10339000010021680861334642460449204600F096
:1033A000DEF808B1012085E7002083E70200010074
:1033B0002DE9F8430446884615469946DDE9086735
:1033C0002068006840F4807021680860334600225D
:1033D0004FF001112046009700F07EF810B1012057
:1033E000BDE8F88308F0FE00216808613B463246DC
:1033F0002149204600F0B3F808B10120F0E700BFF2
:10340000002000902068406900902068806900904A
:1034100000BF00BF3A463146204600F042F950B1A5
:10342000206C042805D12068006840F400702168F1
:1034300008600120D4E7B9F1010F03D1E8B2216897
:10344000086117E0C5F30720216808613A46314654
:10345000204600F026F950B1206C042805D12068E0
:10346000006840F40070216808600120B8E7E8B205
:10347000216808610020B3E70200010070B504462E
:103480000D46164620E02046FFF7D7FE08B1012082
:1034900070BD681CC0B1FEF735F8801BA84200D88B
:1034A00095B900202063202084F83D00002084F896
:1034B0003E00206C40F02000206400BF002084F813
:1034C0003C0000BF0120E3E720684069C0F38000B2
:1034D0000028D8D00020DBE72DE9F04104460D4656
:1034E00017461E46DDF818801CE0701CD0B1FEF7B0
:1034F00009F8A0EB0800B04200D89EB90020206374
:10350000202084F83D00002084F83E00206C40F02C
:103510002000206400BF002084F83C0000BF012090
:10352000BDE8F081C5F3074001280AD12068406951
:10353000A9B20840A9B2884201D101200BE00020C5
:1035400009E020688069A9B20840A9B2884201D187
:10355000012000E00020B842C7D00020E0E72DE9BC
:10356000F04104460D4616461F463DE0206840697E
:10357000C0F38020E8B12068006840F40070216842
:1035800008606FF48060216848610020206320207B
:1035900084F83D00002084F83E00206C40F00400D8
:1035A000206400BF002084F83C0000BF0120BDE87B
:1035B000F081701CC0B1FDF7A5FFC01BB04200D860
:1035C00096B900202063202084F83D00002084F874
:1035D0003E00206C40F02000206400BF002084F8F2
:1035E0003C0000BF0120E2E7C5F3074001280AD1F3
:1035F00020684069A9B20840A9B2884201D10120DF
:103600000BE0002009E020688069A9B20840A9B257
:10361000884201D1012000E000200028A6D000202F
:10362000C5E770B504460D46164632E0206840698D
:10363000C0F30010A0B16FF01000216848610020B5
:103640002063202084F83D00002084F83E00206C98
:10365000206400BF002084F83C0000BF012070BD42
:10366000FDF750FF801BA84200D895B900202063C9
:10367000202084F83D00002084F83E00206C40F0BB
:103680002000206400BF002084F83C0000BF01201F
:10369000E5E720684069C0F380100028C6D000200C
:1036A000DDE770B504460D46164620E02046FFF7DC
:1036B000C4FD08B1012070BD681CC0B1FDF722FF38
:1036C000801BA84200D895B900202063202084F8F0
:1036D0003D00002084F83E00206C40F02000206473
:1036E00000BF002084F83C0000BF0120E3E7206811
:1036F0004069C0F3C0100028D8D00020DBE72DE9D6
:10370000FC4104460D4616466B4606223B216820C6
:1037100000F07AF80746BFB99DF801009DF8001047
:1037200040EA012000B220809DF803009DF80210BD
:1037300040EA012000B228809DF805009DF80410A1
:1037400040EA012000B230803846BDE8FC812DE916
:10375000FC4104460D4616466B460622432168206E
:1037600000F052F80746BFB99DF801009DF800101F
:1037700040EA012000B220809DF803009DF802106D
:1037800040EA012000B228809DF805009DF8041051
:1037900040EA012000B230803846BDE8FC810000DC
:1037A0002DE9F84F6B4602224121682000F02CF8E9
:1037B0009DF801009DF8001040EA01200FFA80FA00
:1037C0005046FCF7EDFF804600220B4BFCF76BFFE9
:1037D00006460A4A0A4BFCF74DFE0446FDF768F818
:1037E000834608495846FCF7D5FD0446FCF7E9FF37
:1037F00000B2BDE8F88F000000407540A4703D0A9B
:10380000D74342400000C8422DE9FE4304460D461E
:1038100016461F464FF000086420CDE9007602905E
:10382000012000EB440103462A460848FDF76AFFE1
:103830008046B8F1000F05D00448FDF769FE034843
:10384000FDF784FE4046BDE8FE830000180100201D
:103850002DE9FE4304460D4616461F464FF000086C
:103860006420CDE900760290002040EA4401012363
:103870002A460348FEF7CEF880464046BDE8FE8360
:103880001801002000B585B000200190029003903F
:10389000049000BF5148806940F020004F49886182
:1038A0000846806900F02000009000BF00BF00BF04
:1038B0000846806940F0100088610846806900F081
:1038C0001000009000BF00BF00BF0846806940F0B4
:1038D000040088610846806900F00400009000BF81
:1038E00000BF00BF0846806940F0080088610846B4
:1038F000806900F00800009000BF00BF002241F680
:10390000C6313748FDF7F8FD00224FF470413548C5
:10391000FDF7F2FD012211023348FDF7EDFD002213
:103920004FF400613048FDF7E7FD002204212F48E5
:10393000FDF7E2FD41F60200019001200290022015
:103940000390049001A92648FDF736FC4FF47170EE
:10395000019001200290022003900320049001A90D
:103960001F48FDF729FC20200190214802900120EA
:10397000039001A91A48FDF71FFC4FF47040019015
:103980000120029002200390049001A91548FDF740
:1039900013FC4FF4807001900120029003900220EC
:1039A000049001A91048FDF707FC4FF40060019056
:1039B0000120029002200390049001A90A48FDF71B
:1039C000FBFB042001900120029002200390049050
:1039D00001A90648FDF7F0FB05B000BD001002404C
:1039E00000100140000C014000080140001401409B
:1039F0000000211010B50B480B4908600B484860C7
:103A0000002109488160C1604FF4804101610021BB
:103A100041618161C1610162FDF798FD08B1FDF767
:103A200038FA10BD0054004018010020A0860100A3
:103A300010B50F480F4908604FF4827048600021AC
:103A40000C488160C160022101610121416149028C
:103A500081612821C16100210162416281620A21E4
:103A6000C162FEF765FD08B1FDF713FA10BD000055
:103A7000003001406C01002000B58DB0002009909D
:103A80000A900B900C90079008901C216846FCF758
:103A900011FC4FF080402349086047204860002116
:103AA000204881606421C160002101618021816121
:103AB000FEF7F0FD08B1FDF7ECF94FF480500990E6
:103AC00009A91848FEF7C4FE08B1FDF7E2F9154848
:103AD000FFF7B1F908B1FDF7DCF900200790089075
:103AE00007A91048FEF7ACFD08B1FDF7D2F9602038
:103AF0000090002001900290049008226946094835
:103B0000FFF715F908B1FDF7C4F90C22694605481D
:103B1000FFF70DF908B1FDF7BCF90248FFF7B0F85F
:103B20000DB000BDC401002000B58BB0002007908F
:103B3000089009900A9005900690019002900390D9
:103B400004902B482B4908604720486000212948F1
:103B500081606421C1600021016180218161FEF7E3
:103B600099FD08B1FDF795F94FF48050079007A92A
:103B70002048FEF76DFE08B1FDF78BF91D48FEF7F2
:103B80005CFF08B1FDF785F900200590069005A9B6
:103B90001848FEF755FD08B1FDF77BF900200190AC
:103BA00001200290002003900490002201A91148F6
:103BB000FEF7D3FE08B1FDF76CF9042201A90D4808
:103BC000FEF7CBFE08B1FDF764F9082201A9094808
:103BD000FEF7C3FE08B1FDF75CF90C2201A9054808
:103BE000FEF7BBFE08B1FDF754F90BB000BD0000B5
:103BF000000400400402002000B58DB000200990B0
:103C00000A900B900C90079008901C216846FCF7D6
:103C100051FB24482449086047204860002122487D
:103C200081606421C1600021016180218161FEF712
:103C300031FD08B1FDF72DF94FF48050099009A925
:103C40001948FEF705FE08B1FDF723F91648FFF7FE
:103C5000F2F808B1FDF71DF900200790089007A9B8
:103C60001148FEF7EDFC08B1FDF713F96020009054
:103C70000020019002900490082269460A48FFF74C
:103C800056F808B1FDF705F90C2269460648FFF71A
:103C90004EF808B1FDF7FDF80348FEF7F1FF0DB04F
:103CA00000BD0000000800404402002010B50B4891
:103CB0000B4908604FF4E1304860002108488160FA
:103CC000C16001610C21416100218161C161FFF787
:103CD000AFF908B1FDF7DDF810BD00000038014074
:103CE0008402002010B50B480B4908604FF4E13006
:103CF0004860002108488160C16001610C21416178
:103D000000218161C161FFF793F908B1FDF7C1F8A6
:103D100010BD000000440040C402002000BFFEE7C8
:103D200010B51C2005F03EFE04460020A081E08175
:103D300020826082A082E08220606060A060208398
:103D4000204610BD2DE9F05F05460E461746984601
:103D5000DDE90BABDDF82890382005F023FE0446A2
:103D60002560A680A760A4F80C80C4F81090A4F881
:103D700014A0C4F818B00D98A0830E9820620F9874
:103D8000A084002084F82C00A06220636063204699
:103D9000BDE8F09F70B504460E461546256384F8CD
:103DA0002C60A08C18B9206A0068456310E0A08CD4
:103DB000042803D1206A0068856309E0A08C0828E4
:103DC00003D1206A0068C56302E0206A00680564C8
:103DD00094F82C0020B101280DD0022821D115E043
:103DE000A18800222068FDF787FBA1890022A06836
:103DF000FDF782FB15E0A18800222068FDF77CFB1F
:103E0000A1890122A068FDF777FB0AE0A1880122C1
:103E10002068FDF771FBA1890022A068FDF76CFB0B
:103E200000BF00BF70BD70B504460D462563606BD2
:103E3000002803DD012084F82C0009E0606B0028D5
:103E400003DA022084F82C0002E0002084F82C0021
:103E5000A08C18B9206A0068456310E0A08C042883
:103E600003D1206A0068856309E0A08C082803D18B
:103E7000206A0068C56302E0206A0068056494F85F
:103E80002C0020B101280DD0022821D115E0A188F5
:103E900000222068FDF730FBA1890022A068FDF711
:103EA0002BFB15E0A18800222068FDF725FBA189E6
:103EB0000122A068FDF720FB0AE0A188012220680A
:103EC000FDF71AFBA1890022A068FDF715FB00BFD2
:103ED00000BF70BD704709E040F2375100BF0A1EB5
:103EE000A1F1010399B2FAD1421E90B20028F3D198
:103EF000704770B50646002415E004F1B001C8B261
:103F000000F0DCF9012000F0D9F9102000F0D6F91A
:103F1000002504E0304600F003FA681CC5B2802D8D
:103F2000F8DB601CC4B2082CE7DB70BD10B50122C1
:103F300051023648FDF7E0FA002280213348FDF7B0
:103F4000DBFA3220FFF7C7FF012280212F48FDF75F
:103F5000D3FAAE2000F0B2F9002000F0AFF9102043
:103F600000F0ACF9402000F0A9F9812000F0A6F99A
:103F7000CF2000F0A3F9A12000F0A0F9C82000F0A4
:103F80009DF9A62000F09AF9A82000F097F93F20AB
:103F900000F094F9D32000F091F9002000F08EF9A0
:103FA000D52000F08BF9802000F088F9D92000F0AE
:103FB00085F9F12000F082F9DA2000F07FF9122073
:103FC00000F07CF9DB2000F079F9402000F076F970
:103FD000202000F073F9022000F070F98D2000F02D
:103FE0006DF9142000F06AF9A42000F067F9A6200A
:103FF00000F064F9AF2000F061F90020FFF779FFCD
:104000000021084600F044F910BD000000100140F6
:104010002DE9F05F82460F4690469946DDF828B0BC
:104020000024002501266CE00024012611E019F887
:10403000040018F80510884209D109EB0400407803
:1040400008EB05014978884201D1260105E0A01C52
:10405000C4B219F804007F28E9DC00BFBAF1760F7A
:1040600003DD4FF0000A781CC7B23946504600F015
:104070000FF9012E22D03946504600F009F90024EC
:1040800007E01BF8060000F04BF9701C86B2601CBC
:10409000C4B2102CF5DB07F10800C1B2504600F0A5
:1040A000F7F8002407E01BF8060000F039F9701C4F
:1040B00086B2601CC4B2102CF5DB1CE0681CC5B2D3
:1040C0003946504600F0E4F8002404E0002000F0F7
:1040D00027F9601CC4B2102CF8DB781CC1B2504622
:1040E00000F0D6F8002404E0002000F019F9601C6C
:1040F000C4B2102CF8DB0AF1100000F0FF0AA81C73
:10410000C5B218F8050000288ED1BDE8F09F2DE952
:10411000F04704468846154699464FF0000A0026A7
:1041200000271FE0E85D203800F0FF0A7E2C04DD48
:10413000002408F1010000F0FF084146204600F08D
:10414000A7F8002608E00AEB4A0109EB4101885D67
:1041500000F0E6F8701CC6B2062EF4DBA01DC4B257
:10416000781CC7B2E85D0028DCD1BDE8F0872DE9F6
:10417000F04706460F469046994600250024A24681
:1041800030E018F80A002038C5B2782E02DD00268B
:10419000781CC7B23946304600F07AF8002406E0B1
:1041A00009EB0511085D00F0BBF8601CC4B2082CD7
:1041B000F6DB07F10800C1B2304600F069F80024D0
:1041C00007E009EB05112144087A00F0A9F8601C0A
:1041D000C4B2082CF5DB06F10800C6B20AF10100F2
:1041E00000F0FF0A18F80A000028CAD1BDE8F087DD
:1041F0002DE9FC4706468846154699460A9F002445
:1042000038E0285D7F2817DD285D8DF80400281927
:1042100040788DF8050000208DF806001848194BED
:1042200001AA414600903046FFF7F2FE06F1100069
:10423000C6B2A01CC4B21DE0285D8DF804000020A9
:104240008DF80500012F09D10F4B01AA41463046D8
:10425000FFF78DFF06F10800C6B209E0032F07D172
:104260000A4B01AA41463046FFF751FFB01DC6B2C6
:10427000601CC4B2285D0028C3D1BDE8FC870000E3
:10428000F3B3000854B3000893BA00082CB1000837
:1042900070B504460D46B02101EBE501C8B200F04F
:1042A0000DF8102141EA141000F008F804F00F0195
:1042B00041F0010000F002F870BD000070B5044646
:1042C0000825002240211548FDF716F90022A90112
:1042D0001248FDF711F91BE004F0800028B101221B
:1042E00011020E48FDF708F905E000224FF4807135
:1042F0000A48FDF701F9012251020848FDF7FCF8D0
:1043000000224FF400710548FDF7F6F86006040E30
:10431000281EA5F10101CDB2DED170BD0010014013
:1043200070B504460825012240211548FDF7E4F840
:104330000022A9011248FDF7DFF81BE004F080001D
:1043400028B1012211020E48FDF7D6F805E000223F
:104350004FF480710A48FDF7CFF801225102084856
:10436000FDF7CAF800224FF400710548FDF7C4F8C4
:104370006006040E281EA5F10101CDB2DED170BD8C
:10438000001001402DE9F0478CB004468946924662
:10439000C4F80490C4F808A0E0692062A069E06154
:1043A000D4E90101FBF7F0FFA0610021A069FCF74F
:1043B000A5FA01D2A0690DE0A06980F00047384657
:1043C000616BFCF79BFA01D2012000E00020064659
:1043D000FCF7D8F905460021FCF786FA7BD0207857
:1043E00048BBA169E068FBF7D5FF6062A16920695D
:1043F000FBF7D0FF0546A16AFBF774FFA062A16B33
:10440000A06AFCF771FA01D2A06A00E0A06BA0627A
:10441000E16BA06AFCF772FA01D2A06A00E0E06BDF
:10442000A062D4E90601FBF7AFFF05466169FBF71F
:10443000B1FFE0623FE0207801283CD1D4E90601D9
:10444000FBF7A2FF0546E168FBF7A4FF6062A169E4
:104450002069FBF79FFFA062206AFCF7FEF9CDE917
:104460000401E069FCF7F9F9074600224FF08043A8
:10447000FCF7A7F805460E46A069FCF7EEF92A46B8
:104480003346CDE90001FCF796F8CDE90201DDE9FC
:104490000423FBF7EFFFCDE908016069FCF7DDF9C4
:1044A000CDE90601DDE90823FCF78BF8CDE90A0127
:1044B000FCF7FEF9E062D4E90901FBF713FF0546BA
:1044C000E16AFBF70FFF2063A16B206BFCF70CFA8E
:1044D00002D2206B01E00AE0A06B2063E16B206B4D
:1044E000FCF70CFA01D2206B00E0E06B2063206B3C
:1044F0000CB0BDE8F0872DE9F05F05460E46174683
:104500009846DDE90BABDDF82890402005F04AFA2B
:1045100004462570E6602761C4F814800020A0627C
:10452000C4F83490C4F838A0C4F83CB02046BDE8C4
:10453000F09F000008B508490968C9084FF47A726D
:10454000B1FBF2F14143009100BF00BF00994A1E48
:1045500000920029F9D108BD3C00002010B50446A6
:104560002F48006868B91D2C0BD101202C49086028
:104570002C4801780078401C2A4A10702A4844547C
:104580004CE02748006801280DD1D12C0BD1022026
:1045900023490860234801780078401C214A1070A4
:1045A000214844543AE01E48006802280FD11D48B3
:1045B00001780078401C1B4A10701B484454104678
:1045C000007807282ADB03201549086026E01448F4
:1045D0000068032819D1ED2C0FD11248017800781A
:1045E000401C104A10701048445400F01FF800207E
:1045F0000B4908600B49087010E00020084908606A
:1046000080210948FBF756FE08E0002004490860B5
:104610000449087080210448FBF74CFE10BD0000DF
:10462000B8000020BC000020185000202DE9F04107
:104630000446A078FF2804D10020214909680870A9
:104640000EE0A0783F2804D101201D4909680870B8
:1046500006E0A0780F2803D10220194909680870E4
:104660002079E17840EA012000B2154909684880C4
:10467000A079617940EA012000B211490968888077
:104680000F480068B0F902100EA000F0F9FF0C49C5
:104690000968B1F90200FCF775F807463A460021AF
:1046A00009480068FFF76EFE0646FCF78AF80546E3
:1046B00029460648006800F0A5FABDE8F081000030
:1046C0002400002025640A00280000202C0000207F
:1046D00088B05C485C494FF080424FF07C53CDE994
:1046E00000210290002259491046FFF704FF07906D
:1046F0000024002006900590554804904FF0824019
:1047000003904FF0000900BF09F1010900240020C7
:10471000069050480068002182680798FFF732FE33
:1047200005904C4909688868FCF797F805462A46C1
:104730000B46494648A000F0A3FFDDE90410FBF753
:1047400029FE029084F0004000900699FBF71CFEC1
:1047500001900299FBF718FE83460399FBF74CFE84
:104760008246FCF77AF807463D4A3E4BFBF729FFA5
:104770000546FCF753F83C4909684863DDE9041035
:10478000FBF708FE029084F0004000900699FBF7CA
:10479000A9FD01900299FBF7F7FD83460399FBF70A
:1047A0002BFE8246FCF759F805462D4A2D4BFBF7A8
:1047B00008FF0746FCF732F82C4909684863DDE931
:1047C0000410FBF7E7FD029020460699FBF7DCFD9D
:1047D00001900299FBF7D8FD83460399FBF70CFE85
:1047E0008246FCF73AF807461D4A1E4BFBF7E9FEE6
:1047F0000546FCF713F81E4909684863DDE9041013
:10480000FBF7C8FD029020460699FBF76BFD01906F
:104810000299FBF7B9FD83460399FBF7EDFD82464C
:10482000FCF71BF805460E4A0E4BFBF7CAFE07467F
:10483000FBF7F4FF0F49096848630A2004F000FB06
:1048400062E700000000C0C10000C0410AD7A33DDC
:1048500000008841C000002025642C25660A000065
:10486000B0C93E5162192340C4000020C800002096
:10487000CC000020D000002000BF012004F0E0FAAE
:10488000FBE700008AB0002009900890079006908E
:1048900005900490039002900190002400BF05F061
:1048A00085FA07AA08A909A803F0D8F9002845D174
:1048B000FEF776FF044604AA05A906A8FEF71FFF27
:1048C00001AA02A903A8FEF742FFBDF918001E497C
:1048D00009688881BDF81400404200B21A4909688D
:1048E000C881BDF81000404200B21749096808822B
:1048F000BDF90C00144909684882BDF8080040421F
:1049000000B2114909688882BDF80400404200B233
:104910000D490968C8820C490898096848600998D7
:1049200080F00040084909680860079880F000405E
:1049300005490968886004480068048305F060FA46
:10494000052004F07DFAAAE7C000002000BF00BFE8
:1049500000BF05F02BFA0021012005F08BF964213E
:1049600041430D22B1FBF2F14C08044909688C6205
:1049700005F046FA0A2004F063FAEAE7C8000020CE
:1049800000BF00BF00BF05F011FA0021012005F0B3
:1049900071F9642141430D22B1FBF2F14C08044945
:1049A00009688C6205F02CFA0A2004F049FAEAE75B
:1049B000C400002086B0704870494FF07E52704BA2
:1049C000CDE9002102906F4A6F490020FFF793FD67
:1049D0000546694869494FF07E52694BCDE900218F
:1049E0000290684A68490020FFF785FD0646624844
:1049F00062494FF07E52624BCDE900210290614A3C
:104A000061490020FFF777FD07465B485B494FF09F
:104A10007E525B4BCDE9002102905A4A5A49002050
:104A2000FFF769FD80464FF00009CA460020059057
:104A3000049000BF039000BF00BF05F0B7F90398D2
:104A4000401C039051490968886AFBF7A4FE83461D
:104A50004E490968496B002903DD4C490968496BD7
:104A600003E04A490968496B49420846FBF78AFE58
:104A70005A46014602902846FFF784FC0446FBF79D
:104A8000A0FE814642490968886AFBF784FE834696
:104A90003F490968496B002903DD3D490968496BB5
:104AA00003E03B490968496B49420846FBF76AFE47
:104AB0005A46014602903046FFF764FC0446FBF775
:104AC00080FE824633490968886AFBF764FE8346A4
:104AD00030490968496B002903DD2E490968496B93
:104AE00003E02C490968496B49420846FBF74AFE36
:104AF0005A46014602903846FFF744FC0446FBF74D
:104B000060FE059024490968886AFBF744FE8346E5
:104B100021490968496B002903DD1F490968496B70
:104B200003E01D490968496B49420846FBF72AFE24
:104B30005A46014602904046FFF724FC0446FBF724
:104B400040FE0490494611480068FFF76CF9514651
:104B50000F480068FFF767F90E4805990068FFF7EE
:104B600062F90D4804990068FFF75DF905F048F90E
:104B70000A2004F065F960E7000034420000C842F2
:104B80000AD7233D0AD7A33D9A99193FC4000020B4
:104B9000C8000020CC000020D000002000BF00BFD3
:104BA00000BF05F003F90021012005F063F864213E
:104BB00041430D22B1FBF2F14C08044909688C62B3
:104BC00005F01EF90A2004F03BF9EAE7D0000020C6
:104BD00000BF00BF00BF05F0E9F80021012005F08B
:104BE00049F8642141430D22B1FBF2F14C0804491C
:104BF00009688C6205F004F90A2004F021F9EAE75B
:104C0000CC00002070B505460C46002C09DB204680
:104C1000FBF7B8FD064601223146284600F00CF8A5
:104C200009E06042FBF7AEFD06464FF0FF32314629
:104C3000284600F001F870BD2DE9FF5F0446894663
:104C400016464846FBF709FE8246474A474BFBF7A4
:104C50002AFD0022464BCDE90001FBF7B2FC002201
:104C60001346CDE90201FBF70BFE01D2012000E063
:104C7000002070B14846FBF7F0FD82463A4A3B4BB4
:104C8000FBF711FD00223A4BCDE90201FBF799FC3D
:104C90000FE04846FBF7E1FD8246334A334BFBF712
:104CA00002FD0022324BCDE90201FBF78AFC81F0C4
:104CB00000410746FBF7B2FD0546012E28D122E050
:104CC000E068FBF7CAFD0746274A2A4BFBF7D2FBF1
:104CD0008246FBF7EDFDE060618900226068FCF729
:104CE0000BFC218901222068FCF706FC4FF47A7046
:104CF00002F062FB218900222068FCF7FDFB4FF4E3
:104D00007A7002F059FB281EA5F10105D8D129E0DF
:104D1000701C38BB22E0E068FBF79FFD0746124A93
:104D2000144BFBF748FC8246FBF7C2FDE06061894B
:104D300001226068FCF7E0FB218901222068FCF772
:104D4000DBFB4FF47A7002F037FB218900222068E8
:104D5000FCF7D2FB4FF47A7002F02EFB281EA5F16F
:104D60000105D8D1BDE8FF9FCDCCCCCCCCCCFC3F4D
:104D700000002040CCCCCC3F10B500BF502080F3C9
:104D80001188BFF34F8FBFF36F8F00BF05F0F2FEA6
:104D900018B14FF080500449086000BF002080F334
:104DA000118800BF10BD000004ED00E000B58FB019
:104DB000282105A8FBF77EFA14216846FBF77AFA4A
:104DC0000120059000040690002007900120099022
:104DD00002200C90C1030D914FF4E0110E9105A833
:104DE000FDF774F908B1FCF754F80F200090022089
:104DF0000190002002904FF4806003900020049006
:104E000002216846FDF70AF808B1FCF742F80FB036
:104E100000BD00001148006840F001000F49086023
:104E2000084640680E4908400C494860084600683A
:104E30000C490840094908600846006820F48020B1
:104E400008600846406820F4FE0048604FF41F00E8
:104E50008860C803044908607047000000100240E1
:104E60000000FFF8FFFFF6FE08ED00E010B5024875
:104E7000FDF73AFE10BD00000403002008B5002035
:104E80000090294800680069C0F3400050B12648EE
:104E90000068C068C0F3400020B16946234800683C
:104EA00005F0E2F8204800680069C0F3800050B1C6
:104EB0001D480068C068C0F3800020B169461C48E6
:104EC000006805F0D1F8184800680069C0F3C00018
:104ED00050B115480068C068C0F3C00020B16946F1
:104EE0001448006805F0C0F80F4800680069C0F376
:104EF000001050B10C480068C068C0F3001020B129
:104F000069460D48006805F0AFF8009838B14FF0D9
:104F100080500A490860BFF34F8FBFF36F8F02487C
:104F2000FDF7E2FD08BD000004020020040000209F
:104F3000080000200C0000201000002004ED00E01C
:104F400010B50248FDF7D0FD10BD0000440200205E
:104F500010B50268204B98420ED0204B98420BD0DF
:104F6000B0F1804F08D01E4B984205D01D4B98429F
:104F700002D01D4B984203D122F070024B681A43B5
:104F8000154B98420ED0154B98420BD0B0F1804F84
:104F900008D0134B984205D0124B984202D0124BC6
:104FA000984203D122F44072CB681A4322F0800366
:104FB0004C6943EA040202608B68C3620B68836237
:104FC000054B984202D0054B984201D10B6903630F
:104FD0000123436110BD0000002C0140003401405A
:104FE0000004004000080040000C004030B501F013
:104FF0001F05012404FA05F3046A9C430462046A51
:1050000001F01F0502FA05F52C43046230BD30B5EE
:105010000C46816821F47F4142EA03252543294358
:10502000816030BD0A46816821F0700142F00703BB
:10503000194381607047000030B5056A25F001050D
:105040000562026A4368846924F0700424F0030452
:105050000D682C4322F002028D682A43104DA842AD
:1050600000D103E00F4DA84206D100BF22F0080294
:10507000CD682A4322F00402094DA84202D0094D0E
:10508000A84207D123F4807323F400734D692B43A6
:105090008D692B43436084614D684563026230BD76
:1050A000002C01400034014030B5056A25F01005A0
:1050B0000562026A4368846924F4E04424F440747D
:1050C0000D6844EA052422F020028D6842EA0512A8
:1050D000124DA84200D103E0114DA84207D100BFF4
:1050E00022F08002CD6842EA051222F040020B4D08
:1050F000A84202D00A4DA84209D123F4806323F4C8
:1051000000634D6943EA85038D6943EA8503436083
:1051100084614D688563026230BD0000002C01404F
:105120000034014030B5056A25F480750562026AD5
:105130004368C46924F0700424F003040D682C4310
:1051400022F400728D6842EA0522124DA84200D175
:1051500003E0114DA84207D100BF22F40062CD68E0
:1051600042EA052222F480620A4DA84202D00A4D8A
:10517000A84209D123F4805323F400534D6943EA34
:1051800005138D6943EA05134360C4614D68C56327
:10519000026230BD002C01400034014030B5056A88
:1051A00025F480550562036A4468C26922F4E0422E
:1051B00022F440720D6842EA052223F400538D6800
:1051C00043EA0533084DA84202D0084DA84204D155
:1051D00024F480444D6944EA85144460C2614D68FA
:1051E0000564036230BD0000002C01400034014022
:1051F00030B50B461446026A056A25F001050562C2
:10520000816921F0F00141EA041122F00A021A43F7
:105210008161026230BD000070B50C461546066A19
:1052200026F0010606628169026A154EB0420ED070
:10523000144EB0420BD0B0F1804F08D0124EB042A5
:1052400005D0124EB04202D0114EB04201D101261B
:1052500000E000261EB121F00301294301E041F0E6
:10526000010121F0F001F02606EA0316314322F095
:105270000A0204F00A0632438161026270BD000036
:10528000002C0140003401400004004000080040B0
:10529000000C004030B50B461446056A25F0100599
:1052A00005628169026A21F4704141EA043122F009
:1052B000A00242EA03128161026230BD70B50C4661
:1052C0001546066A26F0100606628169026A21F414
:1052D000407141EA052121F470414FF4704606EA1D
:1052E0000336314322F0A002A02606EA0416324318
:1052F0008161026270BD70B50C461546066A26F4DF
:1053000080760662C169026A21F00301294321F017
:10531000F001F02606EA0316314322F400724FF43E
:10532000007606EA04263243C161026270BD70B5A0
:105330000C461546066A26F480560662C169026A62
:1053400021F4407141EA052121F470414FF4704687
:1053500006EA0336314322F400524FF4005606EABF
:1053600004363243C161026270BD70B505466C6A95
:105370000020E085E0842046FDF7B3FD70BD0168A4
:10538000C96821F490710268D1600168496921F00F
:10539000010102685161202180F83A10704710B570
:1053A00004462068C06820F040002168C8602020C2
:1053B00084F839002046FDF73DFF002010BD70B590
:1053C000044694F83A0022284AD1A068B0F5805FDC
:1053D00013D1A56A206940B920684068C0F308006D
:1053E0002880A06A801CA06219E020684068C0B2D2
:1053F0002880A06A401CA06211E0206938B92068AA
:105400004068C1B2A26A501CA062117007E0206817
:10541000406800F07F01A26A501CA0621170E08D0C
:10542000401E80B2E085C8B92068C06820F0200026
:105430002168C8602068C06820F480702168C86056
:105440002068406920F0010021684861202084F82C
:105450003A002046FDF7DEFE002070BD0020FCE78C
:105460000220FAE770B504462168096921F4405129
:10547000E2681143226811612269A16811436269DF
:1054800041EA02052168C96841F20C62914329434F
:105490002268D1602168496921F44071A2691143F1
:1054A00022685161564A2168914254D1FCF7B4FDFB
:1054B00000EBC00101EB001162689200B1FBF2F158
:1054C00000EBC00202EB001263689B00B2FBF3F238
:1054D0006423B2FBF3F202EBC20303EB0212A1EB73
:1054E0008201322202EB01116422B1FBF2F101F0E0
:1054F000F00100EBC00202EB001263689B00B2FBFC
:10550000F3F26423B2FBF3F201EB021200EBC001F1
:1055100001EB001163689B00B1FBF3F100EBC003EA
:1055200003EB00136668B600B3FBF6F36426B3FB27
:10553000F6F303EBC30606EB0313A1EB830132235F
:1055400003EB01116423B1FBF3F101F00F011144EE
:105550002268916053E0FCF74FFD00EBC00101EBC6
:10556000001162689200B1FBF2F100EBC00202EBA5
:10557000001263689B00B2FBF3F26423B2FBF3F208
:1055800002EBC20303EB0212A1EB8201322202EB17
:1055900001116422B1FBF2F101F0F00100EBC00255
:1055A00002EB001263689B00B2FBF3F26423B2FBD0
:1055B000F3F201EB021200EBC00101EB0011636892
:1055C0009B00B1FBF3F100EBC00303EB0013666833
:1055D000B600B3FBF6F36426B3FBF6F303EBC306A6
:1055E00006EB0313A1EB8301322303EB01116423C8
:1055F000B1FBF3F101F00F0111442268916070BD1D
:1056000000380140014691F8390021282CD18868E2
:10561000B0F5805F0FD10A6A1088C0F308000B68EC
:105620005860086918B9086A801C086209E0086AAD
:10563000401C086205E00B6A581C086218780B6869
:105640005860C88C401E80B2C88458B90868C068C9
:1056500020F080000B68D8600868C06840F0400007
:105660000B68D860002070470220FCE710B50248A4
:10567000FDF738FC10BD0000C402002000BFFEE7AB
:105680000FB4054B10B503A9044A029800F082F943
:1056900010BC5DF814FB000095730008D4000020D6
:1056A000490050EAC12018BF04204A0D18BF40F03D
:1056B000010040F2FF72B2EB515F08BF40F0020000
:1056C000012808BF0520704702480068C0F3022087
:1056D000704700000CED00E010B5002804DB0A075D
:1056E000130E054A135406E00A07140E034A00F08D
:1056F0000F031B1FD45410BD00E400E018ED00E0C0
:10570000EFF311807047EFF305807047EFF31080DF
:1057100070472DE9F0414F1E00EBC7010446D1E967
:10572000000115461E4637F006020DD02A463346C4
:10573000FAF747FF7F1E04EBC703D3E90023FAF70C
:1057400099FE37F00602F1D1022F25D0042F13D095
:10575000062F18BFBDE8F0812A463346FAF731FF1D
:10576000D4E90A23FAF786FE2A463346FAF729FFD8
:10577000D4E90823FAF77EFE2A463346FAF721FFDA
:10578000D4E90623FAF776FE2A463346FAF719FFDC
:10579000D4E90423FAF76EFE2A463346FAF711FFDE
:1057A000D4E90223FAF766FE2A463346FAF709FFE0
:1057B000D4E90023BDE8F041FAF75CBE0122FBF713
:1057C000A3B9FAF757BE0022134610461146FAF75E
:1057D0006ABF0000024A00201107FBF795B90000DC
:1057E00001FDFFFF02E008C8121F08C1002AFAD11C
:1057F00070477047002001E001C1121F002AFBD151
:105800007047000001490860704700001401002043
:105810002DE9FF5F82B00021DDE90430020DDDF8E3
:1058200040B0034318D044F61050A2F2FF32424376
:105830001514119801281FD0A5EB0B00401C5FEA3E
:10584000000A4FF000064E4FDFF83891B046504640
:1058500015D5CAF1000413E0119801244AA30128C8
:1058600001D16FEA0B010298119AC0E90031C0E939
:10587000024206B0BDE8F09FCBF10000DFE704462E
:105880000021404A491842EB0450CDE9001012E0D3
:10589000E00707D032463B4640464946FAF791FEBC
:1058A0008046894632463B4610461946FAF789FE3D
:1058B00006460F466410002CEAD1DDE90401DDE95B
:1058C0000023BAF1000F06DAFAF77BFE42464B4698
:1058D000FAF777FE05E0FAF7E6FE42464B46FAF79E
:1058E000E2FE04460E460022284BFAF7C9FF03D811
:1058F0004FF0FF30014607E00022254B204631469D
:10590000FAF7B8FDFBF717F9102409E0002C0ADBC1
:105910000A220023FBF712F8039B30321A55641E4B
:1059200050EA0102F2D1641C039AC4F11103144439
:10593000119A012A03D0012208430DD10AE008433D
:1059400004D000204FF0110B119072E7A3EB0B0570
:105950006D1E0DE05B4504DD4FF0000205F1010511
:1059600004E003DA4FF00002A5F10105002AECD0B3
:1059700002981199C0E90231C0E9004579E70000B9
:10598000000014400000F03F300000000000F04331
:105990000000E03F2DE9FF4F95B09B468946064643
:1059A00000250FE2252877D100242746F84A012157
:1059B000059400E0044316F8013F203B01FA03F090
:1059C0001042F7D130782A2811D06FF02F033078A9
:1059D000A0F13002092A16D8059A44F0020402EB1D
:1059E000820203EB42021044761C0590EFE759F85F
:1059F000042B0592002A03DA504244F40054059027
:105A000044F00204761C30782E2816D116F8010FC7
:105A100044F004042A280DD06FF02F023078A0F152
:105A20003003092B09D807EB870302EB4303C718A0
:105A3000761CF3E759F8047B761C30786C280FD07D
:105A400006DC4C2817D068280DD06A2814D104E051
:105A5000742810D07A280FD10DE044F400140AE025
:105A600044F4801401E044F440147278824202D17C
:105A700004F58014761C761C307866280BD013DC75
:105A8000582877D009DC002875D04528F6D046285C
:105A9000F4D047281AD19DE118E0632835D0642856
:105AA00079D0652812D195E1702873D008DC672879
:105AB000F1D069286FD06E280DD06F2806D1B5E0DF
:105AC00073282CD0752875D0782874D05A46179929
:105AD00090476D1C75E1C4F30250022809D00328D9
