:020000040800F2
:10000000988D00205D02000805290008F71F0008F0
:10001000ED250008990C00080538000800000000D4
:100020000000000000000000000000009D0100082A
:100030009B0C000800000000F90100089130000846
:1000400077020008770200087702000877020008AC
:10005000770200087702000877020008770200089C
:1000600077020008A50C0008770200087702000854
:10007000770200087702000877020008770200087C
:10008000770200087702000877020008770200086C
:10009000770200087702000877020008AB0C00081E
:1000A000770200087702000877020008770200084C
:1000B000770200087702000877020008770200083C
:1000C000770200087702000877020008770200082C
:1000D00077020008ED370008F937000877020008BA
:1000E0009D0C0008770200087702000877020008DC
:1000F00095310008770200087702000877020008AF
:1001000077020008770200087702000877020008EB
:1001100077020008770200087702000877020008DB
:1001200077020008770200087702000877020008CB
:1001300077020008770200087702000877020008BB
:1001400077020008770200087702000877020008AB
:10015000770200087702000877020008770200089B
:10016000770200087702000877020008770200088B
:1001700077020008770200087702000800000000FC
:100180007702000877020008DFF80CD000F0C0FB0F
:1001900000480047314E0008988D00202C4B19680C
:1001A0000868B0E8F04F80F30988BFF36F8F4FF015
:1001B000000080F3118870470000000008480068C4
:1001C000006880F308884FF0000080F3148862B65E
:1001D00061B6BFF34F8FBFF36F8F00DF00BF00BF6B
:1001E00008ED00E0DFF80C00016841F470010160E7
:1001F000704700BF88ED00E0EFF30980BFF36F8F19
:10020000134B1A681EF0100F08BF20ED108A20E96A
:10021000F04F106009B44FF0500080F31188BFF325
:100220004F8FBFF36F8F05F06FFF4FF0000080F32B
:10023000118809BC19680868B0E8F04F1EF0100F6B
:1002400008BFB0EC108A80F30988BFF36F8F704746
:1002500048000020EFF30580704700000648804703
:1002600006480047FEE7FEE7FEE7FEE7FEE7FEE79B
:10027000FEE7FEE7FEE7FEE74131000889010008DE
:100280002DE9F05F0546002092469B4688460646CB
:10029000814640241BE0284641464746224600F05E
:1002A00050FA53465A46C01A914110D31146184687
:1002B000224600F037FA2D1A67EB01084F46224616
:1002C0000120002100F02EFA17EB00094E41201EFC
:1002D000A4F10104DFDC484631462A464346BDE826
:1002E000F09F40EA01039B0703D009E008C9121FF1
:1002F00008C0042AFAD203E011F8013B00F8013BE0
:10030000521EF9D27047D2B201E000F8012B491E0B
:10031000FBD270470022F6E710B513460A460446A2
:100320001946FFF7F0FF204610BD2DE9FE4F80462D
:1003300081EA0300C00F0C46009021F0004123F039
:100340000045B8EB0200A94105D24046214690463F
:100350001C460B46024623F00040104347D0270DB1
:10036000C7F30A00C3F30A510290401A01904028D3
:100370006BDAC3F3130040F4801B0098924620B15F
:100380000023D2EB030A63EB0B0B01985946C0F133
:100390004002504600F0C6F906460D465046594602
:1003A000019A00F0DEF910EB08006141002487EAB1
:1003B000115284EAE7731A4340D0009A62B3019A5B
:1003C000012A4FEA075215DC001B61EB02014FF0D6
:1003D000004202EA0752CDE90042001C41F58011BB
:1003E00032462B4600F015FA03B0BDE8F08F4046C8
:1003F0002146F9E7001B61EB0201001C41F5801367
:1004000000185B412018A2F5001747EB030140EAF2
:10041000D570B6196D4111E06D084FEA360645EA10
:10042000C0754FEA0752001B61EB0201001C41F549
:10043000801149084FEA30000019514132462B46DD
:1004400003B0BDE8F04F00F0D5B90098012240009C
:100450000023D0EB020263EBE073009821464FEAE1
:10046000E074B8EB000061EB0401E9E783F00043BE
:100470005BE781F0004158E72DE9FE4F81EA030474
:1004800004F0004421F0004100944FF0000B23F0F1
:10049000004350EA01045ED052EA03045BD0C3F388
:1004A0000A54C1F30A552C44A4F2F3340194A0FB7E
:1004B0000254C1F3130141F48011C3F3130343F455
:1004C000801301FB024400FB034E840A970A44EAAE
:1004D000815447EA8357A4FB076802958D0A05FB00
:1004E00007854FEA932C04FB0C542705029D4FEA25
:1004F000065847EA1637B5EB08056EEB070C870E72
:10050000920E47EA811742EA8312A7FB0201B6EB7B
:100510000B0164EB00042B0D43EA0C335E1844EB33
:100520001C50DA465146E7FB0201C5F313044FEABB
:100530000B3343EA14534FEA0432019C43EA0603A7
:10054000A4F10C040294009CCDE900B400F061F920
:1005500003B0BDE8F08F00200146F9E72DE9F04D2A
:1005600081EA030404F0004B21F0004514464FF0EB
:10057000000A23F0004150EA050220D054EA0102AB
:100580001DD0C5F30A570246C5F31303C1F3130088
:10059000C1F30A5640F4801543F48013A7EB060814
:1005A000101BD64608F2FD3873EB050002D308F1A4
:1005B000010801E092185B41B8F1000F03DA002056
:1005C0000146BDE8F08D00204FF4801106468446B8
:1005D0000EE0171B73EB050705D3121B63EB050336
:1005E00006434CEA010C49084FEA300092185B417F
:1005F00050EA0107EDD152EA030012D082EA04006A
:1006000083EA0501084305D0101BAB4106D2012245
:10061000002306E000224FF0004302E06FF00102E9
:1006200053101AEB06004CEB085110EB0A0041EB9B
:100630000B01BDE8F04D00F0DDB80EB5C10F80EA4A
:10064000E0700844CA07002140F233438DE80E00F1
:100650000A460B4600F0DDF803B000BD70B5C1F3EB
:100660000A5201F000450024C1F3130140F2FF33A8
:1006700041F480119A4201DA002070BD40F2334308
:100680009A42A2F2334203DC524200F05AF800E0F0
:1006900090402C43F1D0404270BD00F0004230F059
:1006A00000400AD0C10D01F56071C0F3160042EAA6
:1006B0000151C208400711437047002001467047AE
:1006C00001F0004330B421F0004150EA010206D0AD
:1006D0000A0DA2F56072C1F31301002A02DC30BCDE
:1006E00000207047440F44EAC104C100E01830BC48
:1006F00000EBC25000F047B830B50B460146002071
:100700002022012409E021FA02F59D4205D303FAD3
:1007100002F5491B04FA02F52844151EA2F1010254
:10072000F1DC30BD202A04DB203A00FA02F100207F
:1007300070479140C2F1200320FA03F3194390401F
:100740007047202A04DB203A21FA02F0002170478A
:1007500021FA02F3D040C2F1200291400843194629
:100760007047202A06DBCB17203A41FA02F043EA11
:10077000E07306E041FA02F3D040C2F1200291405A
:100780000843194670470029A8BF7047401C49001C
:1007900008BF20F00100704710B4B0FA80FC00FAE6
:1007A0000CF050EA010404BF10BC704749B1CCF111
:1007B000200421FA04F411FA0CF118BF012121439D
:1007C0000843A3EB0C01CB1D4FEA00614FEA102058
:1007D00042BF002010BC704700EBC35010440029FA
:1007E000A4BF10BC7047401C490008BF20F00100A6
:1007F00010BC704710B5141E73F1000408DA401CD9
:1008000041F1000192185B411A4301D120F001002F
:1008100010BD2DE9F04D92469B4611B1B1FA81F21F
:1008200002E0B0FA80F220329046FFF77BFF0446E8
:100830000F4640EA0A0041EA0B0153465A46084374
:1008400013D0114653EA010019D0C8F140025046B6
:10085000FFF777FF05460E46504659464246FFF7DA
:1008600061FF084305D0012004E020463946BDE879
:10087000F08D0020054346EAE0762C4337430A9882
:100880006305E40AA0EB08000022FD0A44EA47548D
:100890000A3002D500200146E9E701051019694137
:1008A000DDE9084500196941BDE8F04DA2E7C1F353
:1008B0000A52C1F3130140F2FF3341F480119A420E
:1008C00002DA00200146704740F233439A42A2F216
:1008D000334202DC5242FFF734BFFFF723BF000070
:1008E00030B5041E71F1000404DB4FF000444042B7
:1008F00064EB0101141E73F1000405DB1C464FF08C
:100900000043524263EB0403994208BF904230BD5A
:10091000064C074D06E0E06840F0010394E807004C
:1009200098471034AC42F6D3FFF732FC186E00083B
:10093000386E00082DE9F04D00231A461B1A8A4133
:1009400003DB00200146BDE8F08DC1F30A52C1F37C
:10095000130141F480154FF0000BD10702D10018AC
:100960006D41521E0027044640F2FF11384601EB4C
:10097000620A3E468046024600204FF48011FFF78F
:10098000E0FEC2197141BB1846EB0100B4EB030C49
:1009900075EB000C04D3E41A65EB000517460E4610
:1009A000241908F101006D4180463428E3DDF9196E
:1009B00046EB0600091BA84103D24FF0FF32134655
:1009C00001E0002213461BEB070046EB0A51BDE88D
:1009D000F04DFFF70FBF70B58C1810F8015B15F0E4
:1009E000070301D110F8013B2A1106D110F8012BA1
:1009F00003E010F8016B01F8016B5B1EF9D12B07C6
:100A000005D40023521E0DD401F8013BFAE710F87B
:100A1000013BCB1A921C03E013F8015B01F8015B68
:100A2000521EF9D5A142D8D3002070BD2DE9F04F58
:100A300085B05D4F0026CDE901765C480090042525
:100A4000DFF86C81CDE903758023404642464021A2
:100A500001F0F0FD574CA06010B957A002F0D4FE91
:100A60000821CDE901710C20CDE9037058484FF4FD
:100A7000007A474600904FF4807B534640463A4602
:100A8000594601F0D7FDE06010B952A002F0BCFE5B
:100A90005648CDE90106CDE9030555480090554873
:100AA00040230246202101F0C5FD206110B952A06B
:100AB00002F0AAFE5648CDE90106CDE90305DFF8AC
:100AC000588154484FF4004900904B4640464246F6
:100AD0004FF4804101F0AEFD606110B94FA002F00B
:100AE00093FE00221146A06801F0D5FD00221146B8
:100AF000E06801F0D0FD00221146206901F0CBFD35
:100B000000221146606901F0C6FD4A4800F0F2FD7E
:100B1000484800684662484E01200090082330464D
:100B20003246042102F024F8A06110B943A002F07B
:100B30006BFE0220C302009038463A46591002F07C
:100B400017F8E06110B942A002F05EFE03200090A9
:100B5000102342464946304602F00AF8206210B996
:100B600040A002F051FE44485346024659460095C3
:100B700001F0FEFF606210B940A002F045FE0620C1
:100B800005F026F8A06201220A49414801F0F8F96F
:100B900008490122491C3F4801F0F2F901F028FD03
:100BA000606005B0BDE8F08F7402002034010020C1
:100BB00000080240C00000204572726F723A206D3A
:100BC0006F746F724C46204E554C4C0A000000006A
:100BD000B40100204572726F723A206D6F746F72AB
:100BE0004C42204E554C4C0A00000000B40200203C
:100BF00074010020001002404572726F723A206D3D
:100C00006F746F725246204E554C4C0A0000000023
:100C1000F4020020F4010020000402404572726FCB
:100C2000723A206D6F746F725242204E554C4C0ACE
:100C30000000000034020020001802404572726F6C
:100C4000723A20736F6E617246204E554C4C0A000A
:100C50004572726F723A20736F6E617242204E5508
:100C60004C4C0A004572726F723A20736F6E61725B
:100C70004C204E554C4C0A00001402404572726FD5
:100C8000723A20736F6E617252204E554C4C0A00BE
:100C900074030020B4030020FEE770474FF4805037
:100CA00000F05CB8082000F059B84FF4007000F074
:100CB00055B890F83510022903D0802141650120F4
:100CC0007047052180F835100068016821F00101A6
:100CD000016000207047000070B5044600F02CF958
:100CE0000546601C02D004480078044400F024F952
:100CF000401BA042FAD370BD3800002070B5124DE1
:100D00000026124C2A68518981420ED0104D2A6863
:100D10005189814209D00F4D2A685189814204D0FE
:100D20000D4D2A685189814209D1506800F0FAF8C6
:100D30000128206804D0416A28680182067370BDCA
:100D4000406A2968C88170BDE0000020340200209C
:100D5000E4000020D8000020DC000020044910B589
:100D60000A68024202D00860FFF7C8FF10BD000009
:100D7000143C01402DE9F84FDFF87CB100224FF020
:100D800001084FF0030A4FF00F090BF1040E00BFEA
:100D90000B6808FA02F42340A3426ED14D68022D7D
:100DA00001D0122D0ED1D50800EB850CDCF82050B7
:100DB0005607F70E09FA07F6B5430E69BE402E43F3
:100DC000CCF82060066855000F790AFA05FC07F098
:100DD000030726EA0C06AF40374307604E68012E32
:100DE00005D0022E03D0112E01D0122E0ED186680E
:100DF000CF6826EA0C06AF40374387604668A643B3
:100E00000C79C4F30014944034434460C6688C6881
:100E100026EA0C06AC403443C4604C68E40065D557
:100E2000364C256845F480452560246822F003058A
:100E300004F480440094324C2E19D6F808489507E3
:100E40002F0F09FA07F5AC432E4DA84201D100251A
:100E500024E02D4DA84201D101251FE02B4DA842D1
:100E600001D102251AE02A4DA84201D1032515E03F
:100E7000284DA84202D1042510E037E0264DA842B3
:100E800001D105250AE0254DA84201D1062505E03E
:100E9000234DA84201D1072500E00825BD40254388
:100EA000C6F80858DBF800405D464E689C43F603E0
:100EB00000D51C432C60DEF8004075464E689C430C
:100EC000B60300D51C432C600B4D08352C684E68CA
:100ED0009C43F60200D51C432C60074D0C352C6852
:100EE0004E689C43B60200D51C432C60521C102A4D
:100EF000FFF44EAFBDE8F88F003C0140443802409B
:100F0000003001400000024000040240000802409E
:100F1000000C024000100240001402400018024081
:100F2000001C02400069084000D0012070470AB14F
:100F3000816170470904FBE7014880687047000041
:100F400038000020024881680278114481607047AF
:100F5000380000200B4810B5016841F400710160B1
:100F6000016841F480610160016841F480710160B1
:100F7000032000F08DF8002000F006F800F03EF8A5
:100F8000002010BD003C024010B5014688B0002290
:100F90002C2000F05DF82C2000F04CF813480024C1
:100FA000016841F080010160006805A900F080003F
:100FB0000690684600F016F900F034F90C4940003C
:100FC000B0FBF1F10C480B4A491E026040F2E732D7
:100FD000C0E90324C0E9011400F051FB10B1012065
:100FE00008B010BD044800F097FBF9E74038024014
:100FF00040420F00001C0040F40300200C4882B067
:10100000016841F480410160006800F48040009074
:101010000748001F016841F080510160006800220C
:1010200000F0805000900F21901E02B000F010B828
:1010300044380240002809DB00F01F0201219140E2
:101040004009800000F1E020C0F800117047000066
:10105000F0B40E4B1B680C46C3F30223C3F1070523
:10106000042D00D90425191D072901D2002300E011
:10107000DB1E012606FA05F1491E214099409E40DB
:10108000761E16403143F0BC02F0E6BB0CED00E0EA
:10109000064900F0070208684FF6FF03184040EACF
:1010A0000220034A10430860704700000CED00E086
:1010B0000000FA052DE9F0470E46050065D0DFF87F
:1010C0001481D8F80000F7B200F00F00B04207D248
:1010D00088F80070D8F8000000F00F00B04254D13A
:1010E00028683D4C810712D5400703D5206840F49D
:1010F000E05020602878000703D5206840F4604065
:1011000020602068A96820F0F0000843206028785B
:10111000C0072DD0304968680839012812D002284C
:1011200013D0032811D00968890700292DDA216816
:1011300021F0030101432160FFF7FEFE814641F2E9
:10114000883A0EE009688903EFE709688901ECE74E
:10115000FFF7F2FEA0EB0901514502D90320BDE8DB
:10116000F0872068696800F00C00B0EB810FEFD1C8
:10117000D8F80010404601F00F01B14207D90770BE
:10118000006800F00F00B04201D00120E7E72878A6
:10119000400705D52068E96820F4E0500843206046
:1011A0002878000706D52068296920F4604040EAC5
:1011B000C100206000F056F82168084AC1F303110D
:1011C000515CC840064908600020FFF7DDFE0020A2
:1011D000C5E70000003C024008380240546C00089B
:1011E000440000200F2202600C4A136803F003033E
:1011F0004360136803F0F0038360136803F4E05363
:10120000C36012684FF4E05303EAD202026104485B
:10121000006800F00F0008607047000008380240C6
:10122000003C02400448054900680968044AC1F3CB
:101230008221515CC84070474400002008380240B9
:10124000646C00080448054900680968044AC1F351
:101250004231515CC84070474400002008380240C9
:10126000646C0008154810B5006810F00C021448B2
:1012700013D01449042A0FD0082A0ED10F4C241F72
:101280002268236802F03F025B0207D52068C0F3A2
:101290008810A0FB010106E0084610BD2168C1F3DB
:1012A0008811A1FB00010023FEF7EAFF2168C1F3CA
:1012B0000141491C4900B0FBF1F010BD0838024063
:1012C0000024F40040787D012DE9F84F050076D028
:1012D0002878DFF8F8B2BE4CC00749D0DBF8001020
:1012E0005846C1F38101012908D00068C0F381008C
:1012F00002280AD1201D0068400206D5206880031C
:1013000036D568680028E2D032E06868B0F5803FE2
:1013100010D0B0F5A02F206810D020F480302060CD
:10132000206820F4802020606868A0B1FFF704FEE8
:1013300006460CE0206840F48030F4E740F480205A
:101340002060F7E7FFF7F8FD801B642873D820685A
:101350008003F7D50CE0FFF7EFFD064605E000BF80
:10136000FFF7EAFD801B6428F0D820688003F7D4DB
:101370002878DFF8608280074FF000093ED5DBF85F
:101380000010584611F00C0F09D00068C0F381001E
:1013900002280BD18D48001F0068400206D4206847
:1013A000800715D5E868012809D111E0E868B8B1CF
:1013B0000120C8F80000FFF7BFFD064605E002E186
:1013C000FFF7BAFD801B0228C0D820688007F7D538
:1013D0002068296920F0F80040EAC10020600DE093
:1013E000C8F80090FFF7A8FD064604E0FFF7A4FD4B
:1013F000801B02281FD820688007F7D428780007B0
:1014000022D5724E744869696C3671B10121016050
:10141000FFF792FD074604E0FFF78EFDC01B022890
:1014200009D830688007F7D50EE0C0F80090FFF7C4
:1014300083FD074605E083E0FFF77EFDC01B022821
:101440007ED830688007F7D42878400768D5DFF861
:101450007CA100270AF1380ADAF80000C0000BD49A
:10146000DAF8001041F08051CAF80010DAF80000F4
:10147000012700F080500090584E3068C00510D40D
:10148000306840F480703060FFF756FD009005E052
:10149000FFF752FD0099401A022851D83068C00564
:1014A000F6D54A4EA868683601280FD0052830685E
:1014B00010D020F001003060306820F0040030606F
:1014C000A868B8B1FFF738FD00900FE0306840F031
:1014D0000100F4E740F004003060F7E7FFF72CFD6F
:1014E0000099411A41F28830814264D830688007FF
:1014F000F4D50EE0FFF720FD009007E0FFF71CFD9C
:101500000099411A41F28830814254D830688007EE
:10151000F4D42FB1DAF8001021F08051CAF800108D
:10152000A869C0B3DBF80010C1F3810102294AD0D9
:101530000228484607D0C8F86000FFF7FDFC00E02D
:1015400039E005463AE04746C8F86000FFF7F4FC8A
:10155000064604E0FFF7F0FC801B02282BD8206829
:101560008001F7D4D5E907010843A96A1C4A490854
:1015700002EB01416A6A41EA8211084395F82C1096
:1015800040EA01611148001F016001203866FFF741
:10159000D3FC054605E014E0FFF7CEFC401B022813
:1015A00009D820688001F7D50BE000BFFFF7C4FC25
:1015B000401B022802D90320BDE8F88F2068800173
:1015C000F4D40020F8E70120F6E7000008380240D4
:1015D0000038024000004742800E47420070004041
:1015E0000000FFFF7047704710B590F83C20012ABB
:1015F00022D0012280F83C20CA688C6822F4407214
:1016000022434C6822F4806222430C6822F4006278
:1016100022430C6922F4805222434C6922F4005286
:101620002243C969002322F480420A4301684A64C4
:1016300080F83C30002010BD022010BD70B590F83D
:101640003C20012A19D0012400F83C4F02224270AC
:1016500050F83C3C5A689D6822F070060A68496858
:10166000324325F0800529435A6050F83C2C9160A4
:10167000447000210170084670BD022070BD10B595
:10168000040003D094F83D0010B107E0012010BD24
:10169000002084F83C00204600F00CF8022084F87A
:1016A0003D00211D206801F083FD012084F83D00EC
:1016B000002010BD08B50C4A01680C48914207D1C2
:1016C000016841F010010160006800F0100009E0BD
:1016D000074A914207D1016841F4807101600068B6
:1016E00000F48070009008BD0010004040380240B7
:1016F00000200040022180F83D1001688A6802F055
:101700000702062A03D00A6842F001020A6001219A
:1017100080F83D10002070470168CA6842F001025D
:10172000CA600068816801F00701062903D00168DA
:1017300041F00101016000207047022180F83D1056
:1017400001680A6A41F211131A4207D10A6A9B1012
:101750001A4203D10A6822F001020A60012180F8CE
:101760003D10002070472DE9F0410D46040003D0E4
:1017700094F83D0018B108E00120BDE8F081002098
:1017800084F83C00204600F03BF8022084F83D003D
:101790002068816844F2070291438160211D20681E
:1017A00001F006FD226890689169166A2B68AF699E
:1017B000034340F20330814341EA0721A868EF69FF
:1017C00008434FF6FC418843E96840EA072001439B
:1017D00028692F6A000140EA0730084369686D698B
:1017E00026F0AA0646EA051529439360226890610F
:1017F00020680162012084F83D000020BDE7000060
:1018000070B586B0044614216846FEF783FD3D4856
:10181000256800223C4902240126854219D13A4814
:101820001430036843F001030360006800F0010016
:101830000590086840F0100008600868694600F0EC
:10184000100005904FF420600090CDE901422F4830
:1018500033E02D4B2E481033B5F1804F18D02D4E6C
:10186000B54231D11D6845F002051D601B6803F0CB
:10187000020305930B6843F001030B60096801F054
:1018800001010591C0210091CDE90142694635E091
:101890001D6845F001051D601B6803F001030593F9
:1018A0000B6843F001030B60096801F00101059129
:1018B00022210091CDE901426946CDE9032600BF0E
:1018C000FFF758FA06B070BD13488542FAD1186880
:1018D00040F004001860186800F0040005900868E3
:1018E00040F0080008600868694600F008000590AC
:1018F0004FF440500090CDE901420848CDE903245F
:10190000DEE70000000001403038024000100240D5
:10191000000002400004004000080040000C0240AB
:1019200010B50446006891B1042904D001220021B9
:1019300001F0A2FC206801225FF0040101F09CFC90
:101940002068016841F001010160002010BD012202
:101950000021F3E7704770B50446006801694FF055
:101960000005C943890715D4C168C943890711D443
:10197000E91E0161012020772068806980072046E8
:1019800002D0FFF7E7FF04E000F0F4F8204600F093
:10199000AFF9257720680169C943490717D4C168A1
:1019A000C943490713D46FF0040101610220207775
:1019B0002068806910F4407F204602D0FFF7CAFFFC
:1019C00004E000F0D7F8204600F092F9257720686F
:1019D0000169C943090716D4C168C943090712D46C
:1019E0006FF008010161042020772068C06980073A
:1019F000204602D0FFF7AEFF04E000F0BBF820461F
:101A000000F076F9257720680169C943C90617D423
:101A1000C168C943C90613D46FF0100101610820E1
:101A200020772068C06910F4407F204602D0FFF77D
:101A300091FF04E000F09EF8204600F059F9257768
:101A400020680169C943C90708D1C168C943C907EA
:101A500004D1891E0161204600F06EF920680169F9
:101A6000C943090609D4C168C943090605D46FF002
:101A7000800101612046FFF7B5FD20680169C94377
:101A8000490609D4C168C943490605D46FF040012D
:101A90000161204600F05AF920680169C9438906AE
:101AA0000BD4C168C943890607D46FF020010161D6
:101AB0002046BDE87040FFF796BD70BD30B587B0D9
:101AC000044614216846FEF725FC234D23680020B8
:101AD000224902220324AB4211D10B6843F00403D4
:101AE0000B60096801F0040105914FF470710091D9
:101AF000CDE90120CDE903046946194812E0194DEA
:101B0000AB4213D10B6843F010030B60096801F07E
:101B10001001059160210091CDE90120CDE9030478
:101B200069461148FFF726F907B030BD0F4CA342B4
:101B3000FAD10B6843F002030B60096801F002015F
:101B40000591E1000091CDE9012003900920049066
:101B500069460748E6E700000004014030380240CB
:101B60000008024000400140001002400018004000
:101B700000040240704770B5044690F83C000D46E2
:101B800001280DD0012684F83C60022084F83D0035
:101B900042B1042A18D0082A2AD00C2A4DD139E0A3
:101BA000022070BD206801F075FB2068816941F05A
:101BB000080181612068816921F004018161206848
:101BC00081692A69114311E0206801F093FB2068C4
:101BD000816941F4006181612068816921F480613B
:101BE0008161206881692A6941EA0221816124E0DA
:101BF000206801F0B5FB2068C16941F00801C161AE
:101C00002068C16921F00401C1612068C1692A69A5
:101C1000114311E0206801F0D7FB2068C16941F44D
:101C20000061C1612068C16921F48061C1612068DF
:101C3000C1692A6941EA0221C16184F83D6000203E
:101C400084F83C0070BD10B5040003D094F83D004A
:101C500010B107E0012010BD002084F83C002046B0
:101C600000F00CF8022084F83D00211D206801F0EE
:101C70009FFA012084F83D00002010BD08B5184AE5
:101C800001681848914211D1016841F002010160D8
:101C90000068002200F00200009011462C20FFF79F
:101CA000D7F9BDE808402C20FFF7C4B90E4A91428D
:101CB00007D1016841F480310160006800F4803090
:101CC0000BE00A48814209D10648001F016841F033
:101CD00040010160006800F04000009008BD000075
:101CE0000004014044380240004001400018004018
:101CF0007047000010B504460068012201F0BCFAEC
:101D00000B492068884202D00A49884203D1416CBD
:101D100041F4004141642068816801F0070106290F
:101D200003D0016841F001010160002010BD0000F6
:101D3000000001400004014000680349884201D1CD
:101D4000FFF700B970470000001C00407047704763
:101D500070B5026804461068D168536910F00F0F1F
:101D600051D003F0010501F4907635435DD0C207F0
:101D700005D0CA0503D5E26B42F00102E2634207D7
:101D800005D5DA0703D0E26B42F00202E263820774
:101D900005D5DA0703D0E26B42F00402E2630207E2
:101DA00005D5DA0703D0E26B42F00802E263E26B8A
:101DB000002A34D0800604D5880602D5204601F0DA
:101DC00041FB20684069E16BC0F3801001F008011D
:101DD0000143204624D001F027FB206841694906D1
:101DE0001AD5416921F040014161606BA0B11B49E6
:101DF0000165606BFEF75DFF002810D0606B016D20
:101E0000BDE87040084783060FD58B060DD52046E8
:101E1000BDE8704001F016BB2046FFF798FF70BD8B
:101E2000FFF795FF0020E06370BD030606D50B06A3
:101E300004D52046BDE8704001F0A6BC4006F3D5AD
:101E40004806F1D5D168204621F04001D16020211B
:101E500084F8391000F0CEF870BD00001934000885
:101E600070B5040004D094F83900002510B106E0E4
:101E7000012070BD84F83850204600F023F824205B
:101E800084F839002068C16821F40051C1602046FF
:101E900001F024FB2068016921F490410161206870
:101EA000416921F02A0141612068C16841F4005173
:101EB000C160E563202084F8390084F83A000020EE
:101EC00070BD0000F0B587B0044614216846FEF7E7
:101ED00021FA274F226827490223012403250726D8
:101EE0002548BA421ED1234A1432176847F010071A
:101EF0001760126802F0100205920A6842F00102AF
:101F00000A60096801F00101059169028DE87A0013
:101F10006946FEF72FFF002205212520FFF798F8DC
:101F2000252020E0154FBA421FD1124A10321768FF
:101F300047F400371760126802F4003205920A680D
:101F400042F001020A60096801F0010105910C21CB
:101F50008DE87A006946FEF70DFF00220521262054
:101F6000FFF776F82620FFF765F807B0F0BD000010
:101F700000100140303802400000024000440040A0
:101F800090F83A30202B22D1F9B1F2B190F83830E4
:101F9000012B1CD081628285C2850021C16322226F
:101FA00080F83A2080F838100168CA6842F48072DC
:101FB000CA6001684A6942F001024A610068C1686A
:101FC00041F02001C16000207047012070470220CD
:101FD00070470000054810B5007800F057FDBDE8D7
:101FE0001040012201490248FFF7CABFC00000208B
:101FF000740300207047FEE77CB514460D46064684
:102000006B4606223B21682000F05AF800280BD1CD
:10201000BDF8001049BA3180BDF8021049BA2980D4
:10202000BDF8041049BA21807CBD7CB514460D462C
:1020300006466B4606224321682000F041F800283E
:102040000BD1BDF8001049BA3180BDF8021049BA71
:102050002980BDF8041049BA21807CBD08B56B46C3
:1020600002224121682000F02BF8BDF8000040BAA0
:1020700000B2FEF7E2FA9FED0D1B53EC112BFEF7B9
:102080006DFA9FED0C1B53EC112BFEF74EF9FEF78A
:1020900017FB00EE100ADFED090A20EE200ABDEE64
:1020A000C00A10EE100A00B208BD000000000000D7
:1020B00000407540A4703D0AD74342400000C8422A
:1020C0002DE9F0411D46144688460646002702F0D9
:1020D00065FE7006000E02F035FE02F08DFE4046F1
:1020E00002F030FE02F088FE02F058FE012000EB04
:1020F0004600C0B202F026FE02F07EFE09E0012C8E
:102100000ED002F0F9FD287002F0C8FD641EE4B2A2
:102110006D1C002CF3D102F05BFE3846BDE8F08167
:1021200002F0EAFD287002F0D1FDEFE72DE9F04161
:102130001F46154688460446002602F02FFE60061C
:10214000000E02F0FFFD02F0A9FD404602F0FAFD8C
:1021500002F052FE002405E0385D02F0F3FD02F0CB
:102160004BFE641CAC42F7DB02F032FE3046BDE8A9
:10217000F08100002DE9F04F87B014216846FEF78A
:10218000C9F85F480024016841F01001016001684E
:1021900001F010010591016841F020010160016822
:1021A00001F020010591016841F0800101600168A2
:1021B00001F080010591016841F0010101600168B1
:1021C00001F001010591016841F00201016001681F
:1021D00001F002010591016841F008010160016808
:1021E00001F008010591016841F0400101600168BA
:1021F00001F040010591016841F0040101600068AF
:10220000DFF800A100F004004FF480750590002273
:1022100029465046FEF78BFEDFF8ECB048F2040882
:10222000002241465846FEF782FE4FF40069002224
:1022300049463648FEF77BFE0122C0213448FEF7AE
:1022400076FE01270095CDE9017469465046039456
:10225000FEF790FD68002F4D02268DE8610069466B
:102260005046FEF787FDCDF80080CDE90174694640
:1022700058460394FEF77EFD08208DE8610069460C
:102280005846FEF777FDCDF80090CDE90174694618
:102290001E480394FEF76EFDF0028DE8610069466A
:1022A0001A48FEF767FD10208DE86100694618485E
:1022B000FEF760FDC02000901120CDE901046946C1
:1022C00013480394FEF756FD002205210920FEF76E
:1022D000BFFE0920FEF7AEFE002205211720FEF703
:1022E000B7FE1720FEF7A6FE002205212820FEF7E4
:1022F000AFFE2820FEF79EFE07B0BDE8F08F00007D
:102300003038024000140240001802400008024029
:10231000000402400000311010B588B01C2168464E
:10232000FDF7F8FF12481149002401600321C0E9BC
:1023300001144FF47A71C0E9031480218161FFF721
:1023400082FC6020CDE9000402940022694608481E
:102350000494FFF710FC042269460548FFF70BFCC4
:102360000348FFF7ABFB08B010BD000000180040A9
:10237000F402002010B58CB024216846FDF7CAFF96
:1023800000241348099411490A94C0E9001441F249
:102390008831C0E902410461446184610320CDE9D0
:1023A00000040120CDE902040494CDE9054007941E
:1023B000694607480894FFF7D6F9099409A9044823
:1023C0000A94FFF73BF90CB010BD0000000001407B
:1023D0003401002010B58CB024216846FDF79AFF27
:1023E0000024124809944FF080410A94C0E9001477
:1023F00041F28831C0E90241046184610320CDE9E2
:1024000000040120CDE902040494CDE905400794BD
:10241000694606480894FFF7A6F9099409A90348F4
:102420000A94FFF70BF90CB010BD000074010020F6
:1024300010B58CB024216846FDF76CFF00241248CB
:10244000099410490A94C0E9001441F28831C0E9A6
:102450000241046184610320CDE900040120CDE93B
:1024600002040494CDE9054007946946064808949F
:10247000FFF779F9099409A903480A94FFF7DEF8F0
:102480000CB010BD00040040B401002010B58CB0A9
:1024900024216846FDF73EFF0024124809941049A4
:1024A0000A94C0E9001441F28831C0E90241046194
:1024B00084610320CDE900040120CDE902040494E5
:1024C000CDE905400794694606480894FFF74BF9A3
:1024D000099409A903480A94FFF7B0F80CB010BD9D
:1024E00000080040F401002010B592B000240F94C1
:1024F0001C2168461094FDF70DFF202107A8FDF769
:1025000009FF2248204901600721C0E901144FF466
:102510007A71C0E903148021C0E90541FFF793FBFC
:102520000F940FA919481094FFF788F86020CDE99F
:10253000000402940394049405940022694613480D
:102540000694FFF718FB042269461048FFF713FBB7
:10255000082269460D48FFF70EFB0C2269460B481E
:10256000FFF709FB0794089409944FF400500A946C
:10257000CDE90B4007A905480E94FFF735F803484D
:10258000FFF79CFA12B010BD000401407402002055
:1025900010B588B01C216846FDF7BCFE12481149F1
:1025A000002401600721C0E901144FF47A71C0E9E9
:1025B000031480218161FFF746FB6020CDE9000410
:1025C00002940022694608480494FFF7D4FA0422D2
:1025D00069460548FFF7CFFA0348FFF76FFA08B0DE
:1025E00010BD000000400140B4020020FEE70000E2
:1025F00010B5342003F0ECFA00218181C181018201
:10260000418281829FED0A0AC18280ED000A80ED3D
:10261000010A80ED020A0183C161016280ED090AAD
:1026200080ED0A0A80ED0B0A80ED0C0A10BD000057
:10263000000000002DE9F05F82460BA81F4690E8DD
:102640006008904689463C2003F0C2FAC0F800A01A
:10265000A0F80490C0F80880878105618682C0F8E0
:1026600018B00E9A8283002280F8242002628262CF
:10267000C26204460A9A314628462263FFF73AFBB3
:10268000A18BA069FFF736FB3C21206BFFF748F9CF
:102690002046BDE8F09F826280F824100023B1B18B
:1026A000012932D0022911D1818AF1B3042959D0EC
:1026B00008290169096859D00A64818BD9B10429B4
:1026C0001DD08069082900681DD003647047818A85
:1026D00039B1042909D008290169096809D00B64B6
:1026E000EBE7016909684B63E7E7016909688B63F8
:1026F000E3E7CB63E1E78069006843637047806983
:10270000006883637047C3637047818A91B104296D
:1027100014D008290169096814D00B64818B99B120
:10272000042915D00829806900E017E0006813D05B
:1027300002647047016909684B63EFE70169096842
:102740008B63EBE7CB63E9E780690068426370471E
:102750008069006882637047C263704701690968D5
:102760004A63AAE7016909688A63A6E7CA63A4E71E
:102770008162C36A0022002B02DD4FF0010302E0F8
:1027800004DA4FF0020380F8243001E080F82420BE
:1027900090F82430B3B1012B32D0022B11D1838AAF
:1027A000F3B3042B59D0082B03691B6859D0196463
:1027B000818BD9B104291DD08069082900681DD0FA
:1027C00002647047818A39B1042909D00829016956
:1027D000096809D00A64EBE7016909684A63E7E719
:1027E000016909688A63E3E7CA63E1E78069006811
:1027F000426370478069006882637047C2637047B4
:10280000838A93B1042B14D0082B03691B6814D05E
:102810001A64828B9AB1042A15D0082A806900E0D4
:1028200017E0006813D00164704703691B685A639E
:10283000EFE703691B689A63EBE7DA63E9E780690E
:102840000068416370478069006881637047C163B5
:10285000704703691B685963AAE703691B6899639A
:10286000A6E7D963A4E7000010B50446006B006832
:10287000416A6163A06BA163081A2062B0F5FA6F28
:1028800003DDA0F59850883805E010F5FA6F03DCF9
:1028900041F288310844206200EE100AB8EEC00A06
:1028A000B0EEC00A10EE100AFDF7F7FE9FED0D1B0B
:1028B00053EC112BFDF7E0FD9FED0C1B53EC112B9E
:1028C000FDF74CFE9FED0B1B53EC112BFDF7D4FDD8
:1028D0009FED0A1B53EC112BFDF7CEFDFDF7BEFE5D
:1028E000206210BD00000000000059400000000000
:1028F00000107840000000000000D03F0000000001
:1029000000004E40704780ED010AC0ED020A70EEF3
:10291000600AD0ED071AC0ED081A90ED061AF5EE20
:10292000C00A80ED071AF1EE10FAC0ED060A02DDCA
:10293000B0EE600A0FE090ED0D2AB1EE600AB4EE41
:10294000C20AF1EE10FA01DD012100E0002100EEE3
:10295000101AB8EE400AB5EEC00AF1EE10FA02D134
:1029600090ED0C0A7047017811B1012927D040E0A1
:1029700090ED030A20EE200A80ED090A90ED0A0A84
:10298000D0ED041A01EEA00A80ED0A0AD0ED0E1A6D
:10299000B4EEE10AF1EE10FA01D3B0EE610A80ED77
:1029A0000A0AD0ED0F1AB4EEE10AF1EE10FA01DCDA
:1029B000B0EE610A80ED0A0A30EEC10A13E030EE93
:1029C000C10A90ED032A20EE020A80ED090A90ED7B
:1029D000040A20EE200A80ED0A0AB0EE000A41EE59
:1029E000400A30EEA10AD0ED050A20EE200A80ED63
:1029F0000B0A90ED090AD0ED0A0A30EE200AD0ED5C
:102A00000B0A30EE200A80ED0C0AD0ED0E0AB4EE6F
:102A1000E00AF1EE10FA01D3B0EE600A80ED0C0A84
:102A2000D0ED0F0AB4EEE00AF1EE10FA01DCB0EEE0
:102A3000600A80ED0C0A704710B504462DED068B38
:102A4000B0EE628AF0EE428AB0EE619AF0EE419A00
:102A5000B0EE60AAF0EE40AA402003F0B9F804708E
:102A6000C0ED03AA80ED04AA9FED070AC0ED059A08
:102A700080ED0A0A80ED0D9AC0ED0E8A80ED0F8A76
:102A8000BDEC068B10BD00000000000070B51B4CB3
:102A9000002521461A4E097863684A1CD2B233B128
:102AA000012B08D0022B10D0032B15D005E01D28D8
:102AB00003D1012305E0D12802D0656025700EE026
:102AC000022363607054227070BD70542270072A14
:102AD000FAD30320606070BDED2806D06560BDE8C4
:102AE000704080210648FDF715BC705422700448E0
:102AF00000F008F86560257070BD00002801002016
:102B00001889002010B5134C81782368FF2906D05E
:102B10003F2906D00F2906D0032905D005E0002162
:102B200002E0012100E00221197030F8031F49BAC8
:102B300009B25980408840BA02B29A8006A000F0DB
:102B400063FE2068B0F90210BDE8104007A000F055
:102B50005BBE0000E80000206478203D2025642C46
:102B60006479203D2025640A0000000025640A00E5
:102B70002DE9F04706461F4690460D461820DDF821
:102B8000209003F025F8C0F8048047810660058195
:102B900000220273C28102820446C0F814902946C2
:102BA0003046FEF7C4F92046BDE8F087017B0229D4
:102BB00003D039B19FED160A7047002101739FEDD4
:102BC000150A7047018AC0899FED130ADFED130AC9
:102BD000B6EE001A814206D9A1EB000001EE900A80
:102BE000F8EEE11A09E00FD24FF6FF72A2EB0000F7
:102BF000084401EE900AF8EE611A21EE800A20EEF8
:102C0000011A81EE200A70479FED050A7047000007
:102C10000080C9430080C8430000AA4300401C460E
:102C20000000CA4310B50446018900680022FEF77F
:102C30007EF90A2002F01AF8218901222068FEF7A5
:102C400076F9322002F012F8218900222068FEF77E
:102C50006EF90220207310BD2DED028B9FED068AC8
:102C6000064C00BF84ED008A84ED018A84ED038A5E
:102C70000A2002F063FBF5E70000000000000020DE
:102C8000012002F05BFBFBE78CB09FED2C0A0020DB
:102C90008DED040A8DED020A8DED050AADF81800E0
:102CA000ADF81C00ADF82000ADF80400ADF824002C
:102CB000ADF8280003F0A0F805AA02A904A802F0C4
:102CC00093F9A8BBFFF7CAF9044608AA07A906A802
:102CD000FFF792F90AAA09A901A8FFF7A6F918486F
:102CE000BDF8182001688A81BDF81C004042C881E7
:102CF000BDF8200040420882BDF804004882BDF8BB
:102D0000240040428882BDF828004042C8829DEDE0
:102D1000020A81ED010A9DED040AB1EE400A81ED3F
:102D2000000A9DED050AB1EE400A81ED020A0C830E
:102D300003F082F8052002F001FBBBE70000000071
:102D4000C4000020012002F0F9FAFBE7012002F0A4
:102D5000F5FAFBE7144C154D2068FFF763FF286870
:102D6000FFF760FF1E2002F0E9FA2068FFF71EFF60
:102D700010EE107A2868FFF719FF10EE106A384637
:102D8000FDF78BFC41EC100B09A053EC102B00F06D
:102D90003BFD3046FDF781FC41EC100B07A053ECE6
:102DA000102B00F031FDD7E7D8000020E000002014
:102DB0006469737446203D2025660A006469737453
:102DC0004C203D2025660A002DED048B86B09FED3A
:102DD000948AF0EE482ADFED938AF7EE001AB0EEFF
:102DE000682A9FED919AB0EE491ADFED909AB1EE04
:102DF000080A0020F0EE690AFFF71EFE0490F0EECC
:102E0000482AB0EE682AF7EE001AB0EE491AF0EE42
:102E1000690AB1EE080A0020FFF70EFE0390F0EEFB
:102E2000482AB0EE682AF7EE001AB0EE491AF0EE22
:102E3000690AB1EE080A0020FFF7FEFD0290F0EEED
:102E4000482AB0EE682AF7EE001AB0EE491AF0EE02
:102E5000690AB1EE080A0020FFF7EEFDFBEE082A32
:102E6000B3EE082AF0EE001AB6EE001AF0EE480AA9
:102E70009FED6F0A01900020FFF7DEFD9FED6D9A38
:102E8000DFED6D8A9FED6D8A6D4DDFF8B891DFF84B
:102E9000B8816E4CCDF8000002F0AEFF6C486D4E6C
:102EA000006896ED030AD0ED020A0098FFF72BFDAB
:102EB00086ED020A02F0C0FFD6ED002AD6ED010A27
:102EC000D6ED021A82EE890A2868474680EEA81AD3
:102ED000D6ED040A30EE412A96ED050A4E4601EE83
:102EE000E02A82EE003A23EE082ABDEEC22A80EDE7
:102EF0000B2A82EEA82AD9F8000071EE422A41EE90
:102F0000E02A82EE803A63EE082AFDEEE22AC0ED66
:102F10000B2A72EE412A32EE011AD8F8000041EE77
:102F2000E02A01EEE01A82EE803AC1EE000A63EE7A
:102F3000082AFDEEE22AC0ED0B2A206820EE880A5E
:102F4000BDEEC00A80ED0B0A02F056FF286890ED36
:102F5000080AC06AF8EEC00A002800DC404200EE11
:102F6000100A0498B8EEC00AFFF7CDFCBDEEC00A07
:102F70003068B14610EE10BA90ED080AC06AF8EE5B
:102F8000C00A002800DC404200EE100A0398B8EEA8
:102F9000C00AFFF7B8FCBDEEC00A3868B84610EEAC
:102FA00010AA90ED080AC06AF8EEC00A002800DCFA
:102FB000404200EE100A0298B8EEC00AFFF7A3FCE8
:102FC000BDEEC00A206810EE107A90ED080AC06AC3
:102FD000F8EEC00A002800DC404200EE100A01981A
:102FE000B8EEC00AFFF78FFCBDEEC00A10EE106A03
:102FF00002F022FF59462868FFF7BAFB5146D9F87C
:103000000000FFF7B5FB3946D8F80000FFF7B0FB2A
:1030100031462068FFF7ACFB0A2002F08FF93BE74E
:103020000000000000007A44CDCC4C3E9A99993FB4
:103030000AD7A33DF4FDB4BFF4FDB43FD4C9184191
:10304000C8000020CC000020D0000020D4000020C8
:10305000C400002000000020094C0A4D0A4E0B4F0E
:103060002068FFF701FC2868FFF7FEFB3068FFF7D8
:10307000FBFB3868FFF7F8FB0A2002F05FF9EFE787
:10308000C8000020CC000020D0000020D400002088
:1030900010B5502080F31188BFF34F8FBFF36F8FAF
:1030A00003F0A6FB18B104494FF0805008600020DF
:1030B00080F3118810BD000004ED00E030B593B03E
:1030C00030216846FDF726F914210CA8FDF722F9F6
:1030D00019480025016841F080510160006800F046
:1030E000805011901548016841F4804101600068EA
:1030F000022400F4804011900120039010200490DD
:10310000009406940820CDE90750A820CDE90904D1
:1031100004200B906846FEF7D7F80CA90F2081E831
:1031200031004FF4A0500F90E002109005210CA840
:10313000FDF7C0FF13B030BD4038024000700040C2
:103140001048016841F4700101600F48016841F0C6
:10315000010101600C4A00210832116002680B4B2A
:103160001A400260031D0A4A1A60026822F4802293
:10317000026005480C300160024958068039086039
:103180007047000088ED00E000380240FFFFF6FEC7
:103190001030002410B50448FEF7DDFBBDE81040F8
:1031A0000248FEF7D8BB000074020020F4030020A0
:1031B000F0B50268254C264D264E274F274B4FF081
:1031C000804CA04209D0604507D0A84205D0B0424B
:1031D00003D0B84201D0984204D122F0700E4A6860
:1031E00042EA0E02A0421BD0604519D0A84217D077
:1031F000B04215D0B84213D0984211D0184DA84211
:103200000ED0184DA8420BD0174DA84208D0174D2C
:10321000A84205D0164DA84202D0164DA84203D1AF
:1032200022F44075CA682A434D6922F080022A437D
:1032300002608A68C2620A688262A04201D0984233
:1032400001D10969016301214161F0BD0000014024
:103250000004004000080040000C00400004014051
:103260000040014000440140004801400018004077
:10327000001C00400020004010B501F01F03012198
:10328000046A99408C430462016A9A4011430162C6
:1032900010BD0000F0B5026A22F001020262036A6A
:1032A00042688469124E24F073050C682C4323F0A5
:1032B00002058B682B430D4DA84201D0B04205D1C9
:1032C00023F00807CB683B4323F00403A84201D056
:1032D000B04205D14D6922F4407215438A692A43F0
:1032E00042608461496841630362F0BD00000140AF
:1032F00000040140F0B5026A22F010020262026A84
:10330000436884690D6824F4E64444EA05248D6822
:1033100022F0200242EA05120F4D104EA84201D0C1
:10332000B04206D1CF6822F0800242EA071222F0B2
:103330004002A84201D0B04207D14D6923F4406356
:1033400043EA85038D6943EA8503436084614968E4
:1033500081630262F0BD00000000014000040140F2
:10336000F0B5026A22F480720262026A4368C4699C
:1033700022F4007224F073050C68124E2C438D6801
:1033800042EA05220E4DA84201D0B04206D1CF68D4
:1033900022F4006242EA072222F48062A84201D0AD
:1033A000B04207D14D6923F4405343EA05138D69B8
:1033B00043EA05134360C4614968C1630262F0BD1A
:1033C000000001400004014030B5026A22F480523E
:1033D0000262046A4268C3690D6823F4E64343EA63
:1033E00005238D6824F4005444EA0534084DA842AE
:1033F00002D0084DA84204D14D6922F4804242EA2D
:1034000085124260C36149680164046230BD0000F6
:10341000000001400004014010B5806B0021C1850F
:10342000C184FEF794FC10BD0168CA6822F4907252
:10343000CA6001684A6922F001024A61202180F8CD
:103440003A10704710B590F83A10222901D00220A6
:1034500010BD8168B1F5805F11D001690029016854
:103460001FD0496801F07F03816A4A1C82620B7099
:10347000C18D491E0904090CC18518D02BE00269D1
:10348000816A002A0268526805D0D2B20A80816A35
:10349000491C8162ECE7C2F308020A80816A891C38
:1034A000F7E74A68816A4B1C83620A70E0E70168AB
:1034B000CA6822F02002CA600168CA6822F48072D9
:1034C000CA6001684A6922F001024A61202180F83D
:1034D0003A10FEF77FFD002010BD00002DE9F041FD
:1034E000044600680169E26821F44051114301611A
:1034F0002169A068E26908436169114322680843B1
:10350000D16849F20C6399430143D1602068416955
:10351000A26921F4407111434161E2696425B2F569
:10352000004F9748974922684FF032083FD08A42AF
:1035300001D082427CD1FDF785FE00EBC00101EB9A
:10354000001061688900B0FBF1F6FDF77BFE00EB2F
:10355000C00101EB001061688900B0FBF1F0B0FB25
:10356000F5F06FF01801484306EB800108EB0110FD
:10357000B0FBF5F000F0F006FDF764FE00EBC001D3
:1035800001EB001061688900B0FBF1F0B0FBF5F0D1
:1035900006EB0016FDF756FE00EBC00101EB001034
:1035A00061688900B0FBF1F7FDF74CFED2E08A427A
:1035B00001D082423DD1FDF745FE00EBC00101EB99
:1035C000001061684900B0FBF1F0B0FBF5F00601B6
:1035D000FDF738FE00EBC00101EB00106168490007
:1035E000B0FBF1F7FDF72EFE00EBC00101EB001080
:1035F00061684900B0FBF1F0B0FBF5F06FF0180125
:10360000484307EB800108EBC100B0FBF5F000F088
:10361000F80006EB4006FDF715FE00EBC00101EBDC
:10362000001061684900B0FBF1F7FDF70BFE3CE0CC
:1036300055E0FDF7F7FD00EBC00101EB00106168FC
:103640004900B0FBF1F0B0FBF5F00601FDF7EAFD33
:1036500000EBC00101EB001061684900B0FBF1F71D
:10366000FDF7E0FD00EBC00101EB001061684900CF
:10367000B0FBF1F0B0FBF5F06FF01801484307EB39
:10368000800108EBC100B0FBF5F000F0F80006EB9C
:103690004006FDF7C7FD00EBC00101EB00106168BB
:1036A0004900B0FBF1F7FDF7BDFD00EBC00101EBF8
:1036B000001061684900B0FBF1F0B0FBF5F06FF06D
:1036C0001801484307EB800108EBC100B0FBF5F09F
:1036D00000F00700216830448860BDE8F081FDF704
:1036E000A1FD00EBC00101EB001061688900B0FB97
:1036F000F1F6FDF797FD00EBC00101EB00106168EA
:103700008900B0FBF1F0B0FBF5F06FF01801484311
:1037100006EB800108EB0110B0FBF5F000F0F006BD
:10372000FDF780FD00EBC00101EB0010616889002E
:10373000B0FBF1F0B0FBF5F006EB0016FDF772FD03
:1037400000EBC00101EB001061688900B0FBF1F7EC
:10375000FDF768FD00EBC00101EB00106168890016
:10376000B0FBF1F0B0FBF5F06FF01801484307EB48
:10377000800108EB0110B0FBF5F000F00F00A9E7A5
:10378000001401400010014090F83910212901D0A7
:10379000022070478168B1F5805F016A0BD04A1C36
:1037A0000262026809785160C18C491E0904090C43
:1037B000C1840ED017E009880268C1F30801516086
:1037C00001690029016A02D0491C0162ECE7891CE9
:1037D000FBE70168CA6822F08002CA600068C1681D
:1037E00041F04001C1600020704700000148FEF731
:1037F000AFBA0000740300200148FEF7A9BA000028
:10380000B4030020FEE700000FB4054B10B503A978
:10381000044A029800F0CCFD10BC5DF814FB0000D7
:10382000514C0008EC00002003B4019841000098BE
:1038300050EAC12018BF04204A0D18BF40F0010013
:1038400040F2FF72B2EB515F08BF40F00200012866
:1038500008BF052002B070470907090E002804DBE5
:1038600000F1E02080F80014704700F00F0000F134
:10387000E02080F8141D704770B5C1482DED020B93
:103880002DED0E8B82B0119D25F000449FEDBEDB27
:103890009FEDBFEB84423EDBA4F140511098A1F1B3
:1038A0007F6108430FD0BC48844202DC28D11098C5
:1038B00030B39DED100B02B0BDEC0E8B02B0BDE835
:1038C000704000F069BC9DED100B53EC1D2B51ECCA
:1038D000100BFCF7D1FD9DED100B41EC180B53ECD8
:1038E0001E2B51EC100BFCF7C7FD53EC182BFCF70B
:1038F0001CFD41EC100B02B0BDEC0E8B02B070BD94
:10390000012000F08DFC02B0BDEC0E8B02B0BDE8D2
:10391000704000F055BCA1489FEDA18B844256DA5F
:103920009DED100BB4F1795F0ADA51EC100BFFF743
:103930007BFF042808BF00F053FC9DED100BDAE775
:1039400053EC102B51EC100BFCF796FD41EC190BCE
:1039500095480621B0EE490AF0EE690A784400F075
:103960009FFB53EC192B51EC100BFCF785FD41EC40
:103970001A0B8E48B0EE490AF0EE690A0421784429
:1039800000F08EFB53EC192B51EC100BFCF774FD7F
:1039900053EC182BFCF7C9FC41EC100B51EC1A0B43
:1039A00053EC102BFCF7DAFDCDE900019DED000B87
:1039B00053EC102B9DED100B51EC100BFCF75CFD44
:1039C0009DED101B53EC112BFCF7AFFCD2E09DEDED
:1039D000100B51EC100B01F02FF953EC182BFCF7E6
:1039E00048FD9FED730BCDE9000153EC102B9DEDCD
:1039F000000B51EC100BFCF73FFD41EC190B6E482E
:103A00000621B0EE490AF0EE690A784400F048FB5E
:103A100053EC192B51EC100BFCF72EFD41EC1B0B5A
:103A20006648B0EE490AF0EE690A0421784400F0D5
:103A300037FB53EC192B51EC100BFCF71DFD53EC2D
:103A4000182BFCF772FC41EC1C0B51EC190B02F02B
:103A500041F941EC180B5A489FED5BABA04222DCC8
:103A600053EC1C2B51EC1B0BFCF778FDCDE900014E
:103A70009DED000B51EC180B53EC102BFCF7FCFCEC
:103A800053EC182BFCF751FC53EC1A2BFCF7F4FC0D
:103A900053EC1D2BFCF7EAFC53EC1E2BFCF7E9FC66
:103AA00041EC100B5FE08DED008B002000909DED50
:103AB000000B51EC180B53EC102BFCF736FC9DED72
:103AC000000B41EC1E0B53EC102B51EC100BFCF7D0
:103AD000D3FC53EC192BFCF7CCFC53EC1E2BFCF75E
:103AE0003DFD41EC190B53EC1C2B51EC1B0BFCF76F
:103AF00035FD41EC1B0B53EC1A2B51EC190BFCF769
:103B0000BBFC53EC1D2BFCF7B4FC41EC190B53EC44
:103B10001A2B51EC180BFCF7AFFC53EC1B2BFCF7EA
:103B2000ABFC53EC192BFCF7A1FC9DED000B41EC19
:103B3000180B53EC1A2B51EC100BFCF79DFC9FED6E
:103B4000249B53EC192BFCF794FC41EC100B51EC2B
:103B5000180B53EC102BFCF789FC53EC192BFCF7DA
:103B600088FC41EC100B002D3FF7C5AE51EC100B5B
:103B700081F0004141EC100BBDE6000000000000A8
:103B80000000F03F00000000075C143326A6913CC3
:103B9000182D4454FB21F93F0000F07F0000E03F66
:103BA000000000000000F03F603300006E330000B2
:103BB000000000000000E03FB2320000C032000010
:103BC0003333EF3F00000000000000000000004021
:103BD000182D4454FB21E93F70B59B482DED020B95
:103BE0002DED068B079D25F00044A04218DC974878
:103BF000844202DC0AD1069840B19DED060BBDEC73
:103C0000068B02B0BDE8704000F0C6BA002DCCBFF4
:103C10009FED8F0B9FED900BBDEC068B02B070BD3E
:103C20008F48A04215DD8F48A042D8BF4FF0FF3427
:103C300058DD9DED060B51EC100BFFF7F5FD042848
:103C400008BF00F0CDFA9DED060BBDEC068B02B06F
:103C500070BD9DED060B51EC100B00F0EDFFCDE9B2
:103C6000060181489FED828BA0423CDD8248A04244
:103C70001FDD00249FED82AB9DED060B53EC1A2B4C
:103C800051EC100BFCF751FB9DED060B41EC190BB1
:103C900053EC1A2B51EC100BFCF7EEFB53EC182BEA
:103CA000FCF7E4FB53EC192BFCF758FCCDE90601BB
:103CB00049E09DED060B012453EC182B51EC100B41
:103CC000FCF733FB9DED060B41EC190B53EC182B65
:103CD00051EC100BFCF7CAFB53EC192BFCF73EFC24
:103CE000CDE906012FE06848A0421FDD02249FEDC8
:103CF000689B9DED060B53EC192B51EC100BFCF758
:103D0000BBFB53EC182BFCF710FB9DED060B41ECB5
:103D1000180B53EC192B51EC100BFCF7A7FB53ECD1
:103D2000182BFCF71BFCCDE906010CE09DED060B02
:103D3000032453EC102B9FED580B51EC100BFCF7A8
:103D40000DFCCDE906019DED060B53EC102B51EC5B
:103D5000100BFCF791FB41EC180B53EC182BFCF704
:103D60008BFB41EC190B4E480621B0EE490AF0EEF0
:103D7000690A784400F094F953EC182B51EC100BBD
:103D8000FCF77AFB41EC180B4648B0EE490AF0EE1E
:103D9000690A0521784400F083F953EC192B51ECA2
:103DA000100BFCF769FB41EC100B51EC180B53ECBA
:103DB000102B002C0EDAFCF7B8FA9DED061B53EC25
:103DC000112BFCF759FB9DED061B53EC112BFCF757
:103DD00050FB35E0FCF7A9FA9DED061B53EC112BC7
:103DE000FCF74AFB41EC100B2F48784400EBC40071
:103DF00090ED001B51EC100B53EC112BFCF736FB34
:103E00009DED061B53EC112BFCF730FB41EC100B26
:103E10002648784400EBC40090ED001B51EC100BD9
:103E200053EC112BFCF725FB41EC100B002DA2BF2E
:103E3000BDEC068B02B070BD51EC100B81F000415F
:103E400041EC100B01E70000000010440000F07F7F
:103E5000182D4454FB21F93F182D4454FB21F9BF80
:103E60000000DC3F0000203E0000F33F00000000A7
:103E7000000000000000F03F0000E63F00000000EE
:103E8000000000000000004000800340000000002F
:103E9000000000000000F83F000000000000F0BF3C
:103EA00002300000B82F0000422F0000FA2E000060
:103EB00070B56B4E2DED040B2DED028B82B0DDF84D
:103EC0001CC0DDE905235C422CF000411C4341EAA3
:103ED000D474049D22F00040B44205D86C422C43B7
:103EE00040EAD474B4420BD99DED061B9DED040B42
:103EF00002B0BDEC028B04B0BDE8704000F056B9D2
:103F0000ACF14054A4F17F641C430BD0022404EABA
:103F1000AC7444EAD27405439FED538B9FED542B50
:103F200007D015E09DED040B51EC100B00F0D7FD10
:103F300042E0002C11BF012C9DED040B02B0BDEC42
:103F4000028B04BF04B070BD022C38D0032C3BD0D0
:103F50000B439FED491B9FED4A0B0AD0B14218D18C
:103F6000B04209D121F0804120F0804007910590B6
:103F70000FE0002A15DA10E0434B7B44002C08BF09
:103F800093ED000B0DD0012C10D0022C17D0032C78
:103F90001AD0B0421DD1002A03DAB0EE410AF0EE89
:103FA000610A02B0BDEC028B04B070BD93ED000B52
:103FB00051EC100B81F0004141EC100BF1E7B0EE39
:103FC000480AF0EE680AECE7B0EE420AF0EE620A48
:103FD000E7E7401A00153C28C8BF8DED000B19DC3F
:103FE000BCF1000FBEBF10F13C0F9FED290B8DED12
:103FF000000B0FDB9DED060B53EC102B9DED040B1E
:1040000051EC100BFCF7AAFA00F016FE00F067FD69
:10401000CDE90001002C08BF9DED000BC1D0012CA3
:1040200010D0022C9FED1C0B53EC102B9DED000BC0
:1040300051EC100B0DD0FCF719FA53EC182BFCF7D0
:1040400015FAB9E7019880F0004001909DED000B52
:10405000A7E7FCF70BFA53EC182BFCF70AFAABE7CF
:104060000000F07F00000000182D4454FB2109409F
:10407000182D4454FB2109C0182D4454FB21F9BFCD
:10408000182D4454FB21F93F2A2E000000000000A7
:104090000000000000000000075C143326A6A13CCD
:1040A00070B504462DED028B4D1E00EBC500B0EE41
:1040B000408AF0EE608A90ED000B35F0060017D0D4
:1040C00053EC182B51EC100BFCF7D6F941EC100B0C
:1040D0006D1E04EBC50090ED001B51EC100B53EC72
:1040E000112BFCF722F941EC100B35F00600E7D15B
:1040F000022D36D0042D1CD0062D1CBFBDEC028B2A
:1041000070BD53EC182B51EC100BFCF7B5F994ED86
:104110000A1B53EC112BFCF708F953EC182BFCF796
:10412000ABF994ED081B53EC112BFCF7FEF841ECB6
:10413000100B53EC182B51EC100BFCF79DF994ED80
:10414000061B53EC112BFCF7F0F853EC182BFCF783
:1041500093F994ED040B53EC102BFCF7E6F841ECCB
:10416000100B53EC182B51EC100BFCF785F994ED68
:10417000021B53EC112BFCF7D8F853EC182BFCF76F
:104180007BF994ED001B53EC112BFCF7CEF8BDEC42
:10419000028B41EC100B70BD10B553EC102B51ECA1
:1041A000100BFCF7C2F841EC100B10BD10B553EC2E
:1041B000112B51EC100BFCF7B8F841EC100B10BDB3
:1041C0009FED050B10B553EC102B51EC100BFCF7C9
:1041D000C5F941EC100B10BD00000000000000000C
:1041E0009FED050B10B553EC102B51EC100BFCF7A9
:1041F00043F941EC100B10BD00000000000000105E
:1042000002E008C8121F08C1002AFAD1704770479F
:10421000002001E001C1121F002AFBD170470000FD
:104220000149086070470000300100202DE9FF5F60
:1042300082B00021DDE90430020DDDF840B0034317
:1042400018D044F61050A2F2FF32424315141198D0
:1042500001281FD0A5EB0B00401C5FEA000A4FF0BD
:1042600000064E4FDFF83891B046504615D5CAF1DA
:10427000000413E0119801244AA3012801D16FEA38
:104280000B010298119AC0E90031C0E9024206B060
:10429000BDE8F09FCBF10000DFE704460021404A73
:1042A000491842EB0450CDE9001012E0E00707D0B6
:1042B00032463B4640464946FCF7DEF88046894692
:1042C00032463B4610461946FCF7D6F806460F46DE
:1042D0006410002CEAD1DDE90401DDE90023BAF124
:1042E000000F06DAFCF7C8F842464B46FCF7C4F864
:1042F00005E0FCF733F942464B46FCF72FF904463C
:104300000E460022284BFCF7EBFA03D84FF0FF30A3
:10431000014607E00022254B20463146FCF705F810
:10432000FCF7C5FA102409E0002C0ADB0A2200235E
:10433000FBF7A6FF039B30321A55641E50EA0102B8
:10434000F2D1641C039AC4F111031444119A012A96
:1043500003D0012208430DD10AE0084304D0002015
:104360004FF0110B119072E7A3EB0B056D1E0DE0E2
:104370005B4504DD4FF0000205F1010504E003DABE
:104380004FF00002A5F10105002AECD00298119926
:10439000C0E90231C0E9004579E70000000014409F
:1043A0000000F03F300000000000F0430000E03F5C
:1043B0002DE9FF4F95B09B468946064600250FE242
:1043C000252877D100242746F84A0121059400E0EA
:1043D000044316F8013F203B01FA03F01042F7D1E5
:1043E00030782A2811D06FF02F033078A0F13002F6
:1043F000092A16D8059A44F0020402EB820203EB64
:1044000042021044761C0590EFE759F8042B059200
:10441000002A03DA504244F40054059044F00204A8
:10442000761C30782E2816D116F8010F44F00404BB
:104430002A280DD06FF02F023078A0F13003092B1D
:1044400009D807EB870302EB4303C718761CF3E791
:1044500059F8047B761C30786C280FD006DC4C2889
:1044600017D068280DD06A2814D104E0742810D021
:104470007A280FD10DE044F400140AE044F48014CB
:1044800001E044F440147278824202D104F58014B1
:10449000761C761C307866280BD013DC582877D031
:1044A00009DC002875D04528F6D04628F4D04728E6
:1044B0001AD19DE118E0632835D0642879D06528A9
:1044C00012D195E1702873D008DC6728F1D06928F3
:1044D0006FD06E280DD06F2806D1B5E073282CD090
:1044E000752875D0782874D05A46179990476D1C56
:1044F00075E1C4F30250022809D003280DD0D9F881
:10450000001004280DD00D6009F1040967E1D9F805
:104510000010EA17C1E90052F6E7D9F800100D8043
:10452000F2E70D70F0E719F8041B8DF80010002079
:104530008DF80100EA46012003E059F804AB4FF082
:10454000FF3061074FF0000102D40DE008F10101D6
:104550008846B9420FDA8045F8DB1AF808100029BE
:10456000F4D108E008F1010188468142FADB1AF82B
:1045700008100029F6D105985B46A0EB08072146F4
:104580003846179A00F094FA284400EB080507E033
:104590004DE029E10DE01AF8010B5A4617999047B2
:1045A000B8F10108F7D25B4621463846179A13E165
:1045B00042E00A220092C4F302524FF0000A022A9B
:1045C00008D059F804CB032A4FEAEC710AD00DE069
:1045D00029E02AE009F1070121F00702F2E802C10F
:1045E000914609E00FFA8CFC4FEAEC71042A03D1E2
:1045F0004FFA8CFC4FEAEC71002907DA0A460021D9
:10460000DCF1000C61EB02012D2202E0220504D551
:104610002B228DF80420012203E0E20701D02022A2
:10462000F7E7904659E00A2102E010220DE0102140
:104630004FF0000A00910BE010224FF0000A44F006
:1046400004040827009203E008224FF0000A0092B9
:10465000C4F30252022A05D059F804CB0021032AE0
:1046600008D009E009F1070121F00702F2E802C1D0
:10467000914605E01FFA8CFC042A01D10CF0FF0CD6
:104680004FF00008220728D5702806D0009B83F041
:10469000100353EA0A0305D00EE040228DF80420EF
:1046A000012208E05CEA010206D030228DF80420E5
:1046B0008DF8050002229046009B83F0080353EA20
:1046C0000A030AD15CEA010201D1620705D5302252
:1046D0008DF804204FF001087F1E582804D034A024
:1046E00003900EA802900DE036A0F9E7534660460D
:1046F000009AFBF7C5FD84460398825C0298401E31
:10470000029002705CEA0100F0D1029806A9081A32
:1047100000F1200A600702D524F4803400E001276C
:10472000574502DDA7EB0A0000E0002000EB0A017C
:10473000009005984144401A0590E00306D45B467A
:104740002146179A059800F0B3F90544002706E0C2
:1047500001A85A46C05D179990476D1C7F1C4745BC
:10476000F6DBE0030CD55B462146179A059800F06E
:104770009FF9054404E030205A46179990476D1C74
:104780000099481E00900029F5DC08E00298029983
:104790005A460078491C0291179990476D1CBAF14E
:1047A0000001AAF1010AF1DC65E10000092801001D
:1047B0003031323334353637383961626364656697
:1047C0000000000030313233343536373839414259
:1047D000434445460000000000F058F90544761CAB
:1047E000307800287FF4ECAD19B02846BDE8F08F92
:1047F000620700D4062709F1070222F0070CFCE843
:104800000223E14603F000485FEA080C02D00FF2F1
:10481000702C0DE05FEA045C02D50FF2682C07E013
:104820005FEAC47C02D00FF2602C01E0AFF2700CA2
:104830004FF0FF3823F00043CDF850C065280CD06E
:1048400006DC452809D046281DD047283DD13DE04B
:10485000662818D067287ED138E00021112F01DBAF
:10486000112000E0781CCDE9000106A90EA8FFF791
:10487000DDFCDDE90F010E9A03910021009207F1A2
:10488000010A04914DE04FF000400097CDE901107E
:1048900006A90EA8FFF7CAFCDDE90F0203920E9BE2
:1048A00011990022DDF80CA00093049211B9791C33
:1048B00000EB010AB7EB0A0004D4C0F1FF3007F1A6
:1048C000010A0490AAEB0700019044E0012F00DAEE
:1048D00001270021112F01DD112000E03846CDE92C
:1048E000000106A90EA8FFF7A1FCDDE90F010E9A51
:1048F0000391002104910092BA4621070CD4039938
:10490000514500DA8A46BAF1010F05DD009AAAF195
:104910000101515C302908D0B84202DA10F1040FCD
:1049200006DA0121CDE9011015E0AAF10101E9E75C
:10493000002805DC049901440491AAEB000102E07F
:10494000411C514500DD8A460499401A401C0190E3
:104950004FF000400290200704D40198504501DB3D
:10496000CDF8048000208DF84F0002980DF14F071C
:10497000B0F1004F25D02B200E9002984FF0020886
:1049800000280CDA404202902D200E9007E00A2108
:104990000298FBF7B1FE3031029007F8011DB8F123
:1049A0000001A8F10108F2DC02980028EFD1791E7D
:1049B0000E980870307800F0200040F0450007F8AD
:1049C000020D12A8C01B00F107081498007800B16E
:1049D000012000EB0A01019801EBE07105984144C8
:1049E000401A401E0590E00306D45B462146179A04
:1049F000059800F05DF805441498007818B15A46FF
:104A0000179990476D1CE00324D55B462146179A01
:104A1000059800F04DF805441CE00498002807DBD9
:104A2000DDE90301884203DD0098405C179901E04D
:104A3000179930205A469047049805F10105401C0B
:104A400004900198401E019004D12E205A461799D7
:104A500090476D1CBAF10001AAF1010ADDDC05E006
:104A600017F8010B5A46179990476D1CB8F10001D1
:104A7000A8F10108F4DC5B462146179A0598ABE6DD
:104A80002D0000002B000000200000002DE9F04167
:104A9000044600251E461746880404D405E039461E
:104AA0002020B0476D1C641EF9D52846BDE8F08172
:104AB0002DE9F041044600251E469046C80301D565
:104AC000302700E02027880404D505E04146384619
:104AD000B0476D1C641EF9D52846BDE8F08110B5BD
:104AE00041EC100BFFF778F851EC100B10BD0000F3
:104AF0002DE9FF4F89B01746DDE9165200244D4ECF
:104B0000884681462C80A246B07B694600F01EFB99
:104B10004FF0FF3B18B158460DB0BDE8F08F7089DB
:104B200010F0140F3ED0009909BA21F0FF029DF851
:104B300003100A433A6001999DF8073009BA21F041
:104B4000FF0119437960029B9DF80B401BBA23F0CB
:104B5000FF032343BB60039C121424BA24F0FF0C10
:104B60009DF80F4009144CEA040C1024C7F80CC03F
:104B70001B144FEA2C4712FB02F211FB012113FB1D
:104B800003F217FB07221144A1F17061B1F1007F1C
:104B900004D900F023FBA5F800A0BCE7298841F464
:104BA000807129804206694611D50A19A41D13880F
:104BB0005BBAA8F8003053885BBAA8F80230928834
:104BC00052BAA8F804202A8842F008022A8010F479
:104BD000C07F11D00A19A41D13885BBAA9F8003050
:104BE00053885BBAA9F80230928852BAA9F8042017
:104BF0002A8842F070022A80800716D00C44E078A0
:104C000000F0C00500F03F016078C00706D0C8087A
:104C100001F007013268491C02B190476078000733
:104C200003D5716809B1A80988470C9800F0DAF932
:104C3000002071E70889002082B0CDE9000121F051
:104C4000004001909DED000B02B051EC100B70473D
:104C500005490968C90105D54FF060410A68002A75
:104C6000FCD0087070470000FCED00E070B54FF616
:104C7000FA75281A84B20848FCF73CFD064801681A
:104C80004C62006801E0416A8CB2AC42FBD3BDE8E3
:104C900070400148FCF751BD3403002010B50A4CA8
:104CA0004FF4000020600120FFF7E0FF402020606B
:104CB0000120FFF7DBFF4FF4800020600120FFF7A9
:104CC000D5FF8020206010BD1804024070B5094C4B
:104CD000802525600120FFF7C9FF402020600120CA
:104CE000FFF7C4FFE80320600120FFF7BFFF256046
:104CF00070BD0000180402402DE9F0470024104E5A
:104D00004027DFF83C80254608364FF480096006CE
:104D1000040E37600120FFF7A9FFD8F80000000655
:104D200001D5641CE4B2C6F800900120FFF79EFF95
:104D30006D1CEDB2082DEAD32046BDE8F0870000D7
:104D4000100402402DE9F0470025134C06464FF4AD
:104D5000000A4FF040084FF480098027300601D543
:104D6000276001E0C4F800A00120FFF77FFFC4F82E
:104D700000800120FFF77AFFC4F80090072D00D1D2
:104D800027607006060E0120FFF770FF6D1CEDB264
:104D9000082DE3D3BDE8F0871804024010B50B4C92
:104DA00080202060402020600120FFF75FFF4FF44B
:104DB000000020600120FFF759FF4FF480002060C1
:104DC000BDE810400120FFF751BF00001804024069
:104DD00010B5084C4FF400002060402020600120F6
:104DE000FFF744FF80202060BDE810400120FFF75E
:104DF0003DBF00001804024070B50C4D80202860B3
:104E0000402028600120FFF731FF0848083800687B
:104E1000000601D5012400E000244FF48000286042
:104E20000120FFF723FF204670BD00001804024058
:104E3000CAB0FCF78FF8FEF741F9FDF79BF95A4825
:104E40005849532500240160C0E9015480274FF6DA
:104E5000FF768761C0E90364FCF711FCFDF78AFA6D
:104E6000FDF7B8FAFDF7E4FAFDF710FBFDF73CFBA0
:104E7000FDF78EFBFDF750FA4D48489449944B4995
:104E80008761C0E90015C0E90246FCF7F8FB4894C9
:104E900048A947484994FCF7D1FB4348454940306D
:104EA0004FF4E1350160C0E901540426C460C0E953
:104EB00004468461C461FCF7D3FF3B483E4980301F
:104EC0000160C0E90154C460C0E904468461C46162
:104ED000FCF7C6FFFBF7AAFD00F04AFA2422374987
:104EE0006846FBF7FEF96A460021354800F07CFA77
:104EF000344C32492422A061243109A8FBF7F1F98E
:104F000009AA0021304800F06FFA2C49E061242200
:104F1000483112A8FBF7E5F912AA00212B4800F04E
:104F200063FA2649206224226C311BA8FBF7D9F9C9
:104F30001BAA0021264800F057FA2049606224226B
:104F4000903124A8FBF7CDF924AA0021214800F0D4
:104F50004BFA1A49A0622422B4312DA8FBF7C1F9FB
:104F60002DAA00211C4800F03FFA1449E0622422D7
:104F7000D83136A8FBF7B5F936AA0021174800F05A
:104F800033FA0E4920632422FC313FA8FBF7A9F92C
:104F90003FAA0021124800F027FA606300F004FAEB
:104FA000FEE7000000200040340300200010004015
:104FB000340200200010014000440040346B00081F
:104FC000812C000800000020892C0008C92D000851
:104FD00059300008592C00084D2D0008552D0008A7
:104FE000452D00087047000070B50D462DED0C8B67
:104FF0008EB006460CA902A81446F7EE00BACDE919
:1050000000010BAB03AA09A907A8FFF771FD20B1A6
:1050100001200EB0BDEC0C8B70BDBDF80800C005C2
:105020007ED59DED030AF8EEC00A9FED450AB0EE6D
:1050300000CA60EE809ADDED040AF8EEE00A69EE3F
:105040008CCA20EE808ADDED050AF8EEE00A60EEFB
:10505000808ADDED060AF8EEE00A20EE809AB8EECE
:10506000000A28EE00BA2BEE090A0CEEA80A10EE90
:10507000100AFBF712FB41EC100BFEF7FDFB9FED56
:1050800031AB51EC100B53EC1A2BFBF7F5F9FBF796
:1050900017FB2BEE080A28EE8CDA30600DEE680A5A
:1050A00030EE2B0A10EE100AFBF7F7FA2DEE090A84
:1050B00041EC1B0B0CEE880A10EE100AFBF7EDFA20
:1050C00041EC100BB0EE4B1AF0EE6B1AFEF7F0FE4F
:1050D00053EC1A2B51EC100BFBF7CEF9FBF7F0FA5F
:1050E00029EEA90A286008EE080A08EEE80A09EE87
:1050F000490A10EE100AFBF7D0FA28EE280A41EC14
:105100001B0B09EE890A20EE0C0A10EE100AFBF7C1
:10511000C4FA41EC100BB0EE4B1AF0EE6B1A00E043
:105120000CE0FEF7C5FE53EC1A2B51EC100BFBF70D
:10513000A3F9FBF7C5FA206000206AE7022068E7C0
:10514000000080306666666666A64C402DE9F8432E
:10515000214C0646174694F8240089464FF0FF3844
:1051600090B3A07A80B320686B460222817A60688F
:105170000078FCF7A5FF38BBBDF8000045BAB54282
:1051800002D2002038701FE060684188B5EB510FF3
:1051900011D9216800786B46497C0122FCF790FF09
:1051A00090B99DF80000C00605D500F017F86FF023
:1051B0000100BDE8F8832068F2B24B46C17A60680E
:1051C0000078FCF77DFF08B14046F2E7B5FBF6F04A
:1051D000401E38700020ECE7F0000020F8B5564C77
:1051E0004FF0FF36A07A00287DD000258DF80050C2
:1051F00020686B460122C17B60680078FCF796FF4F
:10520000002870D120686B460122417960680078DF
:10521000FCF78CFF002866D120686B4601220179DB
:1052200060680078FCF782FF00285CD194F82400C5
:10523000E0B30C208DF8000020686B460122017954
:1052400060680078FCF772FF002872D13220FBF70B
:1052500043FDC0208DF80000A07AC00702D0E020F6
:105260008DF8000020686B460122017960680078A3
:10527000FCF75CFF00285CD1607C18B102208DF83F
:10528000000001E08DF8005020686B460122C17BD0
:1052900060680078FCF74AFF28BB8DF80050206852
:1052A0006B4601224179606800783EE0FFE7042008
:1052B0008DF8000020686B46012201796068007853
:1052C000FCF734FF78B9A07C90B9A07AC0070FD062
:1052D0005FF060008DF8000020686B4601220179C4
:1052E0006068007800E024E0FCF720FF08BB01E0E4
:1052F0004020EFE73220FBF7EFFC607C18B1012083
:105300008DF8000001E08DF8005020686B46012206
:10531000C17B60680078FCF709FF50B92068064B34
:1053200001224179606810330078FCF7FFFE002805
:1053300000D03046F8BD0000F000002010B5EFF3BB
:10534000058149B9EFF3108131B90849096802298B
:1053500005D1EFF3118111B16FF0050403E00024D2
:1053600008B100F01DFE204610BD0000980000208E
:10537000EFF3058058B9EFF3108040B90949086888
:10538000022801D030B109E0EFF3118030B16FF0A5
:105390000500704701200860002070474FF0FF3083
:1053A000704700009800002010B5EFF3058060B949
:1053B000EFF3108048B90B490868022802D0012891
:1053C00006D00BE0EFF3118040B16FF0050010BD87
:1053D0000220086000F04CFE002010BD4FF0FF30AE
:1053E00010BD000098000020F0B585B04FEA010321
:1053F0004FF00004EFF305810394A1BBEFF310819C
:1054000089BB21490968022902D1EFF3118151BBFF
:1054100048B3802618218DF8104004AD42B31768B8
:1054200007B13D4697691FB139467F1E382F02D21A
:105430001779FF0702D0002005B0F0BD576907B10A
:10544000BE08D2F808C0BCF1000F0DD0D4685C2CA7
:1054500018D312693AB137B18DE8061032462946A1
:1054600001F087F903900DE0D7685FB912694AB976
:1054700003AACDE90012B2B2294601F04DF9012884
:1054800000D003940398D7E7980000202DE9F0415D
:10549000134C0F46054666692068001D00F051FC5C
:1054A000681C07D137B12168BDE8F0410D48091DDE
:1054B00000F096BC20683544B5424560216805D2AD
:1054C000A068BDE8F041091D00F072BC6068091DCC
:1054D00000F06EFC206B854200D22563BDE8F081B0
:1054E00048000020240900202DE9F041054600F085
:1054F00083FC2D4C2069401C206120682B4F10B18B
:10550000E06930B32BE025602069012827D100260F
:1055100006EB860007EB800000F03CFC761C382E82
:10552000F6D3234800F036FC2148143000F032FC5A
:105530001F48283000F02EFC1D483C3000F02AFCAB
:105540001B48503000F026FC194860601430A06001
:1055500005E02068E96AC06A884200D82560E06AF0
:10556000401CE0626864E86AA169884200D9A061D1
:1055700000EB800007EB8000291D00F031FC00F0FB
:105580005BFCE06900280CD02068E96AC06A8842A8
:1055900007D208494FF080500860BFF34F8FBFF328
:1055A0006F8FBDE8F08100004800002074040020E7
:1055B000D408002004ED00E038B500F01DFC104CCC
:1055C000A068C8B90F4800F0E5FB0E48143000F0A1
:1055D000E1FB0C482060143060600A4B0020283347
:1055E000009003F1500210210A2000F039FEA06063
:1055F00010B105A100F09EFCBDE8384000F01CBCD5
:105600008400002038090020546D72510000000011
:1056100030B4026C0B46002A0BD0C1681144C16043
:105620004468A14201D30168C16030BC1846FAF752
:1056300058BE30BC70472DE9F041856B17460446D3
:105640000026026C82B1C7B1E068FAF74AFEE16851
:10565000206C091AE1602268914202D26168081A3E
:10566000E060022F16D017E02068A8B9606801F04A
:1056700023F90646002060600EE0A068FAF731FECC
:10568000216CA0680844A0606168884204D3206847
:10569000A06001E005B16D1E6D1CA5633046BDE83C
:1056A000F08110B5044690F8590058B101280CD08B
:1056B00002280FD0502080F31188BFF34F8FBFF323
:1056C0006F8FFEE7206B00F0CBFB2046BDE810405B
:1056D00000F0C6BB10BD000010484FF4F041420777
:1056E00006D0C01D0D4920F00700411AC1F5F04158
:1056F0000B4A00230144C2E900030839103A21F0A3
:10570000070111604B600B600B1AC0E90013936036
:105710004FF000405360D060704700000811002037
:10572000AC000020144E154CA6F29C474FF0805858
:10573000DFF84C9012E000BF00F05EFBF068C56837
:10574000281D00F0FEFA2069401E2061E068401E1E
:10575000E06000F071FB2846FFF7A3FFE068002837
:10576000EAD138680128F9D9C9F80080BFF34F8F12
:10577000BFF36F8FF2E700001009002048000020FF
:1057800004ED00E070B51D46049C51B1C4F8002042
:10579000C4E90F010121204600F096FD84F84C5029
:1057A00070BD2460F4E72DE9F0470E46DDE9098479
:1057B0001746824691009946089DA522206BFAF76C
:1057C000A2FD6FF00301206B01EB8701084420F07C
:1057D0000707780707D0502080F31188BFF34F8F59
:1057E000BFF36F8FFEE72218315C82F83410315C12
:1057F00011B1401C1028F6D3002684F84360382DE0
:1058000000D33725E562C4E91356201D00F0CDFA18
:1058100004F1180000F0C9FA2461C5F1380064628F
:10582000A061666584F858604A465146384600F0E3
:105830003BFA2060B8F1000F01D0C8F80040BDE885
:10584000F087000030B5114900E011460A68824235
:10585000FBD34B685C18844203D14068184448600D
:10586000084643681C18944209D1084C103C24682F
:10587000A24209D052681A4442600A681268026063
:10588000814200D0086030BD0460F9E7AC00002020
:1058900070B5002441600B4D0061914206D8D11AC9
:1058A0008269914206D2011D686807E09A4203D2DC
:1058B000994201D3012403E0011D286800F078FA21
:1058C000204670BD8400002010B5044600F094FA14
:1058D000A06B28B15FF0000400F0AEFA204610BDC6
:1058E0000124F9E730B589B0304D55E0049800281F
:1058F00006DADDE90601059A9047049800284BDB9B
:10590000069C606910B1201D00F01BFA02A800F08F
:10591000B9F8024604980A283ED2DFE800F00505EF
:10592000053D263705053D260598A1690346014436
:105930002046FFF7ADFF00B3616A20468847E06963
:10594000012829D1002000900598A1690023421860
:105950001946204601F0BAF878B9502080F3118832
:10596000BFF34F8FBFF36F8FFEE70598A06128B19B
:10597000811813462046FFF78BFF0DE0502080F37F
:105980001188BFF34F8FBFF36F8FFEE794F82C00A1
:1059900010B9204600F064FA002204A9A86800F0BB
:1059A000E5FD0028A2D109B030BD00008400002030
:1059B0002DE9FC410F46054600F09EFB01A800F0D2
:1059C00061F80446019818B100F0EEFFBDE8FC81D3
:1059D000224EAFB170680068A8B30027291B3A4671
:1059E000B06800F0BBFA00F0DFFF0028EED11C49E0
:1059F0004FF080500860BFF34F8FBFF36F8FE5E724
:105A0000A542EBD800F0D0FF30682746C068C468D4
:105A1000201D00F096F9E069012810D1A0692B46FD
:105A200041193A462046FFF733FF40B100200346B4
:105A3000014600902A46204601F048F820B1616AEC
:105A400020468847C2E707E0502080F31188BFF363
:105A50004F8FBFF36F8FFEE70127BFE78400002061
:105A600004ED00E006484168096829B14168C96849
:105A7000C9684968016370474FF0FF31FAE70000D9
:105A80004800002070B5054600F0ACFE064E044606
:105A90003069844203D200F009F8012000E00020C0
:105AA00028602046346170BD84000020F8B5194D8F
:105AB0001FE0C068C4680668201D00F042F9616AF2
:105AC00020468847E069012813D1A0693044B042DC
:105AD00006D924616060211D286800F069F908E09A
