:020000040800F2
:10000000089000205D020008D12B00082D23000875
:1000100091280008990E00080D3F0008000000001C
:100020000000000000000000000000009D0100082A
:10003000B10E000800000000F90100080D360008AC
:1000400077020008770200087702000877020008AC
:10005000770200087702000877020008770200089C
:1000600077020008ED0E0008F30E00087702000882
:10007000770200087702000877020008770200087C
:10008000770200087702000877020008770200086C
:10009000770200087702000877020008F90E0008CE
:1000A000770200087702000877020008770200084C
:1000B000770200087702000877020008770200083C
:1000C000770200087702000877020008770200082C
:1000D00077020008F53E0008013F0008770200089B
:1000E000E50E000877020008770200087702000892
:1000F0003938000877020008770200087702000804
:1001000077020008770200087702000877020008EB
:10011000770200087702000877020008113700080C
:1001200077020008770200087702000877020008CB
:1001300077020008770200087702000877020008BB
:1001400077020008770200087702000877020008AB
:10015000770200087702000877020008770200089B
:10016000770200087702000877020008770200088B
:1001700077020008770200087702000800000000FC
:100180007702000877020008DFF80CD000F042FC8C
:100190000048004729630008089000202C4B19688C
:1001A0000868B0E8F04F80F30988BFF36F8F4FF015
:1001B000000080F3118870470000000008480068C4
:1001C000006880F308884FF0000080F3148862B65E
:1001D00061B6BFF34F8FBFF36F8F00DF00BF00BF6B
:1001E00008ED00E0DFF80C00016841F470010160E7
:1001F000704700BF88ED00E0EFF30980BFF36F8F19
:10020000134B1A681EF0100F08BF20ED108A20E96A
:10021000F04F106009B44FF0500080F31188BFF325
:100220004F8FBFF36F8F08F021F84FF0000080F37D
:10023000118809BC19680868B0E8F04F1EF0100F6B
:1002400008BFB0EC108A80F30988BFF36F8F704746
:1002500058000020EFF305807047000006488047F3
:1002600006480047FEE7FEE7FEE7FEE7FEE7FEE79B
:10027000FEE7FEE7FEE7FEE7BD360008890100085D
:100280002DE9F05F0546002092469B4688460646CB
:10029000814640241BE0284641464746224600F05E
:1002A000D2FA53465A46C01A914110D31146184605
:1002B000224600F0B9FA2D1A67EB01084F46224694
:1002C0000120002100F0B0FA17EB00094E41201E7A
:1002D000A4F10104DFDC484631462A464346BDE826
:1002E000F09F2DE9F0410024061B254671F1000620
:1002F00005DA01240027D0EB070067EB0101161E89
:1003000073F1000605DA0027D2EB0702012567EB3F
:100310000303FFF7B5FF86460E4617469C46AC42E0
:1003200004D00025D0EB050E65EB010624B10020BA
:10033000D2EB000760EB030C704631463A46634649
:10034000BDE8F0812DE9FE439946154688460746EB
:1003500001AC022942D3002D40D000200290A8F128
:1003600001004FF0FF36009022E000FB057201FB18
:10037000057011464A469047002805DC54F82600CF
:10038000304444F8260013E060682A4600FB0571FB
:1003900054F8040C00FB057007E00B7890F800C0DF
:1003A00001F801CB00F8013B521E002AF5D176423C
:1003B00054F8040C61688842D7DC4B462A4638461C
:1003C000FFF7C0FF54F8040C4B46A8EB0001401C9B
:1003D00000FB05702A46491EFFF7B4FFBDE8FE8307
:1003E00040EA01039B0703D009E008C9121F08C0B7
:1003F000042AFAD203E011F8013B00F8013B521E37
:10040000F9D27047D2B201E000F8012B491EFBD2AD
:1004100070470022F6E710B513460A46044619460F
:10042000FFF7F0FF204610BD421C10F8011B002909
:10043000FBD1801A704730B504460020034600E027
:100440005B1C934203D2E05CCD5C401BF8D030BD16
:100450002DE9FE4F804681EA0300C00F0C46009054
:1004600021F0004123F00045B8EB0200A94105D27C
:100470004046214690461C460B46024623F000406B
:10048000104347D0270DC7F30A00C3F30A51029067
:10049000401A019040286BDAC3F3130040F4801B2C
:1004A0000098924620B10023D2EB030A63EB0B0BBA
:1004B00001985946C0F14002504600F0B5F9064691
:1004C0000D4650465946019A00F0CDF910EB080050
:1004D0006141002487EA115284EAE7731A4340D04D
:1004E000009A62B3019A012A4FEA075215DC001BF9
:1004F00061EB02014FF0004202EA0752CDE90042EF
:10050000001C41F5801132462B4600F004FA03B07E
:10051000BDE8F08F40462146F9E7001B61EB020180
:10052000001C41F5801300185B412018A2F500174C
:1005300047EB030140EAD570B6196D4111E06D0833
:100540004FEA360645EAC0754FEA0752001B61EBD9
:100550000201001C41F5801149084FEA30000019E2
:10056000514132462B4603B0BDE8F04F00F0C4B90C
:100570000098012240000023D0EB020263EBE073FD
:10058000009821464FEAE074B8EB000061EB0401EB
:10059000E9E783F000435BE781F0004158E72DE98C
:1005A000FE4F81EA030404F0004421F0004100946E
:1005B0004FF0000B23F0004350EA01045ED052EAF2
:1005C00003045BD0C3F30A54C1F30A552C44A4F2CC
:1005D000F3340194A0FB0254C1F3130141F48011E0
:1005E000C3F3130343F4801301FB024400FB034EE7
:1005F000840A970A44EA815447EA8357A4FB0768B0
:1006000002958D0A05FB07854FEA932C04FB0C54D9
:100610002705029D4FEA065847EA1637B5EB08054D
:100620006EEB070C870E920E47EA811742EA83129F
:10063000A7FB0201B6EB0B0164EB00042B0D43EAB0
:100640000C335E1844EB1C50DA465146E7FB0201BE
:10065000C5F313044FEA0B3343EA14534FEA043251
:10066000019C43EA0603A4F10C040294009CCDE92A
:1006700000B400F050F903B0BDE8F08F002001464F
:10068000F9E72DE9F04D81EA030404F0004B21F075
:10069000004514464FF0000A23F0004150EA0502DD
:1006A00020D054EA01021DD0C5F30A570246C5F313
:1006B0001303C1F31300C1F30A5640F4801543F449
:1006C0008013A7EB0608101BD64608F2FD3873EB23
:1006D000050002D308F1010801E092185B41B8F16E
:1006E000000F03DA00200146BDE8F08D00204FF432
:1006F0008011064684460EE0171B73EB050705D3F1
:10070000121B63EB050306434CEA010C49084FEA50
:10071000300092185B4150EA0107EDD152EA030024
:1007200012D082EA040083EA0501084305D0101BB9
:10073000AB4106D20122002306E000224FF0004325
:1007400002E06FF0010253101AEB06004CEB085167
:1007500010EB0A0041EB0B01BDE8F04D00F0CCB806
:1007600070B5C1F30A5201F000450024C1F3130132
:1007700040F2FF3341F480119A4201DA002070BD4B
:1007800040F233439A42A2F2334203DC524200F079
:100790005AF800E090402C43F1D0404270BD00F088
:1007A000004230F000400AD0C10D01F56071C0F385
:1007B000160042EA0151C208400711437047002069
:1007C0000146704701F0004330B421F0004150EA87
:1007D000010206D00A0DA2F56072C1F31301002ACE
:1007E00002DC30BC00207047440F44EAC104C10061
:1007F000E01830BC00EBC25000F047B830B50B46F3
:10080000014600202022012409E021FA02F59D4240
:1008100005D303FA02F5491B04FA02F52844151E14
:10082000A2F10102F1DC30BD202A04DB203A00FAFB
:1008300002F1002070479140C2F1200320FA03F337
:10084000194390407047202A04DB203A21FA02F035
:100850000021704721FA02F3D040C2F120029140FA
:10086000084319467047202A06DBCB17203A41FA85
:1008700002F043EAE07306E041FA02F3D040C2F12D
:10088000200291400843194670470029A8BF7047CD
:10089000401C490008BF20F00100704710B4B0FAB6
:1008A00080FC00FA0CF050EA010404BF10BC704751
:1008B00049B1CCF1200421FA04F411FA0CF118BF6B
:1008C000012121430843A3EB0C01CB1D4FEA00613A
:1008D0004FEA102042BF002010BC704700EBC3500D
:1008E00010440029A4BF10BC7047401C490008BF39
:1008F00020F0010010BC704710B5141E73F1000405
:1009000008DA401C41F1000192185B411A4301D101
:1009100020F0010010BD2DE9F04D92469B4611B12B
:10092000B1FA81F202E0B0FA80F220329046FFF78D
:100930007BFF04460F4640EA0A0041EA0B0153469A
:100940005A46084313D0114653EA010019D0C8F1A2
:1009500040025046FFF777FF05460E46504659467F
:100960004246FFF761FF084305D0012004E020461E
:100970003946BDE8F08D0020054346EAE0762C4379
:1009800037430A986305E40AA0EB08000022FD0A39
:1009900044EA47540A3002D500200146E9E7010540
:1009A00010196941DDE9084500196941BDE8F04DBC
:1009B000A2E7C1F30A52C1F3130140F2FF3341F43D
:1009C00080119A4202DA00200146704740F2334318
:1009D0009A42A2F2334202DC5242FFF734BFFFF7E1
:1009E00023BF000030B5041E71F1000404DB4FF09A
:1009F0000044404264EB0101141E73F1000405DB66
:100A00001C464FF00043524263EB0403994208BF77
:100A1000904230BD064C074D06E0E06840F001030F
:100A200094E8070098471034AC42F6D3FFF7B0FBC8
:100A3000109C0008309C00082DE9F04D00231A4658
:100A40001B1A8A4103DB00200146BDE8F08DC1F38B
:100A50000A52C1F3130141F480154FF0000BD10786
:100A600002D100186D41521E0027044640F2FF11CA
:100A7000384601EB620A3E468046024600204FF4AB
:100A80008011FFF7E0FEC2197141BB1846EB01006F
:100A9000B4EB030C75EB000C04D3E41A65EB000512
:100AA00017460E46241908F101006D41804634288E
:100AB000E3DDF91946EB0600091BA84103D24FF00C
:100AC000FF32134601E0002213461BEB070046EB02
:100AD0000A51BDE8F04DFFF70FBF70B58C1810F844
:100AE000015B15F0070301D110F8013B2A1106D173
:100AF00010F8012B03E010F8016B01F8016B5B1E8D
:100B0000F9D12B0705D40023521E0DD401F8013B67
:100B1000FAE710F8013BCB1A921C03E013F8015BD3
:100B200001F8015B521EF9D5A142D8D3002070BD57
:100B30002DE9F04F2DED028B85B09FED8B8AF0EE05
:100B4000482ADFED8A8AF7EE001AB0EE481AB0EEB6
:100B5000682AF0EE000AB0EE040A002002F0D2F893
:100B6000834CF0EE482AB0EE682AE062F7EE001AF5
:100B7000B0EE481AF0EE000AB0EE040A002002F0CF
:100B8000C1F82063F0EE482AB0EE682AF7EE001AAA
:100B9000B0EE481AF0EE000AB0EE040A002002F0AF
:100BA000B1F86063F0EE482AB0EE682AF7EE001A5A
:100BB000B0EE481AF0EE000AB0EE040A002002F08F
:100BC000A1F8A0636B4F0425CDE901756A48009038
:100BD0000026DFF8A881CDE903764023404642464F
:100BE000802101F083FEA06010B965A003F090F9A8
:100BF0000C21CDE901710820CDE9037066484FF45E
:100C0000807B474600904FF4007A5B4640463A4668
:100C1000514601F06BFEE06010B960A003F078F976
:100C20006448CDE90105CDE90306634800906348B7
:100C300020230246402101F059FE206110B960A036
:100C400003F066F96448CDE90106CDE90305DFF854
:100C5000908162484FF4004900904B46404642461E
:100C60004FF4804101F042FE606110B95DA003F0D5
:100C70004FF900221146A06801F069FE00221146DA
:100C8000E06801F064FE00221146206901F05FFE79
:100C900000221146606901F05AFE584810230246AE
:100CA000202102F09DFCA06155A003F031F906E07F
:100CB00057A003F02DF94FF4FA7000F033F905F066
:100CC00039FD0028F4D157A003F022F9594800F06B
:100CD0004FFE584800684662574800F05BFE574E8A
:100CE00001200090082330463246042102F08CF89F
:100CF000E06110B952A003F00BF90220C30200908A
:100D000038463A46591002F07FF8206210B951A0D7
:100D100003F0FEF803200090102342464946304677
:100D200002F072F8606210B94FA003F0F1F8534876
:100D3000534602465946009502F066F8A06210B983
:100D40004FA003F0E5F8062006F084FFE0630122DF
:100D50000749504801F052FA01F09CFD606005B06F
:100D6000BDEC028BBDE8F08F0000000000007A446B
:100D7000D0000020E00200206001002000080240B6
:100D80004572726F723A206D6F746F724C46204ECE
:100D9000554C4C0A00000000E00100204572726FC3
:100DA000723A206D6F746F724C42204E554C4C0A53
:100DB0000000000020030020A001002000100240DD
:100DC0004572726F723A206D6F746F725246204E88
:100DD000554C4C0A00000000600300202002002057
:100DE000000402404572726F723A206D6F746F7228
:100DF0005242204E554C4C0A00000000000C0240AC
:100E00004D50553630353020544553540D0A0000AE
:100E10004D505536303530204572726F7221212188
:100E20000D0A00004D505536303530204F4B0D0A1D
:100E30000000000060020020A00200200018024014
:100E40004572726F723A20736F6E617246204E5512
:100E50004C4C0A004572726F723A20736F6E617269
:100E600042204E554C4C0A004572726F723A207304
:100E70006F6E61724C204E554C4C0A0000140240BB
:100E80004572726F723A20736F6E617252204E55C6
:100E90004C4C0A0020040020FEE790ED000AD1ED42
:100EA000000A30EE600ABDEEC00A10EE100A70476C
:100EB0007047000010EE100A0749DFED080A88426B
:100EC00002DB30EE600A704710EE100A04498842D7
:100ED000F9D930EE200A7047000034430000B443D3
:100EE000000034C34FF4805000F05EB8082000F0DA
:100EF0005BB8102000F058B84FF4007000F054B800
:100F000090F83510022903D08021416501207047F7
:100F1000052180F835100068016821F001010160A9
:100F20000020704770B5044600F02CF90546601C9F
:100F300002D004480078044400F024F9401BA04289
:100F4000FAD370BD4800002070B5124D0026124C37
:100F50002A68518981420ED0104D2A6851898142F8
:100F600009D00F4D2A685189814204D00D4D2A685D
:100F70005189814209D1506800F0FAF801282068AF
:100F800004D0416A28680182067370BD406A2968EE
:100F9000C88170BDF400002060020020F80000202D
:100FA000EC000020F0000020044910B50A6802425D
:100FB00002D00860FFF7C8FF10BD0000143C0140DC
:100FC0002DE9F84FDFF87CB100224FF001084FF017
:100FD000030A4FF00F090BF1040E00BF0B6808FA6B
:100FE00002F42340A3426ED14D68022D01D0122D90
:100FF0000ED1D50800EB850CDCF820505607F70E13
:1010000009FA07F6B5430E69BE402E43CCF82060BE
:10101000066855000F790AFA05FC07F0030726EA6F
:101020000C06AF40374307604E68012E05D0022EF4
:1010300003D0112E01D0122E0ED18668CF6826EA79
:101040000C06AF40374387604668A6430C79C4F36B
:101050000014944034434460C6688C6826EA0C0649
:10106000AC403443C4604C68E40065D5364C256818
:1010700045F480452560246822F0030504F480448B
:101080000094324C2E19D6F8084895072F0F09FA0C
:1010900007F5AC432E4DA84201D1002524E02D4D8B
:1010A000A84201D101251FE02B4DA84201D1022504
:1010B0001AE02A4DA84201D1032515E0284DA84287
:1010C00002D1042510E037E0264DA84201D10525C4
:1010D0000AE0254DA84201D1062505E0234DA8428E
:1010E00001D1072500E00825BD402543C6F8085872
:1010F000DBF800405D464E689C43F60300D51C4378
:101100002C60DEF8004075464E689C43B60300D55F
:101110001C432C600B4D08352C684E689C43F6022E
:1011200000D51C432C60074D0C352C684E689C4341
:10113000B60200D51C432C60521C102AFFF44EAF9F
:10114000BDE8F88F003C01404438024000300140C7
:10115000000002400004024000080240000C02406F
:10116000001002400014024000180240001C02401F
:101170000069084000D0012070470AB181617047C2
:101180000904FBE701488068704700004800002020
:10119000024881680278114481607047480000204D
:1011A0000B4810B5016841F400710160016841F419
:1011B00080610160016841F480710160032000F0EA
:1011C0008DF8002000F006F800F03EF8002010BD79
:1011D000003C024010B5014688B000222C2000F0EF
:1011E0005DF82C2000F04CF813480024016841F011
:1011F00080010160006805A900F080000690684643
:1012000000F016F900F034F90C494000B0FBF1F1A0
:101210000C480B4A491E026040F2E732C0E9032441
:10122000C0E9011400F051FB10B1012008B010BD5D
:10123000044800F0AFFBF9E74038024040420F009D
:10124000001C0040600400200C4882B0016841F49A
:1012500080410160006800F4804000900748001F52
:10126000016841F0805101600068002200F0805068
:1012700000900F21901E02B000F010B844380240D8
:10128000002809DB00F01F02012191404009800085
:1012900000F1E020C0F8001170470000F0B40E4BE0
:1012A0001B680C46C3F30223C3F10705042D00D9C4
:1012B0000425191D072901D2002300E0DB1E0126A9
:1012C00006FA05F1491E214099409E40761E1640BF
:1012D0003143F0BC02F058BE0CED00E0064900F0CE
:1012E000070208684FF6FF03184040EA0220034A4D
:1012F00010430860704700000CED00E00000FA05A4
:101300002DE9F0470E46050065D0DFF81481D8F8C6
:101310000000F7B200F00F00B04207D288F800706A
:10132000D8F8000000F00F00B04254D128683D4CBE
:10133000810712D5400703D5206840F4E0502060B3
:101340002878000703D5206840F4604020602068BA
:10135000A96820F0F000084320602878C0072DD04D
:10136000304968680839012812D0022813D00328B0
:1013700011D00968890700292DDA216821F00301BD
:1013800001432160FFF7FEFE814641F2883A0EE0FC
:1013900009688903EFE709688901ECE7FFF7F2FEC6
:1013A000A0EB0901514502D90320BDE8F087206870
:1013B000696800F00C00B0EB810FEFD1D8F8001095
:1013C000404601F00F01B14207D90770006800F0F4
:1013D0000F00B04201D00120E7E72878400705D58B
:1013E0002068E96820F4E05008432060287800076E
:1013F00006D52068296920F4604040EAC1002060D9
:1014000000F056F82168084AC1F30311515CC84046
:10141000064908600020FFF7DDFE0020C5E7000058
:10142000003C024008380240088E000854000020AA
:101430000F2202600C4A136803F003034360136831
:1014400003F0F0038360136803F4E053C360126891
:101450004FF4E05303EAD20202610448006800F04E
:101460000F0008607047000008380240003C02404E
:101470000448054900680968044AC1F38221515CA7
:10148000C84070475400002008380240188E0008F9
:101490000448054900680968044AC1F34231515CB7
:1014A000C84070475400002008380240188E0008D9
:1014B000154810B5006810F00C02144813D01449F8
:1014C000042A0FD0082A0ED10F4C241F226823684B
:1014D00002F03F025B0207D52068C0F38810A0FB32
:1014E000010106E0084610BD2168C1F38811A1FB87
:1014F00000010023FEF7C4FE2168C1F30141491C2D
:101500004900B0FBF1F010BD083802400024F4009F
:1015100040787D012DE9F84F050076D02878DFF876
:10152000F8B2BE4CC00749D0DBF800105846C1F3F2
:101530008101012908D00068C0F3810002280AD186
:10154000201D0068400206D52068800336D56868F3
:101550000028E2D032E06868B0F5803F10D0B0F5E6
:10156000A02F206810D020F480302060206820F464
:10157000802020606868A0B1FFF704FE06460CE0FA
:10158000206840F48030F4E740F480202060F7E7E2
:10159000FFF7F8FD801B642873D820688003F7D517
:1015A0000CE0FFF7EFFD064605E000BFFFF7EAFDA0
:1015B000801B6428F0D820688003F7D42878DFF8EF
:1015C000608280074FF000093ED5DBF800105846D6
:1015D00011F00C0F09D00068C0F3810002280BD174
:1015E0008D48001F0068400206D42068800715D58A
:1015F000E868012809D111E0E868B8B10120C8F80D
:101600000000FFF7BFFD064605E002E1FFF7BAFD67
:10161000801B0228C0D820688007F7D52068296978
:1016200020F0F80040EAC10020600DE0C8F800900A
:10163000FFF7A8FD064604E0FFF7A4FD801B022883
:101640001FD820688007F7D42878000722D5724E6B
:10165000744869696C3671B101210160FFF792FD30
:10166000074604E0FFF78EFDC01B022809D830684A
:101670008007F7D50EE0C0F80090FFF783FD07461E
:1016800005E083E0FFF77EFDC01B02287ED83068AE
:101690008007F7D42878400768D5DFF87CA10027B9
:1016A0000AF1380ADAF80000C0000BD4DAF80010AA
:1016B00041F08051CAF80010DAF80000012700F06C
:1016C00080500090584E3068C00510D4306840F407
:1016D00080703060FFF756FD009005E0FFF752FD87
:1016E0000099401A022851D83068C005F6D54A4EF4
:1016F000A868683601280FD00528306810D020F07F
:1017000001003060306820F004003060A868B8B193
:10171000FFF738FD00900FE0306840F00100F4E77B
:1017200040F004003060F7E7FFF72CFD0099411A04
:1017300041F28830814264D830688007F4D50EE0E9
:10174000FFF720FD009007E0FFF71CFD0099411A0C
:1017500041F28830814254D830688007F4D42FB1E8
:10176000DAF8001021F08051CAF80010A869C0B35F
:10177000DBF80010C1F3810102294AD00228484653
:1017800007D0C8F86000FFF7FDFC00E039E005462F
:101790003AE04746C8F86000FFF7F4FC064604E06C
:1017A000FFF7F0FC801B02282BD820688001F7D4BB
:1017B000D5E907010843A96A1C4A490802EB01411F
:1017C0006A6A41EA8211084395F82C1040EA0161E7
:1017D0001148001F016001203866FFF7D3FC054661
:1017E00005E014E0FFF7CEFC401B022809D8206872
:1017F0008001F7D50BE000BFFFF7C4FC401B0228B7
:1018000002D90320BDE8F88F20688001F4D40020BD
:10181000F8E70120F6E700000838024000380240EF
:1018200000004742800E4742007000400000FFFF6A
:101830007047704710B590F83C20012A22D0012251
:1018400080F83C20CA688C6822F4407222434C68BD
:1018500022F4806222430C6822F4006222430C6965
:1018600022F4805222434C6922F400522243C96977
:10187000002322F480420A4301684A6480F83C3025
:10188000002010BD022010BD70B590F83C20012A48
:1018900019D0012400F83C4F0222427050F83C3C21
:1018A0005A689D6822F070060A684968324325F03C
:1018B000800529435A6050F83C2C91604470002107
:1018C0000170084670BD022070BD10B5040003D041
:1018D00094F83D0010B107E0012010BD002084F80D
:1018E0003C00204600F00CF8022084F83D00211D49
:1018F000206801F0AFFF012084F83D00002010BDFA
:1019000008B5174A01681748914207D1016841F0AC
:1019100010010160006800F010001EE0124A9142C0
:1019200011D1016841F0200101600068002200F03F
:101930002000009005213720FFF7B0FCBDE80840EB
:101940003720FFF79DBC094A914207D1016841F455
:1019500080710160006800F48070009008BD000094
:1019600000100040403802400014004000200040B9
:10197000022180F83D1001688A6802F00702062AF9
:1019800003D00A6842F001020A60012180F83D108C
:10199000002070470168CA6842F00102CA6000680E
:1019A000816801F00701062903D0016841F00101B7
:1019B000016000207047022180F83D1001680A6A2A
:1019C00041F211131A4207D10A6A9B101A4203D13D
:1019D0000A6822F001020A60012180F83D1000200F
:1019E00070472DE9F0410D46040003D094F83D0006
:1019F00018B108E00120BDE8F081002084F83C0027
:101A0000204600F03BF8022084F83D002068816801
:101A100044F2070291438160211D206801F01AFF02
:101A2000226890689169166A2B68AF69034340F297
:101A30000330814341EA0721A868EF6908434FF664
:101A4000FC418843E96840EA0720014328692F6A7E
:101A5000000140EA0730084369686D6926F0AA066C
:101A600046EA051529439360226890612068016267
:101A7000012084F83D000020BDE7000070B586B06D
:101A8000044614216846FEF7C4FC3D482568002240
:101A90003C4902240126854219D13A481430036892
:101AA00043F001030360006800F00100059008683E
:101AB00040F0100008600868694600F010000590CA
:101AC0004FF420600090CDE901422F4833E02D4BC8
:101AD0002E481033B5F1804F18D02D4EB54231D17C
:101AE0001D6845F002051D601B6803F002030593A5
:101AF0000B6843F001030B60096801F001010591D7
:101B0000C0210091CDE90142694635E01D6845F0EC
:101B100001051D601B6803F0010305930B6843F08A
:101B200001030B60096801F0010105912221009178
:101B3000CDE901426946CDE9032600BFFFF740FA2F
:101B400006B070BD13488542FAD1186840F0040011
:101B50001860186800F004000590086840F008005C
:101B600008600868694600F0080005904FF440508E
:101B70000090CDE901420848CDE90324DEE70000EA
:101B800000000140303802400010024000000240D6
:101B90000004004000080040000C024010B504465C
:101BA000006891B1042904D00122002101F0B6FEA1
:101BB000206801225FF0040101F0B0FE2068016896
:101BC00041F001010160002010BD01220021F3E776
:101BD000704770B50446006801694FF00005C943BD
:101BE000890715D4C168C943890711D4E91E016169
:101BF00001202077206880698007204602D0FFF707
:101C0000E7FF04E000F0F4F8204600F0AFF9257794
:101C100020680169C943490717D4C168C943490706
:101C200013D46FF0040101610220207720688069DD
:101C300010F4407F204602D0FFF7CAFF04E000F016
:101C4000D7F8204600F092F9257720680169C9434A
:101C5000090716D4C168C943090712D46FF00801F7
:101C60000161042020772068C0698007204602D0E7
:101C7000FFF7AEFF04E000F0BBF8204600F076F975
:101C8000257720680169C943C90617D4C168C943CB
:101C9000C90613D46FF01001016108202077206875
:101CA000C06910F4407F204602D0FFF791FF04E0A6
:101CB00000F09EF8204600F059F925772068016968
:101CC000C943C90708D1C168C943C90704D1891EDE
:101CD0000161204600F06EF920680169C9430906D8
:101CE00009D4C168C943090605D46FF080010161B8
:101CF0002046FFF79DFD20680169C943490609D4C4
:101D0000C168C943490605D46FF04001016120460E
:101D100000F05AF920680169C94389060BD4C168EB
:101D2000C943890607D46FF0200101612046BDE850
:101D30007040FFF77EBD70BD30B587B004461421FA
:101D40006846FEF766FB234D2368002022490222E5
:101D50000324AB4211D10B6843F004030B60096804
:101D600001F0040105914FF470710091CDE901205B
:101D7000CDE903046946194812E0194DAB4213D16D
:101D80000B6843F010030B60096801F01001059126
:101D900060210091CDE90120CDE903046946114895
:101DA000FFF70EF907B030BD0F4CA342FAD10B6814
:101DB00043F002030B60096801F002010591E100A4
:101DC0000091CDE90120039009200490694607485D
:101DD000E6E70000000401403038024000080240FD
:101DE0000040014000100240001800400004024082
:101DF000704770B5044690F83C000D4601280DD0A0
:101E0000012684F83C60022084F83D0042B1042A97
:101E100018D0082A2AD00C2A4DD139E0022070BDF2
:101E2000206801F089FD2068816941F00801816125
:101E30002068816921F004018161206881692A6933
:101E4000114311E0206801F0A7FD2068816941F489
:101E5000006181612068816921F48061816120686D
:101E600081692A6941EA0221816124E0206801F048
:101E7000C9FD2068C16941F00801C1612068C169DC
:101E800021F00401C1612068C1692A69114311E090
:101E9000206801F0EBFD2068C16941F40061C16177
:101EA0002068C16921F48061C1612068C1692A6923
:101EB00041EA0221C16184F83D60002084F83C00C1
:101EC00070BD10B5040003D094F83D0010B107E0D8
:101ED000012010BD002084F83C00204600F00CF8E2
:101EE000022084F83D00211D206801F0B3FC012090
:101EF00084F83D00002010BD08B5184A0168184854
:101F0000914211D1016841F0020101600068002294
:101F100000F00200009011462C20FFF7BFF9BDE849
:101F200008402C20FFF7ACB90E4A914207D1016856
:101F300041F480310160006800F480300BE00A4811
:101F4000814209D10648001F016841F0400101604B
:101F5000006800F04000009008BD0000000401404F
:101F60004438024000400140001800407047000023
:101F700010B504460068012201F0D0FC0B4920682E
:101F8000884202D00A49884203D1416C41F40041A1
:101F900041642068816801F00701062903D00168C7
:101FA00041F001010160002010BD0000000001406F
:101FB0000004014000680349884201D1FFF7E8B8F6
:101FC00070470000001C00407047704770B5026801
:101FD00004461068D168536910F00F0F51D003F018
:101FE000010501F4907635435DD0C20705D0CA05DE
:101FF00003D5E26B42F00102E263420705D5DA073E
:1020000003D0E26B42F00202E263820705D5DA07F1
:1020100003D0E26B42F00402E263020705D5DA075F
:1020200003D0E26B42F00802E263E26B002A34D094
:10203000800604D5880602D5204601F055FD2068AB
:102040004069E16BC0F3801001F0080101432046B4
:1020500024D001F03BFD2068416949061AD5416949
:1020600021F040014161606BA0B11B490165606BCB
:10207000FEF746FF002810D0606B016DBDE8704090
:10208000084783060FD58B060DD52046BDE8704066
:1020900001F02ABD2046FFF798FF70BDFFF795FFBE
:1020A0000020E06370BD030606D50B0604D520466C
:1020B000BDE8704001F0BABE4006F3D54806F1D540
:1020C000D168204621F04001D160202184F83910E8
:1020D00000F02BF970BD0000BD3A000870B5040097
:1020E00004D094F83900002510B106E0012070BD3D
:1020F00084F83850204600F023F8242084F8390072
:102100002068C16821F40051C160204601F038FD0B
:102110002068016921F4904101612068416921F042
:102120002A0141612068C16841F40051C160E56342
:10213000202084F8390084F83A00002070BD0000A7
:10214000F0B587B0044614216846FEF762F9274FC0
:102150002268274902230124032507262548BA427D
:102160001ED1234A1432176847F01007176012680F
:1021700002F0100205920A6842F001020A60096842
:1021800001F00101059169028DE87A006946FEF7C8
:1021900017FF002205212520FFF780F8252020E0E9
:1021A000154FBA421FD1124A1032176847F4003750
:1021B0001760126802F4003205920A6842F00102C8
:1021C0000A60096801F0010105910C218DE87A008F
:1021D0006946FEF7F5FE002205212620FFF75EF88E
:1021E0002620FFF74DF807B0F0BD000000100140B9
:1021F00030380240000002400044004090F83A307D
:10220000202B22D1F9B1F2B190F83830012B1CD03B
:1022100081628285C2850021C163222280F83A2032
:1022200080F838100168CA6842F48072CA60016898
:102230004A6942F001024A610068C16841F0200128
:10224000C1600020704701207047022070470000E5
:10225000054810B5007800F07FFDBDE81040012270
:1022600001490248FFF7CABFD00000202004002027
:102270002DE9F843044690F839001F4616460D46EE
:10228000202850D1A5B19EB194F8380001284AD039
:10229000012084F838004FF00008C4F83C80212069
:1022A00084F83900FEF76EFFA6848146E68426E0B6
:1022B0000120BDE8F883E08C401EE084A0684B4616
:1022C000B0F5805F4FF000024FF08001204600978C
:1022D00003D001F0DCFDE8B90DE001F0D8FDC8B98C
:1022E00028882168C0F308004860206908B16D1C87
:1022F00005E0AD1C03E0216815F8010B4860E08C97
:102300000028D8D14B46002240212046009701F0FA
:10231000BEFD08B10320CCE7202084F8390084F802
:1023200038800020C5E70220C3E77047FEE72DE9AB
:10233000F0411D46144688460646002703F074FF08
:102340007006000E03F044FF03F09CFF404603F0CC
:102350003FFF03F097FF03F067FF012000EB46000B
:10236000C0B203F035FF03F08DFF09E0012C0ED061
:1023700003F008FF287003F0D7FE641EE4B26D1C62
:10238000002CF3D103F06AFF3846BDE8F08103F07A
:10239000F9FE287003F0E0FEEFE72DE9F0411F465B
:1023A000154688460446002603F03EFF6006000EF0
:1023B00003F00EFF03F0B8FE404603F009FF03F000
:1023C00061FF002405E0385D03F002FF03F05AFFCF
:1023D000641CAC42F7DB03F041FF3046BDE8F081FE
:1023E0002DE9F04F87B014216846FEF712F86C48CB
:1023F0000024016841F010010160016801F0100142
:102400000591016841F020010160016801F020019F
:102410000591016841F080010160016801F08001CF
:102420000591016841F001010160016801F00101BD
:102430000591016841F002010160016801F00201AB
:102440000591016841F008010160016801F008018F
:102450000591016841F040010160016801F040010F
:102460000591016841F0040101600068DFF83491D2
:1024700000F004004FF4807505900022294648467C
:10248000FEF77BFEDFF820A148F204070022394660
:102490005046FEF772FEDFF814B14FF400680022D8
:1024A00041465846FEF769FE002230214048FEF7BB
:1024B00064FE0122C0213F48FEF75FFE0095012522
:1024C000CDE90154694648460394FEF779FD3A4E3A
:1024D0006802CDE90006694602944846FEF770FDA1
:1024E0000097CDE90154694650460394FEF768FD14
:1024F0000820CDE90006694602945046FEF760FDCB
:10250000CDF80080CDE90154694658460394FEF7A2
:1025100057FD2803CDE90006694602945846FEF7A8
:102520004FFD30200090CDE90154694620480394C6
:10253000FEF746FD1020CDE90006694602941D48CD
:10254000FEF73EFDC02000901120CDE90104694650
:1025500018480394FEF734FD002205210920FEF7F8
:102560009DFE0920FEF78CFE002205210A20FEF7C1
:1025700095FE0A20FEF784FE002205211720FEF7B3
:102580008DFE1720FEF77CFE002205212820FEF795
:1025900085FE2820FEF774FE07B0BDE8F08F00002E
:1025A0003038024000140240001802400008024087
:1025B000000C0240000402400000311010B588B049
:1025C0001C216846FDF725FF1248114900240160CF
:1025D0000321C0E901144FF47A71C0E9031480218A
:1025E0008161FFF76EFC6020CDE9000402940022B7
:1025F000694608480494FFF7FCFB04226946054835
:10260000FFF7F7FB0348FFF797FB08B010BD00008A
:10261000001800406003002010B58CB024216846EB
:10262000FDF7F7FE00241348099411490A94C0E904
:10263000001441F28831C0E90241046144618461BF
:102640000320CDE900040120CDE902040494CDE982
:1026500005400794694607480894FFF7C2F90994B2
:1026600009A904480A94FFF70FF90CB010BD000047
:10267000000001406001002010B58CB024216846A4
:10268000FDF7C7FE0024124809944FF080410A94D8
:10269000C0E9001441F28831C0E90241046184615B
:1026A0000320CDE900040120CDE902040494CDE922
:1026B00005400794694606480894FFF792F9099483
:1026C00009A903480A94FFF7DFF80CB010BD000019
:1026D000A001002010B58CB024216846FDF799FEBA
:1026E00000241248099410490A94C0E9001441F2E8
:1026F0008831C0E90241046184610320CDE900040E
:102700000120CDE902040494CDE90540079469460F
:1027100006480894FFF765F9099409A903480A9443
:10272000FFF7B2F80CB010BD00040040E00100203B
:1027300010B58CB024216846FDF76BFE00241248CA
:10274000099410490A94C0E9001441F28831C0E9A3
:102750000241046184610320CDE900040120CDE938
:1027600002040494CDE9054007946946064808949C
:10277000FFF737F9099409A903480A94FFF784F889
:102780000CB010BD000800402002002010B592B02F
:1027900000240F941C2168461094FDF73AFE202176
:1027A00007A8FDF736FE2248204901600721C0E94D
:1027B00001144FF47A71C0E903148021C0E9054186
:1027C000FFF77FFB0F940FA919481094FFF75CF8EF
:1027D0006020CDE90004029403940494059400223F
:1027E000694613480694FFF704FB04226946104823
:1027F000FFF7FFFA082269460D48FFF7FAFA0C22A4
:1028000069460B48FFF7F5FA0794089409944FF4CA
:1028100000500A94CDE90B4007A905480E94FFF734
:1028200009F80348FFF788FA12B010BD0004014010
:10283000E002002010B588B01C216846FDF7E9FDD4
:1028400012481149002401600721C0E901144FF426
:102850007A71C0E9031480218161FFF732FB6020A7
:10286000CDE9000402940022694608480494FFF769
:10287000C0FA042269460548FFF7BBFA0348FFF790
:102880005BFA08B010BD00000040014020030020AA
:10289000FEE7000010B53C2005F0DCF90021818145
:1028A000C1810182418281829FED0E0AC18280ED49
:1028B000000A80ED010A80ED020A018380ED070A1B
:1028C00080ED080A9FED080A80ED090A80ED0A0AEA
:1028D00080ED0B0A80ED0C0A80F83410C186018768
:1028E00010BD000000000000000096432DE9F05FDD
:1028F00082460BA81F4690E86008904689463C2017
:1029000005F0A8F9C0F800A0A0F80490C0F808806D
:10291000878105618682C0F818B00E9A82830022F2
:1029200080F8242002628262C26204460A9A31461A
:1029300028462263FFF71CFBA18BA069FFF718FB59
:102940003C21206BFFF72AF92046BDE8F09F826208
:1029500080F824100023B1B1012932D0022911D10D
:10296000818AF1B3042959D008290169096859D02D
:102970000A64818BD9B104291DD0806908290068B7
:102980001DD003647047818A39B1042909D0082910
:102990000169096809D00B64EBE7016909684B63B9
:1029A000E7E7016909688B63E3E7CB63E1E78069E7
:1029B0000068436370478069006883637047C3633E
:1029C0007047818A91B1042914D0082901690968E6
:1029D00014D00B64818B99B1042915D00829806922
:1029E00000E017E0006813D00264704701690968CD
:1029F0004B63EFE7016909688B63EBE7CB63E9E7BA
:102A0000806900684263704780690068826370472C
:102A1000C2637047016909684A63AAE701690968E6
:102A20008A63A6E7CA63A4E78162C36A0022002B17
:102A300002DD4FF0010302E004DA4FF0020380F8F8
:102A4000243001E080F8242090F82430B3B1012B29
:102A500032D0022B11D1838AF3B3042B59D0082B27
:102A600003691B6859D01964818BD9B104291DD021
:102A70008069082900681DD002647047818A39B1D5
:102A8000042909D008290169096809D00A64EBE71B
:102A9000016909684A63E7E7016909688A63E3E74E
:102AA000CA63E1E780690068426370478069006833
:102AB00082637047C2637047838A93B1042B14D03A
:102AC000082B03691B6814D01A64828B9AB1042AFC
:102AD00015D0082A806900E017E0006813D001646F
:102AE000704703691B685A63EFE703691B689A63C1
:102AF000EBE7DA63E9E78069006841637047806962
:102B0000006881637047C163704703691B6859633C
:102B1000AAE703691B689963A6E7D963A4E70000E5
:102B200010B50446006B0068416A6163A06BA16345
:102B3000081A2062B0F5FA6F03DDA0F598508838C6
:102B400005E010F5FA6F03DC41F288310844206299
:102B500000EE100AB8EEC00AB0EEC00A10EE100A7D
:102B6000FDF71DFE9FED101B53EC112BFDF717FD1C
:102B70009FED0F1B53EC112BFDF783FD9FED0E1BFB
:102B800053EC112BFDF77DFD9FED0D1B53EC112B2D
:102B9000FDF705FD9FED0C1B53EC112BFDF7FFFC22
:102BA000FDF7DEFD206210BD00000000000049407E
:102BB000000000C0CC4C3540000000000000264062
:102BC000000000000000D03F0000000000004E4068
:102BD000704780ED010AC0ED020A70EE600AD0ED88
:102BE000071AC0ED081A90ED061AF5EEC00A80ED3E
:102BF000071AF1EE10FAC0ED060A02DDB0EE600A27
:102C00000FE090ED0D2AB1EE600AB4EEC20AF1EECB
:102C100010FA01DD012100E0002100EE101AB8EEEB
:102C2000400AB5EEC00AF1EE10FA02D190ED0C0A9E
:102C30007047017811B1012927D040E090ED030AD7
:102C400020EE200A80ED090A90ED0A0AD0ED041A60
:102C500001EEA00A80ED0A0AD0ED0E1AB4EEE10AE8
:102C6000F1EE10FA01D3B0EE610A80ED0A0AD0ED60
:102C70000F1AB4EEE10AF1EE10FA01DCB0EE610ACF
:102C800080ED0A0A30EEC10A13E030EEC10A90ED81
:102C9000032A20EE020A80ED090A90ED040A20EED4
:102CA000200A80ED0A0AB0EE000A41EE400A30EE3A
:102CB000A10AD0ED050A20EE200A80ED0B0A90ED66
:102CC000090AD0ED0A0A30EE200AD0ED0B0A30EEE8
:102CD000200A80ED0C0AD0ED0E0AB4EEE00AF1EE07
:102CE00010FA01D3B0EE600A80ED0C0AD0ED0F0AA5
:102CF000B4EEE00AF1EE10FA01DCB0EE600A80ED0D
:102D00000C0A704710B504462DED068BB0EE628AB2
:102D1000F0EE428AB0EE619AF0EE419AB0EE60AA0F
:102D2000F0EE40AA402004F095FF0470C0ED03AA25
:102D300080ED04AA9FED070AC0ED059A80ED0A0A0E
:102D400080ED0D9AC0ED0E8A80ED0F8ABDEC068BEA
:102D500010BD00000000000070B51B4B0024194698
:102D60001A4E0A785D68511CC9B235B1012D08D0E0
:102D7000022D10D0032D15D005E01D2803D101240C
:102D800005E0D12802D05C601C700EE002245C607B
:102D9000B054197070BDB05419700729FAD30320CC
:102DA000586070BDED2806D05C60BDE870408021A1
:102DB0000648FDF72EBBB0541970044800F008F81F
:102DC0005C601C7070BD00004C01002084890020F4
:102DD0000C4982780968FF2A06D03F2A06D00F2ABC
:102DE00006D0032A05D005E0002202E0012200E01F
:102DF00002220A7030F8032F52BA4A80408840BA43
:102E0000888070470C0100202DE9F04706461F46D8
:102E100090460D461820DDF8209004F01BFFC0F806
:102E2000048047810660058100220273C28102820C
:102E30000446C0F8149029463046FEF79EF9204615
:102E4000BDE8F087017B022903D039B19FED160A56
:102E50007047002101739FED150A7047018AC089F0
:102E60009FED130ADFED130AB6EE001A814206D970
:102E7000A1EB000001EE900AF8EEE11A09E00FD292
:102E80004FF6FF72A2EB0000084401EE900AF8EE44
:102E9000611A21EE800A20EE011A81EE200A7047A5
:102EA0009FED050A704700000080C9430080C843B9
:102EB0000000AA4300401C460000CA4310B5044667
:102EC000018900680022FEF758F90A2002F0C6FEC8
:102ED000218901222068FEF750F9322002F0BEFE5F
:102EE000218900222068FEF748F90220207310BDD6
:102EF0002DED068B86B09FED7C8A0025DFF8ECA1D6
:102F00007B4C7C4FA8464FF4167BBBEE04AAF3EE35
:102F1000049A4FF08049F3EE098ABBEE099A2668BD
:102F200096F8340010B1012872D0D8E087ED038AFA
:102F3000012D27D0022D2CD0306BFDF730FCCDE9D0
:102F40000401F06AFDF72BFCCDE90201B06AFDF740
:102F500026FCCDE90001706AFDF721FC41EC100B65
:102F600065A053EC102B00F0D3FFB8F1000F17D081
:102F7000B8F1010F2ED0B8F1020F4AD0B8F1030F0B
:102F800051D035E087ED008A87ED019A002558463B
:102F900003E00025584687EC028A04F011FA27E086
:102FA000C7ED009A87ED018A20685246416A914236
:102FB00004DA836A934201DB012018E0914217DAB8
:102FC000816A914214DA016B91421DDA02200EE00F
:102FD00003200CE087ED00AA87ED018A20685146A6
:102FE000826A8A4208DA436A8B4205DB0020804607
:102FF000192004F0E5F972E08A42F9DA426A8A425D
:10300000F6DA026B8A42E1DBC06A5045E0DBDDE7BD
:1030100019E087ED008A87ED01AA20685146C26A4F
:103020008A42D5DB08E087ED008AC7ED019A206867
:103030005146026B8A42C9DB426A8A42D6DC806A08
:103040005045B9DCD4E7304896ED020A0068D0ED6F
:10305000030A30EE200AFDF72DFFF0EEC00A10EE55
:10306000900A2A4987ED038A884213DA2068B0EE75
:10307000480AD0ED020A30EE600AB0EEC00A10EE47
:10308000100A484503DD00BF87ED008A16E0C7ED52
:10309000008A13E010EE900A1D49884211DD206875
:1030A000B0EE480AD0ED020A30EE600AB0EEC00A77
:1030B00010EE100A4845E7DC87ED009A87ED018A9B
:1030C0000DE0B5EEC00AF1EE10FA03DD012587EC44
:1030D000028A04E087ED019A87ED008A0225142018
:1030E00004F06EF91BE7000000000000000034420D
:1030F000D40000200000002025662C25662C2566C3
:103100002C25660A00000000E80000200000AA420A
:103110000000BE42012004F053F9FBE70EB59FED1D
:10312000120A124C8DED000A8DED010A8DED020A96
:1031300002AA01A9684603F04BFA80B920689DED08
:10314000010A80ED010A9DED000AB1EE400A80ED12
:10315000000A9DED020AB1EE400A80ED020A142039
:1031600004F02EF9E4E7000000000000D400002085
:10317000012700260F4D104C04F0F0FE2968087856
:10318000032804D0012810D078B102280DD020687F
:1031900080F8346020684A88C2868988018704F0F4
:1031A000FDFE142004F00CF9E6E7206880F8347086
:1031B000F0E700000C010020D40000202DED088B6A
:1031C00084B0F9EE042AB1EE042AF0EE001A9FED65
:1031D0004D1A9FED4DAAF0EE4A0A9FED4C0A0020D1
:1031E000FFF790FD4A4D0646DFED4ABAF2EE00AA1F
:1031F0009FED49BA9FED499A494CF4EE009A286830
:1032000090F83410012930D0DFED468AB0EE6B0A19
:10321000B5EEC00AF1EE10FA01DC9FED430ABDEEF7
:10322000C08A9FED420B43A153EC102B684600F07F
:103230007FFE6846FDF7F8F882B20A2369463F48E8
:10324000FFF716F840F28A2004F0BAF8F5EEC08ACB
:103250002068F1EE10FAF8EEC80A90ED030A42DD9C
:1032600060EE890A00EEA90A41E0B0F9360000EEEE
:10327000100A3046F8EEC00AB0EE4A0AFFF7A9FC81
:10328000B0EE408A88EE090A20EE2A0AB5EEC00A9E
:10329000F1EE10FA03DC88EE0B0A20EE2A0A18EE93
:1032A000100AFDEEC08AFDF77AFA41EC100B21A15D
:1032B00053EC102B684600F03BFE6846FDF7B4F86F
:1032C00082B20A2369461D48FEF7D2FF142004F09B
:1032D00077F8B5EEC08A2068F1EE10FAF8EEE80A49
:1032E00090ED030ABCDC60EE890A00EEE90A80ED8D
:1032F000030A206890ED030AFDF7DCFD206880EDED
:10330000030A7CE7A69BC43B00000000CDCC4C3DEB
:10331000D4000020000020436666E6BF6666E63FF4
:10332000E800002000001042000020C30000000060
:1033300000004240252E34662A0A0000E0030020E7
:1033400094B0142255496846FDF74AF853491422AF
:10335000143105A8FDF744F85049142228310AA871
:10336000FDF73EF84D4914223C310FA8FDF738F81F
:103370004B4D4C4E4C4FDFF834810024E9460DF1A3
:10338000140A0DF1280B0A2004F01AF82868FFF738
:1033900095FD3068FFF792FD3868FFF78FFDD8F88C
:1033A0000000FFF78BFD642004F00AF82868FFF79F
:1033B00049FD09EB840080ED000A3068FFF742FD0B
:1033C0000AEB840080ED000A3868FFF73BFD0BEB49
:1033D000840080ED000AD8F80000FFF733FD0FA845
:1033E00000EB8400641C80ED000A052CCBD1304B2F
:1033F000042205216846FCF7A5FF2D4B0422052178
:1034000005A8FCF79FFF2A4B042205210AA8FCF718
:1034100099FF274B042205210FA8FCF793FF9DED90
:10342000010ADDED020A2348002430EE200ADDED1A
:10343000030A006870EE200AB0EE080A80EE801AD7
:1034400080ED091ADDED060A9DED071A70EE810A7E
:103450009DED081A70EE810A80EE801A80ED0A1A3E
:10346000DDED0B0A9DED0C1A70EE810A9DED0D1A33
:1034700070EE810A80EE801A80ED0B1ADDED100AE5
:103480009DED111A70EE810A9DED121A70EE810AFF
:1034900080EE801A80ED0C1A75E70000B88D0008E8
:1034A000EC000020F0000020F4000020F8000020D4
:1034B0009B0E0008D40000202DED048BF8EE082AA6
:1034C000B0EE082AF0EE001A9FED371ADFED370A4A
:1034D0009FED370A0020FFF715FC8246354D364C2C
:1034E0009FED369ADFED368A9FED368A364E374F9E
:1034F000DFF8DC80DFF8DC9004F030FD286894ED24
:10350000030AD0ED020A5046FFF763FB84ED020A7E
:1035100004F044FDD4ED002AD4ED010AD4ED021AE2
:1035200082EE890A306880EEA81AD4ED040A30EEE3
:10353000412A94ED050A01EEE02A82EE003A23EEDC
:10354000082ABDEEC22A80ED0B2A82EEA82A38682E
:1035500071EE422A41EEE02A82EE803A63EE082ABA
:10356000FDEEE22AC0ED0B2A72EE412A32EE011A7C
:10357000D8F8000041EEE02A01EEE01A82EE803A2F
:10358000C1EE000A63EE082AFDEEE22AC0ED0B2A26
:10359000D9F8000020EE880ABDEEC00A80ED0B0AC3
:1035A000142003F00DFFA7E752499D3A00000000E8
:1035B000CDCCCC3CD400002000000020F4FDB4BFF2
:1035C000F4FDB43FD4C91841D8000020DC0000202D
:1035D000E0000020E4000020142003F0F1FEFBE7EF
:1035E0002DE9F04107461C4615460E46102002F014
:1035F0008DFF0760068145609FED030A448180EDE1
:10360000030ABDE8F08100000000000010B5502062
:1036100080F31188BFF34F8FBFF36F8F05F09AF9D6
:1036200018B104494FF080500860002080F31188E1
:1036300010BD000004ED00E030B593B030216846C5
:10364000FCF7E7FE14210CA8FCF7E3FE194800255F
:10365000016841F080510160006800F080501190D5
:103660001548016841F4804101600068022400F4BB
:103670008040119001200390102004900094069443
:103680000820CDE90750A820CDE9090404200B90BB
:103690006846FDF73FFF0CA90F2081E831004FF489
:1036A000A0500F90E002109005210CA8FDF728FE15
:1036B00013B030BD4038024000700040104801682F
:1036C00041F4700101600F48016841F0010101609F
:1036D0000C4A00210832116002680B4B1A4002604C
:1036E000031D0A4A1A60026822F48022026005481B
:1036F0000C300160024958068039086070470000AC
:1037000088ED00E000380240FFFFF6FE1030002494
:103710002DE9F041DFF8F8804446D8F80000FFF7C3
:10372000FFF93C4D2868FFF7FBF93B4E3068FFF787
:10373000F7F93A4F3868FFF7F3F9206890ED080A77
:10374000C06AF8EEC00A002800DC404200EE100A11
:103750003348B8EEC00A0068FFF73BFABDEEC00A76
:10376000304C84ED000A286890ED080AC06AF8EE33
:10377000C00A002800DC404200EE100A2A48B8EED9
:10378000C00A0068FFF725FABDEEC00A84ED010A01
:10379000306890ED080AC06AF8EEC00A002800DC24
:1037A000404200EE100A2148B8EEC00A0068FFF758
:1037B00010FABDEEC00A84ED020A386890ED080ADE
:1037C000C06AF8EEC00A002800DC404200EE100A91
:1037D0001748B8EEC00A0068FFF7FBF9BDEEC00A53
:1037E00084ED030A2168D8F80000FFF71DF961682D
:1037F0002868FFF719F9A1683068FFF715F9E16843
:103800003868FFF711F9BDE8F0410A48FEF7E1B961
:10381000D8000020DC000020E0000020E4000020B0
:10382000FC000020380000200001002004010020DE
:1038300008010020A002002010B50448FEF7C9F9D5
:10384000BDE810400248FEF7C4B90000E0020020C5
:1038500060040020F0B50268254C264D264E274F07
:10386000274B4FF0804CA04209D0604507D0A842BA
:1038700005D0B04203D0B84201D0984204D122F022
:10388000700E4A6842EA0E02A0421BD0604519D071
:10389000A84217D0B04215D0B84213D0984211D0E8
:1038A000184DA8420ED0184DA8420BD0174DA84273
:1038B00008D0174DA84205D0164DA84202D0164D8B
:1038C000A84203D122F44075CA682A434D6922F008
:1038D00080022A4302608A68C2620A688262A04249
:1038E00001D0984201D10969016301214161F0BD14
:1038F000000001400004004000080040000C0040AF
:1039000000040140004001400044014000480140E3
:1039100000180040001C00400020004010B501F0DD
:103920001F030121046A99408C430462016A9A4092
:103930001143016210BD0000F0B5026A22F00102DD
:103940000262036A42688469124E24F073050C68AF
:103950002C4323F002058B682B430D4DA84201D068
:10396000B04205D123F00807CB683B4323F00403A2
:10397000A84201D0B04205D14D6922F440721543EE
:103980008A692A4342608461496841630362F0BDE9
:103990000000014000040140F0B5026A22F010026C
:1039A0000262026A436884690D6824F4E64444EACA
:1039B00005248D6822F0200242EA05120F4D104EB8
:1039C000A84201D0B04206D1CF6822F0800242EA7C
:1039D000071222F04002A84201D0B04207D14D693F
:1039E00023F4406343EA85038D6943EA850343601A
:1039F0008461496881630262F0BD000000000140FB
:103A000000040140F0B5026A22F480720262026A88
:103A10004368C46922F4007224F073050C68124EE6
:103A20002C438D6842EA05220E4DA84201D0B042D7
:103A300006D1CF6822F4006242EA072222F48062B3
:103A4000A84201D0B04207D14D6923F4405343EA64
:103A500005138D6943EA05134360C4614968C16376
:103A60000262F0BD000001400004014030B5026A6E
:103A700022F480520262046A4268C3690D6823F42A
:103A8000E64343EA05238D6824F4005444EA0534F0
:103A9000084DA84202D0084DA84204D14D6922F435
:103AA000804242EA85124260C3614968016404624F
:103AB00030BD0000000001400004014010B5806BE3
:103AC0000021C185C184FEF780FA10BD0168CA6873
:103AD00022F49072CA6001684A6922F001024A61C8
:103AE000202180F83A10704710B590F83A1022293A
:103AF00001D0022010BD8168B1F5805F11D001694D
:103B0000002901681FD0496801F07F03816A4A1CBF
:103B100082620B70C18D491E0904090CC18518D041
:103B20002BE00269816A002A0268526805D0D2B28D
:103B30000A80816A491C8162ECE7C2F308020A80AC
:103B4000816A891CF7E74A68816A4B1C83620A70A4
:103B5000E0E70168CA6822F02002CA600168CA680A
:103B600022F48072CA6001684A6922F001024A6147
:103B7000202180F83A10FEF76BFB002010BD0000FA
:103B80002DE9F041044600680169E26821F44051E2
:103B9000114301612169A068E26908436169114329
:103BA00022680843D16849F20C6399430143D1600C
:103BB00020684169A26921F4407111434161E269C1
:103BC0006425B2F5004F9748974922684FF03208B4
:103BD0003FD08A4201D082427CD1FDF759FC00EBF4
:103BE000C00101EB001061688900B0FBF1F6FDF740
:103BF0004FFC00EBC00101EB001061688900B0FBD5
:103C0000F1F0B0FBF5F06FF01801484306EB8001CE
:103C100008EB0110B0FBF5F000F0F006FDF738FC02
:103C200000EBC00101EB001061688900B0FBF1F00E
:103C3000B0FBF5F006EB0016FDF72AFC00EBC00127
:103C400001EB001061688900B0FBF1F7FDF720FC83
:103C5000D2E08A4201D082423DD1FDF719FC00EB4F
:103C6000C00101EB001061684900B0FBF1F0B0FB4E
:103C7000F5F00601FDF70CFC00EBC00101EB0010B4
:103C800061684900B0FBF1F7FDF702FC00EBC001F1
:103C900001EB001061684900B0FBF1F0B0FBF5F0FA
:103CA0006FF01801484307EB800108EBC100B0FB3F
:103CB000F5F000F0F80006EB4006FDF7E9FB00EB3D
:103CC000C00101EB001061684900B0FBF1F7FDF79E
:103CD000DFFB3CE055E0FDF7CBFB00EBC00101EB67
:103CE000001061684900B0FBF1F0B0FBF5F006018F
:103CF000FDF7BEFB00EBC00101EB0010616849005D
:103D0000B0FBF1F7FDF7B4FB00EBC00101EB0010D5
:103D100061684900B0FBF1F0B0FBF5F06FF01801FD
:103D2000484307EB800108EBC100B0FBF5F000F061
:103D3000F80006EB4006FDF79BFB00EBC00101EB32
:103D4000001061684900B0FBF1F7FDF791FB00EB53
:103D5000C00101EB001061684900B0FBF1F0B0FB5D
:103D6000F5F06FF01801484307EB800108EBC10044
:103D7000B0FBF5F000F00700216830448860BDE832
:103D8000F081FDF775FB00EBC00101EB00106168ED
:103D90008900B0FBF1F6FDF76BFB00EBC00101EB16
:103DA000001061688900B0FBF1F0B0FBF5F06FF036
:103DB0001801484306EB800108EB0110B0FBF5F059
:103DC00000F0F006FDF754FB00EBC00101EB001022
:103DD00061688900B0FBF1F0B0FBF5F006EB00166E
:103DE000FDF746FB00EBC00101EB001061688900A4
:103DF000B0FBF1F7FDF73CFB00EBC00101EB00105D
:103E000061688900B0FBF1F0B0FBF5F06FF01801CC
:103E1000484307EB800108EB0110B0FBF5F000F020
:103E20000F00A9E7001401400010014090F839107C
:103E3000212901D0022070478168B1F5805F016AB5
:103E40000BD04A1C0262026809785160C18C491E7D
:103E50000904090CC1840ED017E009880268C1F377
:103E60000801516001690029016A02D0491C016200
:103E7000ECE7891CFBE70168CA6822F08002CA608F
:103E80000068C16841F04001C160002070472DE921
:103E9000F041984617460E460446069D1DE0681CF4
:103EA0001BD02DB1FDF76EF9A0EB0800A84214D984
:103EB0002068C16821F4D071C1602068416921F097
:103EC00001014161202084F8390084F83A00002083
:103ED00084F838000320BDE8F0812068006836EAE5
:103EE000000004D00020B842D9D00020F3E7012020
:103EF000F9E700000148FEF769B80000E003002080
:103F00000148FEF763B8000020040020FEE700002F
:103F10000FB4054B10B503A9044A029800F0E0FD68
:103F200010BC5DF814FB0000415C0008100100208B
:103F30000FB4084B10B504A902AA039800F0D0FDF5
:103F4000044602A9002001F062F9204610BC5DF889
:103F500014FB00000F52000803B4019841000098C0
:103F600050EAC12018BF04204A0D18BF40F00100DC
:103F700040F2FF72B2EB515F08BF40F0020001282F
:103F800008BF052002B070470907090E002804DBAE
:103F900000F1E02080F80014704700F00F0000F1FD
:103FA000E02080F8141D704770B5C1482DED020B5C
:103FB0002DED0E8B82B0119D25F000449FEDBEDBF0
:103FC0009FEDBFEB84423EDBA4F140511098A1F17C
:103FD0007F6108430FD0BC48844202DC28D110988E
:103FE00030B39DED100B02B0BDEC0E8B02B0BDE8FE
:103FF000704000F069BC9DED100B53EC1D2B51EC93
:10400000100BFCF7CCFA9DED100B41EC180B53ECA8
:104010001E2B51EC100BFCF7C2FA53EC182BFCF7DB
:1040200017FA41EC100B02B0BDEC0E8B02B070BD64
:10403000012000F08DFC02B0BDEC0E8B02B0BDE89B
:10404000704000F055BCA1489FEDA18B844256DA28
:104050009DED100BB4F1795F0ADA51EC100BFFF70C
:104060007BFF042808BF00F053FC9DED100BDAE73E
:1040700053EC102B51EC100BFCF791FA41EC190B9F
:1040800095480621B0EE490AF0EE690A784400F03E
:104090009FFB53EC192B51EC100BFCF780FA41EC11
:1040A0001A0B8E48B0EE490AF0EE690A04217844F2
:1040B00000F08EFB53EC192B51EC100BFCF76FFA50
:1040C00053EC182BFCF7C4F941EC100B51EC1A0B14
:1040D00053EC102BFCF7D5FACDE900019DED000B58
:1040E00053EC102B9DED100B51EC100BFCF757FA15
:1040F0009DED101B53EC112BFCF7AAF9D2E09DEDBE
:10410000100B51EC100B01F08FFD53EC182BFCF74A
:1041100043FA9FED730BCDE9000153EC102B9DED9D
:10412000000B51EC100BFCF73AFA41EC190B6E48FE
:104130000621B0EE490AF0EE690A784400F048FB27
:1041400053EC192B51EC100BFCF729FA41EC1B0B2B
:104150006648B0EE490AF0EE690A0421784400F09E
:1041600037FB53EC192B51EC100BFCF718FA53ECFE
:10417000182BFCF76DF941EC1C0B51EC190B03F0FB
:104180005BFE41EC180B5A489FED5BABA04222DC72
:1041900053EC1C2B51EC1B0BFCF773FACDE900011F
:1041A0009DED000B51EC180B53EC102BFCF7F7F9BD
:1041B00053EC182BFCF74CF953EC1A2BFCF7EFF9E6
:1041C00053EC1D2BFCF7E5F953EC1E2BFCF7E4F93F
:1041D00041EC100B5FE08DED008B002000909DED19
:1041E000000B51EC180B53EC102BFCF731F99DED43
:1041F000000B41EC1E0B53EC102B51EC100BFCF799
:10420000CEF953EC192BFCF7C7F953EC1E2BFCF736
:1042100038FA41EC190B53EC1C2B51EC1B0BFCF73F
:1042200030FA41EC1B0B53EC1A2B51EC190BFCF739
:10423000B6F953EC1D2BFCF7AFF941EC190B53EC1D
:104240001A2B51EC180BFCF7AAF953EC1B2BFCF7BB
:10425000A6F953EC192BFCF79CF99DED000B41ECF2
:10426000180B53EC1A2B51EC100BFCF798F99FED3F
:10427000249B53EC192BFCF78FF941EC100B51ECFC
:10428000180B53EC102BFCF784F953EC192BFCF7AB
:1042900083F941EC100B002D3FF7C5AE51EC100B2C
:1042A00081F0004141EC100BBDE600000000000071
:1042B0000000F03F00000000075C143326A6913C8C
:1042C000182D4454FB21F93F0000F07F0000E03F2F
:1042D000000000000000F03FD8590000E65900003F
:1042E000000000000000E03F2A590000385900009B
:1042F0003333EF3F000000000000000000000040EA
:10430000182D4454FB21E93F70B59B482DED020B5D
:104310002DED068B079D25F00044A04218DC974840
:10432000844202DC0AD1069840B19DED060BBDEC3B
:10433000068B02B0BDE8704000F0C6BA002DCCBFBD
:104340009FED8F0B9FED900BBDEC068B02B070BD07
:104350008F48A04215DD8F48A042D8BF4FF0FF34F0
:1043600058DD9DED060B51EC100BFFF7F5FD042811
:1043700008BF00F0CDFA9DED060BBDEC068B02B038
:1043800070BD9DED060B51EC100B01F04DFCCDE91D
:10439000060181489FED828BA0423CDD8248A0420D
:1043A0001FDD00249FED82AB9DED060B53EC1A2B15
:1043B00051EC100BFCF74CF89DED060B41EC190B82
:1043C00053EC1A2B51EC100BFCF7E9F853EC182BBB
:1043D000FCF7DFF853EC192BFCF753F9CDE9060194
:1043E00049E09DED060B012453EC182B51EC100B0A
:1043F000FCF72EF89DED060B41EC190B53EC182B36
:1044000051EC100BFCF7C5F853EC192BFCF739F9FC
:10441000CDE906012FE06848A0421FDD02249FED90
:10442000689B9DED060B53EC192B51EC100BFCF720
:10443000B6F853EC182BFCF70BF89DED060B41EC8E
:10444000180B53EC192B51EC100BFCF7A2F853ECA2
:10445000182BFCF716F9CDE906010CE09DED060BD3
:10446000032453EC102B9FED580B51EC100BFCF771
:1044700008F9CDE906019DED060B53EC102B51EC2C
:10448000100BFCF78CF841EC180B53EC182BFCF7D5
:1044900086F841EC190B4E480621B0EE490AF0EEC1
:1044A000690A784400F094F953EC182B51EC100B86
:1044B000FCF775F841EC180B4648B0EE490AF0EEEF
:1044C000690A0521784400F083F953EC192B51EC6B
:1044D000100BFCF764F841EC100B51EC180B53EC8B
:1044E000102B002C0EDAFBF7B3FF9DED061B53ECEF
:1044F000112BFCF754F89DED061B53EC112BFCF728
:104500004BF835E0FBF7A4FF9DED061B53EC112B98
:10451000FCF745F841EC100B2F48784400EBC40041
:1045200090ED001B51EC100B53EC112BFCF731F804
:104530009DED061B53EC112BFCF72BF841EC100BF7
:104540002648784400EBC40090ED001B51EC100BA2
:1045500053EC112BFCF720F841EC100B002DA2BFFF
:10456000BDEC068B02B070BD51EC100B81F0004128
:1045700041EC100B01E70000000010440000F07F48
:10458000182D4454FB21F93F182D4454FB21F9BF49
:104590000000DC3F0000203E0000F33F0000000070
:1045A000000000000000F03F0000E63F00000000B7
:1045B00000000000000000400080034000000000F8
:1045C000000000000000F83F000000000000F0BF05
:1045D0007A56000030560000BA55000072550000AF
:1045E00070B56B4E2DED040B2DED028B82B0DDF816
:1045F0001CC0DDE905235C422CF000411C4341EA6C
:10460000D474049D22F00040B44205D86C422C437F
:1046100040EAD474B4420BD99DED061B9DED040B0A
:1046200002B0BDEC028B04B0BDE8704000F056B99A
:10463000ACF14054A4F17F641C430BD0022404EA83
:10464000AC7444EAD27405439FED538B9FED542B19
:1046500007D015E09DED040B51EC100B00F024FE8B
:1046600042E0002C11BF012C9DED040B02B0BDEC0B
:10467000028B04BF04B070BD022C38D0032C3BD099
:104680000B439FED491B9FED4A0B0AD0B14218D155
:10469000B04209D121F0804120F08040079105907F
:1046A0000FE0002A15DA10E0434B7B44002C08BFD2
:1046B00093ED000B0DD0012C10D0022C17D0032C41
:1046C0001AD0B0421DD1002A03DAB0EE410AF0EE52
:1046D000610A02B0BDEC028B04B070BD93ED000B1B
:1046E00051EC100B81F0004141EC100BF1E7B0EE02
:1046F000480AF0EE680AECE7B0EE420AF0EE620A11
:10470000E7E7401A00153C28C8BF8DED000B19DC07
:10471000BCF1000FBEBF10F13C0F9FED290B8DEDDA
:10472000000B0FDB9DED060B53EC102B9DED040BE6
:1047300051EC100BFBF7A5FF01F076FA00F0B4FD89
:10474000CDE90001002C08BF9DED000BC1D0012C6C
:1047500010D0022C9FED1C0B53EC102B9DED000B89
:1047600051EC100B0DD0FBF714FF53EC182BFBF79B
:1047700010FFB9E7019880F0004001909DED000B1B
:10478000A7E7FBF706FF53EC182BFBF705FFABE79A
:104790000000F07F00000000182D4454FB21094068
:1047A000182D4454FB2109C0182D4454FB21F9BF96
:1047B000182D4454FB21F93FA254000000000000D2
:1047C0000000000000000000075C143326A6A13C96
:1047D00070B504462DED028B4D1E00EBC500B0EE0A
:1047E000408AF0EE608A90ED000B35F0060017D09D
:1047F00053EC182B51EC100BFBF7D1FE41EC100BD6
:104800006D1E04EBC50090ED001B51EC100B53EC3A
:10481000112BFBF71DFE41EC100B35F00600E7D124
:10482000022D36D0042D1CD0062D1CBFBDEC028BF2
:1048300070BD53EC182B51EC100BFBF7B0FE94ED50
:104840000A1B53EC112BFBF703FE53EC182BFBF761
:10485000A6FE94ED081B53EC112BFBF7F9FD41EC80
:10486000100B53EC182B51EC100BFBF798FE94ED4A
:10487000061B53EC112BFBF7EBFD53EC182BFBF74E
:104880008EFE94ED040B53EC102BFBF7E1FD41EC95
:10489000100B53EC182B51EC100BFBF780FE94ED32
:1048A000021B53EC112BFBF7D3FD53EC182BFBF73A
:1048B00076FE94ED001B53EC112BFBF7C9FDBDEC0C
:1048C000028B41EC100B70BD10B553EC102B51EC6A
:1048D000100BFBF7BDFD41EC100B10BD10B553ECF8
:1048E000112B51EC100BFBF7B3FD41EC100B10BD7D
:1048F0009FED050B10B553EC102B51EC100BFBF793
:10490000C0FE41EC100B10BD0000000000000000D4
:104910009FED050B10B553EC102B51EC100BFBF772
:104920003EFE41EC100B10BD000000000000001026
:1049300002E008C8121F08C1002AFAD17047704768
:10494000002001E001C1121F002AFBD170470000C6
:1049500001490860704700005C0100202DE9FF5FFD
:1049600082B00021DDE90430020DDDF840B00343E0
:1049700018D044F61050A2F2FF3242431514119899
:1049800001281FD0A5EB0B00401C5FEA000A4FF086
:1049900000064E4FDFF83891B046504615D5CAF1A3
:1049A000000413E0119801244AA3012801D16FEA01
:1049B0000B010298119AC0E90031C0E9024206B029
:1049C000BDE8F09FCBF10000DFE704460021404A3C
:1049D000491842EB0450CDE9001012E0E00707D07F
:1049E00032463B4640464946FBF7D9FD804689465C
:1049F00032463B4610461946FBF7D1FD06460F46A8
:104A00006410002CEAD1DDE90401DDE90023BAF1EC
:104A1000000F06DAFBF7C3FD42464B46FBF7BFFD2E
:104A200005E0FBF72EFE42464B46FBF72AFE044606
:104A30000E460022284BFBF7D5FF03D84FF0FF307E
:104A4000014607E00022254B20463146FBF700FDDA
:104A5000FBF7AFFF102409E0002C0ADB0A22002339
:104A6000FBF70EFC039B30321A55641E50EA01021C
:104A7000F2D1641C039AC4F111031444119A012A5F
:104A800003D0012208430DD10AE0084304D00020DE
:104A90004FF0110B119072E7A3EB0B056D1E0DE0AB
:104AA0005B4504DD4FF0000205F1010504E003DA87
:104AB0004FF00002A5F10105002AECD002981199EF
:104AC000C0E90231C0E9004579E700000000144068
:104AD0000000F03F300000000000F0430000E03F25
:104AE0002DE9FF4F95B09B468946064600250FE20B
:104AF000252877D100242746F84A0121059400E0B3
:104B0000044316F8013F203B01FA03F01042F7D1AD
:104B100030782A2811D06FF02F033078A0F13002BE
:104B2000092A16D8059A44F0020402EB820203EB2C
:104B300042021044761C0590EFE759F8042B0592C9
:104B4000002A03DA504244F40054059044F0020471
:104B5000761C30782E2816D116F8010F44F0040484
:104B60002A280DD06FF02F023078A0F13003092BE6
:104B700009D807EB870302EB4303C718761CF3E75A
:104B800059F8047B761C30786C280FD006DC4C2852
:104B900017D068280DD06A2814D104E0742810D0EA
:104BA0007A280FD10DE044F400140AE044F4801494
:104BB00001E044F440147278824202D104F580147A
:104BC000761C761C307866280BD013DC582877D0FA
:104BD00009DC002875D04528F6D04628F4D04728AF
:104BE0001AD19DE118E0632835D0642879D0652872
:104BF00012D195E1702873D008DC6728F1D06928BC
:104C00006FD06E280DD06F2806D1B5E073282CD058
:104C1000752875D0782874D05A46179990476D1C1E
:104C200075E1C4F30250022809D003280DD0D9F849
:104C3000001004280DD00D6009F1040967E1D9F8CE
:104C40000010EA17C1E90052F6E7D9F800100D800C
:104C5000F2E70D70F0E719F8041B8DF80010002042
:104C60008DF80100EA46012003E059F804AB4FF04B
:104C7000FF3061074FF0000102D40DE008F101019F
:104C80008846B9420FDA8045F8DB1AF80810002987
:104C9000F4D108E008F1010188468142FADB1AF8F4
:104CA00008100029F6D105985B46A0EB08072146BD
:104CB0003846179A00F094FA284400EB080507E0FC
:104CC0004DE029E10DE01AF8010B5A46179990477B
:104CD000B8F10108F7D25B4621463846179A13E12E
:104CE00042E00A220092C4F302524FF0000A022A64
:104CF00008D059F804CB032A4FEAEC710AD00DE032
:104D000029E02AE009F1070121F00702F2E802C1D7
:104D1000914609E00FFA8CFC4FEAEC71042A03D1AA
:104D20004FFA8CFC4FEAEC71002907DA0A460021A1
:104D3000DCF1000C61EB02012D2202E0220504D51A
:104D40002B228DF80420012203E0E20701D020226B
:104D5000F7E7904659E00A2102E010220DE0102109
:104D60004FF0000A00910BE010224FF0000A44F0CF
:104D700004040827009203E008224FF0000A009282
:104D8000C4F30252022A05D059F804CB0021032AA9
:104D900008D009E009F1070121F00702F2E802C199
:104DA000914605E01FFA8CFC042A01D10CF0FF0C9F
:104DB0004FF00008220728D5702806D0009B83F00A
:104DC000100353EA0A0305D00EE040228DF80420B8
:104DD000012208E05CEA010206D030228DF80420AE
:104DE0008DF8050002229046009B83F0080353EAE9
:104DF0000A030AD15CEA010201D1620705D530221B
:104E00008DF804204FF001087F1E582804D034A0EC
:104E100003900EA802900DE036A0F9E753466046D5
:104E2000009AFBF72DFA84460398825C0298401E94
:104E3000029002705CEA0100F0D1029806A9081AFB
:104E400000F1200A600702D524F4803400E0012735
:104E5000574502DDA7EB0A0000E0002000EB0A0145
:104E6000009005984144401A0590E00306D45B4643
:104E70002146179A059800F0B3F90544002706E08B
:104E800001A85A46C05D179990476D1C7F1C474585
:104E9000F6DBE0030CD55B462146179A059800F037
:104EA0009FF9054404E030205A46179990476D1C3D
:104EB0000099481E00900029F5DC08E0029802994C
:104EC0005A460078491C0291179990476D1CBAF117
:104ED0000001AAF1010AF1DC65E1000009280100E6
:104EE0003031323334353637383961626364656660
:104EF0000000000030313233343536373839414222
:104F0000434445460000000000F058F90544761C73
:104F1000307800287FF4ECAD19B02846BDE8F08F5A
:104F2000620700D4062709F1070222F0070CFCE80B
:104F30000223E14603F000485FEA080C02D00FF2BA
:104F4000702C0DE05FEA045C02D50FF2682C07E0DC
:104F50005FEAC47C02D00FF2602C01E0AFF2700C6B
:104F60004FF0FF3823F00043CDF850C065280CD037
:104F700006DC452809D046281DD047283DD13DE014
:104F8000662818D067287ED138E00021112F01DB78
:104F9000112000E0781CCDE9000106A90EA8FFF75A
:104FA000DDFCDDE90F010E9A03910021009207F16B
:104FB000010A04914DE04FF000400097CDE9011047
:104FC00006A90EA8FFF7CAFCDDE90F0203920E9BAB
:104FD00011990022DDF80CA00093049211B9791CFC
:104FE00000EB010AB7EB0A0004D4C0F1FF3007F16F
:104FF000010A0490AAEB0700019044E0012F00DAB7
:1050000001270021112F01DD112000E03846CDE9F4
:10501000000106A90EA8FFF7A1FCDDE90F010E9A19
:105020000391002104910092BA4621070CD4039900
:10503000514500DA8A46BAF1010F05DD009AAAF15E
:105040000101515C302908D0B84202DA10F1040F96
:1050500006DA0121CDE9011015E0AAF10101E9E725
:10506000002805DC049901440491AAEB000102E048
:10507000411C514500DD8A460499401A401C0190AC
:105080004FF000400290200704D40198504501DB06
:10509000CDF8048000208DF84F0002980DF14F07E5
:1050A000B0F1004F25D02B200E9002984FF002084F
:1050B00000280CDA404202902D200E9007E00A21D1
:1050C0000298FBF79BFB3031029007F8011DB8F105
:1050D0000001A8F10108F2DC02980028EFD1791E46
:1050E0000E980870307800F0200040F0450007F876
:1050F000020D12A8C01B00F107081498007800B137
:10510000012000EB0A01019801EBE0710598414490
:10511000401A401E0590E00306D45B462146179ACC
:10512000059800F05DF805441498007818B15A46C7
:10513000179990476D1CE00324D55B462146179ACA
:10514000059800F04DF805441CE00498002807DBA2
:10515000DDE90301884203DD0098405C179901E016
:10516000179930205A469047049805F10105401CD4
:1051700004900198401E019004D12E205A461799A0
:1051800090476D1CBAF10001AAF1010ADDDC05E0CF
:1051900017F8010B5A46179990476D1CB8F100019A
:1051A000A8F10108F4DC5B462146179A0598ABE6A6
:1051B0002D0000002B000000200000002DE9F04130
:1051C000044600251E461746880404D405E03946E7
:1051D0002020B0476D1C641EF9D52846BDE8F0813B
:1051E0002DE9F041044600251E469046C80301D52E
:1051F000302700E02027880404D505E041463846E2
:10520000B0476D1C641EF9D52846BDE8F0810A68D8
:10521000531C0B6010707047FEB506460D46002407
:10522000684600F033FD00229FED1B1A6B460121FA
:1052300056F8227055F82200381A00D5404200EE88
:10524000100A03EB8200B8EEC00AD0ED000A20EE8F
:10525000010AF5EEC00AF1EE10FA0DD0C0EE201AE8
:10526000B7EE000A0D4F31EEC00AB0EEC00A10EEE4
:10527000100AB84207DC09E010EE100A084F384463
:10528000084FB84202D301FA02F00443521C032A29
:10529000CEDB2046FEBD000000008037295C0F3EBB
:1052A000666666C19A99D90010B541EC100BFFF7FC
:1052B0002BF851EC100B10BD08B560B120208DF813
:1052C000000028208DF8010030208DF802003820E1
:1052D0008DF8030004E0A32204216846FBF792F84E
:1052E0006A46042140F69E2002F040F801F0FEFCE0
:1052F00008BD00003EB5044602208DF80000CA201B
:105300008DF80100E3208DF8020009208DF80300DC
:105310006A460421682002F029F8A3208DF80000D5
:10532000610609D5C0218DF80110C8218DF8021041
:10533000C2218DF8031005E08DF801008DF8020000
:105340008DF8030014F4C07F09D0C4218DF8041037
:10535000CC218DF80510C6218DF8061005E08DF8DA
:1053600004008DF805008DF806008DF808008DF812
:1053700007008DF809006A460A2140F6A72001F0CF
:10538000F5FFA0074FF0D80503D020208DF80000CE
:1053900001E08DF800506A46012140F6B62001F088
:1053A000E5FFA00601D5012000E0002000F08EF806
:1053B00014F4C07F1ED0E0050AD5B2208DF800009D
:1053C0008B208DF80100B6208DF802009B2009E0AB
:1053D000B0208DF8000080208DF80100B4208DF8F9
:1053E000020090208DF803006A46042140F6A220B6
:1053F00001F0BCFFE1074FF40B6022D0F8218DF8DB
:1054000000106A46012101F0B1FFFA21072000F0E7
:105410003BFB072000F006FB012000F023FB64208B
:1054200000F0E2FB4FF4FA7000F0EEFBC8212548D3
:1054300000F0C0FA282000F0D5FA0A2000F0E2FAC5
:1054400005E08DF800506A46012101F08FFFA007AA
:1054500003D5D9208DF8000001E08DF800506A4690
:10546000012140F23D7001F081FF600701D501206C
:1054700000E0002000F048F8E00601D5012000E03F
:105480000020FFF719FF104D44F00800688101F07B
:105490002DFC0020A873600601D50620A87314F423
:1054A000C07F02D0A87B801DA87314F0140F02D017
:1054B000A87B1030A873A00702D0A87B001DA8739A
:1054C00000203EBD09E3CA02748900200EB54FF4E6
:1054D000976310B106A107C901E008A207CA8DE8C9
:1054E00007006A460921184601F040FF0EBD000082
:1054F000B8AAB38DB4980D355D000000B8AAAAAA69
:10550000B088C3C5C700000008B560B1C0208DF8E1
:105510000000C2208DF80100C4208DF80200C620D2
:105520008DF8030004E08B2204216846FAF76AFF35
:105530006A46042140F6982001F018FF01F0D6FBDE
:1055400008BD0000C8234FF48062024940F6F630DF
:1055500001F0AEBA708E00082DE9FF4F89B01746F2
:10556000DDE9165200244D4E884681462C80A24625
:10557000B07B694601F048FB4FF0FF3B18B158463D
:105580000DB0BDE8F08F708910F0140F3ED0009977
:1055900009BA21F0FF029DF803100A433A6001990D
:1055A0009DF8073009BA21F0FF0119437960029B89
:1055B0009DF80B401BBA23F0FF032343BB60039C01
:1055C000121424BA24F0FF0C9DF80F4009144CEA81
:1055D000040C1024C7F80CC01B144FEA2C4712FB14
:1055E00002F211FB012113FB03F217FB0722114406
:1055F000A1F17061B1F1007F04D901F077FBA5F84A
:1056000000A0BCE7298841F48071298042066946E0
:1056100011D50A19A41D13885BBAA8F80030538865
:105620005BBAA8F80230928852BAA8F804202A88F7
:1056300042F008022A8010F4C07F11D00A19A41D7C
:1056400013885BBAA9F8003053885BBAA9F8023016
:10565000928852BAA9F804202A8842F070022A805F
:10566000800716D00C44E07800F0C00500F03F0140
:105670006078C00706D0C80801F007013268491CED
:1056800002B190476078000703D5716809B1A80995
:1056900088470C9800F070FF002071E774890020A3
:1056A0002DE9FF41044603A801F0B2F8BDF80C0053
:1056B000410CC3032F48028902F00300550754F838
:1056C000200000D54042C2F3C105960654F825508B
:1056D00000D56D42C2F38116D20554F8264000D59C
:1056E0006442A0FB0367C21702FB037200FB0120A8
:1056F000820042EA9670A5FB0367EA1702FB037279
:1057000005FB0122950045EA9672A4FB0367E517A5
:1057100005FB037304FB01318B0043EA9671030E12
:105720008DF80030030C8DF80130030A8DF802303B
:105730008DF80300100E8DF80400100C8DF8050094
:10574000100A8DF80600080E8DF80800080C8DF878
:105750000900080A8DF80A008DF807208DF80B1053
:105760006A460C214FF4257001F000FE04B0BDE83C
:10577000F08100007489002030B5044613A285B082
:1057800007CA8DE807004FF0FF35C82C16D8C8208F
:10579000B0FBF4F1491E080A8DF80C008DF80D10CD
:1057A00003AA022140F2162001F0E0FD30B96A465A
:1057B0000C2140F6C12001F0D9FD10B1284605B0FA
:1057C00030BD054884810020F9E70000FEF2ABC43B
:1057D000AAF1DFDFBBAFDFDF74890020F8B5304905
:1057E000098901F0030250F822404A0700D56442BB
:1057F000C1F3C1028B0650F8222000D55242C1F3FA
:10580000811350F82330C80500D55B42254984FB3D
:105810000140850045EA947082FB0142A40F44EAEE
:10582000820483FB0121950F45EA8105010E8DF865
:105830000010010C8DF80110010A8DF802108DF88E
:1058400003006A4604214FF4747001F08FFD4FF09D
:10585000FF3688B9200E8DF80000200C8DF801006D
:10586000200A8DF802008DF803406A4604214FF4A7
:10587000757001F07BFD08B13046F8BD280E8DF83B
:105880000000280C8DF80100280A8DF802008DF820
:1058900003506A4604214FF4767001F067FDF8BDAD
:1058A0007489002009E3CA022DE9FF4104463CA0A7
:1058B00004F00303006802903AA0006803903AA045
:1058C00006683AA0056802A8C15C8DF80010C4F310
:1058D000C101425C8DF80120C4F38112805C8DF817
:1058E000020003A8C35C8DF80430415C8DF80510FC
:1058F000805C8DF806006A46032140F2264001F0E4
:1059000035FD4FF0FF37E0BB01AA032140F22A40EA
:1059100001F02CFDA8BBCDE9006560070BD59DF813
:10592000000040F001008DF800009DF8040040F0F8
:1059300001008DF80400A0060BD59DF8010040F091
:1059400001008DF801009DF8050040F001008DF880
:105950000500E0050BD59DF8020040F001008DF830
:1059600002009DF8060040F001008DF806006A462E
:1059700003214FF4886001F0F9FC10B901AA03215A
:1059800000E004E040F2314001F0F0FC18B138468C
:1059900004B0BDE8F081064804810020F8E700006B
:1059A0004CCD6C000CC92C0036567600264666009D
:1059B000748900204FF47A7290FBF2F008B54843E6
:1059C000010E8DF80010010C8DF80110010A8DF800
:1059D00002108DF803006A4604214FF4AE7001F006
:1059E000C5FC08BD0521B0FBF1F008B5010A8DF832
:1059F00000108DF801006A4602214FF4AD7001F0ED
:105A0000B5FC08BD0521B0FBF1F008B5010A8DF821
:105A100000108DF801006A4602214FF4AC7001F0CD
:105A2000A5FC08BD08B500218DF80010C10702D003
:105A300030218DF80010810705D59DF8001041F048
:105A40000C018DF80010400705D59DF8000040F0CE
:105A500003008DF800006A4601214FF4A47001F0A4
:105A600085FC08BD08B560B1042800D90420401E9B
:105A70008DF800006A46012140F24F1001F076FCDB
:105A800008BD0120F3E7000070B504462DED028B40
:105A900082B040074FF0FF357ED0B1F5C86F7BD89C
:105AA00000EE101AB8EE400ADFED460A01A880EEBB
:105AB000208A00F08FFE9DF80400022806D00428FA
:105AC00010D0082835D0102874D13EE09FED3E0A52
:105AD00028EE000ABCEEC00A10EE100A9FED3B0A49
