:020000040800F2
:10000000089000205D020008C12900082321000893
:1000100089260008610D00087D39000800000000F5
:100020000000000000000000000000009D0100082A
:10003000630D000800000000F9010008E13000082D
:1000400077020008770200087702000877020008AC
:10005000770200087702000877020008770200089C
:10006000770200089D0D0008A30D00087702000824
:10007000770200087702000877020008770200087C
:10008000770200087702000877020008770200086C
:10009000770200087702000877020008A90D00081F
:1000A000770200087702000877020008770200084C
:1000B000770200087702000877020008770200083C
:1000C000770200087702000877020008770200082C
:1000D00077020008653900087139000877020008C6
:1000E000950D0008770200087702000877020008E3
:1000F0000D33000877020008770200087702000835
:1001000077020008770200087702000877020008EB
:10011000770200087702000877020008E53100083E
:1001200077020008770200087702000877020008CB
:1001300077020008770200087702000877020008BB
:1001400077020008770200087702000877020008AB
:10015000770200087702000877020008770200089B
:10016000770200087702000877020008770200088B
:1001700077020008770200087702000800000000FC
:100180007702000877020008DFF80CD000F0A6FB29
:100190000048004719590008089000202C4B1968A6
:1001A0000868B0E8F04F80F30988BFF36F8F4FF015
:1001B000000080F3118870470000000008480068C4
:1001C000006880F308884FF0000080F3148862B65E
:1001D00061B6BFF34F8FBFF36F8F00DF00BF00BF6B
:1001E00008ED00E0DFF80C00016841F470010160E7
:1001F000704700BF88ED00E0EFF30980BFF36F8F19
:10020000134B1A681EF0100F08BF20ED108A20E96A
:10021000F04F106009B44FF0500080F31188BFF325
:100220004F8FBFF36F8F07F019FB4FF0000080F383
:10023000118809BC19680868B0E8F04F1EF0100F6B
:1002400008BFB0EC108A80F30988BFF36F8F704746
:1002500058000020EFF305807047000006488047F3
:1002600006480047FEE7FEE7FEE7FEE7FEE7FEE79B
:10027000FEE7FEE7FEE7FEE791310008890100088E
:100280002DE9F05F0546002092469B4688460646CB
:10029000814640241BE0284641464746224600F05E
:1002A00067FA53465A46C01A914110D31146184670
:1002B000224600F04EFA2D1A67EB01084F462246FF
:1002C0000120002100F045FA17EB00094E41201EE5
:1002D000A4F10104DFDC484631462A464346BDE826
:1002E000F09F2DE9F0410024061B254671F1000620
:1002F00005DA01240027D0EB070067EB0101161E89
:1003000073F1000605DA0027D2EB0702012567EB3F
:100310000303FFF7B5FF86460E4617469C46AC42E0
:1003200004D00025D0EB050E65EB010624B10020BA
:10033000D2EB000760EB030C704631463A46634649
:10034000BDE8F08140EA01039B0703D009E008C93A
:10035000121F08C0042AFAD203E011F8013B00F88A
:10036000013B521EF9D27047D2B201E000F8012BD6
:10037000491EFBD270470022F6E710B513460A4625
:1003800004461946FFF7F0FF204610BD30B504467D
:100390000020034600E05B1C934203D2E05CCD5C8E
:1003A000401BF8D030BD2DE9FE4F804681EA0300A6
:1003B000C00F0C46009021F0004123F00045B8EB3F
:1003C0000200A94105D24046214690461C460B46F4
:1003D000024623F00040104347D0270DC7F30A0020
:1003E000C3F30A510290401A019040286BDAC3F31C
:1003F000130040F4801B0098924620B10023D2EBFA
:10040000030A63EB0B0B01985946C0F140025046BA
:1004100000F09FF906460D4650465946019A00F0F5
:10042000B7F910EB08006141002487EA115284EA11
:10043000E7731A4340D0009A62B3019A012A4FEA47
:10044000075215DC001B61EB02014FF0004202EA8B
:100450000752CDE90042001C41F5801132462B467F
:1004600000F0EEF903B0BDE8F08F40462146F9E711
:10047000001B61EB0201001C41F5801300185B4179
:100480002018A2F5001747EB030140EAD570B61912
:100490006D4111E06D084FEA360645EAC0754FEA36
:1004A0000752001B61EB0201001C41F58011490855
:1004B0004FEA30000019514132462B4603B0BDE8E7
:1004C000F04F00F0AEB90098012240000023D0EBBD
:1004D000020263EBE073009821464FEAE074B8EB48
:1004E000000061EB0401E9E783F000435BE781F082
:1004F000004158E72DE9FE4F81EA030404F000446F
:1005000021F0004100944FF0000B23F0004350EA2B
:1005100001045ED052EA03045BD0C3F30A54C1F372
:100520000A552C44A4F2F3340194A0FB0254C1F305
:10053000130141F48011C3F3130343F4801301FB4F
:10054000024400FB034E840A970A44EA815447EAB6
:100550008357A4FB076802958D0A05FB07854FEAC0
:10056000932C04FB0C542705029D4FEA065847EADA
:100570001637B5EB08056EEB070C870E920E47EAAF
:10058000811742EA8312A7FB0201B6EB0B0164EB71
:1005900000042B0D43EA0C335E1844EB1C50DA4682
:1005A0005146E7FB0201C5F313044FEA0B3343EA5C
:1005B00014534FEA0432019C43EA0603A4F10C04ED
:1005C0000294009CCDE900B400F03AF903B0BDE814
:1005D000F08F00200146F9E72DE9F04D81EA030490
:1005E00004F0004B21F0004514464FF0000A23F0C0
:1005F000004150EA050220D054EA01021DD0C5F3A3
:100600000A570246C5F31303C1F31300C1F30A5698
:1006100040F4801543F48013A7EB0608101BD64660
:1006200008F2FD3873EB050002D308F1010801E080
:1006300092185B41B8F1000F03DA00200146BDE8D3
:10064000F08D00204FF48011064684460EE0171B03
:1006500073EB050705D3121B63EB050306434CEA56
:10066000010C49084FEA300092185B4150EA01073B
:10067000EDD152EA030012D082EA040083EA0501B8
:10068000084305D0101BAB4106D20122002306E02F
:1006900000224FF0004302E06FF0010253101AEB0A
:1006A00006004CEB085110EB0A0041EB0B01BDE8D2
:1006B000F04D00F0B6B870B5C1F30A5201F0004534
:1006C0000024C1F3130140F2FF3341F480119A4238
:1006D00001DA002070BD40F233439A42A2F2334265
:1006E00003DC524200F044F800E090402C43F1D08B
:1006F000404270BD00F0004230F000400AD0C10D11
:1007000001F56071C0F3160042EA0151C2084007CA
:100710001143704700200146704701F0004330B498
:1007200021F0004150EA010206D00A0DA2F56072E4
:10073000C1F31301002A02DC30BC00207047440FD3
:1007400044EAC104C100E01830BC00EBC25000F024
:1007500031B8202A04DB203A00FA02F10020704769
:100760009140C2F1200320FA03F3194390407047EF
:10077000202A04DB203A21FA02F00021704721FAF6
:1007800002F3D040C2F1200291400843194670475D
:10079000202A06DBCB17203A41FA02F043EAE07345
:1007A00006E041FA02F3D040C2F120029140084332
:1007B000194670470029A8BF7047401C490008BF70
:1007C00020F00100704710B4B0FA80FC00FA0CF081
:1007D00050EA010404BF10BC704749B1CCF12004B9
:1007E00021FA04F411FA0CF118BF01212143084346
:1007F000A3EB0C01CB1D4FEA00614FEA102042BF72
:10080000002010BC704700EBC35010440029A4BF67
:1008100010BC7047401C490008BF20F0010010BC0C
:10082000704710B5141E73F1000408DA401C41F142
:10083000000192185B411A4301D120F0010010BD64
:100840002DE9F04D92469B4611B1B1FA81F202E0DA
:10085000B0FA80F220329046FFF77BFF04460F4645
:1008600040EA0A0041EA0B0153465A46084313D0B6
:10087000114653EA010019D0C8F140025046FFF773
:1008800077FF05460E46504659464246FFF761FF40
:10089000084305D0012004E020463946BDE8F08D2C
:1008A0000020054346EAE0762C4337430A98630567
:1008B000E40AA0EB08000022FD0A44EA47540A308B
:1008C00002D500200146E9E7010510196941DDE97B
:1008D000084500196941BDE8F04DA2E7064C074DF7
:1008E00006E0E06840F0010394E807009847103400
:1008F000AC42F6D3FFF74CFC0092000820920008AF
:100900002DE9F04D00231A461B1A8A4103DB002013
:100910000146BDE8F08DC1F30A52C1F3130141F461
:1009200080154FF0000BD10702D100186D41521E07
:100930000027044640F2FF11384601EB620A3E46AA
:100940008046024600204FF48011FFF711FFC219C4
:100950007141BB1846EB0100B4EB030C75EB000CC6
:1009600004D3E41A65EB000517460E46241908F176
:1009700001006D4180463428E3DDF91946EB06009D
:10098000091BA84103D24FF0FF32134601E00022B9
:1009900013461BEB070046EB0A51BDE8F04DFFF78D
:1009A00040BF70B58C1810F8015B15F0070301D13A
:1009B00010F8013B2A1106D110F8012B03E010F8C2
:1009C000016B01F8016B5B1EF9D12B0705D40023E5
:1009D000521E0DD401F8013BFAE710F8013BCB1A87
:1009E000921C03E013F8015B01F8015B521EF9D57C
:1009F000A142D8D3002070BD2DE9F04F2DED028B20
:100A000085B09FED8B8AF0EE482ADFED8A8AF7EEFB
:100A1000001AB0EE481AB0EE682AF0EE000AB0EE06
:100A2000040A002002F066F8834CF0EE482AB0EE8B
:100A3000682AE062F7EE001AB0EE481AF0EE000AFB
:100A4000B0EE040A002002F055F82063F0EE482AC8
:100A5000B0EE682AF7EE001AB0EE481AF0EE000A7F
:100A6000B0EE040A002002F045F86063F0EE482A78
:100A7000B0EE682AF7EE001AB0EE481AF0EE000A5F
:100A8000B0EE040A002002F035F8A0636B4F042595
:100A9000CDE901756A4800900026DFF8A881CDE90C
:100AA0000376402340464246802101F017FEA060B5
:100AB00010B965A002F064FF0C21CDE90171082096
:100AC000CDE9037066484FF4807B474600904FF4B1
:100AD000007A5B4640463A46514601F0FFFDE06031
:100AE00010B960A002F04CFF6448CDE90105CDE9E2
:100AF000030663480090634820230246402101F02A
:100B0000EDFD206110B960A002F03AFF6448CDE924
:100B10000106CDE90305DFF8908162484FF40049F2
:100B200000904B46404642464FF4804101F0D6FDCE
:100B3000606110B95DA002F023FF00221146A06899
:100B400001F0FDFD00221146E06801F0F8FD0022F1
:100B50001146206901F0F3FD00221146606901F0A1
:100B6000EEFD584810230246202102F03DFAA06114
:100B700055A002F005FF06E057A002F001FF4FF478
:100B8000FA7000F027F905F0CDF80028F4D157A04D
:100B900002F0F6FE594800F043FE584800684662ED
:100BA000574800F04FFE574E012000900823304672
:100BB0003246042102F020F8E06110B952A002F0A0
:100BC000DFFE0220C302009038463A46591002F078
:100BD00013F8206210B951A002F0D2FE0320009059
:100BE000102342464946304602F006F8606210B9CA
:100BF0004FA002F0C5FE53485346024659460095A1
:100C000001F0FAFFA06210B94FA002F0B9FE062071
:100C100006F018FBE06301220749504801F046FA4C
:100C200001F034FD606005B0BDEC028BBDE8F08FD3
:100C30000000000000007A44D0000020E002002004
:100C400060010020000802404572726F723A206D08
:100C50006F746F724C46204E554C4C0A00000000D9
:100C6000E00100204572726F723A206D6F746F72EE
:100C70004C42204E554C4C0A00000000200300203E
:100C8000A0010020001002404572726F723A206D80
:100C90006F746F725246204E554C4C0A0000000093
:100CA0006003002020020020000402404572726FA1
:100CB000723A206D6F746F725242204E554C4C0A3E
:100CC00000000000000C02404D50553630353020F9
:100CD000544553540D0A00004D50553630353020E0
:100CE0004572726F722121210D0A00004D50553658
:100CF000303530204F4B0D0A00000000600200200C
:100D0000A0020020001802404572726F723A2073F0
:100D10006F6E617246204E554C4C0A004572726FE0
:100D2000723A20736F6E617242204E554C4C0A002D
:100D30004572726F723A20736F6E61724C204E551D
:100D40004C4C0A00001402404572726F723A2073D4
:100D50006F6E617252204E554C4C0A0020040020E8
:100D6000FEE7704710EE100A0749DFED080A8842D7
:100D700002DB30EE600A704710EE100A0449884228
:100D8000F9D930EE200A7047000034430000B44324
:100D9000000034C34FF4805000F05EB8082000F02B
:100DA0005BB8102000F058B84FF4007000F054B851
:100DB00090F83510022903D0802141650120704749
:100DC000052180F835100068016821F001010160FB
:100DD0000020704770B5044600F02CF90546601CF1
:100DE00002D004480078044400F024F9401BA042DB
:100DF000FAD370BD4800002070B5124D0026124C89
:100E00002A68518981420ED0104D2A685189814249
:100E100009D00F4D2A685189814204D00D4D2A68AE
:100E20005189814209D1506800F0FAF80128206800
:100E300004D0416A28680182067370BD406A29683F
:100E4000C88170BDF400002060020020F80000207E
:100E5000EC000020F0000020044910B50A680242AE
:100E600002D00860FFF7C8FF10BD0000143C01402D
:100E70002DE9F84FDFF87CB100224FF001084FF068
:100E8000030A4FF00F090BF1040E00BF0B6808FABC
:100E900002F42340A3426ED14D68022D01D0122DE1
:100EA0000ED1D50800EB850CDCF820505607F70E64
:100EB00009FA07F6B5430E69BE402E43CCF8206010
:100EC000066855000F790AFA05FC07F0030726EAC1
:100ED0000C06AF40374307604E68012E05D0022E46
:100EE00003D0112E01D0122E0ED18668CF6826EACB
:100EF0000C06AF40374387604668A6430C79C4F3BD
:100F00000014944034434460C6688C6826EA0C069A
:100F1000AC403443C4604C68E40065D5364C256869
:100F200045F480452560246822F0030504F48044DC
:100F30000094324C2E19D6F8084895072F0F09FA5D
:100F400007F5AC432E4DA84201D1002524E02D4DDC
:100F5000A84201D101251FE02B4DA84201D1022555
:100F60001AE02A4DA84201D1032515E0284DA842D8
:100F700002D1042510E037E0264DA84201D1052515
:100F80000AE0254DA84201D1062505E0234DA842DF
:100F900001D1072500E00825BD402543C6F80858C3
:100FA000DBF800405D464E689C43F60300D51C43C9
:100FB0002C60DEF8004075464E689C43B60300D5B1
:100FC0001C432C600B4D08352C684E689C43F60280
:100FD00000D51C432C60074D0C352C684E689C4393
:100FE000B60200D51C432C60521C102AFFF44EAFF1
:100FF000BDE8F88F003C0140443802400030014019
:10100000000002400004024000080240000C0240C0
:10101000001002400014024000180240001C024070
:101020000069084000D0012070470AB18161704713
:101030000904FBE701488068704700004800002071
:10104000024881680278114481607047480000209E
:101050000B4810B5016841F400710160016841F46A
:1010600080610160016841F480710160032000F03B
:101070008DF8002000F006F800F03EF8002010BDCA
:10108000003C024010B5014688B000222C2000F040
:101090005DF82C2000F04CF813480024016841F062
:1010A00080010160006805A900F080000690684694
:1010B00000F016F900F034F90C494000B0FBF1F1F2
:1010C0000C480B4A491E026040F2E732C0E9032493
:1010D000C0E9011400F051FB10B1012008B010BDAF
:1010E000044800F0AFFBF9E74038024040420F00EF
:1010F000001C0040600400200C4882B0016841F4EC
:1011000080410160006800F4804000900748001FA3
:10111000016841F0805101600068002200F08050B9
:1011200000900F21901E02B000F010B84438024029
:10113000002809DB00F01F020121914040098000D6
:1011400000F1E020C0F8001170470000F0B40E4B31
:101150001B680C46C3F30223C3F10705042D00D915
:101160000425191D072901D2002300E0DB1E0126FA
:1011700006FA05F1491E214099409E40761E164010
:101180003143F0BC02F024BC0CED00E0064900F055
:10119000070208684FF6FF03184040EA0220034A9E
:1011A00010430860704700000CED00E00000FA05F5
:1011B0002DE9F0470E46050065D0DFF81481D8F818
:1011C0000000F7B200F00F00B04207D288F80070BC
:1011D000D8F8000000F00F00B04254D128683D4C10
:1011E000810712D5400703D5206840F4E050206005
:1011F0002878000703D5206840F46040206020680C
:10120000A96820F0F000084320602878C0072DD09E
:10121000304968680839012812D0022813D0032801
:1012200011D00968890700292DDA216821F003010E
:1012300001432160FFF7FEFE814641F2883A0EE04D
:1012400009688903EFE709688901ECE7FFF7F2FE17
:10125000A0EB0901514502D90320BDE8F0872068C1
:10126000696800F00C00B0EB810FEFD1D8F80010E6
:10127000404601F00F01B14207D90770006800F045
:101280000F00B04201D00120E7E72878400705D5DC
:101290002068E96820F4E0500843206028780007BF
:1012A00006D52068296920F4604040EAC10020602A
:1012B00000F056F82168084AC1F30311515CC84098
:1012C000064908600020FFF7DDFE0020C5E70000AA
:1012D000003C024008380240F88300085400002017
:1012E0000F2202600C4A136803F003034360136883
:1012F00003F0F0038360136803F4E053C3601268E3
:101300004FF4E05303EAD20202610448006800F09F
:101310000F0008607047000008380240003C02409F
:101320000448054900680968044AC1F38221515CF8
:10133000C840704754000020083802400884000864
:101340000448054900680968044AC1F34231515C08
:10135000C840704754000020083802400884000844
:10136000154810B5006810F00C02144813D0144949
:10137000042A0FD0082A0ED10F4C241F226823689C
:1013800002F03F025B0207D52068C0F38810A0FB83
:10139000010106E0084610BD2168C1F38811A1FBD8
:1013A00000010023FEF76CFF2168C1F30141491CD5
:1013B0004900B0FBF1F010BD083802400024F400F1
:1013C00040787D012DE9F84F050076D02878DFF8C8
:1013D000F8B2BE4CC00749D0DBF800105846C1F344
:1013E0008101012908D00068C0F3810002280AD1D8
:1013F000201D0068400206D52068800336D5686845
:101400000028E2D032E06868B0F5803F10D0B0F537
:10141000A02F206810D020F480302060206820F4B5
:10142000802020606868A0B1FFF704FE06460CE04B
:10143000206840F48030F4E740F480202060F7E733
:10144000FFF7F8FD801B642873D820688003F7D568
:101450000CE0FFF7EFFD064605E000BFFFF7EAFDF1
:10146000801B6428F0D820688003F7D42878DFF840
:10147000608280074FF000093ED5DBF80010584627
:1014800011F00C0F09D00068C0F3810002280BD1C5
:101490008D48001F0068400206D42068800715D5DB
:1014A000E868012809D111E0E868B8B10120C8F85E
:1014B0000000FFF7BFFD064605E002E1FFF7BAFDB9
:1014C000801B0228C0D820688007F7D520682969CA
:1014D00020F0F80040EAC10020600DE0C8F800905C
:1014E000FFF7A8FD064604E0FFF7A4FD801B0228D5
:1014F0001FD820688007F7D42878000722D5724EBD
:10150000744869696C3671B101210160FFF792FD81
:10151000074604E0FFF78EFDC01B022809D830689B
:101520008007F7D50EE0C0F80090FFF783FD07466F
:1015300005E083E0FFF77EFDC01B02287ED83068FF
:101540008007F7D42878400768D5DFF87CA100270A
:101550000AF1380ADAF80000C0000BD4DAF80010FB
:1015600041F08051CAF80010DAF80000012700F0BD
:1015700080500090584E3068C00510D4306840F458
:1015800080703060FFF756FD009005E0FFF752FDD8
:101590000099401A022851D83068C005F6D54A4E45
:1015A000A868683601280FD00528306810D020F0D0
:1015B00001003060306820F004003060A868B8B1E5
:1015C000FFF738FD00900FE0306840F00100F4E7CD
:1015D00040F004003060F7E7FFF72CFD0099411A56
:1015E00041F28830814264D830688007F4D50EE03B
:1015F000FFF720FD009007E0FFF71CFD0099411A5E
:1016000041F28830814254D830688007F4D42FB139
:10161000DAF8001021F08051CAF80010A869C0B3B0
:10162000DBF80010C1F3810102294AD002284846A4
:1016300007D0C8F86000FFF7FDFC00E039E0054680
:101640003AE04746C8F86000FFF7F4FC064604E0BD
:10165000FFF7F0FC801B02282BD820688001F7D40C
:10166000D5E907010843A96A1C4A490802EB014170
:101670006A6A41EA8211084395F82C1040EA016138
:101680001148001F016001203866FFF7D3FC0546B2
:1016900005E014E0FFF7CEFC401B022809D82068C3
:1016A0008001F7D50BE000BFFFF7C4FC401B022808
:1016B00002D90320BDE8F88F20688001F4D400200F
:1016C000F8E70120F6E70000083802400038024041
:1016D00000004742800E4742007000400000FFFFBC
:1016E0007047704710B590F83C20012A22D00122A3
:1016F00080F83C20CA688C6822F4407222434C680F
:1017000022F4806222430C6822F4006222430C69B6
:1017100022F4805222434C6922F400522243C969C8
:10172000002322F480420A4301684A6480F83C3076
:10173000002010BD022010BD70B590F83C20012A99
:1017400019D0012400F83C4F0222427050F83C3C72
:101750005A689D6822F070060A684968324325F08D
:10176000800529435A6050F83C2C91604470002158
:101770000170084670BD022070BD10B5040003D092
:1017800094F83D0010B107E0012010BD002084F85E
:101790003C00204600F00CF8022084F83D00211D9A
:1017A000206801F0C1FD012084F83D00002010BD3B
:1017B00008B5174A01681748914207D1016841F0FE
:1017C00010010160006800F010001EE0124A914212
:1017D00011D1016841F0200101600068002200F091
:1017E0002000009005213720FFF7B0FCBDE808403D
:1017F0003720FFF79DBC094A914207D1016841F4A7
:1018000080710160006800F48070009008BD0000E5
:10181000001000404038024000140040002000400A
:10182000022180F83D1001688A6802F00702062A4A
:1018300003D00A6842F001020A60012180F83D10DD
:10184000002070470168CA6842F00102CA6000685F
:10185000816801F00701062903D0016841F0010108
:10186000016000207047022180F83D1001680A6A7B
:1018700041F211131A4207D10A6A9B101A4203D18E
:101880000A6822F001020A60012180F83D10002060
:1018900070472DE9F0410D46040003D094F83D0057
:1018A00018B108E00120BDE8F081002084F83C0078
:1018B000204600F03BF8022084F83D002068816853
:1018C00044F2070291438160211D206801F02CFD44
:1018D000226890689169166A2B68AF69034340F2E9
:1018E0000330814341EA0721A868EF6908434FF6B6
:1018F000FC418843E96840EA0720014328692F6AD0
:10190000000140EA0730084369686D6926F0AA06BD
:1019100046EA0515294393602268906120680162B8
:10192000012084F83D000020BDE7000070B586B0BE
:10193000044614216846FEF71EFD3D482568002236
:101940003C4902240126854219D13A4814300368E3
:1019500043F001030360006800F00100059008688F
:1019600040F0100008600868694600F0100005901B
:101970004FF420600090CDE901422F4833E02D4B19
:101980002E481033B5F1804F18D02D4EB54231D1CD
:101990001D6845F002051D601B6803F002030593F6
:1019A0000B6843F001030B60096801F00101059128
:1019B000C0210091CDE90142694635E01D6845F03E
:1019C00001051D601B6803F0010305930B6843F0DC
:1019D00001030B60096801F00101059122210091CA
:1019E000CDE901426946CDE9032600BFFFF740FA81
:1019F00006B070BD13488542FAD1186840F0040063
:101A00001860186800F004000590086840F00800AD
:101A100008600868694600F0080005904FF44050DF
:101A20000090CDE901420848CDE90324DEE700003B
:101A30000000014030380240001002400000024027
:101A40000004004000080040000C024010B50446AD
:101A5000006891B1042904D00122002101F0C8FCE2
:101A6000206801225FF0040101F0C2FC20680168D7
:101A700041F001010160002010BD01220021F3E7C7
:101A8000704770B50446006801694FF00005C9430E
:101A9000890715D4C168C943890711D4E91E0161BA
:101AA00001202077206880698007204602D0FFF758
:101AB000E7FF04E000F0F4F8204600F0AFF92577E6
:101AC00020680169C943490717D4C168C943490758
:101AD00013D46FF00401016102202077206880692F
:101AE00010F4407F204602D0FFF7CAFF04E000F068
:101AF000D7F8204600F092F9257720680169C9439C
:101B0000090716D4C168C943090712D46FF0080148
:101B10000161042020772068C0698007204602D038
:101B2000FFF7AEFF04E000F0BBF8204600F076F9C6
:101B3000257720680169C943C90617D4C168C9431C
:101B4000C90613D46FF010010161082020772068C6
:101B5000C06910F4407F204602D0FFF791FF04E0F7
:101B600000F09EF8204600F059F9257720680169B9
:101B7000C943C90708D1C168C943C90704D1891E2F
:101B80000161204600F06EF920680169C943090629
:101B900009D4C168C943090605D46FF08001016109
:101BA0002046FFF79DFD20680169C943490609D415
:101BB000C168C943490605D46FF040010161204660
:101BC00000F05AF920680169C94389060BD4C1683D
:101BD000C943890607D46FF0200101612046BDE8A2
:101BE0007040FFF77EBD70BD30B587B0044614214C
:101BF0006846FEF7C0FB234D2368002022490222DD
:101C00000324AB4211D10B6843F004030B60096855
:101C100001F0040105914FF470710091CDE90120AC
:101C2000CDE903046946194812E0194DAB4213D1BE
:101C30000B6843F010030B60096801F01001059177
:101C400060210091CDE90120CDE9030469461148E6
:101C5000FFF70EF907B030BD0F4CA342FAD10B6865
:101C600043F002030B60096801F002010591E100F5
:101C70000091CDE9012003900920049069460748AE
:101C8000E6E700000004014030380240000802404E
:101C900000400140001002400018004000040240D3
:101CA000704770B5044690F83C000D4601280DD0F1
:101CB000012684F83C60022084F83D0042B1042AE9
:101CC00018D0082A2AD00C2A4DD139E0022070BD44
:101CD000206801F09BFB2068816941F00801816167
:101CE0002068816921F004018161206881692A6985
:101CF000114311E0206801F0B9FB2068816941F4CB
:101D0000006181612068816921F4806181612068BE
:101D100081692A6941EA0221816124E0206801F099
:101D2000DBFB2068C16941F00801C1612068C1691D
:101D300021F00401C1612068C1692A69114311E0E1
:101D4000206801F0FDFB2068C16941F40061C161B8
:101D50002068C16921F48061C1612068C1692A6974
:101D600041EA0221C16184F83D60002084F83C0012
:101D700070BD10B5040003D094F83D0010B107E029
:101D8000012010BD002084F83C00204600F00CF833
:101D9000022084F83D00211D206801F0C5FA0120D1
:101DA00084F83D00002010BD08B5184A01681848A5
:101DB000914211D1016841F00201016000680022E6
:101DC00000F00200009011462C20FFF7BFF9BDE89B
:101DD00008402C20FFF7ACB90E4A914207D10168A8
:101DE00041F480310160006800F480300BE00A4863
:101DF000814209D10648001F016841F0400101609D
:101E0000006800F04000009008BD000000040140A0
:101E10004438024000400140001800407047000074
:101E200010B504460068012201F0E2FA0B4920686F
:101E3000884202D00A49884203D1416C41F40041F2
:101E400041642068816801F00701062903D0016818
:101E500041F001010160002010BD000000000140C0
:101E60000004014000680349884201D1FFF7E8B847
:101E700070470000001C00407047704770B5026852
:101E800004461068D168536910F00F0F51D003F069
:101E9000010501F4907635435DD0C20705D0CA052F
:101EA00003D5E26B42F00102E263420705D5DA078F
:101EB00003D0E26B42F00202E263820705D5DA0743
:101EC00003D0E26B42F00402E263020705D5DA07B1
:101ED00003D0E26B42F00802E263E26B002A34D0E6
:101EE000800604D5880602D5204601F067FB2068ED
:101EF0004069E16BC0F3801001F008010143204606
:101F000024D001F04DFB2068416949061AD541698A
:101F100021F040014161606BA0B11B490165606B1C
:101F2000FEF746FF002810D0606B016DBDE87040E1
:101F3000084783060FD58B060DD52046BDE87040B7
:101F400001F03CBB2046FFF798FF70BDFFF795FFFF
:101F50000020E06370BD030606D50B0604D52046BD
:101F6000BDE8704001F0CCBC4006F3D54806F1D581
:101F7000D168204621F04001D160202184F8391039
:101F800000F0CEF870BD00009135000870B5040077
:101F900004D094F83900002510B106E0012070BD8E
:101FA00084F83850204600F023F8242084F83900C3
:101FB0002068C16821F40051C160204601F04AFB4D
:101FC0002068016921F4904101612068416921F094
:101FD0002A0141612068C16841F40051C160E56394
:101FE000202084F8390084F83A00002070BD0000F9
:101FF000F0B587B0044614216846FEF7BCF9274FB8
:102000002268274902230124032507262548BA42CE
:102010001ED1234A1432176847F010071760126860
:1020200002F0100205920A6842F001020A60096893
:1020300001F00101059169028DE87A006946FEF719
:1020400017FF002205212520FFF780F8252020E03A
:10205000154FBA421FD1124A1032176847F40037A1
:102060001760126802F4003205920A6842F0010219
:102070000A60096801F0010105910C218DE87A00E0
:102080006946FEF7F5FE002205212620FFF75EF8DF
:102090002620FFF74DF807B0F0BD0000001001400A
:1020A00030380240000002400044004090F83A30CE
:1020B000202B22D1F9B1F2B190F83830012B1CD08D
:1020C00081628285C2850021C163222280F83A2084
:1020D00080F838100168CA6842F48072CA600168EA
:1020E0004A6942F001024A610068C16841F020017A
:1020F000C160002070470120704702207047000037
:10210000054810B5007800F01FFDBDE81040012221
:1021100001490248FFF7CABFD00000202004002078
:102120007047FEE72DE9F0411D46144688460646F5
:10213000002703F071FB7006000E03F041FB03F073
:1021400099FB404603F03CFB03F094FB03F064FB77
:10215000012000EB4600C0B203F032FB03F08AFB23
:1021600009E0012C0ED003F005FB287003F0D4FA2F
:10217000641EE4B26D1C002CF3D103F067FB3846FB
:10218000BDE8F08103F0F6FA287003F0DDFAEFE71E
:102190002DE9F0411F46154688460446002603F007
:1021A0003BFB6006000E03F00BFB03F0B5FA404664
:1021B00003F006FB03F05EFB002405E0385D03F04E
:1021C000FFFA03F057FB641CAC42F7DB03F03EFB65
:1021D0003046BDE8F08100002DE9F04F87B01421B2
:1021E0006846FEF7C8F86C480024016841F0100109
:1021F0000160016801F010010591016841F02001C2
:102200000160016801F020010591016841F0800141
:102210000160016801F080010591016841F0010150
:102220000160016801F001010591016841F00201BE
:102230000160016801F002010591016841F00801A7
:102240000160016801F008010591016841F0400159
:102250000160016801F040010591016841F004014D
:1022600001600068DFF8349100F004004FF48075DD
:102270000590002229464846FEF7D7FEDFF820A148
:1022800048F20407002239465046FEF7CEFEDFF83A
:1022900014B14FF40068002241465846FEF7C5FECF
:1022A000002230214048FEF7C0FE0122C0213F48F5
:1022B000FEF7BBFE00950125CDE90154694648466D
:1022C0000394FEF7D5FD3A4E6802CDE90006694653
:1022D00002944846FEF7CCFD0097CDE901546946CB
:1022E00050460394FEF7C4FD0820CDE90006694678
:1022F00002945046FEF7BCFDCDF80080CDE90154B4
:10230000694658460394FEF7B3FD2803CDE900065D
:10231000694602945846FEF7ABFD30200090CDE9A7
:102320000154694620480394FEF7A2FD1020CDE930
:102330000006694602941D48FEF79AFDC0200090F1
:102340001120CDE90104694618480394FEF790FD79
:10235000002205210920FEF7F9FE0920FEF7E8FE1C
:10236000002205210A20FEF7F1FE0A20FEF7E0FE1A
:10237000002205211720FEF7E9FE1720FEF7D8FE00
:10238000002205212820FEF7E1FE2820FEF7D0FEDE
:1023900007B0BDE8F08F0000303802400014024062
:1023A0000018024000080240000C024000040240F5
:1023B0000000311010B588B01C216846FDF7DBFF26
:1023C00012481149002401600321C0E901144FF4AF
:1023D0007A71C0E9031480218161FFF7CAFC602093
:1023E000CDE9000402940022694608480494FFF7EE
:1023F00058FC042269460548FFF753FC0348FFF7E1
:10240000F3FB08B010BD000000180040600300207E
:1024100010B58CB024216846FDF7ADFF00241348A9
:10242000099411490A94C0E9001441F28831C0E9C5
:1024300002410461446184610320CDE9000401206C
:10244000CDE902040494CDE90540079469460748A4
:102450000894FFF71EFA099409A904480A94FFF7A3
:102460006BF90CB010BD00000000014060010020BD
:1024700010B58CB024216846FDF77DFF002412487A
:1024800009944FF080410A94C0E9001441F2883168
:10249000C0E90241046184610320CDE90004012008
:1024A000CDE902040494CDE9054007946946064845
:1024B0000894FFF7EEF9099409A903480A94FFF775
:1024C0003BF90CB010BD0000A001002010B58CB08D
:1024D00024216846FDF74FFF002412480994104953
:1024E0000A94C0E9001441F28831C0E90241046154
:1024F00084610320CDE900040120CDE902040494A5
:10250000CDE905400794694606480894FFF7C1F9EC
:10251000099409A903480A94FFF70EF90CB010BDFD
:1025200000040040E001002010B58CB02421684672
:10253000FDF721FF00241248099410490A94C0E9CC
:10254000001441F28831C0E9024104618461032032
:10255000CDE900040120CDE902040494CDE9054051
:102560000794694606480894FFF793F9099409A966
:1025700003480A94FFF7E0F80CB010BD00080040D3
:102580002002002010B592B000240F941C21684650
:102590001094FDF7F0FE202107A8FDF7ECFE22487D
:1025A000204901600721C0E901144FF47A71C0E9A4
:1025B00003148021C0E90541FFF7DBFB0F940FA94D
:1025C00019481094FFF7B8F86020CDE90004029490
:1025D0000394049405940022694613480694FFF777
:1025E00060FB042269461048FFF75BFB082269463E
:1025F0000D48FFF756FB0C2269460B48FFF751FBCD
:102600000794089409944FF400500A94CDE90B40C4
:1026100007A905480E94FFF765F80348FFF7E4FAA9
:1026200012B010BD00040140E002002010B588B0D7
:102630001C216846FDF79FFE1248114900240160E5
:102640000721C0E901144FF47A71C0E90314802115
:102650008161FFF78EFB6020CDE900040294002227
:10266000694608480494FFF71CFB042269460548A4
:10267000FFF717FB0348FFF7B7FA08B010BD0000DB
:102680000040014020030020FEE7000010B53C2080
:1026900004F0D8FD00218181C181018241828182C3
:1026A0009FED0D0AC18280ED000A80ED010A80EDE8
:1026B000020A018380ED070A80ED080A80ED090A0D
:1026C00080ED0A0A80ED0B0A80ED0C0A80F83410C8
:1026D000C186018710BD0000000000002DE9F05FF9
:1026E00082460BA81F4690E86008904689463C2029
:1026F00004F0A8FDC0F800A0A0F80490C0F808807D
:10270000878105618682C0F818B00E9A8283002204
:1027100080F8242002628262C26204460A9A31462C
:1027200028462263FFF77CFBA18BA069FFF778FBAB
:102730003C21206BFFF78AF92046BDE8F09F8262BA
:1027400080F824100023B1B1012932D0022911D11F
:10275000818AF1B3042959D008290169096859D03F
:102760000A64818BD9B104291DD0806908290068C9
:102770001DD003647047818A39B1042909D0082922
:102780000169096809D00B64EBE7016909684B63CB
:10279000E7E7016909688B63E3E7CB63E1E78069F9
:1027A0000068436370478069006883637047C36350
:1027B0007047818A91B1042914D0082901690968F8
:1027C00014D00B64818B99B1042915D00829806934
:1027D00000E017E0006813D00264704701690968DF
:1027E0004B63EFE7016909688B63EBE7CB63E9E7CC
:1027F000806900684263704780690068826370473F
:10280000C2637047016909684A63AAE701690968F8
:102810008A63A6E7CA63A4E78162C36A0022002B29
:1028200002DD4FF0010302E004DA4FF0020380F80A
:10283000243001E080F8242090F82430B3B1012B3B
:1028400032D0022B11D1838AF3B3042B59D0082B39
:1028500003691B6859D01964818BD9B104291DD033
:102860008069082900681DD002647047818A39B1E7
:10287000042909D008290169096809D00A64EBE72D
:10288000016909684A63E7E7016909688A63E3E760
:10289000CA63E1E780690068426370478069006845
:1028A00082637047C2637047838A93B1042B14D04C
:1028B000082B03691B6814D01A64828B9AB1042A0E
:1028C00015D0082A806900E017E0006813D0016481
:1028D000704703691B685A63EFE703691B689A63D3
:1028E000EBE7DA63E9E78069006841637047806974
:1028F000006881637047C163704703691B6859634F
:10290000AAE703691B689963A6E7D963A4E70000F7
:1029100010B50446006B0068416A6163A06BA16357
:10292000081A2062B0F5FA6F03DDA0F598508838D8
:1029300005E010F5FA6F03DC41F2883108442062AB
:1029400000EE100AB8EEC00AB0EEC00A10EE100A8F
:10295000FDF7D0FE9FED101B53EC112BFDF7CAFDC8
:102960009FED0F1B53EC112BFDF736FE9FED0E1B59
:1029700053EC112BFDF730FE9FED0D1B53EC112B8B
:10298000FDF7B8FD9FED0C1B53EC112BFDF7B2FDCD
:10299000FDF791FE206210BD0000000000004940DC
:1029A000000000C0CC4C3540000000000000264074
:1029B000000000000000D03F0000000000004E407A
:1029C000704780ED010AC0ED020A70EE600AD0ED9A
:1029D000071AC0ED081A90ED061AF5EEC00A80ED50
:1029E000071AF1EE10FAC0ED060A02DDB0EE600A39
:1029F0000FE090ED0D2AB1EE600AB4EEC20AF1EEDE
:102A000010FA01DD012100E0002100EE101AB8EEFD
:102A1000400AB5EEC00AF1EE10FA02D190ED0C0AB0
:102A20007047017811B1012927D040E090ED030AE9
:102A300020EE200A80ED090A90ED0A0AD0ED041A72
:102A400001EEA00A80ED0A0AD0ED0E1AB4EEE10AFA
:102A5000F1EE10FA01D3B0EE610A80ED0A0AD0ED72
:102A60000F1AB4EEE10AF1EE10FA01DCB0EE610AE1
:102A700080ED0A0A30EEC10A13E030EEC10A90ED93
:102A8000032A20EE020A80ED090A90ED040A20EEE6
:102A9000200A80ED0A0AB0EE000A41EE400A30EE4C
:102AA000A10AD0ED050A20EE200A80ED0B0A90ED78
:102AB000090AD0ED0A0A30EE200AD0ED0B0A30EEFA
:102AC000200A80ED0C0AD0ED0E0AB4EEE00AF1EE19
:102AD00010FA01D3B0EE600A80ED0C0AD0ED0F0AB7
:102AE000B4EEE00AF1EE10FA01DCB0EE600A80ED1F
:102AF0000C0A704710B504462DED068BB0EE628AC5
:102B0000F0EE428AB0EE619AF0EE419AB0EE60AA21
:102B1000F0EE40AA402004F095FB0470C0ED03AA3B
:102B200080ED04AA9FED070AC0ED059A80ED0A0A20
:102B300080ED0D9AC0ED0E8A80ED0F8ABDEC068BFC
:102B400010BD00000000000070B51B4B00241946AA
:102B50001A4E0A785D68511CC9B235B1012D08D0F2
:102B6000022D10D0032D15D005E01D2803D101241E
:102B700005E0D12802D05C601C700EE002245C608D
:102B8000B054197070BDB05419700729FAD30320DE
:102B9000586070BDED2806D05C60BDE870408021B3
:102BA0000648FDF7E8BBB0541970044800F008F877
:102BB0005C601C7070BD00004C0100208489002006
:102BC0000C4982780968FF2A06D03F2A06D00F2ACE
:102BD00006D0032A05D005E0002202E0012200E031
:102BE00002220A7030F8032F52BA4A80408840BA55
:102BF000888070470C0100202DE9F04706461F46EB
:102C000090460D461820DDF8209004F01BFBC0F81C
:102C1000048047810660058100220273C28102821E
:102C20000446C0F8149029463046FEF7FEF92046C7
:102C3000BDE8F0872DED028BF3EE098A9FED2B8A1C
:102C40002B4D2C4E2C4C286890F8341011B10129D2
:102C500007D047E084ED008A84ED018A90ED020AF6
:102C600021E090ED020A3068D0ED030A30EE200A30
:102C7000FEF778F8B0EEC00A10EE100A1F4988423D
:102C800006DAC4ED008A84ED018A84ED038A29E026
:102C900010EE101A1A48814208DDC4ED008A9FED3B
:102CA000190A84ED018A84ED030A1BE02868D0ED3F
:102CB000020A306890ED030A30EE800A84ED030AC0
:102CC00030EE600AB0EEC00A10EE100AB0F1804F8C
:102CD00002DD84ED008A03E0B2EE040A84ED000A0E
:102CE00084ED018A142003F063FEACE700000000CD
:102CF000D4000020E8000020000000200000344242
:102D000000000743000034C3012003F051FEFBE73D
:102D10000EB59FED120A124C8DED000A8DED010AE1
:102D20008DED020A02AA01A9684602F049FF80B9A6
:102D300020689DED010A80ED010A9DED000AB1EECB
:102D4000400A80ED000A9DED020AB1EE400A80EDD6
:102D5000020A322003F02CFEE4E70000000000002D
:102D6000D4000020002601270C4D0D4C04F0EEFB92
:102D700028680178032921680CD081F83470216813
:102D80004288CA868088088704F000FC142003F07B
:102D90000FFEEBE781F83460F1E700000C01002042
:102DA000D40000202DED028BF0EE001A9FED198A61
:102DB000DFED152A9FED152A9FED151AF0EE480A52
:102DC0009FED150A0020FFF795FE144E144CDFED21
:102DD000158A0546306890F83410012908D0B0EE05
:102DE000680A206800F0F2F8052003F0E1FDF1E741
:102DF000B0F9360000EE100A2846F8EEC00AB0EE30
:102E0000480AFFF7DEFDECE7000034C20000344260
:102E1000A69BC43B00000000CDCC4C3DD40000205C
:102E2000E80000206666E63F94B014220C4968462C
:102E3000FDF788FA0A491422143105A8FDF782FA31
:102E40000749142228310AA8FDF77CFA0449142204
:102E50003C310FA8FDF776FA322003F0A9FDFBE71D
:102E6000A88300082DED068BFAEE082AB2EE082A98
:102E7000F0EE001A9FED451ADFED450A9FED450A79
:102E80000020FFF737FE8346434E444D444C9FEDF0
:102E900045AADFED458A9FED458A454FDFF814814D
:102EA000DFF81491DFF814A104F050FB94ED030A4D
:102EB000F0EEC00A10EE900AB042286812DD90EDE4
:102EC000020ADFED3F9A30EE290AFDF74BFFB0EE24
:102ED000409A94ED030A30EE290AFDF743FFF0EE25
:102EE000490A01E0D0ED020A5846FFF76AFD84ED79
:102EF000020A04F04BFBD4ED002A94ED011AD4ED44
:102F0000021A82EE8A0A3868C1EE280A94ED041A81
:102F100030EE602A94ED050A01EEC12A82EE003AF5
:102F200023EE082ABDEEC22A80ED0B2A82EEA82AE3
:102F3000D8F8000070EEC22A41EEC12A82EE803A33
:102F400063EE082AFDEEE22AC0ED0B2A72EE602A3B
:102F500072EE200AD9F8000041EEC12A41EEC10A02
:102F600082EE803A80EE801A63EE082AFDEEE22AB5
:102F7000C0ED0B2ADAF8000021EE080ABDEEC00A07
:102F800080ED0B0A142003F013FD8DE76F12033A56
:102F9000000000008FC2753C00001643D4000020E2
:102FA00000000020F4FDB4BFF4FDB43FD4C91841C3
:102FB000D8000020DC000020E0000020E400002019
:102FC00000003443142003F0F3FCFBE7B5EEC00A25
:102FD000F1EE10FA03D80121B1EE400A01E04FF002
:102FE000FF3100F017B800002DE9F04107461C46FC
:102FF00015460E46102002F081FD076006814560EF
:103000009FED030A448180ED030ABDE8F0810000D2
:103010000000000070B504462DED028B9FED2E8A56
:10302000C0EE080AF5EEC00AF1EE10FA03DC9FEDDF
:103030002B1AC0EE010A4FF47A760129BDEEE00AA0
:1030400010EE105A23D0491C43D0BDEC028B70BD4A
:1030500094ED030A30EE480A84ED030AFDF782FE80
:1030600084ED030A618900226068FDF7DEFF218993
:1030700001222068FDF7D9FF304602F0E7F82189E8
:1030800000222068FDF7D1FF304602F0DFF86D1E08
:10309000DED2DAE794ED030A30EE080A84ED030A83
:1030A000FDF760FE84ED030A618901226068FDF787
:1030B000BCFF218901222068FDF7B7FF304602F0EE
:1030C000C5F8218900222068FDF7AFFF304602F0E5
:1030D000BDF86D1EDED2B8E76666E63F6666E6BFFF
:1030E00010B5502080F31188BFF34F8FBFF36F8F5F
:1030F00004F028FF18B104494FF080500860002008
:1031000080F3118810BD000004ED00E030B593B0ED
:1031100030216846FDF72FF914210CA8FDF72BF993
:1031200019480025016841F080510160006800F0F5
:10313000805011901548016841F480410160006899
:10314000022400F48040119001200390102004908C
:10315000009406940820CDE90750A820CDE9090481
:1031600004200B906846FEF72DF90CA90F2081E88A
:1031700031004FF4A0500F90E002109005210CA8F0
:10318000FEF716F813B030BD403802400070004022
:103190001048016841F4700101600F48016841F076
:1031A000010101600C4A00210832116002680B4BDA
:1031B0001A400260031D0A4A1A60026822F4802243
:1031C000026005480C3001600249580680390860E9
:1031D0007047000088ED00E000380240FFFFF6FE77
:1031E000103000242DE9F041DFF8F8804446D8F88B
:1031F0000000FFF78DFB3C4D2868FFF789FB3B4E35
:103200003068FFF785FB3A4F3868FFF781FB20688D
:1032100090ED080AC06AF8EEC00A002800DC4042BF
:1032200000EE100A3348B8EEC00A0068FFF7C9FB89
:10323000BDEEC00A304C84ED000A286890ED080A03
:10324000C06AF8EEC00A002800DC404200EE100A16
:103250002A48B8EEC00A0068FFF7B3FBBDEEC00A0B
:1032600084ED010A306890ED080AC06AF8EEC00AE1
:10327000002800DC404200EE100A2148B8EEC00AE7
:103280000068FFF79EFBBDEEC00A84ED020A3868B5
:1032900090ED080AC06AF8EEC00A002800DC40423F
:1032A00000EE100A1748B8EEC00A0068FFF789FB65
:1032B000BDEEC00A84ED030A2168D8F80000FFF7CC
:1032C000ABFA61682868FFF7A7FAA1683068FFF7D2
:1032D000A3FAE1683868FFF79FFABDE8F0410A48B1
:1032E000FEF7CFBBD8000020DC000020E00000206B
:1032F000E4000020FC000020380000200001002035
:103300000401002008010020A002002010B504489C
:10331000FEF7B7FBBDE810400248FEF7B2BB000065
:10332000E002002060040020F0B50268254C264D24
:10333000264E274F274B4FF0804CA04209D06045C6
:1033400007D0A84205D0B04203D0B84201D098427D
:1033500004D122F0700E4A6842EA0E02A0421BD04D
:10336000604519D0A84217D0B04215D0B84213D04A
:10337000984211D0184DA8420ED0184DA8420BD03B
:10338000174DA84208D0174DA84205D0164DA842A7
:1033900002D0164DA84203D122F44075CA682A43D0
:1033A0004D6922F080022A4302608A68C2620A687C
:1033B0008262A04201D0984201D1096901630121D2
:1033C0004161F0BD000001400004004000080040E1
:1033D000000C004000040140004001400044014056
:1033E0000048014000180040001C00400020004040
:1033F00010B501F01F030121046A99408C43046257
:10340000016A9A401143016210BD0000F0B5026AE2
:1034100022F001020262036A42688469124E24F0BB
:1034200073050C682C4323F002058B682B430D4D6C
:10343000A84201D0B04205D123F00807CB683B4336
:1034400023F00403A84201D0B04205D14D6922F413
:10345000407215438A692A43426084614968416326
:103460000362F0BD0000014000040140F0B5026AB3
:1034700022F010020262026A436884690D6824F433
:10348000E64444EA05248D6822F0200242EA05124F
:103490000F4D104EA84201D0B04206D1CF6822F0A5
:1034A000800242EA071222F04002A84201D0B04254
:1034B00007D14D6923F4406343EA85038D6943EAEC
:1034C000850343608461496881630262F0BD000046
:1034D0000000014000040140F0B5026A22F480724D
:1034E0000262026A4368C46922F4007224F0730520
:1034F0000C68124E2C438D6842EA05220E4DA842FC
:1035000001D0B04206D1CF6822F4006242EA07221D
:1035100022F48062A84201D0B04207D14D6923F461
:10352000405343EA05138D6943EA05134360C461C0
:103530004968C1630262F0BD00000140000401401F
:1035400030B5026A22F480520262046A4268C3699A
:103550000D6823F4E64343EA05238D6824F4005400
:1035600044EA0534084DA84202D0084DA84204D1CF
:103570004D6922F4804242EA85124260C361496883
:103580000164046230BD00000000014000040140FD
:1035900010B5806B0021C185C184FEF76EFC10BDA3
:1035A0000168CA6822F49072CA6001684A6922F010
:1035B00001024A61202180F83A10704710B590F856
:1035C0003A10222901D0022010BD8168B1F5805F38
:1035D00011D00169002901681FD0496801F07F03FB
:1035E000816A4A1C82620B70C18D491E0904090C54
:1035F000C18518D02BE00269816A002A02685268EE
:1036000005D0D2B20A80816A491C8162ECE7C2F31C
:1036100008020A80816A891CF7E74A68816A4B1CA4
:1036200083620A70E0E70168CA6822F02002CA607B
:103630000168CA6822F48072CA6001684A6922F08F
:1036400001024A61202180F83A10FEF759FD00205E
:1036500010BD00002DE9F041044600680169E268F0
:1036600021F44051114301612169A068E2690843D6
:103670006169114322680843D16849F20C63994398
:103680000143D16020684169A26921F4407111436E
:103690004161E2696425B2F5004F97489749226875
:1036A0004FF032083FD08A4201D082427CD1FDF7F0
:1036B00047FE00EBC00101EB001061688900B0FB20
:1036C000F1F6FDF73DFE00EBC00101EB0010616873
:1036D0008900B0FBF1F0B0FBF5F06FF01801484342
:1036E00006EB800108EB0110B0FBF5F000F0F006EE
:1036F000FDF726FE00EBC00101EB001061688900B8
:10370000B0FBF1F0B0FBF5F006EB0016FDF718FE8C
:1037100000EBC00101EB001061688900B0FBF1F71C
:10372000FDF70EFED2E08A4201D082423DD1FDF784
:1037300007FE00EBC00101EB001061684900B0FB1F
:10374000F1F0B0FBF5F00601FDF7FAFD00EBC0016A
:1037500001EB001061684900B0FBF1F7FDF7F0FDE7
:1037600000EBC00101EB001061684900B0FBF1F013
:10377000B0FBF5F06FF01801484307EB800108EB50
:10378000C100B0FBF5F000F0F80006EB4006FDF7D5
:10379000D7FD00EBC00101EB001061684900B0FBF0
:1037A000F1F7FDF7CDFD3CE055E0FDF7B9FD00EB8D
:1037B000C00101EB001061684900B0FBF1F0B0FB03
:1037C000F5F00601FDF7ACFD00EBC00101EB0010C8
:1037D00061684900B0FBF1F7FDF7A2FD00EBC00105
:1037E00001EB001061684900B0FBF1F0B0FBF5F0AF
:1037F0006FF01801484307EB800108EBC100B0FBF4
:10380000F5F000F0F80006EB4006FDF789FD00EB4F
:10381000C00101EB001061684900B0FBF1F7FDF752
:103820007FFD00EBC00101EB001061684900B0FBB7
:10383000F1F0B0FBF5F06FF01801484307EB8001A1
:1038400008EBC100B0FBF5F000F007002168304440
:103850008860BDE8F081FDF763FD00EBC00101EB7E
:10386000001061688900B0FBF1F6FDF759FD00EB2F
:10387000C00101EB001061688900B0FBF1F0B0FB02
:10388000F5F06FF01801484306EB800108EB0110DA
:10389000B0FBF5F000F0F006FDF742FD00EBC001D3
:1038A00001EB001061688900B0FBF1F0B0FBF5F0AE
:1038B00006EB0016FDF734FD00EBC00101EB001034
:1038C00061688900B0FBF1F7FDF72AFD00EBC0014C
:1038D00001EB001061688900B0FBF1F0B0FBF5F07E
:1038E0006FF01801484307EB800108EB0110B0FBB3
:1038F000F5F000F00F00A9E70014014000100140AE
:1039000090F83910212901D0022070478168B1F563
:10391000805F016A0BD04A1C02620268097851601C
:10392000C18C491E0904090CC1840ED017E0098816
:103930000268C1F30801516001690029016A02D0DF
:10394000491C0162ECE7891CFBE70168CA6822F0A8
:103950008002CA600068C16841F04001C160002077
:10396000704700000148FEF789BA0000E00300201C
:103970000148FEF783BA000020040020FEE70000A3
:103980000FB4054B10B503A9044A029800F00AFDD4
:1039900010BC5DF814FB000031520008100100203B
:1039A00003B401984100009850EAC12018BF0420D8
:1039B0004A0D18BF40F0010040F2FF72B2EB515FB8
:1039C00008BF40F00200012808BF052002B0704780
:1039D0000907090E002804DB00F1E02080F800143C
:1039E000704700F00F0000F1E02080F8141D7047D0
:1039F00070B5C1482DED020B2DED0E8B82B0119DDF
:103A000025F000449FEDBEDB9FEDBFEB84423EDB23
:103A1000A4F140511098A1F17F6108430FD0BC4838
:103A2000844202DC28D1109830B39DED100B02B017
:103A3000BDEC0E8B02B0BDE8704000F069BC9DED9E
:103A4000100B53EC1D2B51EC100BFCF753FD9DEDAF
:103A5000100B41EC180B53EC1E2B51EC100BFCF728
:103A600049FD53EC182BFCF79EFC41EC100B02B007
:103A7000BDEC0E8B02B070BD012000F08DFC02B0D9
:103A8000BDEC0E8B02B0BDE8704000F055BCA14803
:103A90009FEDA18B844256DA9DED100BB4F1795F56
:103AA0000ADA51EC100BFFF77BFF042808BF00F087
:103AB00053FC9DED100BDAE753EC102B51EC100B7F
:103AC000FCF718FD41EC190B95480621B0EE490AA8
:103AD000F0EE690A784400F09FFB53EC192B51EC8F
:103AE000100BFCF707FD41EC1A0B8E48B0EE490AAB
:103AF000F0EE690A0421784400F08EFB53EC192B98
:103B000051EC100BFCF7F6FC53EC182BFCF74BFCBC
:103B100041EC100B51EC1A0B53EC102BFCF75CFD35
:103B2000CDE900019DED000B53EC102B9DED100B2A
:103B300051EC100BFCF7DEFC9DED101B53EC112B30
:103B4000FCF731FCD2E09DED100B51EC100B01F0B5
:103B500063FB53EC182BFCF7CAFC9FED730BCDE90C
:103B6000000153EC102B9DED000B51EC100BFCF7FA
:103B7000C1FC41EC190B6E480621B0EE490AF0EE8B
:103B8000690A784400F048FB53EC192B51EC100BF8
:103B9000FCF7B0FC41EC1B0B6648B0EE490AF0EEB6
:103BA000690A0421784400F037FB53EC192B51ECDF
:103BB000100BFCF79FFC53EC182BFCF7F4FB41ECCB
:103BC0001C0B51EC190B03F02FFC41EC180B5A485D
:103BD0009FED5BABA04222DC53EC1C2B51EC1B0B8A
:103BE000FCF7FAFCCDE900019DED000B51EC180B40
:103BF00053EC102BFCF77EFC53EC182BFCF7D3FB9B
:103C000053EC1A2BFCF776FC53EC1D2BFCF76CFCE9
:103C100053EC1E2BFCF76BFC41EC100B5FE08DEDC1
:103C2000008B002000909DED000B51EC180B53EC25
:103C3000102BFCF7B8FB9DED000B41EC1E0B53EC79
:103C4000102B51EC100BFCF755FC53EC192BFCF727
:103C50004EFC53EC1E2BFCF7BFFC41EC190B53EC54
:103C60001C2B51EC1B0BFCF7B7FC41EC1B0B53EC72
:103C70001A2B51EC190BFCF73DFC53EC1D2BFCF7F8
:103C800036FC41EC190B53EC1A2B51EC180BFCF7DA
:103C900031FC53EC1B2BFCF72DFC53EC192BFCF7E0
:103CA00023FC9DED000B41EC180B53EC1A2B51EC4F
:103CB000100BFCF71FFC9FED249B53EC192BFCF71A
:103CC00016FC41EC100B51EC180B53EC102BFCF7CD
:103CD0000BFC53EC192BFCF70AFC41EC100B002DEC
:103CE0003FF7C5AE51EC100B81F0004141EC100BD9
:103CF000BDE60000000000000000F03F00000000F2
:103D0000075C143326A6913C182D4454FB21F93F3F
:103D10000000F07F0000E03F000000000000F03FE6
:103D2000805500008E550000000000000000E03FBC
:103D3000D2540000E05400003333EF3F0000000095
:103D40000000000000000040182D4454FB21E93F12
:103D500070B59B482DED020B2DED068B079D25F0D0
:103D60000044A04218DC9748844202DC0AD106983D
:103D700040B19DED060BBDEC068B02B0BDE8704076
:103D800000F0C6BA002DCCBF9FED8F0B9FED900BBE
:103D9000BDEC068B02B070BD8F48A04215DD8F4888
:103DA000A042D8BF4FF0FF3458DD9DED060B51EC1B
:103DB000100BFFF7F5FD042808BF00F0CDFA9DEDCC
:103DC000060BBDEC068B02B070BD9DED060B51ECF1
:103DD000100B01F021FACDE9060181489FED828B9D
:103DE000A0423CDD8248A0421FDD00249FED82AB53
:103DF0009DED060B53EC1A2B51EC100BFCF7D3FA8C
:103E00009DED060B41EC190B53EC1A2B51EC100BEA
:103E1000FCF770FB53EC182BFCF766FB53EC192BEB
:103E2000FCF7DAFBCDE9060149E09DED060B012424
:103E300053EC182B51EC100BFCF7B5FA9DED060B6B
:103E400041EC190B53EC182B51EC100BFCF74CFB0D
:103E500053EC192BFCF7C0FBCDE906012FE06848B5
:103E6000A0421FDD02249FED689B9DED060B53ECE5
:103E7000192B51EC100BFCF73DFB53EC182BFCF706
:103E800092FA9DED060B41EC180B53EC192B51ECFB
:103E9000100BFCF729FB53EC182BFCF79DFBCDE92D
:103EA00006010CE09DED060B032453EC102B9FED57
:103EB000580B51EC100BFCF78FFBCDE906019DED83
:103EC000060B53EC102B51EC100BFCF713FB41ECE1
:103ED000180B53EC182BFCF70DFB41EC190B4E485B
:103EE0000621B0EE490AF0EE690A784400F094F930
:103EF00053EC182B51EC100BFCF7FCFA41EC180BAF
:103F00004648B0EE490AF0EE690A0521784400F00F
:103F100083F953EC192B51EC100BFCF7EBFA41EC45
:103F2000100B51EC180B53EC102B002C0EDAFCF795
:103F30003AFA9DED061B53EC112BFCF7DBFA9DEDD5
:103F4000061B53EC112BFCF7D2FA35E0FCF72BFAE9
:103F50009DED061B53EC112BFCF7CCFA41EC100B3A
:103F60002F48784400EBC40090ED001B51EC100B7F
:103F700053EC112BFCF7B8FA9DED061B53EC112BFB
:103F8000FCF7B2FA41EC100B2648784400EBC40071
:103F900090ED001B51EC100B53EC112BFCF7A7FA22
:103FA00041EC100B002DA2BFBDEC068B02B070BD22
:103FB00051EC100B81F0004141EC100B01E70000C7
:103FC000000010440000F07F182D4454FB21F93FFD
:103FD000182D4454FB21F9BF0000DC3F0000203EB7
:103FE0000000F33F00000000000000000000F03F70
:103FF0000000E63F0000000000000000000000405C
:104000000080034000000000000000000000F83FB6
:10401000000000000000F0BF22520000D851000054
:10402000625100001A51000070B56B4E2DED040B6B
:104030002DED028B82B0DDF81CC0DDE905235C426A
:104040002CF000411C4341EAD474049D22F000404E
:10405000B44205D86C422C4340EAD474B4420BD924
:104060009DED061B9DED040B02B0BDEC028B04B070
:10407000BDE8704000F056B9ACF14054A4F17F6443
:104080001C430BD0022404EAAC7444EAD274054306
:104090009FED538B9FED542B07D015E09DED040B46
:1040A00051EC100B00F0F8FB42E0002C11BF012C8A
:1040B0009DED040B02B0BDEC028B04BF04B070BDDB
:1040C000022C38D0032C3BD00B439FED491B9FEDB6
:1040D0004A0B0AD0B14218D1B04209D121F0804137
:1040E00020F08040079105900FE0002A15DA10E0DB
:1040F000434B7B44002C08BF93ED000B0DD0012CEB
:1041000010D0022C17D0032C1AD0B0421DD1002A97
:1041100003DAB0EE410AF0EE610A02B0BDEC028BA8
:1041200004B070BD93ED000B51EC100B81F0004119
:1041300041EC100BF1E7B0EE480AF0EE680AECE74C
:10414000B0EE420AF0EE620AE7E7401A00153C289A
:10415000C8BF8DED000B19DCBCF1000FBEBF10F124
:104160003C0F9FED290B8DED000B0FDB9DED060B3A
:1041700053EC102B9DED040B51EC100BFCF72CFABB
:1041800001F04AF800F088FBCDE90001002C08BFDF
:104190009DED000BC1D0012C10D0022C9FED1C0B0B
:1041A00053EC102B9DED000B51EC100B0DD0FCF7D8
:1041B0009BF953EC182BFCF797F9B9E7019880F0BD
:1041C000004001909DED000BA7E7FCF78DF953EC43
:1041D000182BFCF78CF9ABE70000F07F0000000023
:1041E000182D4454FB210940182D4454FB2109C0CB
:1041F000182D4454FB21F9BF182D4454FB21F93FDD
:104200004A50000000000000000000000000000014
:10421000075C143326A6A13C70B504462DED028B35
:104220004D1E00EBC500B0EE408AF0EE608A90EDC6
:10423000000B35F0060017D053EC182B51EC100B87
:10424000FCF758F941EC100B6D1E04EBC50090ED26
:10425000001B51EC100B53EC112BFCF7A4F841ECB4
:10426000100B35F00600E7D1022D36D0042D1CD0FE
:10427000062D1CBFBDEC028B70BD53EC182B51EC0E
:10428000100BFCF737F994ED0A1B53EC112BFCF7DC
:104290008AF853EC182BFCF72DF994ED081B53EC1E
:1042A000112BFCF780F841EC100B53EC182B51EC60
:1042B000100BFCF71FF994ED061B53EC112BFCF7C8
:1042C00072F853EC182BFCF715F994ED040B53EC32
:1042D000102BFCF768F841EC100B53EC182B51EC49
:1042E000100BFCF707F994ED021B53EC112BFCF7B4
:1042F0005AF853EC182BFCF7FDF894ED001B53EC27
:10430000112BFCF750F8BDEC028B41EC100B70BD8B
:1043100010B553EC102B51EC100BFCF744F841ECAA
:10432000100B10BD10B553EC112B51EC100BFCF71A
:104330003AF841EC100B10BD9FED050B10B553EC96
:10434000102B51EC100BFCF747F941EC100B10BD92
:1043500000000000000000009FED050B10B553ECBD
:10436000102B51EC100BFCF7C5F841EC100B10BDF5
:10437000000000000000001002E008C8121F08C181
:10438000002AFAD170477047002001E001C1121FD6
:10439000002AFBD170470000014908607047000007
:1043A0005C0100202DE9FF4F8DB00F460546002629
:1043B00006E025280BD0DDE90F1290476D1C761C16
:1043C00028780028F5D111B03046BDE8F08F0024E0
:1043D000A246A1460122EC4900E0044315F8013F42
:1043E000203B02FA03F00842F7D128782A2810D09F
:1043F0006FF02F022878A0F13001092914D80AEBB8
:104400008A0102EB410144F0020400EB010A6D1C39
:10441000F0E701CF5FEA000A03D544F40054CAF183
:10442000000A44F002046D1C28782E2817D115F8D4
:10443000010F44F004042A280ED06FF02F022878D0
:10444000A0F1300109290AD809EB890102EB4101E9
:1044500000EB01096D1CF2E757F8049B6D1C2878EE
:104460006C280FD006DC4C2817D068280DD06A289D
:1044700014D104E0742810D07A280FD10DE044F450
:1044800000140AE044F4801401E044F44014697814
:10449000814202D104F580146D1C6D1C2A786E2AAD
:1044A0001FD00CDC632A31D004DC002A8BD0582AC0
:1044B00011D1A3E0642A68D0692A0CD165E0732A7F
:1044C0002ED004DC6F2A73D0702A04D19BE0752AA9
:1044D0006FD0782A6ED01046DDE90F129047761C17
:1044E00050E1C4F30250022806D0032809D0042862
:1044F00001CF09D0066045E101CFF117C0E90061A5
:1045000040E101CF06803DE106703BE117F8040B66
:104510008DF8000000208DF80100EB46012003E03B
:1045200057F804BB4FF0FF3061074FF0000102D491
:104530000DE008F10101884649450FDA8045F8DBB6
:104540001BF808100029F4D108E008F101018846A1
:104550008142FADB1BF808100029F6D1DDE90F23B0
:10456000AAEB08008146214600F036F9304400EB02
:10457000080604E0DDE90F121BF8010B9047B8F1C3
:104580000108F7D221464846F7E00A21C4F3025356
:104590004FF0000B0891022B04D001CFC117032B61
:1045A00009D00AE0FF1D27F00707F7E8020108E03D
:1045B00032E01FE020E000B2C117042B01D140B26D
:1045C000C117031E71F1000307DA4FF0000CD0EBA6
:1045D0000C006CEB01012D2302E0230504D52B23F5
:1045E0008DF82430012303E0E30701D02023F7E70F
:1045F000984658E00A2110E010210EE010204FF0FC
:10460000000B08900CE010214FF0000B44F0040464
:104610004FF00809089103E008214FF0000B0891C2
:10462000C4F30253022B04D001CF0021032B06D088
:1046300006E0FF1D27F00707F7E8020103E080B25C
:10464000042B00D1C0B24FF0000823072BD5702AED
:1046500007D0DDF820C08CF0100C5CEA0B0C05D004
:104660000EE040238DF82430012308E050EA0103D6
:1046700006D030238DF824308DF82520022398466B
:10468000DDF820C08CF0080C5CEA0B0C0BD150EA72
:10469000010301D1630706D530238DF824304FF094
:1046A0000108A9F10109582A04D038A20B9208AADE
:1046B0000A920BE03AA2F9E75B46089AFBF7E0FDA5
:1046C0000B9B9B5C0A9A521E0A92137050EA0102DD
:1046D000F2D10A98ADEB000000F1200B600702D583
:1046E00024F4803401E04FF00109D94502DDA9EB43
:1046F0000B0000E0002000EB0B0141440890AAEB06
:10470000010AE00306D4DDE90F232146504600F0FC
:1047100063F806444FF0000908E009A911F8090000
:10472000DDE90F12904709F10109761CC145F4DB60
:10473000E0030CD5DDE90F232146504600F04CF88C
:10474000064404E0DDE90F1230209047761C0899FA
:10475000481E08900029F5DC08E00A980A990078BC
:10476000491C0A91DDE90F129047761CBBF100014C
:10477000ABF1010BF1DC21465046DDE90F2300F0DF
:1047800019F806446D1C1BE609280100303132334C
:10479000343536373839616263646566000000007D
:1047A0003031323334353637383941424344454667
:1047B000000000002DE9F041044600251E46174682
:1047C000880404D405E039462020B0476D1C641EDF
:1047D000F9D52846BDE8F0812DE9F04104460025D1
:1047E0001E469046C80301D5302700E020278804E4
:1047F00004D505E041463846B0476D1C641EF9D526
:104800002846BDE8F0810000FEB506460D460024AE
:10481000684600F033FD00229FED1B1A6B46012114
:1048200056F8227055F82200381A00D5404200EEA2
:10483000100A03EB8200B8EEC00AD0ED000A20EEA9
:10484000010AF5EEC00AF1EE10FA0DD0C0EE201A02
:10485000B7EE000A0D4F31EEC00AB0EEC00A10EEFE
:10486000100AB84207DC09E010EE100A084F38447D
:10487000084FB84202D301FA02F00443521C032A43
:10488000CEDB2046FEBD000000008037295C0F3ED5
:10489000666666C19A99D90010B541EC100BFFF716
:1048A00057FA51EC100B10BD08B560B120208DF8FF
:1048B000000028208DF8010030208DF802003820FB
:1048C0008DF8030004E0A32204216846FBF74CFDA9
:1048D0006A46042140F69E2002F040F801F0FEFCFA
:1048E00008BD00003EB5044602208DF80000CA2035
:1048F0008DF80100E3208DF8020009208DF80300F7
:104900006A460421682002F029F8A3208DF80000EF
:10491000610609D5C0218DF80110C8218DF802105B
:10492000C2218DF8031005E08DF801008DF802001A
:104930008DF8030014F4C07F09D0C4218DF8041051
:10494000CC218DF80510C6218DF8061005E08DF8F4
:1049500004008DF805008DF806008DF808008DF82C
:1049600007008DF809006A460A2140F6A72001F0E9
:10497000F5FFA0074FF0D80503D020208DF80000E8
:1049800001E08DF800506A46012140F6B62001F0A2
:10499000E5FFA00601D5012000E0002000F08EF820
:1049A00014F4C07F1ED0E0050AD5B2208DF80000B7
:1049B0008B208DF80100B6208DF802009B2009E0C5
:1049C000B0208DF8000080208DF80100B4208DF813
:1049D000020090208DF803006A46042140F6A220D0
:1049E00001F0BCFFE1074FF40B6022D0F8218DF8F5
:1049F00000106A46012101F0B1FFFA21072000F002
:104A00003BFB072000F006FB012000F023FB6420A5
:104A100000F0E2FB4FF4FA7000F0EEFBC8212548ED
:104A200000F0C0FA282000F0D5FA0A2000F0E2FADF
:104A300005E08DF800506A46012101F08FFFA007C4
:104A400003D5D9208DF8000001E08DF800506A46AA
:104A5000012140F23D7001F081FF600701D5012086
:104A600000E0002000F048F8E00601D5012000E059
:104A70000020FFF719FF104D44F00800688101F095
:104A80002DFC0020A873600601D50620A87314F43D
:104A9000C07F02D0A87B801DA87314F0140F02D031
:104AA000A87B1030A873A00702D0A87B001DA873B4
:104AB00000203EBD09E3CA02748900200EB54FF400
:104AC000976310B106A107C901E008A207CA8DE8E3
:104AD00007006A460921184601F040FF0EBD00009C
:104AE000B8AAB38DB4980D355D000000B8AAAAAA83
:104AF000B088C3C5C700000008B560B1C0208DF8FC
:104B00000000C2208DF80100C4208DF80200C620EC
:104B10008DF8030004E08B2204216846FBF724FC97
:104B20006A46042140F6982001F018FF01F0D6FBF8
:104B300008BD0000C8234FF48062024940F6F630F9
:104B400001F0AEBA608400082DE9FF4F89B0174626
:104B5000DDE9165200244D4E884681462C80A2463F
:104B6000B07B694601F048FB4FF0FF3B18B1584657
:104B70000DB0BDE8F08F708910F0140F3ED0009991
:104B800009BA21F0FF029DF803100A433A60019927
:104B90009DF8073009BA21F0FF0119437960029BA3
:104BA0009DF80B401BBA23F0FF032343BB60039C1B
:104BB000121424BA24F0FF0C9DF80F4009144CEA9B
:104BC000040C1024C7F80CC01B144FEA2C4712FB2E
:104BD00002F211FB012113FB03F217FB0722114420
:104BE000A1F17061B1F1007F04D901F077FBA5F864
:104BF00000A0BCE7298841F48071298042066946FB
:104C000011D50A19A41D13885BBAA8F8003053887F
:104C10005BBAA8F80230928852BAA8F804202A8811
:104C200042F008022A8010F4C07F11D00A19A41D96
:104C300013885BBAA9F8003053885BBAA9F8023030
:104C4000928852BAA9F804202A8842F070022A8079
:104C5000800716D00C44E07800F0C00500F03F015A
:104C60006078C00706D0C80801F007013268491C07
:104C700002B190476078000703D5716809B1A809AF
:104C800088470C9800F070FF002071E774890020BD
:104C90002DE9FF41044603A801F0B2F8BDF80C006D
:104CA000410CC3032F48028902F00300550754F852
:104CB000200000D54042C2F3C105960654F82550A5
:104CC00000D56D42C2F38116D20554F8264000D5B6
:104CD0006442A0FB0367C21702FB037200FB0120C2
:104CE000820042EA9670A5FB0367EA1702FB037293
:104CF00005FB0122950045EA9672A4FB0367E517C0
:104D000005FB037304FB01318B0043EA9671030E2C
:104D10008DF80030030C8DF80130030A8DF8023055
:104D20008DF80300100E8DF80400100C8DF80500AE
:104D3000100A8DF80600080E8DF80800080C8DF892
:104D40000900080A8DF80A008DF807208DF80B106D
:104D50006A460C214FF4257001F000FE04B0BDE856
:104D6000F08100007489002030B5044613A285B09C
:104D700007CA8DE807004FF0FF35C82C16D8C820A9
:104D8000B0FBF4F1491E080A8DF80C008DF80D10E7
:104D900003AA022140F2162001F0E0FD30B96A4674
:104DA0000C2140F6C12001F0D9FD10B1284605B014
:104DB00030BD054884810020F9E70000FEF2ABC455
:104DC000AAF1DFDFBBAFDFDF74890020F8B530491F
:104DD000098901F0030250F822404A0700D56442D5
:104DE000C1F3C1028B0650F8222000D55242C1F314
:104DF000811350F82330C80500D55B42254984FB58
:104E00000140850045EA947082FB0142A40F44EA08
:104E1000820483FB0121950F45EA8105010E8DF87F
:104E20000010010C8DF80110010A8DF802108DF8A8
:104E300003006A4604214FF4747001F08FFD4FF0B7
:104E4000FF3688B9200E8DF80000200C8DF8010087
:104E5000200A8DF802008DF803406A4604214FF4C1
:104E6000757001F07BFD08B13046F8BD280E8DF855
:104E70000000280C8DF80100280A8DF802008DF83A
:104E800003506A4604214FF4767001F067FDF8BDC7
:104E90007489002009E3CA022DE9FF4104463CA0C1
:104EA00004F00303006802903AA0006803903AA05F
:104EB00006683AA0056802A8C15C8DF80010C4F32A
:104EC000C101425C8DF80120C4F38112805C8DF831
:104ED000020003A8C35C8DF80430415C8DF8051016
:104EE000805C8DF806006A46032140F2264001F0FE
:104EF00035FD4FF0FF37E0BB01AA032140F22A4005
:104F000001F02CFDA8BBCDE9006560070BD59DF82D
:104F1000000040F001008DF800009DF8040040F012
:104F200001008DF80400A0060BD59DF8010040F0AB
:104F300001008DF801009DF8050040F001008DF89A
:104F40000500E0050BD59DF8020040F001008DF84A
:104F500002009DF8060040F001008DF806006A4648
:104F600003214FF4886001F0F9FC10B901AA032174
:104F700000E004E040F2314001F0F0FC18B13846A6
:104F800004B0BDE8F081064804810020F8E7000085
:104F90004CCD6C000CC92C003656760026466600B7
:104FA000748900204FF47A7290FBF2F008B5484300
:104FB000010E8DF80010010C8DF80110010A8DF81A
:104FC00002108DF803006A4604214FF4AE7001F020
:104FD000C5FC08BD0521B0FBF1F008B5010A8DF84C
:104FE00000108DF801006A4602214FF4AD7001F007
:104FF000B5FC08BD0521B0FBF1F008B5010A8DF83C
:1050000000108DF801006A4602214FF4AC7001F0E7
:10501000A5FC08BD08B500218DF80010C10702D01D
:1050200030218DF80010810705D59DF8001041F062
:105030000C018DF80010400705D59DF8000040F0E8
:1050400003008DF800006A4601214FF4A47001F0BE
:1050500085FC08BD08B560B1042800D90420401EB5
:105060008DF800006A46012140F24F1001F076FCF5
:1050700008BD0120F3E7000070B504462DED028B5A
:1050800082B040074FF0FF357ED0B1F5C86F7BD8B6
:1050900000EE101AB8EE400ADFED460A01A880EED5
:1050A000208A00F08FFE9DF80400022806D0042814
:1050B00010D0082835D0102874D13EE09FED3E0A6C
:1050C00028EE000ABCEEC00A10EE100A9FED3B0A63
:1050D00082B20AE09FED3A0A28EE000ABCEEC00A4E
:1050E00010EE100A9FED370A82B228EE000A6E46D3
:1050F000BCEEC00A10EE100A81B2100A8DF8000052
:105100008DF80120080A8DF802008DF80310E007E1
:1051100026D0324602214FF4EA7001F01FFC98BB02
:1051200017E09FED290A28EE000ABCEEC00A10EE37
:10513000100A9FED260A82B2D7E79FED250A28EED6
:10514000000ABCEEC00A10EE100A9FED220A82B2DD
:10515000CBE7B21C02214FF4927001F0FFFB98B92B
:10516000A0070DD56A4602214FF4EC7001F0F6FB62
:1051700050B9B21C02214FF4947001F0EFFB18B942
:10518000600714D56A4600E00CE002214FF4EE708F
:1051900001F0E4FB30B9B21C02214FF4967001F02B
:1051A000DDFB20B1284602B0BDEC028B70BD0020B3
:1051B000F9E7000000004843000080460000404638
:1051C000000000460000C04500008045000040454A
:1051D000000000450000C0440521B0FBF1F008B517
:1051E000010A8DF800108DF801006A4602214FF483
:1051F000EF7001F0B3FB08BD0521B0FBF1F008B57D
:10520000010A8DF800108DF801006A4602214FF462
:10521000ED7001F0A3FB08BD82B0CDE9000121F0E3
:10522000004001909DED000B02B051EC100B704757
:1052300005490968C90105D54FF060410A68002A8F
:10524000FCD0087070470000FCED00E070B54FF630
:10525000FA75281A84B20848FCF7E2FA0648016891
:105260004C62006801E0416A8CB2AC42FBD3BDE8FD
:1052700070400148FCF7F7BAA00300201FB50446B0
:10528000274802AB042240680D210078FCF74AFF52
:1052900010B1072004B010BD9DF808101C2000EAD2
:1052A000D1029DF80B10DFED1F0AC1F301131A4361
:1052B0008DF800209DF80920C1F3810300EAD20295
:1052C0001A438DF801209DF80A2001F0030100EA3D
:1052D000D20008439FED141A9FED140A8DF80200C6
:1052E00000216A46505C002804EB810002D080ED6A
:1052F000001A09E0C0ED000A0CE000BFD0ED001A72
:1053000061EE801AC0ED001A535C5B1E13F0FF03C0
:105310005354F3D1491CC9B20329E3D30020B9E7A0
:1053200014010020000000007B14AE3E1D5A843F93
:105330002DE9FE4F05460120C14E8DF800004FF0CB
:1053400000088DF8018030680C461746817C706833
:105350006B4602220078FCF71BFF4FF0FF3A002853
:105360007AD1C820FBF736FD8DF8008030686B4697
:105370000122C17B70680078FCF70AFF0028EFD19A
:1053800030686B460122417970680078FCF700FFB5
:105390000028E5D130686B460122817C7068007876
:1053A000FCF7F6FE0028DBD130686B460122C17D98
:1053B00070680078FCF7ECFE0028D1D130686B46AD
:1053C0000122017970680078FCF7E2FE0028C7D15D
:1053D0004FF00C098DF8009030686B46012201797E
:1053E00070680078FCF7D4FE002835D10F20FBF759
:1053F000F1FCB06A6B460122407A8DF800003068FB
:10540000817870680078FCF7C3FE002824D1B06A68
:105410006B460122007A8DF8000030684178706890
:105420000078FCF7B5FE002873D1B06A807A0FB11E
:1054300040F0E0008DF8000030686B460122817971
:1054400070680078FCF7A4FE002862D12FB1B06A22
:10545000C07A40F0E00001E04AE018208DF800003A
:1054600030686B460122C17970680078FCF790FEC5
:10547000F0BB17B1C820FBF7ADFC40208DF8000051
:1054800030686B460122017970680078FCF780FE75
:1054900070BB78208DF8000030686B46012241799E
:1054A00070680078FCF774FE10BB3220FBF792FCAA
:1054B0008DF80080306847466B464179706801225C
:1054C0000078FCF765FE98B931687068B046897A53
:1054D00000786B460222FCF725FE48B9BDF80000B3
:1054E000AF6040BAB0FBF9F06F60C6B22F6000E069
:1054F0000FE0A76067602760002739E0D8F8001048
:10550000D8F804006B46C97A00780C22FCF70AFE32
:1055100010B15046BDE8FE8FBDF80000236840BAC8
:1055200002B2BDF80200BDF804101A44226040BA6D
:10553000626800B21044606049BAA06809B20844C9
:10554000A060BDF806002B6840BA02B2BDF80800A2
:105550001A4440BA01B2BDF80A002A606A6840BA2B
:1055600011446960A96800B208447F1CFFB2A860BA
:10557000B742C3D328688322C117090441EA104106
:1055800000040023FAF7ADFE32460023FAF7A9FE25
:10559000286068688322C117090441EA10410004A9
:1055A0000023FAF79EFE32460023FAF79AFE68605F
:1055B000A8688322C117090441EA104100040023AE
:1055C000FAF78FFE32460023FAF78BFEA8602068B8
:1055D0004FF40065C117090441EA104100042A464E
:1055E0000023FAF77EFE32460023FAF77AFE2060A7
:1055F00060682A46C117090441EA104100040023EB
:10560000FAF76FFE32460023FAF76BFE6060A0687F
:105610002A46C117090441EA104100040023FAF7A1
:1056200060FE32460023FAF75CFEA060002802DD2F
:10563000A0F5803001E000F58030A060002069E72F
:1056400014010020F8B506462E480D460024406897
:105650006B46032200780D21FCF764FD08B107209A
:10566000F8BD9DF80000002200F01F008DF800003A
:105670009DF801009FED241A00F01F008DF8010035
:105680009DF802006B4600F01F008DF8020001211A
:1056900056F8220055F82270C01B00D5404200EE9B
:1056A000100A985CB8EEC00A60EE010AD0B1B3EE01
:1056B000090ADFED161A01E020EE210AC0B2401EF1
:1056C00010F0FF009854F7D1C0EE801AB7EE000A30
:1056D0000F4F31EEC00AB0EEC00A10EE100AB84209
:1056E00007DC09E010EE900A0A4F3844B0F1D97F88
:1056F00002D901FA02F00443521C032AC8DB2046F7
:10570000F8BD0000140100200000803754E3853FFD
:10571000295C0F3E0000E0BE10B50A4C4FF40000BB
:1057200020600120FFF792FD402020600120FFF75C
:105730008DFD4FF4800020600120FFF787FD802061
:10574000206010BD1804024070B5094C802525600A
:105750000120FFF77BFD402020600120FFF776FD50
:10576000E80320600120FFF771FD256070BD000097
:10577000180402402DE9F0470024104E4027DFF8BE
:105780003C80254608364FF480096006040E3760D9
:105790000120FFF75BFDD8F80000000601D5641C6E
:1057A000E4B2C6F800900120FFF750FD6D1CEDB289
:1057B000082DEAD32046BDE8F0870000100402401F
:1057C0002DE9F0470025134C06464FF4000A4FF030
:1057D00040084FF480098027300601D5276001E09A
:1057E000C4F800A00120FFF731FDC4F800800120BB
:1057F000FFF72CFDC4F80090072D00D1276070063C
:10580000060E0120FFF722FD6D1CEDB2082DE3D33B
:10581000BDE8F0871804024010B50B4C80202060D2
:10582000402020600120FFF711FD4FF400002060B0
:105830000120FFF70BFD4FF480002060BDE8104011
:105840000120FFF703BD00001804024010B5084C0A
:105850004FF400002060402020600120FFF7F6FC9C
:1058600080202060BDE810400120FFF7EFBC000061
:105870001804024070B50C4D80202860402028603C
:105880000120FFF7E3FC084808380068000601D54E
:10589000012400E000244FF4800028600120FFF77D
:1058A000D5FC204670BD00001804024000B5024639
:1058B00000F00DF80346D01C00F009F843EAC003DD
:1058C000901D00F004F843EA801080B200BD90F90A
:1058D0000010002902DD4FF00000704702DA4FF09F
:1058E0000400704790F90110002902DD4FF001001B
:1058F000704702DA4FF00500704790F90200002867
:1059000002DD4FF00200704702DA4FF006007047E8
:105910004FF0070070470000CAB0FBF799FBFDF796
:10592000F5FBFCF759FC65486349532500240160E9
:10593000C0E9015480264FF6FF778661C0E9037401
:10594000FBF71BFFFCF764FDFCF792FDFCF7BEFDC7
:10595000FCF7EAFDFCF716FEFCF768FEFCF72AFDF3
:1059600058484894499456498661C0E90015C0E9F1
:105970000247FBF702FF489448A952484994FBF7B5
:10598000DBFE4E48504940304FF496470160C0E975
:1059900001744FF00408C460C0E904488461C46124
:1059A000FCF7F4FA4548494980300160C0E90174C8
:1059B000C460C0E904488461C461FCF7E7FA414867
:1059C0004894403042494994C0E9001544F62061AA
:1059D0008661C0E90241FBF7D0FE3A48489448A9E5
:1059E00040304994FBF7A8FEFBF706F800F0FAFFF9
:1059F000242238496846FAF7A5FC6A460021364851
:105A000001F02CF8354C33492422A061243109A837
:105A1000FAF798FC09AA0021314801F01FF82D4936
:105A2000E0612422483112A8FAF78CFC12AA002166
:105A30002C4801F013F82749206224226C311BA85E
:105A4000FAF780FC1BAA0021274801F007F821493A
:105A500060622422903124A8FAF774FC24AA002161
:105A6000224800F0FBFF1B49A0622422B4312DA87C
:105A7000FAF768FC2DAA00211D4800F0EFFF154938
:105A8000E0622422D83136A8FAF75CFC36AA00215D
:105A9000184800F0E3FF0F4920632422FC313FA89F
:105AA000FAF750FC3FAA0021134800F0D7FF6063CB
:105AB00000F0B4FFFEE7000000200040A00300203B
:105AC000001000406002002000100140004400402F
:105AD0000014004088820008092D00080000002002
