:020000040800F2
:10000000A88F00205D020008B929000867200008B9
:1000100095260008BD0C0008D53C00080000000033
:100020000000000000000000000000009D0100082A
:10003000D50C000800000000F90100086135000837
:1000400077020008770200087702000877020008AC
:10005000770200087702000877020008770200089C
:1000600077020008110D0008170D0008770200083C
:10007000770200087702000877020008770200087C
:10008000770200087702000877020008770200086C
:100090007702000877020008770200081D0D0008AB
:1000A000770200087702000877020008770200084C
:1000B000770200087702000877020008770200083C
:1000C000770200087702000877020008770200082C
:1000D00077020008BD3C0008C93C00087702000810
:1000E000090D00087702000877020008770200086F
:1000F00065360008770200087702000877020008DA
:1001000077020008770200087702000877020008EB
:1001100077020008770200087702000877020008DB
:1001200077020008770200087702000877020008CB
:1001300077020008770200087702000877020008BB
:1001400077020008770200087702000877020008AB
:10015000770200087702000877020008770200089B
:10016000770200087702000877020008770200088B
:1001700077020008770200087702000800000000FC
:100180007702000877020008DFF80CD000F0C8FB07
:100190000048004719570008A88F00202C4B196809
:1001A0000868B0E8F04F80F30988BFF36F8F4FF015
:1001B000000080F3118870470000000008480068C4
:1001C000006880F308884FF0000080F3148862B65E
:1001D00061B6BFF34F8FBFF36F8F00DF00BF00BF6B
:1001E00008ED00E0DFF80C00016841F470010160E7
:1001F000704700BF88ED00E0EFF30980BFF36F8F19
:10020000134B1A681EF0100F08BF20ED108A20E96A
:10021000F04F106009B44FF0500080F31188BFF325
:100220004F8FBFF36F8F06F02BFC4FF0000080F371
:10023000118809BC19680868B0E8F04F1EF0100F6B
:1002400008BFB0EC108A80F30988BFF36F8F704746
:1002500048000020EFF30580704700000648804703
:1002600006480047FEE7FEE7FEE7FEE7FEE7FEE79B
:10027000FEE7FEE7FEE7FEE7113600088901000809
:100280002DE9F05F0546002092469B4688460646CB
:10029000814640241BE0284641464746224600F05E
:1002A00088FA53465A46C01A914110D3114618464F
:1002B000224600F06FFA2D1A67EB01084F462246DE
:1002C0000120002100F066FA17EB00094E41201EC4
:1002D000A4F10104DFDC484631462A464346BDE826
:1002E000F09F2DE9FE43994615468846074601AC26
:1002F000022942D3002D40D000200290A8F1010035
:100300004FF0FF36009022E000FB057201FB057004
:1003100011464A469047002805DC54F82600304430
:1003200044F8260013E060682A4600FB057154F883
:10033000040C00FB057007E00B7890F800C001F892
:1003400001CB00F8013B521E002AF5D1764254F849
:10035000040C61688842D7DC4B462A463846FFF7D2
:10036000C0FF54F8040C4B46A8EB0001401C00FBF6
:1003700005702A46491EFFF7B4FFBDE8FE8340EA38
:1003800001039B0703D009E008C9121F08C0042A13
:10039000FAD203E011F8013B00F8013B521EF9D2FA
:1003A0007047D2B201E000F8012B491EFBD2704722
:1003B0000022F6E710B513460A4604461946FFF731
:1003C000F0FF204610BD2DE9FE4F804681EA030074
:1003D000C00F0C46009021F0004123F00045B8EB1F
:1003E0000200A94105D24046214690461C460B46D4
:1003F000024623F00040104347D0270DC7F30A0000
:10040000C3F30A510290401A019040286BDAC3F3FB
:10041000130040F4801B0098924620B10023D2EBD9
:10042000030A63EB0B0B01985946C0F1400250469A
:1004300000F0B0F906460D4650465946019A00F0C4
:10044000C8F910EB08006141002487EA115284EAE0
:10045000E7731A4340D0009A62B3019A012A4FEA27
:10046000075215DC001B61EB02014FF0004202EA6B
:100470000752CDE90042001C41F5801132462B465F
:1004800000F0FFF903B0BDE8F08F40462146F9E7E0
:10049000001B61EB0201001C41F5801300185B4159
:1004A0002018A2F5001747EB030140EAD570B619F2
:1004B0006D4111E06D084FEA360645EAC0754FEA16
:1004C0000752001B61EB0201001C41F58011490835
:1004D0004FEA30000019514132462B4603B0BDE8C7
:1004E000F04F00F0BFB90098012240000023D0EB8C
:1004F000020263EBE073009821464FEAE074B8EB28
:10050000000061EB0401E9E783F000435BE781F061
:10051000004158E72DE9FE4F81EA030404F000444E
:1005200021F0004100944FF0000B23F0004350EA0B
:1005300001045ED052EA03045BD0C3F30A54C1F352
:100540000A552C44A4F2F3340194A0FB0254C1F3E5
:10055000130141F48011C3F3130343F4801301FB2F
:10056000024400FB034E840A970A44EA815447EA96
:100570008357A4FB076802958D0A05FB07854FEAA0
:10058000932C04FB0C542705029D4FEA065847EABA
:100590001637B5EB08056EEB070C870E920E47EA8F
:1005A000811742EA8312A7FB0201B6EB0B0164EB51
:1005B00000042B0D43EA0C335E1844EB1C50DA4662
:1005C0005146E7FB0201C5F313044FEA0B3343EA3C
:1005D00014534FEA0432019C43EA0603A4F10C04CD
:1005E0000294009CCDE900B400F04BF903B0BDE8E3
:1005F000F08F00200146F9E72DE9F04D81EA030470
:1006000004F0004B21F0004514464FF0000A23F09F
:10061000004150EA050220D054EA01021DD0C5F382
:100620000A570246C5F31303C1F31300C1F30A5678
:1006300040F4801543F48013A7EB0608101BD64640
:1006400008F2FD3873EB050002D308F1010801E060
:1006500092185B41B8F1000F03DA00200146BDE8B3
:10066000F08D00204FF48011064684460EE0171BE3
:1006700073EB050705D3121B63EB050306434CEA36
:10068000010C49084FEA300092185B4150EA01071B
:10069000EDD152EA030012D082EA040083EA050198
:1006A000084305D0101BAB4106D20122002306E00F
:1006B00000224FF0004302E06FF0010253101AEBEA
:1006C00006004CEB085110EB0A0041EB0B01BDE8B2
:1006D000F04D00F0C7B80EB5C10F80EAE0700844D5
:1006E000CA07002140F233438DE80E000A460B464C
:1006F00000F0C7F803B000BD70B5C1F30A5201F0B5
:1007000000450024C1F3130140F2FF3341F480118E
:100710009A4201DA002070BD40F233439A42A2F2BD
:10072000334203DC524200F044F800E090402C4396
:10073000F1D0404270BD00F0004230F000400AD0DD
:10074000C10D01F56071C0F3160042EA0151C20803
:1007500040071143704700200146704701F00043F5
:1007600030B421F0004150EA010206D00A0DA2F592
:100770006072C1F31301002A02DC30BC0020704714
:10078000440F44EAC104C100E01830BC00EBC25081
:1007900000F031B8202A04DB203A00FA02F10020F0
:1007A00070479140C2F1200320FA03F319439040AF
:1007B0007047202A04DB203A21FA02F0002170471A
:1007C00021FA02F3D040C2F12002914008431946B9
:1007D0007047202A06DBCB17203A41FA02F043EAA1
:1007E000E07306E041FA02F3D040C2F120029140EA
:1007F0000843194670470029A8BF7047401C4900AC
:1008000008BF20F00100704710B4B0FA80FC00FA75
:100810000CF050EA010404BF10BC704749B1CCF1A0
:10082000200421FA04F411FA0CF118BF012121432C
:100830000843A3EB0C01CB1D4FEA00614FEA1020E7
:1008400042BF002010BC704700EBC3501044002989
:10085000A4BF10BC7047401C490008BF20F0010035
:1008600010BC704710B5141E73F1000408DA401C68
:1008700041F1000192185B411A4301D120F00100BF
:1008800010BD2DE9F04D92469B4611B1B1FA81F2AF
:1008900002E0B0FA80F220329046FFF77BFF044678
:1008A0000F4640EA0A0041EA0B0153465A46084304
:1008B00013D0114653EA010019D0C8F14002504646
:1008C000FFF777FF05460E46504659464246FFF76A
:1008D00061FF084305D0012004E020463946BDE809
:1008E000F08D0020054346EAE0762C4337430A9812
:1008F0006305E40AA0EB08000022FD0A44EA47541D
:100900000A3002D500200146E9E7010510196941C6
:10091000DDE9084500196941BDE8F04DA2E7000096
:10092000064C074D06E0E06840F0010394E807003C
:1009300098471034AC42F6D3FFF72AFC0079000840
:10094000207900082DE9F04D00231A461B1A8A4130
:1009500003DB00200146BDE8F08DC1F30A52C1F36C
:10096000130141F480154FF0000BD10702D100189C
:100970006D41521E0027044640F2FF11384601EB3C
:10098000620A3E468046024600204FF48011FFF77F
:1009900010FFC2197141BB1846EB0100B4EB030C08
:1009A00075EB000C04D3E41A65EB000517460E4600
:1009B000241908F101006D4180463428E3DDF9195E
:1009C00046EB0600091BA84103D24FF0FF32134645
:1009D00001E0002213461BEB070046EB0A51BDE87D
:1009E000F04DFFF73FBF0EB540F2334102910021B9
:1009F000CDE900110A460B46FFF743FF03B000BDE7
:100A000030B58C1810F8012B12F00F0301D110F83B
:100A1000013B120906D110F8012B03E010F8015B2D
:100A200001F8015B5B1EF9D101E001F8013B521EA8
:100A3000FBD1A142E6D3002030BD00002DE9F04FEC
:100A400085B0614F0026CDE901766048009004250D
:100A5000DFF87C81CDE90375802340464246402182
:100A600001F042FE5B4CA06010B95BA003F034F9CA
:100A70000821CDE901710C20CDE903705C484FF4E9
:100A8000007A474600904FF4807B534640463A46F2
:100A9000594601F029FEE06010B956A003F01CF998
:100AA0005A48CDE90106CDE9030559480090594857
:100AB00040230246202101F017FE206110B956A004
:100AC00003F00AF95A48CDE90106CDE90305DFF83C
:100AD000688158484FF4004900904B4640464246D2
:100AE0004FF4804101F000FE606110B953A003F0A3
:100AF000F3F800221146A06801F027FE00221146FB
:100B0000E06801F022FE00221146206901F01DFE7E
:100B100000221146606901F018FE4E48102302467B
:100B2000202102F007FDA0614B4800F01BFE4A485F
:100B300000684662494E0120009008233046324644
:100B4000042102F06FF8E06110B945A003F0C4F889
:100B50000220C302009038463A46591002F062F86B
:100B6000206210B943A003F0B7F8032000901023CF
:100B700042464946304602F055F8606210B942A03C
:100B800003F0AAF84548534602465946009502F03C
:100B900049F8A06210B942A003F09EF8062005F0C3
:100BA000C1FCE06201220B49424801F021FA0949E7
:100BB0000122491C404801F01BFA01F06DFD606004
:100BC00005B0BDE8F08F0000800200204001002049
:100BD00000080240C00000204572726F723A206D1A
:100BE0006F746F724C46204E554C4C0A000000004A
:100BF000C00100204572726F723A206D6F746F727F
:100C00004C42204E554C4C0A00000000C00200200F
:100C100080010020001002404572726F723A206D10
:100C20006F746F725246204E554C4C0A0000000003
:100C30000003002000020020000402404572726F91
:100C4000723A206D6F746F725242204E554C4C0AAE
:100C500000000000000C024040020020001802408A
:100C60004572726F723A20736F6E617246204E55F4
:100C70004C4C0A004572726F723A20736F6E61724B
:100C800042204E554C4C0A004572726F723A2073E6
:100C90006F6E61724C204E554C4C0A00001402409D
:100CA0004572726F723A20736F6E617252204E55A8
:100CB0004C4C0A0080030020C0030020FEE790EDAA
:100CC000000AD1ED000A30EE600ABDEEC00A10EE57
:100CD000100A70477047000010EE100A0749DFED58
:100CE000080A884202DB30EE600A704710EE100AF4
:100CF00004498842F9D930EE200A70470000344395
:100D00000000B443000034C34FF4805000F05EB8DC
:100D1000082000F05BB8102000F058B84FF40070C5
:100D200000F054B890F83510022903D080214165B5
:100D300001207047052180F835100068016821F016
:100D4000010101600020704770B5044600F02CF9E5
:100D50000546601C02D004480078044400F024F9E1
:100D6000401BA042FAD370BD3800002070B5124D70
:100D70000026124C2A68518981420ED0104D2A68F3
:100D80005189814209D00F4D2A685189814204D08E
:100D90000D4D2A685189814209D1506800F0FAF856
:100DA0000128206804D0416A28680182067370BD5A
:100DB000406A2968C88170BDE4000020400200201C
:100DC000E8000020DC000020E0000020044910B50D
:100DD0000A68024202D00860FFF7C8FF10BD000099
:100DE000143C01402DE9F84FDFF87CB100224FF0B0
:100DF00001084FF0030A4FF00F090BF1040E00BF7A
:100E00000B6808FA02F42340A3426ED14D68022D0C
:100E100001D0122D0ED1D50800EB850CDCF8205046
:100E20005607F70E09FA07F6B5430E69BE402E4382
:100E3000CCF82060066855000F790AFA05FC07F027
:100E4000030726EA0C06AF40374307604E68012EC1
:100E500005D0022E03D0112E01D0122E0ED186689D
:100E6000CF6826EA0C06AF40374387604668A64342
:100E70000C79C4F30014944034434460C6688C6811
:100E800026EA0C06AC403443C4604C68E40065D5E7
:100E9000364C256845F480452560246822F003051A
:100EA00004F480440094324C2E19D6F80848950773
:100EB0002F0F09FA07F5AC432E4DA84201D10025AA
:100EC00024E02D4DA84201D101251FE02B4DA84261
:100ED00001D102251AE02A4DA84201D1032515E0CF
:100EE000284DA84202D1042510E037E0264DA84243
:100EF00001D105250AE0254DA84201D1062505E0CE
:100F0000234DA84201D1072500E00825BD40254317
:100F1000C6F80858DBF800405D464E689C43F6036F
:100F200000D51C432C60DEF8004075464E689C439B
:100F3000B60300D51C432C600B4D08352C684E6859
:100F40009C43F60200D51C432C60074D0C352C68E1
:100F50004E689C43B60200D51C432C60521C102ADC
:100F6000FFF44EAFBDE8F88F003C0140443802402A
:100F7000003001400000024000040240000802402E
:100F8000000C024000100240001402400018024011
:100F9000001C02400069084000D0012070470AB1DF
:100FA000816170470904FBE70148806870470000D1
:100FB000380000200248816802781144816070473F
:100FC000380000200B4810B5016841F40071016041
:100FD000016841F480610160016841F48071016041
:100FE000032000F08DF8002000F006F800F03EF835
:100FF000002010BD003C024010B5014688B0002220
:101000002C2000F05DF82C2000F04CF81348002450
:10101000016841F080010160006805A900F08000CE
:101020000690684600F016F900F034F90C494000CB
:10103000B0FBF1F10C480B4A491E026040F2E73266
:10104000C0E90324C0E9011400F051FB10B10120F4
:1010500008B010BD044800F097FBF9E740380240A3
:1010600040420F00001C0040000400200C4882B0E9
:10107000016841F480410160006800F48040009004
:101080000748001F016841F080510160006800229C
:1010900000F0805000900F21901E02B000F010B8B8
:1010A00044380240002809DB00F01F020121914072
:1010B0004009800000F1E020C0F8001170470000F6
:1010C000F0B40E4B1B680C46C3F30223C3F10705B3
:1010D000042D00D90425191D072901D2002300E0A1
:1010E000DB1E012606FA05F1491E214099409E406B
:1010F000761E16403143F0BC02F016BE0CED00E047
:10110000064900F0070208684FF6FF03184040EA5E
:101110000220034A10430860704700000CED00E015
:101120000000FA052DE9F0470E46050065D0DFF80E
:101130001481D8F80000F7B200F00F00B04207D2D7
:1011400088F80070D8F8000000F00F00B04254D1C9
:1011500028683D4C810712D5400703D5206840F42C
:10116000E05020602878000703D5206840F46040F4
:1011700020602068A96820F0F000084320602878EB
:10118000C0072DD0304968680839012812D00228DC
:1011900013D0032811D00968890700292DDA2168A6
:1011A00021F0030101432160FFF7FEFE814641F279
:1011B000883A0EE009688903EFE709688901ECE7DE
:1011C000FFF7F2FEA0EB0901514502D90320BDE86B
:1011D000F0872068696800F00C00B0EB810FEFD158
:1011E000D8F80010404601F00F01B14207D907704E
:1011F000006800F00F00B04201D00120E7E7287836
:10120000400705D52068E96820F4E05008432060D5
:101210002878000706D52068296920F4604040EA54
:10122000C100206000F056F82168084AC1F303119C
:10123000515CC840064908600020FFF7DDFE002031
:10124000C5E70000003C0240083802401C76000858
:10125000440000200F2202600C4A136803F00303CD
:101260004360136803F0F0038360136803F4E053F2
:10127000C36012684FF4E05303EAD20202610448EB
:10128000006800F00F000860704700000838024056
:10129000003C02400448054900680968044AC1F35B
:1012A0008221515CC8407047440000200838024049
:1012B0002C7600080448054900680968044AC1F30F
:1012C0004231515CC8407047440000200838024059
:1012D0002C760008154810B5006810F00C02144870
:1012E00013D01449042A0FD0082A0ED10F4C241F02
:1012F0002268236802F03F025B0207D52068C0F332
:101300008810A0FB010106E0084610BD2168C1F36A
:101310008811A1FB00010023FEF7B2FF2168C1F391
:101320000141491C4900B0FBF1F010BD08380240F2
:101330000024F40040787D012DE9F84F050076D0B7
:101340002878DFF8F8B2BE4CC00749D0DBF80010AF
:101350005846C1F38101012908D00068C0F381001B
:1013600002280AD1201D0068400206D520688003AB
:1013700036D568680028E2D032E06868B0F5803F72
:1013800010D0B0F5A02F206810D020F4803020605D
:10139000206820F4802020606868A0B1FFF704FE78
:1013A00006460CE0206840F48030F4E740F48020EA
:1013B0002060F7E7FFF7F8FD801B642873D82068EA
:1013C0008003F7D50CE0FFF7EFFD064605E000BF10
:1013D000FFF7EAFD801B6428F0D820688003F7D46B
:1013E0002878DFF8608280074FF000093ED5DBF8EF
:1013F0000010584611F00C0F09D00068C0F38100AE
:1014000002280BD18D48001F0068400206D42068D6
:10141000800715D5E868012809D111E0E868B8B15E
:101420000120C8F80000FFF7BFFD064605E002E115
:10143000FFF7BAFD801B0228C0D820688007F7D5C7
:101440002068296920F0F80040EAC10020600DE022
:10145000C8F80090FFF7A8FD064604E0FFF7A4FDDA
:10146000801B02281FD820688007F7D4287800073F
:1014700022D5724E744869696C3671B101210160E0
:10148000FFF792FD074604E0FFF78EFDC01B022820
:1014900009D830688007F7D50EE0C0F80090FFF754
:1014A00083FD074605E083E0FFF77EFDC01B0228B1
:1014B0007ED830688007F7D42878400768D5DFF8F1
:1014C0007CA100270AF1380ADAF80000C0000BD42A
:1014D000DAF8001041F08051CAF80010DAF8000084
:1014E000012700F080500090584E3068C00510D49D
:1014F000306840F480703060FFF756FD009005E0E2
:10150000FFF752FD0099401A022851D83068C005F3
:10151000F6D54A4EA868683601280FD005283068ED
:1015200010D020F001003060306820F004003060FE
:10153000A868B8B1FFF738FD00900FE0306840F0C0
:101540000100F4E740F004003060F7E7FFF72CFDFE
:101550000099411A41F28830814264D8306880078E
:10156000F4D50EE0FFF720FD009007E0FFF71CFD2B
:101570000099411A41F28830814254D8306880077E
:10158000F4D42FB1DAF8001021F08051CAF800101D
:10159000A869C0B3DBF80010C1F3810102294AD069
:1015A0000228484607D0C8F86000FFF7FDFC00E0BD
:1015B00039E005463AE04746C8F86000FFF7F4FC1A
:1015C000064604E0FFF7F0FC801B02282BD82068B9
:1015D0008001F7D4D5E907010843A96A1C4A4908E4
:1015E00002EB01416A6A41EA8211084395F82C1026
:1015F00040EA01611148001F016001203866FFF7D1
:10160000D3FC054605E014E0FFF7CEFC401B0228A2
:1016100009D820688001F7D50BE000BFFFF7C4FCB4
:10162000401B022802D90320BDE8F88F2068800102
:10163000F4D40020F8E70120F6E700000838024063
:101640000038024000004742800E474200700040D0
:101650000000FFFF7047704710B590F83C20012A4A
:1016600022D0012280F83C20CA688C6822F44072A3
:1016700022434C6822F4806222430C6822F4006208
:1016800022430C6922F4805222434C6922F4005216
:101690002243C969002322F480420A4301684A6454
:1016A00080F83C30002010BD022010BD70B590F8CD
:1016B0003C20012A19D0012400F83C4F022242703C
:1016C00050F83C3C5A689D6822F070060A684968E8
:1016D000324325F0800529435A6050F83C2C916034
:1016E000447000210170084670BD022070BD10B525
:1016F000040003D094F83D0010B107E0012010BDB4
:10170000002084F83C00204600F00CF8022084F809
:101710003D00211D206801F0B3FF012084F83D0049
:10172000002010BD08B50C4A01680C48914207D151
:10173000016841F010010160006800F0100009E04C
:10174000074A914207D1016841F480710160006845
:1017500000F48070009008BD001000404038024046
:1017600000200040022180F83D1001688A6802F0E4
:101770000702062A03D00A6842F001020A6001212A
:1017800080F83D10002070470168CA6842F00102ED
:10179000CA600068816801F00701062903D001686A
:1017A00041F00101016000207047022180F83D10E6
:1017B00001680A6A41F211131A4207D10A6A9B10A2
:1017C0001A4203D10A6822F001020A60012180F85E
:1017D0003D10002070472DE9F0410D46040003D074
:1017E00094F83D0018B108E00120BDE8F081002028
:1017F00084F83C00204600F03BF8022084F83D00CD
:101800002068816844F2070291438160211D2068AD
:1018100001F036FF226890689169166A2B68AF69FB
:10182000034340F20330814341EA0721A868EF698E
:1018300008434FF6FC418843E96840EA072001432A
:1018400028692F6A000140EA0730084369686D691A
:1018500026F0AA0646EA051529439360226890619E
:1018600020680162012084F83D000020BDE70000EF
:1018700070B586B0044614216846FEF799FD3D48D0
:10188000256800223C4902240126854219D13A48A4
:101890001430036843F001030360006800F00100A6
:1018A0000590086840F0100008600868694600F07C
:1018B000100005904FF420600090CDE901422F48C0
:1018C00033E02D4B2E481033B5F1804F18D02D4EFC
:1018D000B54231D11D6845F002051D601B6803F05B
:1018E000020305930B6843F001030B60096801F0E4
:1018F00001010591C0210091CDE90142694635E021
:101900001D6845F001051D601B6803F00103059388
:101910000B6843F001030B60096801F001010591B8
:1019200022210091CDE901426946CDE9032600BF9D
:10193000FFF758FA06B070BD13488542FAD118680F
:1019400040F004001860186800F004000590086872
:1019500040F0080008600868694600F0080005903B
:101960004FF440500090CDE901420848CDE90324EE
:10197000DEE7000000000140303802400010024065
:10198000000002400004004000080040000C02403B
:1019900010B50446006891B1042904D00122002149
:1019A00001F0D2FE206801225FF0040101F0CCFEBC
:1019B0002068016841F001010160002010BD012292
:1019C0000021F3E7704770B50446006801694FF0E5
:1019D0000005C943890715D4C168C943890711D4D3
:1019E000E91E016101202077206880698007204678
:1019F00002D0FFF7E7FF04E000F0F4F8204600F023
:101A0000AFF9257720680169C943490717D4C16830
:101A1000C943490713D46FF0040101610220207704
:101A20002068806910F4407F204602D0FFF7CAFF8B
:101A300004E000F0D7F8204600F092F925772068FE
:101A40000169C943090716D4C168C943090712D4FB
:101A50006FF008010161042020772068C0698007C9
:101A6000204602D0FFF7AEFF04E000F0BBF82046AE
:101A700000F076F9257720680169C943C90617D4B3
:101A8000C168C943C90613D46FF010010161082071
:101A900020772068C06910F4407F204602D0FFF70D
:101AA00091FF04E000F09EF8204600F059F92577F8
:101AB00020680169C943C90708D1C168C943C9077A
:101AC00004D1891E0161204600F06EF92068016989
:101AD000C943090609D4C168C943090605D46FF092
:101AE000800101612046FFF7B5FD20680169C94307
:101AF000490609D4C168C943490605D46FF04001BD
:101B00000161204600F05AF920680169C94389063D
:101B10000BD4C168C943890607D46FF02001016165
:101B20002046BDE87040FFF796BD70BD30B587B068
:101B3000044614216846FEF73BFC234D2368002031
:101B4000224902220324AB4211D10B6843F0040363
:101B50000B60096801F0040105914FF47071009168
:101B6000CDE90120CDE903046946194812E0194D79
:101B7000AB4213D10B6843F010030B60096801F00E
:101B80001001059160210091CDE90120CDE9030408
:101B900069461148FFF726F907B030BD0F4CA34244
:101BA000FAD10B6843F002030B60096801F00201EF
:101BB0000591E1000091CDE90120039009200490F6
:101BC00069460748E6E7000000040140303802405B
:101BD0000008024000400140001002400018004090
:101BE00000040240704770B5044690F83C000D4672
:101BF00001280DD0012684F83C60022084F83D00C5
:101C000042B1042A18D0082A2AD00C2A4DD139E032
:101C1000022070BD206801F0A5FD2068816941F0B7
:101C2000080181612068816921F0040181612068D7
:101C300081692A69114311E0206801F0C3FD206821
:101C4000816941F4006181612068816921F48061CA
:101C50008161206881692A6941EA0221816124E069
:101C6000206801F0E5FD2068C16941F00801C1610B
:101C70002068C16921F00401C1612068C1692A6935
:101C8000114311E0206801F007FE2068C16941F4AA
:101C90000061C1612068C16921F48061C16120686F
:101CA000C1692A6941EA0221C16184F83D600020CE
:101CB00084F83C0070BD10B5040003D094F83D00DA
:101CC00010B107E0012010BD002084F83C00204640
:101CD00000F00CF8022084F83D00211D206801F07E
:101CE000CFFC012084F83D00002010BD08B5184A43
:101CF00001681848914211D1016841F00201016068
:101D00000068002200F00200009011462C20FFF72E
:101D1000D7F9BDE808402C20FFF7C4B90E4A91421C
:101D200007D1016841F480310160006800F480301F
:101D30000BE00A48814209D10648001F016841F0C2
:101D400040010160006800F04000009008BD000004
:101D500000040140443802400040014000180040A7
:101D60007047000010B504460068012201F0ECFC49
:101D70000B492068884202D00A49884203D1416C4D
:101D800041F4004141642068816801F0070106299F
:101D900003D0016841F001010160002010BD000086
:101DA000000001400004014000680349884201D15D
:101DB000FFF700B970470000001C004070477047F3
:101DC00070B5026804461068D168536910F00F0FAF
:101DD00051D003F0010501F4907635435DD0C20780
:101DE00005D0CA0503D5E26B42F00102E263420767
:101DF00005D5DA0703D0E26B42F00202E263820704
:101E000005D5DA0703D0E26B42F00402E263020771
:101E100005D5DA0703D0E26B42F00802E263E26B19
:101E2000002A34D0800604D5880602D5204601F069
:101E300071FD20684069E16BC0F3801001F008017A
:101E40000143204624D001F057FD2068416949062E
:101E50001AD5416921F040014161606BA0B11B4975
:101E60000165606BFEF75EFF002810D0606B016DAE
:101E7000BDE87040084783060FD58B060DD5204678
:101E8000BDE8704001F046BD2046FFF798FF70BDE9
:101E9000FFF795FF0020E06370BD030606D50B0633
:101EA00004D52046BDE8704001F0D6BE4006F3D50B
:101EB0004806F1D5D168204621F04001D1602021AB
:101EC00084F8391000F0CEF870BD0000E938000841
:101ED00070B5040004D094F83900002510B106E074
:101EE000012070BD84F83850204600F023F82420EB
:101EF00084F839002068C16821F40051C16020468F
:101F000001F054FD2068016921F4904101612068CD
:101F1000416921F02A0141612068C16841F4005102
:101F2000C160E563202084F8390084F83A0000207D
:101F300070BD0000F0B587B0044614216846FEF776
:101F400037FA274F22682749022301240325072651
:101F50002548BA421ED1234A1432176847F01007A9
:101F60001760126802F0100205920A6842F001023E
:101F70000A60096801F00101059169028DE87A00A3
:101F80006946FEF72FFF002205212520FFF798F86C
:101F9000252020E0154FBA421FD1124A103217688F
:101FA00047F400371760126802F4003205920A689D
:101FB00042F001020A60096801F0010105910C215B
:101FC0008DE87A006946FEF70DFF002205212620E4
:101FD000FFF776F82620FFF765F807B0F0BD0000A0
:101FE0000010014030380240000002400044004030
:101FF00090F83A30202B22D1F9B1F2B190F8383074
:10200000012B1CD081628285C2850021C1632222FE
:1020100080F83A2080F838100168CA6842F480726B
:10202000CA6001684A6942F001024A610068C168F9
:1020300041F02001C160002070470120704702205C
:1020400070470000054810B5007800F079FDBDE844
:102050001040012201490248FFF7CABFC00000201A
:10206000800300207047FEE77CB514460D46064607
:102070006B4606223B21682000F05AF800280BD15D
:10208000BDF8001049BA3180BDF8021049BA298064
:10209000BDF8041049BA21807CBD7CB514460D46BC
:1020A00006466B4606224321682000F041F80028CE
:1020B0000BD1BDF8001049BA3180BDF8021049BA01
:1020C0002980BDF8041049BA21807CBD08B56B4653
:1020D00002224121682000F02BF8BDF8000040BA30
:1020E00000B2FEF7F8FA9FED0D1B53EC112BFEF733
:1020F00083FA9FED0C1B53EC112BFEF764F9FEF7EE
:102100002DFB00EE100ADFED090A20EE200ABDEEDD
:10211000C00A10EE100A00B208BD00000000000066
:1021200000407540A4703D0AD74342400000C842B9
:102130002DE9F0411D46144688460646002703F067
:10214000A1FA7006000E03F071FA03F0C9FA4046D6
:1021500003F06CFA03F0C4FA03F094FA012000EBE8
:102160004600C0B203F062FA03F0BAFA09E0012CAB
:102170000ED003F035FA287003F004FA641EE4B2BE
:102180006D1C002CF3D103F097FA3846BDE8F081BE
:1021900003F026FA287003F00DFAEFE72DE9F0417D
:1021A0001F46154688460446002603F06BFA600673
:1021B000000E03F03BFA03F0E5F9404603F036FA6F
:1021C00003F08EFA002405E0385D03F02FFA03F0E7
:1021D00087FA641CAC42F7DB03F06EFA3046BDE8C8
:1021E000F08100002DE9F04F87B014216846FEF71A
:1021F000DFF86C480024016841F0100101600168BB
:1022000001F010010591016841F0200101600168B1
:1022100001F020010591016841F080010160016831
:1022200001F080010591016841F001010160016840
:1022300001F001010591016841F0020101600168AE
:1022400001F002010591016841F008010160016897
:1022500001F008010591016841F040010160016849
:1022600001F040010591016841F00401016000683E
:10227000DFF8349100F004004FF4807505900022DF
:1022800029464846FEF78BFEDFF820A148F20407F6
:10229000002239465046FEF782FEDFF814B14FF4B3
:1022A0000068002241465846FEF779FE00223021A0
:1022B0004048FEF774FE0122C0213F48FEF76FFE42
:1022C00000950125CDE90154694648460394FEF77F
:1022D00089FD3A4E6802CDE90006694602944846F7
:1022E000FEF780FD0097CDE90154694650460394FE
:1022F000FEF778FD0820CDE90006694602945046B5
:10230000FEF770FDCDF80080CDE9015469465846CE
:102310000394FEF767FD2803CDE9000669460294A1
:102320005846FEF75FFD30200090CDE90154694624
:1023300020480394FEF756FD1020CDE900066946BB
:1023400002941D48FEF74EFDC02000901120CDE9FB
:102350000104694618480394FEF744FD0022052154
:102360000920FEF7ADFE0920FEF79CFE00220521A4
:102370000A20FEF7A5FE0A20FEF794FE00220521A2
:102380001720FEF79DFE1720FEF78CFE0022052188
:102390002820FEF795FE2820FEF784FE07B0BDE852
:1023A000F08F000030380240001402400018024054
:1023B00000080240000C02400004024000003110FE
:1023C00010B588B01C216846FDF7F2FF124811498C
:1023D000002401600321C0E901144FF47A71C0E9BF
:1023E000031480218161FFF766FC6020CDE90004C1
:1023F00002940022694608480494FFF7F4FB042283
:1024000069460548FFF7EFFB0348FFF78FFB08B06D
:1024100010BD0000001800400003002010B58CB073
:1024200024216846FDF7C4FF00241348099411498C
:102430000A94C0E9001441F28831C0E90241046104
:10244000446184610320CDE900040120CDE9020448
:102450000494CDE905400794694607480894FFF7BE
:10246000BAF9099409A904480A94FFF71FF90CB0B6
:1024700010BD0000000001404001002010B58CB0EC
:1024800024216846FDF794FF0024124809944FF078
:1024900080410A94C0E9001441F28831C0E9024148
:1024A000046184610320CDE900040120CDE9020428
:1024B0000494CDE905400794694606480894FFF75F
:1024C0008AF9099409A903480A94FFF7EFF80CB0B8
:1024D00010BD00008001002010B58CB0242168469A
:1024E000FDF766FF00241248099410490A94C0E9D8
:1024F000001441F28831C0E9024104618461032083
:10250000CDE900040120CDE902040494CDE90540A1
:102510000794694606480894FFF75DF9099409A9EC
:1025200003480A94FFF7C2F80CB010BD0004004045
:10253000C001002010B58CB024216846FDF738FF9B
:1025400000241248099410490A94C0E9001441F289
:102550008831C0E90241046184610320CDE90004AF
:102560000120CDE902040494CDE9054007946946B1
:1025700006480894FFF72FF9099409A903480A941B
:10258000FFF794F80CB010BD0008004000020020D6
:1025900010B592B000240F941C2168461094FDF7EA
:1025A00007FF202107A8FDF703FF2248204901600B
:1025B0000721C0E901144FF47A71C0E903148021A6
:1025C000C0E90541FFF777FB0F940FA91948109454
:1025D000FFF76CF86020CDE90004029403940494A2
:1025E00005940022694613480694FFF7FCFA04227A
:1025F00069461048FFF7F7FA082269460D48FFF7C9
:10260000F2FA0C2269460B48FFF7EDFA079408949A
:1026100009944FF400500A94CDE90B4007A90548EE
:102620000E94FFF719F80348FFF780FA12B010BDB7
:10263000000401408002002010B588B01C216846CB
:10264000FDF7B6FE12481149002401600721C0E9D8
:1026500001144FF47A71C0E9031480218161FFF7FE
:102660002AFB6020CDE90004029400226946084854
:102670000494FFF7B8FA042269460548FFF7B3FA55
:102680000348FFF753FA08B010BD000000400140B6
:10269000C0020020FEE7000010B53C2003F042FF1E
:1026A00000218181C1810182418281829FED0D0AD9
:1026B000C18280ED000A80ED010A80ED020A0183EB
:1026C00080ED070A80ED080A80ED090A80ED0A0A0C
:1026D00080ED0B0A80ED0C0A80F83410C18601876A
:1026E00010BD0000000000002DE9F05F82460BA83D
:1026F0001F4690E86008904689463C2003F012FF90
:10270000C0F800A0A0F80490C0F808808781056197
:102710008682C0F818B00E9A8283002280F82420A6
:1027200002628262C26204460A9A314628462263E5
:10273000FFF718FBA18BA069FFF714FB3C21206B6E
:10274000FFF726F92046BDE8F09F826280F824104A
:102750000023B1B1012932D0022911D1818AF1B30C
:10276000042959D008290169096859D00A64818B64
:10277000D9B104291DD08069082900681DD00364DF
:102780007047818A39B1042909D00829016909688B
:1027900009D00B64EBE7016909684B63E7E701695E
:1027A00009688B63E3E7CB63E1E780690068436313
:1027B00070478069006883637047C3637047818A8C
:1027C00091B1042914D008290169096814D00B6457
:1027D000818B99B1042915D00829806900E017E0A0
:1027E000006813D002647047016909684B63EFE722
:1027F000016909688B63EBE7CB63E9E780690068EF
:10280000426370478069006882637047C2637047A3
:10281000016909684A63AAE7016909688A63A6E74A
:10282000CA63A4E78162C36A0022002B02DD4FF075
:10283000010302E004DA4FF0020380F8243001E0E3
:1028400080F8242090F82430B3B1012B32D0022B31
:1028500011D1838AF3B3042B59D0082B03691B6869
:1028600059D01964818BD9B104291DD080690829F8
:1028700000681DD002647047818A39B1042909D0EB
:1028800008290169096809D00A64EBE70169096848
:102890004A63E7E7016909688A63E3E7CA63E1E736
:1028A000806900684263704780690068826370478E
:1028B000C2637047838A93B1042B14D0082B036939
:1028C0001B6814D01A64828B9AB1042A15D0082A86
:1028D000806900E017E0006813D001647047036965
:1028E0001B685A63EFE703691B689A63EBE7DA63D7
:1028F000E9E7806900684163704780690068816327
:102900007047C163704703691B685963AAE703698D
:102910001B689963A6E7D963A4E7000010B50446D5
:10292000006B0068416A6163A06BA163081A2062B2
:10293000B0F5FA6F03DDA0F59850883805E010F582
:10294000FA6F03DC41F288310844206200EE100A7D
:10295000B8EEC00AB0EEC00A10EE100AFDF7EBFEAA
:102960009FED0D1B53EC112BFDF7D4FD9FED0C1BC0
:1029700053EC112BFDF740FE9FED0B1B53EC112B7D
:10298000FDF7C8FD9FED0A1B53EC112BFDF7C2FDAF
:10299000FDF7B2FE206210BD0000000000005940AB
:1029A0000000000000107840000000000000D03F50
:1029B0000000000000004E40704780ED010AC0EDAD
:1029C000020A70EE600AD0ED071AC0ED081A90ED09
:1029D000061AF5EEC00A80ED071AF1EE10FAC0ED06
:1029E000060A02DDB0EE600A0FE090ED0D2AB1EEAE
:1029F000600AB4EEC20AF1EE10FA01DD012100E036
:102A0000002100EE101AB8EE400AB5EEC00AF1EE51
:102A100010FA02D190ED0C0A7047017811B101292A
:102A200027D040E090ED030A20EE200A80ED090A4D
:102A300090ED0A0AD0ED041A01EEA00A80ED0A0A10
:102A4000D0ED0E1AB4EEE10AF1EE10FA01D3B0EEB9
:102A5000610A80ED0A0AD0ED0F1AB4EEE10AF1EE38
:102A600010FA01DCB0EE610A80ED0A0A30EEC10A0C
:102A700013E030EEC10A90ED032A20EE020A80ED49
:102A8000090A90ED040A20EE200A80ED0A0AB0EE51
:102A9000000A41EE400A30EEA10AD0ED050A20EE10
:102AA000200A80ED0B0A90ED090AD0ED0A0A30EEFB
:102AB000200AD0ED0B0A30EE200A80ED0C0AD0ED92
:102AC0000E0AB4EEE00AF1EE10FA01D3B0EE600A9D
:102AD00080ED0C0AD0ED0F0AB4EEE00AF1EE10FA28
:102AE00001DCB0EE600A80ED0C0A704710B50446B8
:102AF0002DED068BB0EE628AF0EE428AB0EE619A5E
:102B0000F0EE419AB0EE60AAF0EE40AA402003F049
:102B100009FD0470C0ED03AA80ED04AA9FED070A29
:102B2000C0ED059A80ED0A0A80ED0D9AC0ED0E8A7F
:102B300080ED0F8ABDEC068B10BD00000000000088
:102B400070B51B4C002521461A4E097863684A1C53
:102B5000D2B233B1012B08D0022B10D0032B15D0E9
:102B600005E01D2803D1012305E0D12802D06560CE
:102B700025700EE0022363607054227070BD7054A3
:102B80002270072AFAD30320606070BDED2806D0BA
:102B90006560BDE8704080210648FDF709BC7054AF
:102BA0002270044800F008F86560257070BD0000D0
:102BB0002C0100202489002010B5134C8178236853
:102BC000FF2906D03F2906D00F2906D0032905D0BA
:102BD00005E0002102E0012100E00221197030F837
:102BE000031F49BA09B25980408840BA02B29A809C
:102BF00006A001F071F82068B0F90210BDE810409D
:102C000007A001F069B80000EC0000206478203DC6
:102C10002025642C6479203D2025640A00000000F2
:102C200025640A002DE9F04706461F4690460D46EA
:102C30001820DDF8209003F075FCC0F8048047816F
:102C40000660058100220273C28102820446C0F838
:102C5000149029463046FEF7A2F92046BDE8F087D9
:102C6000017B022903D039B19FED160A704700217C
:102C700001739FED150A7047018AC0899FED130A01
:102C8000DFED130AB6EE001A814206D9A1EB00006F
:102C900001EE900AF8EEE11A09E00FD24FF6FF724A
:102CA000A2EB0000084401EE900AF8EE611A21EE52
:102CB000800A20EE011A81EE200A70479FED050A76
:102CC000704700000080C9430080C8430000AA4349
:102CD00000401C460000CA4310B504460189006844
:102CE0000022FEF75CF90A2002F034FC218901225F
:102CF0002068FEF754F9322002F02CFC21890022D2
:102D00002068FEF74CF90220207310BD2DED088BD2
:102D10009FED888A9FED88AAF6EE008ADFED87AAEC
:102D2000874E9FED889A884D884C894FF2EE049A21
:102D3000286890F8341011B101297ED0F6E090EDAA
:102D4000020A844AB0EEC00A10EE101A914202DA6A
:102D500084ED038A03E0DFED800AC4ED030A10EE80
:102D6000102A7E498A4214DA90ED090A7AEE400A66
:102D700090ED0A0A30EE800A20EE280A80ED070A5C
:102D800090ED0C0AD0ED0B0A3AEEC00A30EE200AA4
:102D900018E010EE101A724A914217DD90ED090A00
:102DA000D0ED0A0A30EE0A0A30EE600A20EE280A58
:102DB00080ED070A90ED0C0AD0ED0B0A30EE2A0ADE
:102DC00030EE600A20EE280A80ED080A90ED070A2E
:102DD00070EE490AF0EEE00A10EE900AB0420CDD07
:102DE00039EE400A03F020FC00EE100AB8EEC00AEB
:102DF00020EE290A84ED000A01E084ED008A2868AB
:102E000090ED080ADFED570A70EE600AF0EEE00A76
:102E100010EE900AB0420DDD39EE400A03F004FCDA
:102E200000EE100AB8EEC00A20EE290A84ED010A6D
:102E30007CE002E084ED018A78E090ED020A3868D7
:102E4000D0ED030A30EE200AFDF746FFB0EEC00ACF
:102E500010EE100A44490844B0F5530F08D9B3EEF8
:102E6000040A84ED000A84ED018A84ED038A5DE0A2
:102E700038683E4AC068E0602968496A914208DDC6
:102E8000FDF759FC41EC100B01F072FB9FED38BBD4
:102E900032E0394A914227DDFDF74DFC41EC100B41
:102EA00001F066FB2868B0EE40BAF0EE60BA406A06
:102EB000FDF741FC53EC1B2BFDF72CFBFDF74EFC03
:102EC00020603868C068FDF736FC41EC100B01F05B
:102ED000B3FB2868B0EE40BAF0EE60BA406AFDF786
:102EE0002AFC53EC1B2B1CE0FDF725FC41EC100BDE
:102EF00001F03EFB9FED21BB51EC100B53EC1B2B63
:102F0000FDF708FBFDF72AFC20603868C068FDF774
:102F100012FC41EC100B01F08FFB53EC1B2B51EC1E
:102F2000100BFDF7F7FAFDF719FC6060142002F0B2
:102F3000AFFEFDE60000000000009643000048439D
:102F40000000A04000001643C40000200000002044
:102F5000D80000200000B442000034C3000020412B
:102F600000002A430000C8420000CCBD0000F04130
:102F70000000000000003E40000070410000000022
:102F800000002440012002F083FEFBE78CB09FED9F
:102F90002C0A00208DED040A8DED020A8DED050A44
:102FA000ADF81800ADF81C00ADF82000ADF8040035
:102FB000ADF82400ADF8280003F0DAFB05AA02A959
:102FC00004A802F0BBFCA8BBFFF780F8044608AADF
:102FD00007A906A8FFF748F80AAA09A901A8FFF758
:102FE0005CF81848BDF8182001688A81BDF81C00FB
:102FF0004042C881BDF8200040420882BDF804006C
:103000004882BDF8240040428882BDF82800404232
:10301000C8829DED020A81ED010A9DED040AB1EE20
:10302000400A81ED000A9DED050AB1EE400A81EDEE
:10303000020A0C8303F0BCFB052002F029FEBBE76B
:1030400000000000C4000020012600270C4D0D4C9C
:1030500003F08EFB28680178032921680CD081F8E1
:10306000347021684288CA868088088703F0A0FBF4
:10307000142002F00DFEEBE781F83460F1E7000068
:10308000EC000020C4000020DFED092A9FED092A92
:10309000F0EE001A9FED081ADFED080A9FED080A0E
:1030A0000020FFF723FD0A2002F0F2FDFBE70000FD
:1030B000000034C2000034420AD7A33C6F12033C24
:1030C000CDCC4C3E94B0142253496846FDF757F9D5
:1030D00051491422143105A8FDF751F94E49142223
:1030E00028310AA8FDF74BF94B4914223C310FA8AF
:1030F000FDF745F9494D4A4E4A4FDFF82C8100242F
:10310000E9460DF1140A0DF1280B2868FFF7E4FDDC
:103110003068FFF7E1FD3868FFF7DEFDD8F8000002
:10312000FFF7DAFD322002F0B3FD2868FFF798FDC3
:1031300009EB840080ED000A3068FFF791FD0AEB8F
:10314000840080ED000A3868FFF78AFD0BEB8400ED
:1031500080ED000AD8F80000FFF782FD0FA800EB11
:103160008400641C80ED000A052CCED12F4B042274
:1031700005216846FDF7B5F82C4B0422052105A86A
:10318000FDF7AFF8294B042205210AA8FDF7A9F89D
:10319000264B042205210FA8FDF7A3F89DED010A97
:1031A000DDED020A2248002430EE200ADDED030A9C
:1031B000006870EE200AB0EE080A80EE801A80EDFA
:1031C000091ADDED060A9DED071A70EE810A9DEDE4
:1031D000081A70EE810A80EE801A80ED0A1ADDED81
:1031E0000B0A9DED0C1A70EE810A9DED0D1A70EE22
:1031F000810A80EE801A80ED0B1ADDED100A9DED3C
:10320000111A70EE810A9DED121A70EE810A80EE9D
:10321000801A80ED0C1A78E7CC750008DC000020DD
:10322000E0000020E4000020E8000020BF0C0008BF
:10323000C40000202DED068B86B09FEDA08AF0EE35
:10324000482ADFED9F8AF7EE001AB0EE682A9FED5C
:103250009D9AB0EE491ADFED9C9AB1EE080A002063
:10326000F0EE690AFFF742FC0490F0EE482AB0EE57
:10327000682AF7EE001AB0EE491AF0EE690AB1EECC
:10328000080A0020FFF732FC0390F0EE482AB0EE67
:10329000682AF7EE001AB0EE491AF0EE690AB1EEAC
:1032A000080A0020FFF722FC0290F0EE482AB0EE58
:1032B000682AF7EE001AB0EE491AF0EE690AB1EE8C
:1032C000080A0020FFF712FCFBEE082AB3EE082ADA
:1032D000F0EE001AB6EE001AF0EE480A9FED7B0AF7
:1032E00001900020FFF702FC9FED79AA9FED799AEB
:1032F0009FED798ADFF8E481794CDFF8E89100905E
:1033000003F036FA784D794995ED030AF0EEC00ADC
:1033100010EE900A88427648006812DD90ED020AAD
:10332000DFED749A30EE290AFDF7D6FCF0EE408A04
:1033300095ED030A30EE290AFDF7CEFCF0EE680A9F
:1033400001E0D0ED020A0098FFF737FB85ED020A95
:1033500003F02EFAD5ED002A95ED011AD5ED051AE8
:10336000C2EE8A0AD8F8000047464E4681EE090AA6
:1033700095ED021A30EEC02AD5ED040A5E4D01EE3D
:10338000602A82EE213A23EE082ABDEEC22A80EDA1
:103390000B2A82EE892A206870EE422A41EE602ACA
:1033A00082EEA13A63EE082AFDEEE22AC0ED0B2A76
:1033B00072EE402A32EE000A286841EE602A01EEE1
:1033C000600A82EEA13AC0EE210A63EE082AFDEE01
:1033D000E22AC0ED0B2AD9F8000020EE880ABDEEE3
:1033E000C00A80ED0B0A03F0C3F9386890ED080AB3
:1033F000C06AF8EEC00A002800DC404200EE100A65
:103400000498B8EEC00AFFF7D8FABDEEC00A2068EB
:1034100010EE10BA90ED080AC06AF8EEC00A002853
:1034200000DC404200EE100A0398B8EEC00AFFF735
:10343000C4FABDEEC00A286810EE10AA90ED080A82
:10344000C06AF8EEC00A002800DC404200EE100A14
:103450000298B8EEC00AFFF7B0FABDEEC00A3068B5
:10346000B14610EE107A90ED080AC06AF8EEC00A74
:10347000002800DC404200EE100A0198B8EEC00AB5
:10348000FFF79BFABDEEC00A10EE106A03F090F948
:103490005946D8F80000FFF7C5F951462068FFF7F4
:1034A000C1F939462868FFF7BDF93146D9F800005F
:1034B000FFF7B8F90A2002F0EBFB21E7000000005B
:1034C00000007A44CDCC4C3E9A99993F0AD7A33D4F
:1034D000F4FDB4BFF4FDB43FD4C91841C8000020C6
:1034E000CC000020D4000020000000200000164383
:1034F000C400002000003443D0000020094C0A4DD5
:103500000A4E0B4F2068FFF709FA2868FFF706FA02
:103510003068FFF703FA3868FFF700FA0A2002F074
:10352000B7FBEFE7C8000020CC000020D00000204F
:10353000D40000202DE9F04107461C4615460E46F2
:10354000102002F0C3F90760068145609FED030A71
:10355000448180ED030ABDE8F08100000000000016
:1035600010B5502080F31188BFF34F8FBFF36F8FDA
:1035700003F0FAFD18B104494FF0805008600020B4
:1035800080F3118810BD000004ED00E030B593B069
:1035900030216846FCF70CFF14210CA8FCF708FF4B
:1035A00019480025016841F080510160006800F071
:1035B000805011901548016841F480410160006815
:1035C000022400F480401190012003901020049008
:1035D000009406940820CDE90750A820CDE90904FD
:1035E00004200B906846FDF7A7FE0CA90F2081E888
:1035F00031004FF4A0500F90E002109005210CA86C
:10360000FDF790FD13B030BD40380240007000401F
:103610001048016841F4700101600F48016841F0F1
:10362000010101600C4A00210832116002680B4B55
:103630001A400260031D0A4A1A60026822F48022BE
:10364000026005480C300160024958068039086064
:103650007047000088ED00E000380240FFFFF6FEF2
:103660001030002410B50448FEF7ADF9BDE8104055
:103670000248FEF7A8B900008002002000040020E4
:10368000F0B50268254C264D264E274F274B4FF0AC
:10369000804CA04209D0604507D0A84205D0B04276
:1036A00003D0B84201D0984204D122F0700E4A688B
:1036B00042EA0E02A0421BD0604519D0A84217D0A2
:1036C000B04215D0B84213D0984211D0184DA8423C
:1036D0000ED0184DA8420BD0174DA84208D0174D58
:1036E000A84205D0164DA84202D0164DA84203D1DB
:1036F00022F44075CA682A434D6922F080022A43A9
:1037000002608A68C2620A688262A04201D098425E
:1037100001D10969016301214161F0BD000001404F
:103720000004004000080040000C0040000401407C
:1037300000400140004401400048014000180040A2
:10374000001C00400020004010B501F01F030121C3
:10375000046A99408C430462016A9A4011430162F1
:1037600010BD0000F0B5026A22F001020262036A95
:1037700042688469124E24F073050C682C4323F0D0
:1037800002058B682B430D4DA84201D0B04205D1F4
:1037900023F00807CB683B4323F00403A84201D081
:1037A000B04205D14D6922F4407215438A692A431B
:1037B00042608461496841630362F0BD00000140DA
:1037C00000040140F0B5026A22F010020262026AAF
:1037D000436884690D6824F4E64444EA05248D684E
:1037E00022F0200242EA05120F4D104EA84201D0ED
:1037F000B04206D1CF6822F0800242EA071222F0DE
:103800004002A84201D0B04207D14D6923F4406381
:1038100043EA85038D6943EA85034360846149680F
:1038200081630262F0BD000000000140000401401D
:10383000F0B5026A22F480720262026A4368C469C7
:1038400022F4007224F073050C68124E2C438D682C
:1038500042EA05220E4DA84201D0B04206D1CF68FF
:1038600022F4006242EA072222F48062A84201D0D8
:10387000B04207D14D6923F4405343EA05138D69E3
:1038800043EA05134360C4614968C1630262F0BD45
:10389000000001400004014030B5026A22F4805269
:1038A0000262046A4268C3690D6823F4E64343EA8E
:1038B00005238D6824F4005444EA0534084DA842D9
:1038C00002D0084DA84204D14D6922F4804242EA58
:1038D00085124260C36149680164046230BD000022
:1038E000000001400004014010B5806B0021C1853B
:1038F000C184FEF764FA10BD0168CA6822F49072B0
:10390000CA6001684A6922F001024A61202180F8F8
:103910003A10704710B590F83A10222901D00220D1
:1039200010BD8168B1F5805F11D00169002901687F
:103930001FD0496801F07F03816A4A1C82620B70C4
:10394000C18D491E0904090CC18518D02BE00269FC
:10395000816A002A0268526805D0D2B20A80816A60
:10396000491C8162ECE7C2F308020A80816A891C63
:10397000F7E74A68816A4B1C83620A70E0E70168D6
:10398000CA6822F02002CA600168CA6822F4807204
:10399000CA6001684A6922F001024A61202180F868
:1039A0003A10FEF74FFB002010BD00002DE9F0415A
:1039B000044600680169E26821F440511143016145
:1039C0002169A068E26908436169114322680843DC
:1039D000D16849F20C6399430143D1602068416981
:1039E000A26921F4407111434161E2696425B2F595
:1039F000004F9748974922684FF032083FD08A42DB
:103A000001D082427CD1FDF755FC00EBC00101EBF7
:103A1000001061688900B0FBF1F6FDF74BFC00EB8C
:103A2000C00101EB001061688900B0FBF1F0B0FB50
:103A3000F5F06FF01801484306EB800108EB011028
:103A4000B0FBF5F000F0F006FDF734FC00EBC00130
:103A500001EB001061688900B0FBF1F0B0FBF5F0FC
:103A600006EB0016FDF726FC00EBC00101EB001091
:103A700061688900B0FBF1F7FDF71CFCD2E08A42D7
:103A800001D082423DD1FDF715FC00EBC00101EBF6
:103A9000001061684900B0FBF1F0B0FBF5F00601E1
:103AA000FDF708FC00EBC00101EB00106168490064
:103AB000B0FBF1F7FDF7FEFB00EBC00101EB0010DE
:103AC00061684900B0FBF1F0B0FBF5F06FF0180150
:103AD000484307EB800108EBC100B0FBF5F000F0B4
:103AE000F80006EB4006FDF7E5FB00EBC00101EB3B
:103AF000001061684900B0FBF1F7FDF7DBFB3CE02B
:103B000055E0FDF7C7FB00EBC00101EB0010616859
:103B10004900B0FBF1F0B0FBF5F00601FDF7BAFB90
:103B200000EBC00101EB001061684900B0FBF1F748
:103B3000FDF7B0FB00EBC00101EB0010616849002C
:103B4000B0FBF1F0B0FBF5F06FF01801484307EB64
:103B5000800108EBC100B0FBF5F000F0F80006EBC7
:103B60004006FDF797FB00EBC00101EB0010616818
:103B70004900B0FBF1F7FDF78DFB00EBC00101EB55
:103B8000001061684900B0FBF1F0B0FBF5F06FF098
:103B90001801484307EB800108EBC100B0FBF5F0CA
:103BA00000F00700216830448860BDE8F081FDF72F
:103BB00071FB00EBC00101EB001061688900B0FBF4
:103BC000F1F6FDF767FB00EBC00101EB0010616847
:103BD0008900B0FBF1F0B0FBF5F06FF0180148433D
:103BE00006EB800108EB0110B0FBF5F000F0F006E9
:103BF000FDF750FB00EBC00101EB0010616889008C
:103C0000B0FBF1F0B0FBF5F006EB0016FDF742FB60
:103C100000EBC00101EB001061688900B0FBF1F717
:103C2000FDF738FB00EBC00101EB00106168890073
:103C3000B0FBF1F0B0FBF5F06FF01801484307EB73
:103C4000800108EB0110B0FBF5F000F00F00A9E7D0
:103C5000001401400010014090F83910212901D0D2
:103C6000022070478168B1F5805F016A0BD04A1C61
:103C70000262026809785160C18C491E0904090C6E
:103C8000C1840ED017E009880268C1F308015160B1
:103C900001690029016A02D0491C0162ECE7891C14
:103CA000FBE70168CA6822F08002CA600068C16848
:103CB00041F04001C1600020704700000148FEF75C
:103CC0007FB80000800300200148FEF779B80000AB
:103CD000C0030020FEE700000FB4054B10B503A998
:103CE000044A029801F03EF910BC5DF814FB000094
:103CF00039550008F000002003B4019841000098F5
:103D000050EAC12018BF04204A0D18BF40F001003E
:103D100040F2FF72B2EB515F08BF40F00200012891
:103D200008BF052002B070470907090E002804DB10
:103D300000F1E02080F80014704700F00F0000F15F
:103D4000E02080F8141D704770B5C1482DED020BBE
:103D50002DED0E8B82B0119D25F000449FEDBEDB52
:103D60009FEDBFEB84423EDBA4F140511098A1F1DE
:103D70007F6108430FD0BC48844202DC28D11098F0
:103D800030B39DED100B02B0BDEC0E8B02B0BDE860
:103D9000704001F09DB89DED100B53EC1D2B51ECC4
:103DA000100BFCF7B7FB9DED100B41EC180B53EC1F
:103DB0001E2B51EC100BFCF7ADFB53EC182BFCF752
:103DC00002FB41EC100B02B0BDEC0E8B02B070BDDB
:103DD000012001F0C1F802B0BDEC0E8B02B0BDE8CD
:103DE000704001F089B8A1489FEDA18B844256DA5A
:103DF0009DED100BB4F1795F0ADA51EC100BFFF76F
:103E00007BFF042808BF01F087F89DED100BDAE76F
:103E100053EC102B51EC100BFCF77CFB41EC190B15
:103E200095480621B0EE490AF0EE690A784400F0A0
:103E30003BFF53EC192B51EC100BFCF76BFB41ECE7
:103E40001A0B8E48B0EE490AF0EE690A0421784454
:103E500000F02AFF53EC192B51EC100BFCF75AFB26
:103E600053EC182BFCF7AFFA41EC100B51EC1A0B8A
:103E700053EC102BFCF7C0FBCDE900019DED000BCE
:103E800053EC102B9DED100B51EC100BFCF742FB8B
:103E90009DED101B53EC112BFCF795FAD2E09DED34
:103EA000100B51EC100B01F03BFB53EC182BFCF703
:103EB0002EFB9FED730BCDE9000153EC102B9DED14
:103EC000000B51EC100BFCF725FB41EC190B6E4875
:103ED0000621B0EE490AF0EE690A784400F0E4FEEB
:103EE00053EC192B51EC100BFCF714FB41EC1B0BA2
:103EF0006648B0EE490AF0EE690A0421784400F001
:103F0000D3FE53EC192B51EC100BFCF703FB53ECD5
:103F1000182BFCF758FA41EC1C0B51EC190B02F072
:103F200094FB41EC180B5A489FED5BABA04222DC9E
:103F300053EC1C2B51EC1B0BFCF75EFBCDE9000195
:103F40009DED000B51EC180B53EC102BFCF7E2FA33
:103F500053EC182BFCF737FA53EC1A2BFCF7DAFA70
:103F600053EC1D2BFCF7D0FA53EC1E2BFCF7CFFAC9
:103F700041EC100B5FE08DED008B002000909DED7B
:103F8000000B51EC180B53EC102BFCF71CFA9DEDB9
:103F9000000B41EC1E0B53EC102B51EC100BFCF7FB
:103FA000B9FA53EC192BFCF7B2FA53EC1E2BFCF7C1
:103FB00023FB41EC190B53EC1C2B51EC1B0BFCF7B6
:103FC0001BFB41EC1B0B53EC1A2B51EC190BFCF7B0
:103FD000A1FA53EC1D2BFCF79AFA41EC190B53ECA8
:103FE0001A2B51EC180BFCF795FA53EC1B2BFCF732
:103FF00091FA53EC192BFCF787FA9DED000B41EC7D
:10400000180B53EC1A2B51EC100BFCF783FA9FEDB5
:10401000249B53EC192BFCF77AFA41EC100B51EC72
:10402000180B53EC102BFCF76FFA53EC192BFCF721
:104030006EFA41EC100B002D3FF7C5AE51EC100BA2
:1040400081F0004141EC100BBDE6000000000000D3
:104050000000F03F00000000075C143326A6913CEE
:10406000182D4454FB21F93F0000F07F0000E03F91
:10407000000000000000F03F5838000066380000E3
:10408000000000000000E03FAA370000B837000041
:104090003333EF3F0000000000000000000000404C
:1040A000182D4454FB21E93F70B59B482DED020BC0
:1040B0002DED068B079D25F00044A04218DC9748A3
:1040C000844202DC0AD1069840B19DED060BBDEC9E
:1040D000068B02B0BDE8704000F0FABE002DCCBFE8
:1040E0009FED8F0B9FED900BBDEC068B02B070BD6A
:1040F0008F48A04215DD8F48A042D8BF4FF0FF3453
:1041000058DD9DED060B51EC100BFFF7F5FD042873
:1041100008BF00F001FF9DED060BBDEC068B02B061
:1041200070BD9DED060B51EC100B01F0F9F9CDE9D6
:10413000060181489FED828BA0423CDD8248A0426F
:104140001FDD00249FED82AB9DED060B53EC1A2B77
:1041500051EC100BFCF737F99DED060B41EC190BF8
:1041600053EC1A2B51EC100BFCF7D4F953EC182B31
:10417000FCF7CAF953EC192BFCF73EFACDE906011E
:1041800049E09DED060B012453EC182B51EC100B6C
:10419000FCF719F99DED060B41EC190B53EC182BAC
:1041A00051EC100BFCF7B0F953EC192BFCF724FA87
:1041B000CDE906012FE06848A0421FDD02249FEDF3
:1041C000689B9DED060B53EC192B51EC100BFCF783
:1041D000A1F953EC182BFCF7F6F89DED060B41EC1A
:1041E000180B53EC192B51EC100BFCF78DF953EC19
:1041F000182BFCF701FACDE906010CE09DED060B4A
:10420000032453EC102B9FED580B51EC100BFCF7D3
:10421000F3F9CDE906019DED060B53EC102B51ECA3
:10422000100BFCF777F941EC180B53EC182BFCF74B
:1042300071F941EC190B4E480621B0EE490AF0EE37
:10424000690A784400F030FD53EC182B51EC100B48
:10425000FCF760F941EC180B4648B0EE490AF0EE65
:10426000690A0521784400F01FFD53EC192B51EC2D
:10427000100BFCF74FF941EC100B51EC180B53EC01
:10428000102B002C0EDAFCF79EF89DED061B53EC6C
:10429000112BFCF73FF99DED061B53EC112BFCF79E
:1042A00036F935E0FCF78FF89DED061B53EC112B2A
:1042B000FCF730F941EC100B2F48784400EBC400B8
:1042C00090ED001B51EC100B53EC112BFCF71CF97B
:1042D0009DED061B53EC112BFCF716F941EC100B6E
:1042E0002648784400EBC40090ED001B51EC100B05
:1042F00053EC112BFCF70BF941EC100B002DA2BF76
:10430000BDEC068B02B070BD51EC100B81F000418A
:1043100041EC100B01E70000000010440000F07FAA
:10432000182D4454FB21F93F182D4454FB21F9BFAB
:104330000000DC3F0000203E0000F33F00000000D2
:10434000000000000000F03F0000E63F0000000019
:10435000000000000000004000800340000000005A
:10436000000000000000F83F000000000000F0BF67
:10437000FA340000B03400003A340000F233000098
:1043800070B56B4E2DED040B2DED028B82B0DDF878
:104390001CC0DDE905235C422CF000411C4341EACE
:1043A000D474049D22F00040B44205D86C422C43E2
:1043B00040EAD474B4420BD99DED061B9DED040B6D
:1043C00002B0BDEC028B04B0BDE8704000F08ABDC5
:1043D000ACF14054A4F17F641C430BD0022404EAE6
:1043E000AC7444EAD27405439FED538B9FED542B7C
:1043F00007D015E09DED040B51EC100B00F0E3FF2E
:1044000042E0002C11BF012C9DED040B02B0BDEC6D
:10441000028B04BF04B070BD022C38D0032C3BD0FB
:104420000B439FED491B9FED4A0B0AD0B14218D1B7
:10443000B04209D121F0804120F0804007910590E1
:104440000FE0002A15DA10E0434B7B44002C08BF34
:1044500093ED000B0DD0012C10D0022C17D0032CA3
:104460001AD0B0421DD1002A03DAB0EE410AF0EEB4
:10447000610A02B0BDEC028B04B070BD93ED000B7D
:1044800051EC100B81F0004141EC100BF1E7B0EE64
:10449000480AF0EE680AECE7B0EE420AF0EE620A73
:1044A000E7E7401A00153C28C8BF8DED000B19DC6A
:1044B000BCF1000FBEBF10F13C0F9FED290B8DED3D
:1044C000000B0FDB9DED060B53EC102B9DED040B49
:1044D00051EC100BFCF790F801F022F800F073FF9C
:1044E000CDE90001002C08BF9DED000BC1D0012CCF
:1044F00010D0022C9FED1C0B53EC102B9DED000BEC
:1045000051EC100B0DD0FBF7FFFF53EC182BFBF712
:10451000FBFFB9E7019880F0004001909DED000B92
:10452000A7E7FBF7F1FF53EC182BFBF7F0FFABE726
:104530000000F07F00000000182D4454FB210940CA
:10454000182D4454FB2109C0182D4454FB21F9BFF8
:10455000182D4454FB21F93F5233000000000000A5
:104560000000000000000000075C143326A6A13CF8
:1045700010B52F499FED2C1B2DED020B84B0059833
:1045800020F000408842D8BF9DED040B2DDD294965
:10459000884209D1049840B94FF0010000F0DCFCDA
:1045A00000F0AAFC06B010BD05DB9DED040B00F089
:1045B0008FFC06B010BD68469DED040B00F0A0F81E
:1045C00010F0030004BF9DED021B9DED000B0CD00D
:1045D00001280ED09DED021B9DED000B022817D087
:1045E000012000F0DDFB06B010BD00F0A5FA06B01A
:1045F00010BD9DED021B9DED000B012000F0D0FBD6
:1046000051EC100B81F0004106B041EC100B10BDD5
:1046100000F092FA51EC100B81F0004106B041EC31
:10462000100B10BD000000000000000000000000A2
:10463000FB21E93F0000F07F10B52F499FED2C1BB7
:104640002DED020B84B0059820F000408842DCBFBD
:1046500000209DED040B32DD2849884209D10498E1
:1046600040B94FF0010000F077FC00F045FC06B0C7
:1046700010BD05DB9DED040B00F02AFC06B010BD5B
:1046800068469DED040B00F03BF810F0030011D0DC
:10469000012818D09DED021B9DED000B02281AD0B9
:1046A00000F04AFA51EC100B81F0004106B041ECE9
:1046B000100B10BD9DED021B9DED000B012000F0C5
:1046C0006FFB06B010BD9DED021B9DED000B00F0D1
:1046D00033FA06B010BD012000F062FB51EC100B64
:1046E00081F0004106B041EC100B10BD000000004D
:1046F0000000000000000000FB21E93F0000F07F07
:104700002DE9F14F04462DED020B2DED088B8AB0FB
:104710009FEDE70B80ED020B139EE74826F0004566
:1047200085420ADC9DED120B002084ED000B0AB0DF
:10473000BDEC088B03B0BDE8F08FE0489FEDE0AB27
:104740009FEDE1BBA84247DDE14F9FEDE39B9FED6D
:10475000E48B9DED120B53EC1A2B51EC100B002E39
:104760001CDDFBF7D1FE41EC100BBD4208D053EC31
:104770001B2B51EC100BFBF7C7FEC4E900010BE04B
:1047800053EC192B51EC100BFBF7BEFE53EC182B1E
:10479000FBF7BAFEC4E900010120C8E7FBF713FEEE
:1047A00041EC100BBD4208D053EC1B2B51EC100B0D
:1047B000FBF709FEC4E900010BE053EC192B51ECA7
:1047C000100BFBF700FE53EC182BFBF7FCFDC4E9C4
:1047D00000014FF0FF30AAE7C348A84279DB9DED06
:1047E000120B51EC100B00F09BFE41EC180B9FEDEF
:1047F000C00B53EC102BFBF78DFE9FEDBF1B53EC52
:10480000112BFBF7E0FDFBF777FF0746FBF763FF94
:1048100041EC190B53EC1A2BFBF77CFE53EC182BD5
:10482000FBF775FE41EC180B53EC1B2B51EC190BED
:10483000FBF770FEDFF8C8A241EC100B4FEA1558E9
:104840000125FA4453EC102B51EC180BFBF75CFEDE
:10485000032DC4E900013DD0C1F30A5005EB451119
:10486000A8EB00001139814234DA0AEB051BB0EEE7
:1048700048AA9BED000BF0EE68AA53EC102B51EC0C
:10488000190BFBF747FE41EC1B0B51EC1A0B53ECD9
:104890001B2BFBF739FE41EC180B51EC1A0B53ECB8
:1048A000182BFBF731FE53EC1B2BFBF72DFE9BED7A
:1048B000020B41EC1A0B53EC102B51EC190BFBF7CC
:1048C00029FE53EC1A2BFBF71FFE41EC100B6D1C5D
:1048D000B8E70EE0002EA8BF3846BFF628AF94ED2B
:1048E000000B51EC100B81F00041C4E9000178424B
:1048F0001DE7C6F3130040F4801EC6F30A50A0F271
:10490000F530471100F01F05C5F12000DDF848B073
:1049100008900020069007900520EC467949002D6C
:1049200007EB0002794408BF51F8221009D051F872
:10493000223001EB8201AB404A68089922FA01F16A
:104940001943A1FB0E26A1FB0B131A449A4234BF54
:104950000123002303EB06080CEB8003D3E901A637
:104960000E448E4234BF0121002192448A4411B189
:10497000924502D903E0924501D2012100E00021D5
:10498000C3E901A641444CF82010011EA0F101002A
:10499000C4DC029800F10050850F0298DDE903673E
:1049A0008000DDF81480FBF796FE41EC1A0B3046D0
:1049B000FCF719F89FED541B53EC112BFBF7AAFDE4
:1049C00041EC1B0B3846FCF70EF89FED511B53ECE6
:1049D000112BFBF79FFD41EC180B4046FCF703F849
:1049E0009FED4D1B53EC112BFBF794FD41EC190B84
:1049F00051EC180B53EC192BFBF7E5FC53EC1B2B7C
:104A0000FBF7E1FC53EC1A2BFBF7DDFCCDE90801C9
:104A1000002008909DED080B53EC1A2B51EC100B65
:104A2000FBF772FD53EC1B2BFBF76EFD53EC182BC1
:104A3000FBF76AFD53EC192BFBF769FD9FED381B63
:104A400053EC112BFBF766FD9FED370B41EC180B78
:104A500053EC102B9DED080B51EC100BFBF75AFD9E
:104A600053EC182BFBF7AFFC9FED310B41EC180B0F
:104A700053EC102B9DED080B51EC100BFBF74AFD8E
:104A800053EC182BFBF79FFC41EC100B139810F024
:104A9000004F06D06D4251EC100B81F0004141EC0B
:104AA000100B284684ED000B41E6000000000000DA
:104AB0000000000000000000FB21E93F7CD902401B
:104AC00000004054FB21F93F3163621A61B4D03DCC
:104AD000FB21F93F000000000000601A61B4D03DE6
:104AE0007370032E8A19A33BFB213941000000009B
:104AF00083C8C96D305FE43F000000000000E03F64
:104B0000622F0000B02E0000000000000000103EE8
:104B1000000000000000103C000000000000103AFF
:104B2000182D4454FB21F93D3326A611460B113CA8
:104B300000000054FB21F93D10B52DED040B2DEDC7
:104B4000088B82B0B0EE419AF0EE619A0B9820F09B
:104B500000449FED4BABB4F1795F11DA9DED0A0B88
:104B600051EC100BFBF7C8FD002801BFB0EE4A0A5C
:104B7000F0EE6A0A02B0BDEC088B04BF04B010BDB1
:104B80009DED0A0B53EC102B51EC100BFBF7C2FC04
:104B900041EC180B3C480621B0EE480AF0EE680ADA
:104BA000784400F081F853EC182B51EC100BFBF714
:104BB000B1FC9DED0A0B41EC1B0B53EC192B51EC96
:104BC000100BFBF7A7FC41EC190B53EC1B2B51EC22
:104BD000180BFBF79FFC53EC192BFBF795FC9FED93
:104BE0002C0B41EC190B53EC102B51EC180BFBF771
:104BF00091FC41EC100B2848844210DA53EC192B3D
:104C000051EC100BFBF780FC53EC1A2BFBF77FFCED
:104C100041EC100B02B0BDEC088B04B010BD1F4876
:104C2000A042BCBF9FED1E1B8DED001B06DBA4F553
:104C300000100190002000909DED001B51EC100B26
:104C400053EC112BFBF760FC9DED000B41EC180BB6
:104C500053EC102B51EC1A0BFBF756FC41EC1A0BE2
:104C600053EC192B51EC180BFBF74EFC53EC1A2BA1
:104C7000FBF74DFC41EC100BCCE7000000000000FE
:104C8000000000000000F03FCC2B000000000000FE
:104C9000000000000000E03F3333D33F0000E93F55
:104CA000000000000000D23F70B504462DED028BDD
:104CB0004D1E00EBC500B0EE408AF0EE608A90ED2C
:104CC000000B35F0060017D053EC182B51EC100BED
:104CD000FBF720FC41EC100B6D1E04EBC50090EDC2
:104CE000001B51EC100B53EC112BFBF76CFB41EC50
:104CF000100B35F00600E7D1022D36D0042D1CD064
:104D0000062D1CBFBDEC028B70BD53EC182B51EC73
:104D1000100BFBF7FFFB94ED0A1B53EC112BFBF779
:104D200052FB53EC182BFBF7F5FB94ED081B53ECEF
:104D3000112BFBF748FB41EC100B53EC182B51ECFB
:104D4000100BFBF7E7FB94ED061B53EC112BFBF765
:104D50003AFB53EC182BFBF7DDFB94ED040B53EC03
:104D6000102BFBF730FB41EC100B53EC182B51ECE4
:104D7000100BFBF7CFFB94ED021B53EC112BFBF751
:104D800022FB53EC182BFBF7C5FB94ED001B53ECF7
:104D9000112BFBF718FBBDEC028B41EC100B70BD27
:104DA00031B504462DED040B2DED0A8BB0EE41BA62
:104DB000F0EE61BA0B989DED0A0B20F00040B0F1C7
:104DC000795F0DDA51EC100BFEF796FF042808BF4F
:104DD00000F0A2F89DED0A0BBDEC0A8B05B030BDCA
:104DE00053EC102B51EC100BFBF794FB41EC180B20
:104DF0009DED0A0B53EC182B51EC100BFBF78AFBC3
:104E000041EC190B2C48B0EE480AF0EE680A052177
:104E10007844FFF749FF9FED2ACBB0EE40AAF0EEB1
:104E200060AA9CB353EC1C2B51EC190BFBF772FBE3
:104E300041EC1C0B53EC1A2B51EC190BFBF76AFBE2
:104E40009FED210B41EC190B53EC102B51EC1B0B7C
:104E5000FBF760FB53EC192BFBF756FB53EC182BBD
:104E6000FBF758FB53EC1B2BFBF74EFB53EC1C2BB7
:104E7000FBF74AFB9DED0A1B53EC112BFBF747FB9D
:104E8000BDEC0A8B05B041EC100B30BDFFE753ECD5
:104E90001A2B51EC180BFBF73DFB53EC1C2BFBF7CB
:104EA00092FA53EC192BFBF735FB9DED0A1B53ECE3
:104EB000112BFBF788FAE3E75C2A000000000000F2
:104EC000495555555555C5BF000000000000E03F4D
:104ED00010B553EC102B51EC100BFBF774FA41ECAE
:104EE000100B10BD10B553EC112B51EC100BFBF750
:104EF0006AFA41EC100B10BD9FED050B10B553EC99
:104F0000102B51EC100BFBF777FB41EC100B10BD95
:104F100000000000000000009FED050B10B553ECF1
:104F2000102B51EC100BFBF7F5FA41EC100B10BDF8
:104F3000000000000000001002E008C8121F08C1B5
:104F4000002AFAD170477047002001E001C1121F0A
:104F5000002AFBD17047000001490860704700003B
:104F60003C0100202DE9FF4F8DB00F46054600267D
:104F700006E025280BD0DDE90F1290476D1C761C4A
:104F800028780028F5D111B03046BDE8F08F002414
:104F9000A246A1460122EC4900E0044315F8013F76
:104FA000203B02FA03F00842F7D128782A2810D0D3
:104FB0006FF02F022878A0F13001092914D80AEBEC
:104FC0008A0102EB410144F0020400EB010A6D1C6E
:104FD000F0E701CF5FEA000A03D544F40054CAF1B8
:104FE000000A44F002046D1C28782E2817D115F809
:104FF000010F44F004042A280ED06FF02F02287805
:10500000A0F1300109290AD809EB890102EB41011D
:1050100000EB01096D1CF2E757F8049B6D1C287822
:105020006C280FD006DC4C2817D068280DD06A28D1
:1050300014D104E0742810D07A280FD10DE044F484
:1050400000140AE044F4801401E044F44014697848
:10505000814202D104F580146D1C6D1C2A786E2AE1
:105060001FD00CDC632A31D004DC002A8BD0582AF4
:1050700011D1A3E0642A68D0692A0CD165E0732AB3
:105080002ED004DC6F2A73D0702A04D19BE0752ADD
:105090006FD0782A6ED01046DDE90F129047761C4B
:1050A00050E1C4F30250022806D0032809D0042896
:1050B00001CF09D0066045E101CFF117C0E90061D9
:1050C00040E101CF06803DE106703BE117F8040B9B
:1050D0008DF8000000208DF80100EB46012003E070
:1050E00057F804BB4FF0FF3061074FF0000102D4C6
:1050F0000DE008F10101884649450FDA8045F8DBEB
:105100001BF808100029F4D108E008F101018846D5
:105110008142FADB1BF808100029F6D1DDE90F23E4
:10512000AAEB08008146214600F036F9304400EB36
:10513000080604E0DDE90F121BF8010B9047B8F1F7
:105140000108F7D221464846F7E00A21C4F302538A
:105150004FF0000B0891022B04D001CFC117032B95
:1051600009D00AE0FF1D27F00707F7E8020108E071
:1051700032E01FE020E000B2C117042B01D140B2A1
:10518000C117031E71F1000307DA4FF0000CD0EBDA
:105190000C006CEB01012D2302E0230504D52B2329
:1051A0008DF82430012303E0E30701D02023F7E743
:1051B000984658E00A2110E010210EE010204FF030
:1051C000000B08900CE010214FF0000B44F0040499
:1051D0004FF00809089103E008214FF0000B0891F7
:1051E000C4F30253022B04D001CF0021032B06D0BD
:1051F00006E0FF1D27F00707F7E8020103E080B291
:10520000042B00D1C0B24FF0000823072BD5702A21
:1052100007D0DDF820C08CF0100C5CEA0B0C05D038
:105220000EE040238DF82430012308E050EA01030A
:1052300006D030238DF824308DF82520022398469F
:10524000DDF820C08CF0080C5CEA0B0C0BD150EAA6
:10525000010301D1630706D530238DF824304FF0C8
:105260000108A9F10109582A04D038A20B9208AA12
:105270000A920BE03AA2F9E75B46089AFBF700F8BE
:105280000B9B9B5C0A9A521E0A92137050EA010211
:10529000F2D10A98ADEB000000F1200B600702D5B7
:1052A00024F4803401E04FF00109D94502DDA9EB77
:1052B0000B0000E0002000EB0B0141440890AAEB3A
:1052C000010AE00306D4DDE90F232146504600F031
:1052D00063F806444FF0000908E009A911F8090035
:1052E000DDE90F12904709F10109761CC145F4DB95
:1052F000E0030CD5DDE90F232146504600F04CF8C1
:10530000064404E0DDE90F1230209047761C08992E
:10531000481E08900029F5DC08E00A980A990078F0
:10532000491C0A91DDE90F129047761CBBF1000180
:10533000ABF1010BF1DC21465046DDE90F2300F013
:1053400019F806446D1C1BE6092801003031323380
:1053500034353637383961626364656600000000B1
:10536000303132333435363738394142434445469B
:10537000000000002DE9F041044600251E461746B6
:10538000880404D405E039462020B0476D1C641E13
:10539000F9D52846BDE8F0812DE9F0410446002505
:1053A0001E469046C80301D5302700E02027880418
:1053B00004D505E041463846B0476D1C641EF9D55A
:1053C0002846BDE8F08110B541EC100BFEF76CFEED
:1053D00051EC100B10BD00002DE9FF4F89B01746AE
:1053E000DDE9165200244D4E884681462C80A246A7
:1053F000B07B694600F054FB4FF0FF3B18B15846B4
:105400000DB0BDE8F08F708910F0140F3ED00099F8
:1054100009BA21F0FF029DF803100A433A6001998E
:105420009DF8073009BA21F0FF0119437960029B0A
:105430009DF80B401BBA23F0FF032343BB60039C82
:10544000121424BA24F0FF0C9DF80F4009144CEA02
:10545000040C1024C7F80CC01B144FEA2C4712FB95
:1054600002F211FB012113FB03F217FB0722114487
:10547000A1F17061B1F1007F04D900F059FBA5F8EA
:1054800000A0BCE7298841F4807129804206694662
:1054900011D50A19A41D13885BBAA8F800305388E7
:1054A0005BBAA8F80230928852BAA8F804202A8879
:1054B00042F008022A8010F4C07F11D00A19A41DFE
:1054C00013885BBAA9F8003053885BBAA9F8023098
:1054D000928852BAA9F804202A8842F070022A80E1
:1054E000800716D00C44E07800F0C00500F03F01C2
:1054F0006078C00706D0C80801F007013268491C6F
:1055000002B190476078000703D5716809B1A80916
:1055100088470C9800F010FA002071E714890020E9
:1055200082B0CDE9000121F0004001909DED000B1B
:1055300002B051EC100B704705490968C90105D547
:105540004FF060410A68002AFCD0087070470000E4
:10555000FCED00E070B54FF6FA75281A84B20848E1
:10556000FCF700F9064801684C62006801E0416AF6
:105570008CB2AC42FBD3BDE870400148FCF715B9D2
:105580004003002010B50A4C4FF4000020600120B9
:10559000FFF7E0FF402020600120FFF7DBFF4FF422
:1055A000800020600120FFF7D5FF8020206010BD23
:1055B0001804024070B5094C802525600120FFF7D2
:1055C000C9FF402020600120FFF7C4FFE8032060EE
:1055D0000120FFF7BFFF256070BD000018040240E6
:1055E0002DE9F0470024104E4027DFF83C80254687
:1055F00008364FF480096006040E37600120FFF77B
:10560000A9FFD8F80000000601D5641CE4B2C6F872
:1056100000900120FFF79EFF6D1CEDB2082DEAD32C
:105620002046BDE8F0870000100402402DE9F04755
:105630000025134C06464FF4000A4FF040084FF483
:1056400080098027300601D5276001E0C4F800A05A
:105650000120FFF77FFFC4F800800120FFF77AFFE9
:10566000C4F80090072D00D127607006060E0120B7
:10567000FFF770FF6D1CEDB2082DE3D3BDE8F08796
:105680001804024010B50B4C8020206040202060A0
:105690000120FFF75FFF4FF4000020600120FFF7BB
:1056A00059FF4FF480002060BDE810400120FFF753
:1056B00051BF00001804024010B5084C4FF4000020
:1056C0002060402020600120FFF744FF8020206000
:1056D000BDE810400120FFF73DBF00001804024064
:1056E00070B50C4D80202860402028600120FFF715
:1056F00031FF084808380068000601D5012400E0A1
:1057000000244FF4800028600120FFF723FF20468B
:1057100070BD000018040240CAB0FBF753FCFDF74F
:1057200035FFFCF75FFD5A485849532500240160B6
:10573000C0E9015480274FF6FF768761C0E9036412
:10574000FBF7D5FFFCF76AFEFCF798FEFCF7C4FEFA
:10575000FCF7F0FEFCF71CFFFCF76EFFFCF730FED9
:105760004D48489449944B498761C0E90015C0E908
:105770000246FBF7BCFF489448A947484994FBF709
:1057800095FF4348454940304FF4E1350160C0E999
:1057900001540426C460C0E904468461C461FCF776
:1057A00097FB3B483E4980300160C0E90154C4602A
:1057B000C0E904468461C461FCF78AFBFBF73EF94B
:1057C00000F080FA242237496846FAF7D8FD6A4685
:1057D0000021354800F0B2FA344C32492422A0614D
:1057E000243109A8FAF7CBFD09AA0021304800F0BE
:1057F000A5FA2C49E0612422483112A8FAF7BFFD2E
:1058000012AA00212B4800F099FA2649206224228E
:105810006C311BA8FAF7B3FD1BAA0021264800F043
:105820008DFA204960622422903124A8FAF7A7FD5E
:1058300024AA0021214800F081FA1A49A0622422FA
:10584000B4312DA8FAF79BFD2DAA00211C4800F0C9
:1058500075FA1449E0622422D83136A8FAF78FFD90
:1058600036AA0021174800F069FA0E492063242265
:10587000FC313FA8FAF783FD3FAA0021124800F04F
:105880005DFA606300F03AFAFEE700000020004095
:1058900040030020001000404002002000100140A2
:1058A00000440040AC740008852F00080000002070
:1058B0008D2F000835320008FD3400080D2D00083A
:1058C00089300008C530000849300008F0B50B30B9
:1058D000154D20F007010024144A0FE003688B42A5
:1058E0000BD38B4205D95E1A43184768C3E900679A
:1058F00000E04368136002C004E0021D1068002845
:10590000ECD12046002802D1286808B10020F0BD63
:10591000064A07481060074A121A22F00702C0E937
:10592000002401202860D7E738010020340100203E
:10593000AC890020A88B00207047000070B50D4690
:105940002DED0C8B8EB006460CA902A81446F7EE7E
:1059500000BACDE900010BAB03AA09A907A8FFF71C
:105960003BFD20B101200EB0BDEC0C8B70BDBDF82D
:105970000800C0057ED59DED030AF8EEC00A9FED34
:10598000450AB0EE00CA60EE809ADDED040AF8EE3A
:10599000E00A69EE8CCA20EE808ADDED050AF8EE99
:1059A000E00A60EE808ADDED060AF8EEE00A20EEFD
:1059B000809AB8EE000A28EE00BA2BEE090A0CEE27
:1059C000A80A10EE100AFAF7B6FE41EC100BFEF72B
:1059D000BBF99FED31AB51EC100B53EC1A2BFAF7DE
:1059E00099FDFAF7BBFE2BEE080A28EE8CDA306040
:1059F0000DEE680A30EE2B0A10EE100AFAF79BFE45
:105A00002DEE090A41EC1B0B0CEE880A10EE100A71
:105A1000FAF791FE41EC100BB0EE4B1AF0EE6B1A58
:105A2000FEF7AEFC53EC1A2B51EC100BFAF772FD9B
:105A3000FAF794FE29EEA90A286008EE080A08EE93
:105A4000E80A09EE490A10EE100AFAF774FE28EE89
:105A5000280A41EC1B0B09EE890A20EE0C0A10EE15
:105A6000100AFAF768FE41EC100BB0EE4B1AF0EE9C
:105A70006B1A00E00CE0FEF783FC53EC1A2B51ECA0
:105A8000100BFAF747FDFAF769FE206000206AE77D
:105A9000022068E7000080306666666666A64C40B5
:105AA0002DE9F843214C0646174694F82400894610
:105AB0004FF0FF3890B3A07A80B320686B46022283
:105AC000817A60680078FCF733FB38BBBDF80000D2
:105AD00045BAB54202D2002038701FE060684188A4
