:020000040800F2
:10000000085000205D020008DD2100085F1B000889
:1000100081200008210C0008812600080000000053
:100020000000000000000000000000009D0100082A
:10003000230C000800000000F9010008F922000864
:1000400077020008770200087702000877020008AC
:10005000770200087702000877020008770200089C
:10006000770200087702000877020008770200088C
:10007000770200087702000877020008770200087C
:10008000770200087702000877020008770200086C
:10009000770200087702000877020008770200085C
:1000A000770200087702000877020008770200084C
:1000B000770200087702000877020008770200083C
:1000C000770200087702000877020008770200082C
:1000D000770200087702000877020008770200081C
:1000E000770200087702000877020008770200080C
:1000F000FD23000877020008770200087702000855
:1001000077020008770200087702000877020008EB
:1001100077020008770200087702000877020008DB
:1001200077020008770200087702000877020008CB
:1001300077020008770200087702000877020008BB
:1001400077020008770200087702000877020008AB
:10015000770200087702000877020008770200089B
:10016000770200087702000877020008770200088B
:1001700077020008770200087702000800000000FC
:100180007702000877020008DFF80CD000F0DEFBF1
:1001900000480047294A0008085000202C4B1968E5
:1001A0000868B0E8F04F80F30988BFF36F8F4FF015
:1001B000000080F3118870470000000008480068C4
:1001C000006880F308884FF0000080F3148862B65E
:1001D00061B6BFF34F8FBFF36F8F00DF00BF00BF6B
:1001E00008ED00E0DFF80C00016841F470010160E7
:1001F000704700BF88ED00E0EFF30980BFF36F8F19
:10020000134B1A681EF0100F08BF20ED108A20E96A
:10021000F04F106009B44FF0500080F31188BFF325
:100220004F8FBFF36F8F06F0C9FA4FF0000080F3D5
:10023000118809BC19680868B0E8F04F1EF0100F6B
:1002400008BFB0EC108A80F30988BFF36F8F704746
:1002500018000020EFF30580704700000648804733
:1002600006480047FEE7FEE7FEE7FEE7FEE7FEE79B
:10027000FEE7FEE7FEE7FEE7A92300088901000884
:100280002DE9F05F0546002092469B4688460646CB
:10029000814640241BE0284641464746224600F05E
:1002A0006FFA53465A46C01A914110D31146184668
:1002B000224600F056FA2D1A67EB01084F462246F7
:1002C0000120002100F04DFA17EB00094E41201EDD
:1002D000A4F10104DFDC484631462A464346BDE826
:1002E000F09F2DE9F0410024061B254671F1000620
:1002F00005DA01240027D0EB070067EB0101161E89
:1003000073F1000605DA0027D2EB0702012567EB3F
:100310000303FFF7B5FF86460E4617469C46AC42E0
:1003200004D00025D0EB050E65EB010624B10020BA
:10033000D2EB000760EB030C704631463A46634649
:10034000BDE8F08140EA01039B0703D009E008C93A
:10035000121F08C0042AFAD203E011F8013B00F88A
:10036000013B521EF9D27047D2B201E000F8012BD6
:10037000491EFBD270470022F6E710B513460A4625
:1003800004461946FFF7F0FF204610BD30B504467D
:100390000020034600E05B1C934203D2E05CCD5C8E
:1003A000401BF8D030BD2DE9FE4F804681EA0300A6
:1003B000C00F0C46009021F0004123F00045B8EB3F
:1003C0000200A94105D24046214690461C460B46F4
:1003D000024623F00040104347D0270DC7F30A0020
:1003E000C3F30A510290401A019040286BDAC3F31C
:1003F000130040F4801B0098924620B10023D2EBFA
:10040000030A63EB0B0B01985946C0F140025046BA
:1004100000F0A7F906460D4650465946019A00F0ED
:10042000BFF910EB08006141002487EA115284EA09
:10043000E7731A4340D0009A62B3019A012A4FEA47
:10044000075215DC001B61EB02014FF0004202EA8B
:100450000752CDE90042001C41F5801132462B467F
:1004600000F0F6F903B0BDE8F08F40462146F9E709
:10047000001B61EB0201001C41F5801300185B4179
:100480002018A2F5001747EB030140EAD570B61912
:100490006D4111E06D084FEA360645EAC0754FEA36
:1004A0000752001B61EB0201001C41F58011490855
:1004B0004FEA30000019514132462B4603B0BDE8E7
:1004C000F04F00F0B6B90098012240000023D0EBB5
:1004D000020263EBE073009821464FEAE074B8EB48
:1004E000000061EB0401E9E783F000435BE781F082
:1004F000004158E72DE9FE4F81EA030404F000446F
:1005000021F0004100944FF0000B23F0004350EA2B
:1005100001045ED052EA03045BD0C3F30A54C1F372
:100520000A552C44A4F2F3340194A0FB0254C1F305
:10053000130141F48011C3F3130343F4801301FB4F
:10054000024400FB034E840A970A44EA815447EAB6
:100550008357A4FB076802958D0A05FB07854FEAC0
:10056000932C04FB0C542705029D4FEA065847EADA
:100570001637B5EB08056EEB070C870E920E47EAAF
:10058000811742EA8312A7FB0201B6EB0B0164EB71
:1005900000042B0D43EA0C335E1844EB1C50DA4682
:1005A0005146E7FB0201C5F313044FEA0B3343EA5C
:1005B00014534FEA0432019C43EA0603A4F10C04ED
:1005C0000294009CCDE900B400F042F903B0BDE80C
:1005D000F08F00200146F9E72DE9F04D81EA030490
:1005E00004F0004B21F0004514464FF0000A23F0C0
:1005F000004150EA050220D054EA01021DD0C5F3A3
:100600000A570246C5F31303C1F31300C1F30A5698
:1006100040F4801543F48013A7EB0608101BD64660
:1006200008F2FD3873EB050002D308F1010801E080
:1006300092185B41B8F1000F03DA00200146BDE8D3
:10064000F08D00204FF48011064684460EE0171B03
:1006500073EB050705D3121B63EB050306434CEA56
:10066000010C49084FEA300092185B4150EA01073B
:10067000EDD152EA030012D082EA040083EA0501B8
:10068000084305D0101BAB4106D20122002306E02F
:1006900000224FF0004302E06FF0010253101AEB0A
:1006A00006004CEB085110EB0A0041EB0B01BDE8D2
:1006B000F04D00F0BEB80EB5C10F80EAE0700844FE
:1006C000CA07002140F233438DE80E000A460B466C
:1006D00000F0BEF803B000BD00F0004230F0004072
:1006E0000AD0C10D01F56071C0F3160042EA015154
:1006F000C20840071143704700200146704701F0CF
:10070000004330B421F0004150EA010206D00A0D46
:10071000A2F56072C1F31301002A02DC30BC002094
:100720007047440F44EAC104C100E01830BC00EB3C
:10073000C25000F047B830B50B46014600202022D9
:10074000012409E021FA02F59D4205D303FA02F5DE
:10075000491B04FA02F52844151EA2F10102F1DC3E
:1007600030BD202A04DB203A00FA02F10020704755
:100770009140C2F1200320FA03F3194390407047DF
:10078000202A04DB203A21FA02F00021704721FAE6
:1007900002F3D040C2F1200291400843194670474D
:1007A000202A06DBCB17203A41FA02F043EAE07335
:1007B00006E041FA02F3D040C2F120029140084322
:1007C000194670470029A8BF7047401C490008BF60
:1007D00020F00100704710B4B0FA80FC00FA0CF071
:1007E00050EA010404BF10BC704749B1CCF12004A9
:1007F00021FA04F411FA0CF118BF01212143084336
:10080000A3EB0C01CB1D4FEA00614FEA102042BF61
:10081000002010BC704700EBC35010440029A4BF57
:1008200010BC7047401C490008BF20F0010010BCFC
:10083000704710B5141E73F1000408DA401C41F132
:10084000000192185B411A4301D120F0010010BD54
:100850002DE9F04D92469B4611B1B1FA81F202E0CA
:10086000B0FA80F220329046FFF77BFF04460F4635
:1008700040EA0A0041EA0B0153465A46084313D0A6
:10088000114653EA010019D0C8F140025046FFF763
:1008900077FF05460E46504659464246FFF761FF30
:1008A000084305D0012004E020463946BDE8F08D1C
:1008B0000020054346EAE0762C4337430A98630557
:1008C000E40AA0EB08000022FD0A44EA47540A307B
:1008D00002D500200146E9E7010510196941DDE96B
:1008E000084500196941BDE8F04DA2E7C1F30A527D
:1008F000C1F3130140F2FF3341F480119A4202DA4E
:1009000000200146704740F233439A42A2F233423C
:1009100002DC5242FFF734BFFFF723BF30B5041E9D
:1009200071F1000404DB4FF00044404264EB01012C
:10093000141E73F1000405DB1C464FF000435242C5
:1009400063EB0403994208BF904230BD064C074D4B
:1009500006E0E06840F0010394E80700984710348F
:10096000AC42F6D3FFF714FCE47F000804800008D3
:100970002DE9F04D00231A461B1A8A4103DB0020A3
:100980000146BDE8F08DC1F30A52C1F3130141F4F1
:1009900080154FF0000BD10702D100186D41521E97
:1009A0000027044640F2FF11384601EB620A3E463A
:1009B0008046024600204FF48011FFF7E1FEC21985
:1009C0007141BB1846EB0100B4EB030C75EB000C56
:1009D00004D3E41A65EB000517460E46241908F106
:1009E00001006D4180463428E3DDF91946EB06002D
:1009F000091BA84103D24FF0FF32134601E0002249
:100A000013461BEB070046EB0A51BDE8F04DFFF71C
:100A100010BF00002DE9F04F87B054A001F032FE66
:100A20004FF4FA7405E055A001F02CFE204600F0CA
:100A3000F9F804F027F90028F5D155A001F022FEBD
:100A400001F020FBDFF8589100214E46C9F8000064
:100A5000544801F057F80421524801F053F8082196
:100A6000504801F04FF80C214E4801F04BF800219E
:100A70004D4801F047F804214B4801F043F80021AC
:100A80004A4801F03FF80421484801F03BF8454C42
:100A90004FF0040ACDE9044A4FF0000B0125DFF8BE
:100AA0001081444FCDE9024BCDE9008580233846C3
:100AB0003A46402101F0FEFA706010B93EA001F004
:100AC000E1FD0C20CDE904400821CDE90241CDE94A
:100AD00000858B01464638463A46490101F0EAFA5C
:100AE0004C46C9F8080010B939A001F0CBFD2E48DA
:100AF000CDE9040ACDE9020B3B48CDE90065574634
:100B0000D84640230246202101F0D4FAE06010B913
:100B100036A001F0B7FD2548CDE90407CDE902086C
:100B20003848CDE900654FF400430246591001F002
:100B3000C1FA206110B934A001F0A4FD50220021B7
:100B4000606801F0DEFA50220021A06801F0D9FAB5
:100B500050220021E06801F0D4FA206907B0502249
:100B6000BDE8F04F002101F0CCBA00004D505536E1
:100B700030353020544553540D0A00004D50553641
:100B8000303530204572726F722121210D0A00002C
:100B90004D505536303530204F4B0D0A00000000C7
:100BA00090000020E40100202402002064020020C4
:100BB00000140240000802404572726F723A206DC4
:100BC0006F746F724C46204E554C4C0A000000006A
:100BD0004572726F723A206D6F746F724C42204E84
:100BE000554C4C0A00000000001002404572726F24
:100BF000723A206D6F746F725246204E554C4C0AFB
:100C000000000000000402404572726F723A206DCD
:100C10006F746F725242204E554C4C0A0000000017
:100C2000FEE7704770B5044600F0ECF80546601C1E
:100C300002D004480078044400F0E4F8401BA042CD
:100C4000FAD370BD080000202DE9F84FDFF87CB121
:100C500000224FF001084FF0030A4FF00F090BF18B
:100C6000040E00BF0B6808FA02F42340A3426ED1C1
:100C70004D68022D01D0122D0ED1D50800EB850C48
:100C8000DCF820505607F70E09FA07F6B5430E694F
:100C9000BE402E43CCF82060066855000F790AFA52
:100CA00005FC07F0030726EA0C06AF403743076050
:100CB0004E68012E05D0022E03D0112E01D0122E27
:100CC0000ED18668CF6826EA0C06AF4037438760AE
:100CD0004668A6430C79C4F300149440344344603E
:100CE000C6688C6826EA0C06AC403443C4604C6885
:100CF000E40065D5364C256845F4804525602468B8
:100D000022F0030504F480440094324C2E19D6F8E6
:100D1000084895072F0F09FA07F5AC432E4DA84256
:100D200001D1002524E02D4DA84201D101251FE06D
:100D30002B4DA84201D102251AE02A4DA84201D12B
:100D4000032515E0284DA84202D1042510E037E024
:100D5000264DA84201D105250AE0254DA84201D122
:100D6000062505E0234DA84201D1072500E008250E
:100D7000BD402543C6F80858DBF800405D464E6884
:100D80009C43F60300D51C432C60DEF800407546FA
:100D90004E689C43B60300D51C432C600B4D0835B0
:100DA0002C684E689C43F60200D51C432C60074D0E
:100DB0000C352C684E689C43B60200D51C432C6051
:100DC000521C102AFFF44EAFBDE8F88F003C0140E2
:100DD000443802400030014000000240000402405C
:100DE00000080240000C02400010024000140240C3
:100DF00000180240001C02400AB1816170470904DA
:100E0000FBE70000014880687047000008000020F0
:100E10000248816802781144816070470800002010
:100E20000B4810B5016841F400710160016841F49C
:100E300080610160016841F480710160032000F06D
:100E40008DF8002000F006F800F03EF8002010BDFC
:100E5000003C024010B5014688B000222C2000F072
:100E60005DF82C2000F04CF813480024016841F094
:100E700080010160006805A900F0800006906846C6
:100E800000F016F900F034F90C494000B0FBF1F124
:100E90000C480B4A491E026040F2E732C0E90324C5
:100EA000C0E9011400F041FB10B1012008B010BDF1
:100EB000044800F069FBF9E74038024040420F0067
:100EC000001C0040E40200200C4882B0016841F49C
:100ED00080410160006800F4804000900748001FD6
:100EE000016841F0805101600068002200F08050EC
:100EF00000900F21901E02B000F010B8443802405C
:100F0000002809DB00F01F02012191404009800008
:100F100000F1E020C0F8001170470000F0B40E4B63
:100F20001B680C46C3F30223C3F10705042D00D947
:100F30000425191D072901D2002300E0DB1E01262C
:100F400006FA05F1491E214099409E40761E164042
:100F50003143F0BC01F0BEBB0CED00E0064900F0EF
:100F6000070208684FF6FF03184040EA0220034AD0
:100F700010430860704700000CED00E00000FA0527
:100F80002DE9F0470E46050065D0DFF81481D8F84A
:100F90000000F7B200F00F00B04207D288F80070EE
:100FA000D8F8000000F00F00B04254D128683D4C42
:100FB000810712D5400703D5206840F4E050206037
:100FC0002878000703D5206840F46040206020683E
:100FD000A96820F0F000084320602878C0072DD0D1
:100FE000304968680839012812D0022813D0032834
:100FF00011D00968890700292DDA216821F0030141
:1010000001432160FFF7FEFE814641F2883A0EE07F
:1010100009688903EFE709688901ECE7FFF7F2FE49
:10102000A0EB0901514502D90320BDE8F0872068F3
:10103000696800F00C00B0EB810FEFD1D8F8001018
:10104000404601F00F01B14207D90770006800F077
:101050000F00B04201D00120E7E72878400705D50E
:101060002068E96820F4E0500843206028780007F1
:1010700006D52068296920F4604040EAC10020605C
:1010800000F046F82168084AC1F30311515CC840DA
:10109000064908600020FFF7DDFE0020C5E70000DC
:1010A000003C024008380240307200081400002062
:1010B0000F2202600C4A136803F0030343601368B5
:1010C00003F0F0038360136803F4E053C360126815
:1010D0004FF4E05303EAD20202610448006800F0D2
:1010E0000F0008607047000008380240003C0240D2
:1010F0000448054900680968044AC1F38221515C2B
:10110000C8407047140000200838024040720008B0
:10111000154810B5006810F00C02144813D014499B
:10112000042A0FD0082A0ED10F4C241F22682368EE
:1011300002F03F025B0207D52068C0F38810A0FBD5
:10114000010106E0084610BD2168C1F38811A1FB2A
:1011500000010023FFF794F82168C1F30141491C05
:101160004900B0FBF1F010BD083802400024F40043
:1011700040787D012DE9F84F050076D02878DFF81A
:10118000F8B2BE4CC00749D0DBF800105846C1F396
:101190008101012908D00068C0F3810002280AD12A
:1011A000201D0068400206D52068800336D5686897
:1011B0000028E2D032E06868B0F5803F10D0B0F58A
:1011C000A02F206810D020F480302060206820F408
:1011D000802020606868A0B1FFF714FE06460CE08E
:1011E000206840F48030F4E740F480202060F7E786
:1011F000FFF708FE801B642873D820688003F7D5AA
:101200000CE0FFF7FFFD064605E000BFFFF7FAFD23
:10121000801B6428F0D820688003F7D42878DFF892
:10122000608280074FF000093ED5DBF80010584679
:1012300011F00C0F09D00068C0F3810002280BD117
:101240008D48001F0068400206D42068800715D52D
:10125000E868012809D111E0E868B8B10120C8F8B0
:101260000000FFF7CFFD064605E002E1FFF7CAFDEB
:10127000801B0228C0D820688007F7D5206829691C
:1012800020F0F80040EAC10020600DE0C8F80090AE
:10129000FFF7B8FD064604E0FFF7B4FD801B022807
:1012A0001FD820688007F7D42878000722D5724E0F
:1012B000744869696C3671B101210160FFF7A2FDC4
:1012C000074604E0FFF79EFDC01B022809D83068DE
:1012D0008007F7D50EE0C0F80090FFF793FD0746B2
:1012E00005E083E0FFF78EFDC01B02287ED8306842
:1012F0008007F7D42878400768D5DFF87CA100275D
:101300000AF1380ADAF80000C0000BD4DAF800104D
:1013100041F08051CAF80010DAF80000012700F00F
:1013200080500090584E3068C00510D4306840F4AA
:1013300080703060FFF766FD009005E0FFF762FD0A
:101340000099401A022851D83068C005F6D54A4E97
:10135000A868683601280FD00528306810D020F022
:1013600001003060306820F004003060A868B8B137
:10137000FFF748FD00900FE0306840F00100F4E70F
:1013800040F004003060F7E7FFF73CFD0099411A98
:1013900041F28830814264D830688007F4D50EE08D
:1013A000FFF730FD009007E0FFF72CFD0099411A90
:1013B00041F28830814254D830688007F4D42FB18C
:1013C000DAF8001021F08051CAF80010A869C0B303
:1013D000DBF80010C1F3810102294AD002284846F7
:1013E00007D0C8F86000FFF70DFD00E039E00546C2
:1013F0003AE04746C8F86000FFF704FD064604E0FF
:10140000FFF700FD801B02282BD820688001F7D44D
:10141000D5E907010843A96A1C4A490802EB0141C2
:101420006A6A41EA8211084395F82C1040EA01618A
:101430001148001F016001203866FFF7E3FC0546F4
:1014400005E014E0FFF7DEFC401B022809D8206805
:101450008001F7D50BE000BFFFF7D4FC401B02284A
:1014600002D90320BDE8F88F20688001F4D4002061
:10147000F8E70120F6E70000083802400038024093
:1014800000004742800E4742007000400000FFFF0E
:101490007047704710B590F83C20012A22D00122F5
:1014A00080F83C20CA688C6822F4407222434C6861
:1014B00022F4806222430C6822F4006222430C6909
:1014C00022F4805222434C6922F400522243C9691B
:1014D000002322F480420A4301684A6480F83C30C9
:1014E000002010BD022010BD70B590F83C20012AEC
:1014F00019D0012400F83C4F0222427050F83C3CC5
:101500005A689D6822F070060A684968324325F0DF
:10151000800529435A6050F83C2C916044700021AA
:101520000170084670BD022070BD10B5040003D0E4
:1015300094F83D0010B107E0012010BD002084F8B0
:101540003C00204600F00CF8022084F83D00211DEC
:10155000206800F061FF012084F83D00002010BDEC
:1015600008B500680649884208D10648016841F478
:1015700080710160006800F48070009008BD000078
:1015800000200040403802400168CA6842F0010271
:10159000CA600068816801F00701062903D001686C
:1015A00041F001010160002070472DE9F0410D4636
:1015B000040003D094F83D0018B108E00120BDE814
:1015C000F081002084F83C00204600F03BF8022027
:1015D00084F83D002068816844F2070291438160ED
:1015E000211D206800F018FF226890689169166A32
:1015F0002B68AF69034340F20330814341EA07217E
:10160000A868EF6908434FF6FC418843E96840EA5F
:101610000720014328692F6A000140EA0730084388
:1016200069686D6926F0AA0646EA051529439360A4
:101630002268906120680162012084F83D0000204A
:10164000BDE7000070B586B0044614216846FEF779
:1016500092FE3D48256800223C490224012685422D
:1016600019D13A481430036843F00103036000685D
:1016700000F001000590086840F01000086008685C
:10168000694600F0100005904FF420600090CDE90D
:1016900001422F4833E02D4B2E481033B5F1804FD7
:1016A00018D02D4EB54231D11D6845F002051D60A0
:1016B0001B6803F0020305930B6843F001030B6002
:1016C000096801F001010591C0210091CDE90142B5
:1016D000694635E01D6845F001051D601B6803F093
:1016E000010305930B6843F001030B60096801F0E7
:1016F0000101059122210091CDE901426946CDE920
:10170000032600BFFFF7A0FA06B070BD134885425C
:10171000FAD1186840F004001860186800F004005E
:101720000590086840F0080008600868694600F005
:10173000080005904FF440500090CDE90142084860
:10174000CDE90324DEE7000000000140303802400C
:101750000010024000000240000400400008004069
:10176000000C0240704770B50446006801694FF0F4
:101770000005C943890715D4C168C943890711D435
:10178000E91E0161012020772068806980072046DA
:1017900002D0FFF7E7FF04E000F0F4F8204600F085
:1017A000AFF9257720680169C943490717D4C16893
:1017B000C943490713D46FF0040101610220207767
:1017C0002068806910F4407F204602D0FFF7CAFFEE
:1017D00004E000F0D7F8204600F092F92577206861
:1017E0000169C943090716D4C168C943090712D45E
:1017F0006FF008010161042020772068C06980072C
:10180000204602D0FFF7AEFF04E000F0BBF8204610
:1018100000F076F9257720680169C943C90617D415
:10182000C168C943C90613D46FF0100101610820D3
:1018300020772068C06910F4407F204602D0FFF76F
:1018400091FF04E000F09EF8204600F059F925775A
:1018500020680169C943C90708D1C168C943C907DC
:1018600004D1891E0161204600F06EF920680169EB
:10187000C943090609D4C168C943090605D46FF0F4
:10188000800101612046FFF703FE20680169C9431A
:10189000490609D4C168C943490605D46FF040011F
:1018A0000161204600F05AF920680169C9438906A0
:1018B0000BD4C168C943890607D46FF020010161C8
:1018C0002046BDE87040FFF7E4BD70BD30B587B07D
:1018D000044614216846FEF74EFD234D2368002080
:1018E000224902220324AB4211D10B6843F00403C6
:1018F0000B60096801F0040105914FF470710091CB
:10190000CDE90120CDE903046946194812E0194DDB
:10191000AB4213D10B6843F010030B60096801F070
:101920001001059160210091CDE90120CDE903046A
:1019300069461148FFF788F907B030BD0F4CA34244
:10194000FAD10B6843F002030B60096801F0020151
:101950000591E1000091CDE9012003900920049058
:1019600069460748E6E700000004014030380240BD
:1019700000080240004001400010024000180040F2
:1019800000040240704770B5044690F83C000D46D4
:1019900001280DD0012684F83C60022084F83D0027
:1019A00042B1042A18D0082A2AD00C2A4DD139E095
:1019B000022070BD206800F0A1FD2068816941F01F
:1019C000080181612068816921F00401816120683A
:1019D00081692A69114311E0206800F0BFFD206889
:1019E000816941F4006181612068816921F480612D
:1019F0008161206881692A6941EA0221816124E0CC
:101A0000206800F0E1FD2068C16941F00801C16172
:101A10002068C16921F00401C1612068C1692A6997
:101A2000114311E0206800F003FE2068C16941F411
:101A30000061C1612068C16921F48061C1612068D1
:101A4000C1692A6941EA0221C16184F83D60002030
:101A500084F83C0070BD10B5040003D094F83D003C
:101A600010B107E0012010BD002084F83C002046A2
:101A700000F00CF8022084F83D00211D206800F0E1
:101A8000CBFC012084F83D00002010BD08B5184AA9
:101A900001681848914211D1016841F002010160CA
:101AA0000068002200F00200009011462C20FFF791
:101AB00035FABDE808402C20FFF722BA0E4A9142C1
:101AC00007D1016841F480310160006800F4803082
:101AD0000BE00A48814209D10648001F016841F025
:101AE00040010160006800F04000009008BD000067
:101AF000000401404438024000400140001800400A
:101B00007047000010B504460068012200F0E8FCB0
:101B10000B492068884202D00A49884203D1416CAF
:101B200041F4004141642068816801F00701062901
:101B300003D0016841F001010160002010BD0000E8
:101B4000000001400004014000680349884201D1BF
:101B5000FFF75EB970470000001C00407047FEE7C9
:101B60007CB514460D4606466B4606223B2168208E
:101B700000F05AF800280BD1BDF8001049BA3180A6
:101B8000BDF8021049BA2980BDF8041049BA218075
:101B90007CBD7CB514460D4606466B4606224321A5
:101BA000682000F041F800280BD1BDF8001049BAB8
:101BB0003180BDF8021049BA2980BDF8041049BA35
:101BC00021807CBD08B56B4602224121682000F0CF
:101BD0002BF8BDF8000040BA00B2FEF76CFD9FED97
:101BE0000D1B53EC112BFEF7F7FC9FED0C1B53EC78
:101BF000112BFEF7D8FBFEF782FD00EE100ADFED99
:101C0000090A20EE200ABDEEC00A10EE100A00B24A
:101C100008BD00000000000000407540A4703D0AAF
:101C2000D74342400000C8422DE9F0411D4614460A
:101C300088460646002702F07FFE7006000E02F07E
:101C400051FE02F0A1FE404602F04CFE02F09CFE66
:101C500002F072FE012000EB4600C0B202F042FE2C
:101C600002F092FE09E0012C0ED002F017FE28705F
:101C700002F0E6FD641EE4B26D1C002CF3D102F00C
:101C800071FE3846BDE8F08102F008FE287002F0CF
:101C9000F3FDEFE72DE9F0411F461546884604465F
:101CA000002602F049FE6006000E02F01BFE02F064
:101CB000C7FD404602F016FE02F066FE002405E075
:101CC000385D02F00FFE02F05FFE641CAC42F7DBF1
:101CD00002F048FE3046BDE8F08100002DE9F043F7
:101CE00087B014216846FEF746FB2F4800240168A0
:101CF00041F010010160016801F0100105910168D7
:101D000041F080010160016801F0800105910168E6
:101D100041F001010160016801F0010105910168D4
:101D200041F002010160016801F0020105910168C2
:101D300041F008010160016801F0080105910168A6
:101D400041F0040101600068DFF8609000F00400D9
:101D500005900122C0214846FFF74EF80C200225CD
:101D6000CDE9000502AA03260727DFF8448082E8B0
:101D7000D00069464046FEF767FF7002CDE90005D6
:101D800002AA694682E8D0004046FEF75DFFC02007
:101D900000901120CDE90104694648460394FEF7FE
:101DA00053FF07B0BDE8F083303802400004024022
:101DB0000000024010B588B01C216846FEF7DBFA2F
:101DC0001148104900240160A721C0E901146421D1
:101DD000C0E9031480218161FFF73DFE6020CDE959
:101DE000000402940022694607480494FFF7CBFDE3
:101DF000042269460448FFF7C6FD0348FFF766FD65
:101E000008B010BD001800406402002010B58CB06E
:101E100024216846FEF7AFFA0024134809941149BB
:101E20000A940160A721C0E901146421C0E90314E8
:101E30008021C0E905410120CDE90004CDE902047B
:101E40000494CDE905400794694607480894FFF7D4
:101E5000ACFB099409A904480A94FFF745FB0CB0B0
:101E600010BD000000000140E400002010B58CB05F
:101E700024216846FEF77FFA0024124809944FF0A7
:101E800080410A940160A721C0E901146421C0E9DE
:101E90000314802181610120CDE90004CDE9020411
:101EA0000494CDE905400794694606480894FFF775
:101EB0007CFB099409A903480A94FFF715FB0CB0B1
:101EC00010BD00002401002010B58CB0242168460C
:101ED000FEF751FA00241248099410490A9401604F
:101EE000A721C0E901146421C0E9031480218161A4
:101EF0000120CDE90004CDE902040494CDE90540B8
:101F00000794694606480894FFF74FFB099409A90E
:101F100003480A94FFF7E8FA0CB010BD0004004033
:101F20006401002010B58CB024216846FEF723FA26
:101F300000241248099410490A940160A721C0E9BD
:101F400001146421C0E90314802181610120CDE9DD
:101F50000004CDE902040494CDE9054007946946E4
:101F600006480894FFF721FB099409A903480A943D
:101F7000FFF7BAFA0CB010BD00080040A401002021
:101F800010B592B000240F941C2168461094FEF7FF
:101F9000F2F9202107A8FEF7EEF922482049016056
:101FA000A721C0E901146421C0E903148021C0E91C
:101FB0000541FFF750FD0F940FA91A481094FFF741
:101FC00093FA6020CDE900040294039404940594EC
:101FD0000022694613480694FFF7D5FC042269469F
:101FE0001048FFF7D0FC082269460E48FFF7CBFCEB
:101FF0000C2269460B48FFF7C6FC07940894099425
:102000004FF400500A94CDE90B4007A905480E94FF
:10201000FFF740FA0348FFF759FC12B010BD00006B
:1020200000040140E401002010B588B01C2168467E
:10203000FEF7A1F91148104900240160A721C0E969
:1020400001146421C0E9031480218161FFF703FDBD
:102050006020CDE9000402940022694607480494F8
:10206000FFF791FC042269460448FFF78CFC034803
:10207000FFF72CFC08B010BD0040014024020020F6
:10208000FEE7000010B51C2004F08CF800218181CF
:10209000C1810182418281829FED050AC18280ED6A
:1020A000000A80ED010A80ED020A018310BD0000E4
:1020B000000000002DE9F05F0746DDE90A981C46A4
:1020C00015460E463820DDF830B0DDF838A004F0B3
:1020D00069F80760868085608481C0F81090A0F858
:1020E0001480C0F818B00D998183C0F820A00F9912
:1020F0008184002180F82C10816201634163BDE876
:10210000F09F026380F82C100023B1B1012932D076
:10211000022911D1818BF1B3042959D00829816991
:10212000096859D00A64818CD9B104291DD0006A8C
:10213000082900681DD003647047818B39B10429D8
:1021400009D008298169096809D00B64EBE7816926
:1021500009684B63E7E7816909688B63E3E7CB6351
:10216000E1E7006A006843637047006A00688363C0
:102170007047C3637047818B91B1042914D008293B
:102180008169096814D00B64818C99B1042915D038
:102190000829006A00E017E0006813D00264704765
:1021A000816909684B63EFE7816909688B63EBE735
:1021B000CB63E9E7006A006842637047006A006821
:1021C00082637047C2637047816909684A63AAE7FE
:1021D000816909688A63A6E7CA63A4E7704701209A
:1021E00003F096FBFBE700002DED028B8EB09FED18
:1021F000370A00208DED070A8DED060A8DED080ADD
:10220000ADF82800ADF82400ADF82C00ADF81400AE
:10221000ADF83000ADF8340004F048F908AA06A97A
:1022200007A802F07DFC00284AD1FFF7CBFC04464A
:102230000BAA0AA909A8FFF793FC0DAA0CA905A8E7
:10224000FFF7A7FC2248BDF8242001688A81BDF869
:1022500028004042C881BDF82C0040420882BDF8E9
:1022600014004882BDF8300040428882BDF8340036
:102270004042C882069848609DED070AF1EE408A08
:10228000C1ED008A9DED080AB1EE408A81ED028A17
:102290000C83FEF721FA06460F4618EE100AFEF7E9
:1022A0001BFA04460D4618EE900AFEF715FA8DE863
:1022B000F00041EC100B07A053EC102B00F0E2F9FA
:1022C00004F014F9052003F023FBA5E7000000004B
:1022D000900000207069746368203D2025662C20E2
:1022E000796177203D2025662C20726F6C6C203D33
:1022F0002025660A0000000010B5502080F31188E8
:10230000BFF34F8FBFF36F8F04F0CCFD18B10449BA
:102310004FF080500860002080F3118810BD00004D
:1023200004ED00E030B593B030216846FEF723F8A5
:1023300014210CA8FEF71FF819480025016841F088
:1023400080510160006800F08050119015480168CC
:1023500041F4804101600068022400F48040119043
:102360000120039010200490009406940820CDE9E9
:102370000750A820CDE9090404200B906846FEF719
:10238000F9FE0CA90F2081E831004FF4A0500F9006
:10239000E002109005210CA8FEF7F2FD13B030BD4D
:1023A00040380240007000401048016841F470015C
:1023B00001600F48016841F0010101600C4A0021F1
:1023C0000832116002680B4B1A400260031D0A4A72
:1023D0001A60026822F48022026005480C30016015
:1023E00002495806803908607047000088ED00E017
:1023F00000380240FFFFF6FE1030002410B50448FC
:10240000FFF7B1F9BDE810400248FFF7ACB9000092
:10241000E4010020E4020020F0B50268254C264DBE
:10242000264E274F274B4FF0804CA04209D06045E5
:1024300007D0A84205D0B04203D0B84201D098429C
:1024400004D122F0700E4A6842EA0E02A0421BD06C
:10245000604519D0A84217D0B04215D0B84213D069
:10246000984211D0184DA8420ED0184DA8420BD05A
:10247000174DA84208D0174DA84205D0164DA842C6
:1024800002D0164DA84203D122F44075CA682A43EF
:102490004D6922F080022A4302608A68C2620A689B
:1024A0008262A04201D0984201D1096901630121F1
:1024B0004161F0BD00000140000400400008004000
:1024C000000C004000040140004001400044014075
:1024D0000048014000180040001C0040002000405F
:1024E00010B501F01F030121046A99408C43046276
:1024F000016A9A401143016210BD0000F0B5026A02
:1025000022F001020262036A42688469124E24F0DA
:1025100073050C682C4323F002058B682B430D4D8B
:10252000A84201D0B04205D123F00807CB683B4355
:1025300023F00403A84201D0B04205D14D6922F432
:10254000407215438A692A43426084614968416345
:102550000362F0BD0000014000040140F0B5026AD2
:1025600022F010020262026A436884690D6824F452
:10257000E64444EA05248D6822F0200242EA05126E
:102580000F4D104EA84201D0B04206D1CF6822F0C4
:10259000800242EA071222F04002A84201D0B04273
:1025A00007D14D6923F4406343EA85038D6943EA0B
:1025B000850343608461496881630262F0BD000065
:1025C0000000014000040140F0B5026A22F480726C
:1025D0000262026A4368C46922F4007224F073053F
:1025E0000C68124E2C438D6842EA05220E4DA8421B
:1025F00001D0B04206D1CF6822F4006242EA07223D
:1026000022F48062A84201D0B04207D14D6923F480
:10261000405343EA05138D6943EA05134360C461DF
:102620004968C1630262F0BD00000140000401403E
:1026300030B5026A22F480520262046A4268C369B9
:102640000D6823F4E64343EA05238D6824F400541F
:1026500044EA0534084DA84202D0084DA84204D1EE
:102660004D6922F4804242EA85124260C3614968A2
:102670000164046230BD000000000140000401401C
:10268000FEE700000FB4054B10B503A9044A0298F9
:1026900000F0CEFD10BC5DF814FB0000894300087B
:1026A000A400002003B401984100009850EAC12022
:1026B00018BF04204A0D18BF40F0010040F2FF721D
:1026C000B2EB515F08BF40F00200012808BF0520AF
:1026D00002B070470907090E002804DB00F1E02072
:1026E00080F80014704700F00F0000F1E02080F83F
:1026F000141D70470000000070B5C1482DED020B9D
:102700002DED0E8B82B0119D25F000449FEDBEDBB8
:102710009FEDBFEB84423EDBA4F140511098A1F144
:102720007F6108430FD0BC48844202DC28D1109856
:1027300030B39DED100B02B0BDEC0E8B02B0BDE8C6
:10274000704000F069BC9DED100B53EC1D2B51EC5B
:10275000100BFDF7CFFE9DED100B41EC180B53EC69
:102760001E2B51EC100BFDF7C5FE53EC182BFDF79B
:102770001AFE41EC100B02B0BDEC0E8B02B070BD26
:10278000012000F08DFC02B0BDEC0E8B02B0BDE864
:10279000704000F055BCA1489FEDA18B844256DAF1
:1027A0009DED100BB4F1795F0ADA51EC100BFFF7D5
:1027B00079FF042808BF00F053FC9DED100BDAE709
:1027C00053EC102B51EC100BFDF794FE41EC190B60
:1027D00095480621B0EE490AF0EE690A784400F007
:1027E0009FFB53EC192B51EC100BFDF783FE41ECD2
:1027F0001A0B8E48B0EE490AF0EE690A04217844BB
:1028000000F08EFB53EC192B51EC100BFDF772FE10
:1028100053EC182BFDF7C7FD41EC100B51EC1A0BD4
:1028200053EC102BFDF7D8FECDE900019DED000B18
:1028300053EC102B9DED100B51EC100BFDF75AFED5
:102840009DED101B53EC112BFDF7ADFDD2E09DED7E
:10285000100B51EC100B01F08BFD53EC182BFDF716
:1028600046FE9FED730BCDE9000153EC102B9DED5F
:10287000000B51EC100BFDF73DFE41EC190B6E48BF
:102880000621B0EE490AF0EE690A784400F048FBF0
:1028900053EC192B51EC100BFDF72CFE41EC1B0BEC
:1028A0006648B0EE490AF0EE690A0421784400F067
:1028B00037FB53EC192B51EC100BFDF71BFE53ECBF
:1028C000182BFDF770FD41EC1C0B51EC190B03F0BC
:1028D0005BFD41EC180B5A489FED5BABA04222DC3C
:1028E00053EC1C2B51EC1B0BFDF776FECDE90001E0
:1028F0009DED000B51EC180B53EC102BFDF7FAFD7E
:1029000053EC182BFDF74FFD53EC1A2BFDF7F2FD9E
:1029100053EC1D2BFDF7E8FD53EC1E2BFDF7E7FDF7
:1029200041EC100B5FE08DED008B002000909DEDE1
:10293000000B51EC180B53EC102BFDF734FD9DED03
:10294000000B41EC1E0B53EC102B51EC100BFDF760
:10295000D1FD53EC192BFDF7CAFD53EC1E2BFDF7EF
:102960003BFE41EC190B53EC1C2B51EC1B0BFDF700
:1029700033FE41EC1B0B53EC1A2B51EC190BFDF7FA
:10298000B9FD53EC1D2BFDF7B2FD41EC190B53ECD7
:102990001A2B51EC180BFDF7ADFD53EC1B2BFDF77B
:1029A000A9FD53EC192BFDF79FFD9DED000B41ECAC
:1029B000180B53EC1A2B51EC100BFDF79BFD9FED00
:1029C000249B53EC192BFDF792FD41EC100B51ECBD
:1029D000180B53EC102BFDF787FD53EC192BFDF76B
:1029E00086FD41EC100B002D3FF7C5AE51EC100BEE
:1029F00081F0004141EC100BBDE60000000000003A
:102A00000000F03F00000000075C143326A6913C54
:102A1000182D4454FB21F93F0000F07F0000E03FF7
:102A2000000000000000F03FB0560000BE5600005D
:102A3000000000000000E03F0256000010560000B9
:102A40003333EF3F000000000000000000000040B2
:102A5000182D4454FB21E93F70B59B482DED020B26
:102A60002DED068B079D25F00044A04218DC974809
:102A7000844202DC0AD1069840B19DED060BBDEC04
:102A8000068B02B0BDE8704000F0C6BA002DCCBF86
:102A90009FED8F0B9FED900BBDEC068B02B070BDD0
:102AA0008F48A04215DD8F48A042D8BF4FF0FF34B9
:102AB00058DD9DED060B51EC100BFFF7F3FD0428DC
:102AC00008BF00F0CDFA9DED060BBDEC068B02B001
:102AD00070BD9DED060B51EC100B01F049FCCDE9EA
:102AE000060181489FED828BA0423CDD8248A042D6
:102AF0001FDD00249FED82AB9DED060B53EC1A2BDE
:102B000051EC100BFDF74FFC9DED060B41EC190B42
:102B100053EC1A2B51EC100BFDF7ECFC53EC182B7B
:102B2000FDF7E2FC53EC192BFDF756FDCDE906014C
:102B300049E09DED060B012453EC182B51EC100BD2
:102B4000FDF731FC9DED060B41EC190B53EC182BF6
:102B500051EC100BFDF7C8FC53EC192BFDF73CFDB5
:102B6000CDE906012FE06848A0421FDD02249FED59
:102B7000689B9DED060B53EC192B51EC100BFDF7E8
:102B8000B9FC53EC182BFDF70EFC9DED060B41EC48
:102B9000180B53EC192B51EC100BFDF7A5FC53EC63
:102BA000182BFDF719FDCDE906010CE09DED060B94
:102BB000032453EC102B9FED580B51EC100BFDF739
:102BC0000BFDCDE906019DED060B53EC102B51ECEE
:102BD000100BFDF78FFC41EC180B53EC182BFDF795
:102BE00089FC41EC190B4E480621B0EE490AF0EE83
:102BF000690A784400F094F953EC182B51EC100B4F
:102C0000FDF778FC41EC180B4648B0EE490AF0EEAF
:102C1000690A0521784400F083F953EC192B51EC33
:102C2000100BFDF767FC41EC100B51EC180B53EC4B
:102C3000102B002C0EDAFDF7B6FB9DED061B53ECB6
:102C4000112BFDF757FC9DED061B53EC112BFDF7E7
:102C50004EFC35E0FDF7A7FB9DED061B53EC112B59
:102C6000FDF748FC41EC100B2F48784400EBC40002
:102C700090ED001B51EC100B53EC112BFDF734FCC5
:102C80009DED061B53EC112BFDF72EFC41EC100BB8
:102C90002648784400EBC40090ED001B51EC100B6B
:102CA00053EC112BFDF723FC41EC100B002DA2BFC0
:102CB000BDEC068B02B070BD51EC100B81F00041F1
:102CC00041EC100B01E70000000010440000F07F11
:102CD000182D4454FB21F93F182D4454FB21F9BF12
:102CE0000000DC3F0000203E0000F33F0000000039
:102CF000000000000000F03F0000E63F0000000080
:102D000000000000000000400080034000000000C0
:102D1000000000000000F83F000000000000F0BFCD
:102D20005253000008530000925200004A52000023
:102D300070B56B4E2DED040B2DED028B82B0DDF8DE
:102D40001CC0DDE905235C422CF000411C4341EA34
:102D5000D474049D22F00040B44205D86C422C4348
:102D600040EAD474B4420BD99DED061B9DED040BD3
:102D700002B0BDEC028B04B0BDE8704000F056B963
:102D8000ACF14054A4F17F641C430BD0022404EA4C
:102D9000AC7444EAD27405439FED538B9FED542BE2
:102DA00007D015E09DED040B51EC100B00F020FE58
:102DB00042E0002C11BF012C9DED040B02B0BDECD4
:102DC000028B04BF04B070BD022C38D0032C3BD062
:102DD0000B439FED491B9FED4A0B0AD0B14218D11E
:102DE000B04209D121F0804120F080400791059048
:102DF0000FE0002A15DA10E0434B7B44002C08BF9B
:102E000093ED000B0DD0012C10D0022C17D0032C09
:102E10001AD0B0421DD1002A03DAB0EE410AF0EE1A
:102E2000610A02B0BDEC028B04B070BD93ED000BE3
:102E300051EC100B81F0004141EC100BF1E7B0EECA
:102E4000480AF0EE680AECE7B0EE420AF0EE620AD9
:102E5000E7E7401A00153C28C8BF8DED000B19DCD0
:102E6000BCF1000FBEBF10F13C0F9FED290B8DEDA3
:102E7000000B0FDB9DED060B53EC102B9DED040BAF
:102E800051EC100BFDF7A8FB01F072FA00F0B0FD59
:102E9000CDE90001002C08BF9DED000BC1D0012C35
:102EA00010D0022C9FED1C0B53EC102B9DED000B52
:102EB00051EC100B0DD0FDF717FB53EC182BFDF761
:102EC00013FBB9E7019880F0004001909DED000BE5
:102ED000A7E7FDF709FB53EC182BFDF708FBABE761
:102EE0000000F07F00000000182D4454FB21094031
:102EF000182D4454FB2109C0182D4454FB21F9BF5F
:102F0000182D4454FB21F93F7A51000000000000C5
:102F10000000000000000000075C143326A6A13C5E
:102F200070B504462DED028B4D1E00EBC500B0EED2
:102F3000408AF0EE608A90ED000B35F0060017D065
:102F400053EC182B51EC100BFDF7D4FA41EC100B9D
:102F50006D1E04EBC50090ED001B51EC100B53EC03
:102F6000112BFDF720FA41EC100B35F00600E7D1EC
:102F7000022D36D0042D1CD0062D1CBFBDEC028BBB
:102F800070BD53EC182B51EC100BFDF7B3FA94ED18
:102F90000A1B53EC112BFDF706FA53EC182BFDF727
:102FA000A9FA94ED081B53EC112BFDF7FCF941EC49
:102FB000100B53EC182B51EC100BFDF79BFA94ED12
:102FC000061B53EC112BFDF7EEF953EC182BFDF714
:102FD00091FA94ED040B53EC102BFDF7E4F941EC5E
:102FE000100B53EC182B51EC100BFDF783FA94EDFA
:102FF000021B53EC112BFDF7D6F953EC182BFDF700
:1030000079FA94ED001B53EC112BFDF7CCF9BDECD4
:10301000028B41EC100B70BD10B553EC102B51EC32
:10302000100BFDF7C0F941EC100B10BD10B553ECBF
:10303000112B51EC100BFDF7B6F941EC100B10BD44
:103040009FED050B10B553EC102B51EC100BFDF759
:10305000C3FA41EC100B10BD00000000000000009E
:103060009FED050B10B553EC102B51EC100BFDF739
:1030700041FA41EC100B10BD0000000000000010F0
:1030800002E008C8121F08C1002AFAD17047704731
:10309000002001E001C1121F002AFBD1704700008F
:1030A0000149086070470000E00000202DE9FF5F43
:1030B00082B00021DDE90430020DDDF840B00343A9
:1030C00018D044F61050A2F2FF3242431514119862
:1030D00001281FD0A5EB0B00401C5FEA000A4FF04F
:1030E00000064E4FDFF83891B046504615D5CAF16C
:1030F000000413E0119801244AA3012801D16FEACA
:103100000B010298119AC0E90031C0E9024206B0F1
:10311000BDE8F09FCBF10000DFE704460021404A04
:10312000491842EB0450CDE9001012E0E00707D047
:1031300032463B4640464946FDF7DCF98046894623
:1031400032463B4610461946FDF7D4F906460F466F
:103150006410002CEAD1DDE90401DDE90023BAF1B5
:10316000000F06DAFDF7C6F942464B46FDF7C2F9F5
:1031700005E0FDF731FA42464B46FDF72DFA0446CD
:103180000E460022284BFDF7C9FB03D84FF0FF3055
:10319000014607E00022254B20463146FDF703F9A2
:1031A000FDF7A4FB102409E0002C0ADB0A2200230F
:1031B000FDF766F8039B30321A55641E50EA01028F
:1031C000F2D1641C039AC4F111031444119A012A28
:1031D00003D0012208430DD10AE0084304D00020A7
:1031E0004FF0110B119072E7A3EB0B056D1E0DE074
:1031F0005B4504DD4FF0000205F1010504E003DA50
:103200004FF00002A5F10105002AECD002981199B7
:10321000C0E90231C0E9004579E700000000144030
:103220000000F03F300000000000F0430000E03FED
:103230002DE9FF4F95B09B468946064600250FE2D3
:10324000252877D100242746F84A0121059400E07B
:10325000044316F8013F203B01FA03F01042F7D176
:1032600030782A2811D06FF02F033078A0F1300287
:10327000092A16D8059A44F0020402EB820203EBF5
:1032800042021044761C0590EFE759F8042B059292
:10329000002A03DA504244F40054059044F002043A
:1032A000761C30782E2816D116F8010F44F004044D
:1032B0002A280DD06FF02F023078A0F13003092BAF
:1032C00009D807EB870302EB4303C718761CF3E723
:1032D00059F8047B761C30786C280FD006DC4C281B
:1032E00017D068280DD06A2814D104E0742810D0B3
:1032F0007A280FD10DE044F400140AE044F480145D
:1033000001E044F440147278824202D104F5801442
:10331000761C761C307866280BD013DC582877D0C2
:1033200009DC002875D04528F6D04628F4D0472877
:103330001AD19DE118E0632835D0642879D065283A
:1033400012D195E1702873D008DC6728F1D0692884
:103350006FD06E280DD06F2806D1B5E073282CD021
:10336000752875D0782874D05A46179990476D1CE7
:1033700075E1C4F30250022809D003280DD0D9F812
:10338000001004280DD00D6009F1040967E1D9F897
:103390000010EA17C1E90052F6E7D9F800100D80D5
:1033A000F2E70D70F0E719F8041B8DF8001000200B
:1033B0008DF80100EA46012003E059F804AB4FF014
:1033C000FF3061074FF0000102D40DE008F1010168
:1033D0008846B9420FDA8045F8DB1AF80810002950
:1033E000F4D108E008F1010188468142FADB1AF8BD
:1033F00008100029F6D105985B46A0EB0807214686
:103400003846179A00F094FA284400EB080507E0C4
:103410004DE029E10DE01AF8010B5A461799904743
:10342000B8F10108F7D25B4621463846179A13E1F6
:1034300042E00A220092C4F302524FF0000A022A2C
:1034400008D059F804CB032A4FEAEC710AD00DE0FA
:1034500029E02AE009F1070121F00702F2E802C1A0
:10346000914609E00FFA8CFC4FEAEC71042A03D173
:103470004FFA8CFC4FEAEC71002907DA0A4600216A
:10348000DCF1000C61EB02012D2202E0220504D5E3
:103490002B228DF80420012203E0E20701D0202234
:1034A000F7E7904659E00A2102E010220DE01021D2
:1034B0004FF0000A00910BE010224FF0000A44F098
:1034C00004040827009203E008224FF0000A00924B
:1034D000C4F30252022A05D059F804CB0021032A72
:1034E00008D009E009F1070121F00702F2E802C162
:1034F000914605E01FFA8CFC042A01D10CF0FF0C68
:103500004FF00008220728D5702806D0009B83F0D2
:10351000100353EA0A0305D00EE040228DF8042080
:10352000012208E05CEA010206D030228DF8042076
:103530008DF8050002229046009B83F0080353EAB1
:103540000A030AD15CEA010201D1620705D53022E3
:103550008DF804204FF001087F1E582804D034A0B5
:1035600003900EA802900DE036A0F9E7534660469E
:10357000009AFCF785FE84460398825C0298401E00
:10358000029002705CEA0100F0D1029806A9081AC4
:1035900000F1200A600702D524F4803400E00127FE
:1035A000574502DDA7EB0A0000E0002000EB0A010E
:1035B000009005984144401A0590E00306D45B460C
:1035C0002146179A059800F0B3F90544002706E054
:1035D00001A85A46C05D179990476D1C7F1C47454E
:1035E000F6DBE0030CD55B462146179A059800F000
:1035F0009FF9054404E030205A46179990476D1C06
:103600000099481E00900029F5DC08E00298029914
:103610005A460078491C0291179990476D1CBAF1DF
:103620000001AAF1010AF1DC65E1000009280100AE
:103630003031323334353637383961626364656628
:1036400000000000303132333435363738394142EA
:10365000434445460000000000F058F90544761C3C
:10366000307800287FF4ECAD19B02846BDE8F08F23
:10367000620700D4062709F1070222F0070CFCE8D4
:103680000223E14603F000485FEA080C02D00FF283
:10369000702C0DE05FEA045C02D50FF2682C07E0A5
:1036A0005FEAC47C02D00FF2602C01E0AFF2700C34
:1036B0004FF0FF3823F00043CDF850C065280CD000
:1036C00006DC452809D046281DD047283DD13DE0DD
:1036D000662818D067287ED138E00021112F01DB41
:1036E000112000E0781CCDE9000106A90EA8FFF723
:1036F000DDFCDDE90F010E9A03910021009207F134
:10370000010A04914DE04FF000400097CDE901100F
:1037100006A90EA8FFF7CAFCDDE90F0203920E9B73
:1037200011990022DDF80CA00093049211B9791CC4
:1037300000EB010AB7EB0A0004D4C0F1FF3007F137
:10374000010A0490AAEB0700019044E0012F00DA7F
:1037500001270021112F01DD112000E03846CDE9BD
:10376000000106A90EA8FFF7A1FCDDE90F010E9AE2
:103770000391002104910092BA4621070CD40399C9
:10378000514500DA8A46BAF1010F05DD009AAAF127
:103790000101515C302908D0B84202DA10F1040F5F
:1037A00006DA0121CDE9011015E0AAF10101E9E7EE
:1037B000002805DC049901440491AAEB000102E011
:1037C000411C514500DD8A460499401A401C019075
:1037D0004FF000400290200704D40198504501DBCF
:1037E000CDF8048000208DF84F0002980DF14F07AE
:1037F000B0F1004F25D02B200E9002984FF0020818
:1038000000280CDA404202902D200E9007E00A2199
:103810000298FCF790FF3031029007F8011DB8F1D3
:103820000001A8F10108F2DC02980028EFD1791E0E
:103830000E980870307800F0200040F0450007F83E
:10384000020D12A8C01B00F107081498007800B1FF
:10385000012000EB0A01019801EBE0710598414459
:10386000401A401E0590E00306D45B462146179A95
:10387000059800F05DF805441498007818B15A4690
:10388000179990476D1CE00324D55B462146179A93
:10389000059800F04DF805441CE00498002807DB6B
:1038A000DDE90301884203DD0098405C179901E0DF
:1038B000179930205A469047049805F10105401C9D
:1038C00004900198401E019004D12E205A46179969
:1038D00090476D1CBAF10001AAF1010ADDDC05E098
:1038E00017F8010B5A46179990476D1CB8F1000163
:1038F000A8F10108F4DC5B462146179A0598ABE66F
:103900002D0000002B000000200000002DE9F041F8
:10391000044600251E461746880404D405E03946AF
:103920002020B0476D1C641EF9D52846BDE8F08103
:103930002DE9F041044600251E469046C80301D5F6
:10394000302700E02027880404D505E041463846AA
:10395000B0476D1C641EF9D52846BDE8F081000013
:10396000FEB506460D460024684600F01BFD002209
:103970009FED1B1A6B46012156F8227055F8220064
:10398000381A00D5404200EE100A03EB8200B8EE70
:10399000C00AD0ED000A20EE010AF5EEC00AF1EEF1
:1039A00010FA0DD0C0EE201AB7EE000A0D4F31EE1E
:1039B000C00AB0EEC00A10EE100AB84207DC09E0F7
:1039C00010EE100A084F3844084FB84202D301FAEB
:1039D00002F00443521C032ACEDB2046FEBD000049
:1039E00000008037295C0F3E666666C19A99D9004F
:1039F00010B541EC100BFFF72FF851EC100B10BD78
:103A000008B560B120208DF8000028208DF8010055
:103A100030208DF8020038208DF8030004E0A32246
:103A200004216846FCF7A0FC6A46042140F69E206B
:103A300001F044FF01F002FC08BD00003EB5044661
:103A400002208DF80000CA208DF80100E3208DF8D7
:103A5000020009208DF803006A460421682001F065
:103A60002DFFA3208DF80000610609D5C0218DF837
:103A70000110C8218DF80210C2218DF8031005E055
:103A80008DF801008DF802008DF8030014F4C07F5A
:103A900009D0C4218DF80410CC218DF80510C62161
:103AA0008DF8061005E08DF804008DF805008DF8FE
:103AB00006008DF808008DF807008DF809006A46A9
:103AC0000A2140F6A72001F0F9FEA0074FF0D80523
:103AD00003D020208DF8000001E08DF800506A46E8
:103AE000012140F6B62001F0E9FEA00601D5012033
:103AF00000E0002000F08EF814F4C07F1ED0E00536
:103B00000AD5B2208DF800008B208DF80100B62078
:103B10008DF802009B2009E0B0208DF80000802085
:103B20008DF80100B4208DF8020090208DF803007C
:103B30006A46042140F6A22001F0C0FEE1074FF4DE
:103B40000B6022D0F8218DF800106A46012101F0A7
:103B5000B5FEFA21072000F03BFB072000F006FB32
:103B6000012000F023FB642000F0E2FB4FF4FA7028
:103B700000F0EEFBC821254800F0C0FA282000F034
:103B8000D5FA0A2000F0E2FA05E08DF800506A4606
:103B9000012101F093FEA00703D5D9208DF8000084
:103BA00001E08DF800506A46012140F23D7001F0BD
:103BB00085FE600701D5012000E0002000F048F8F4
:103BC000E00601D5012000E00020FFF719FF104DAD
:103BD00044F00800688101F031FB0020A873600602
:103BE00001D50620A87314F4C07F02D0A87B801DE5
:103BF000A87314F0140F02D0A87B1030A873A0078C
:103C000002D0A87B001DA87300203EBD09E3CA02B4
:103C1000F84B00200EB54FF4976310B106A107C909
:103C200001E008A207CA8DE807006A460921184684
:103C300001F044FE0EBD0000B8AAB38DB4980D3556
:103C40005D000000B8AAAAAAB088C3C5C7000000DA
:103C500008B560B1C0208DF80000C2208DF80100C9
:103C6000C4208DF80200C6208DF8030004E08B22EA
:103C700004216846FCF778FB6A46042140F6982048
:103C800001F01CFE01F0DAFA08BD0000C8234FF471
:103C90008062024940F6F63001F0B2B9987200082D
:103CA0002DE9FF4F89B01746DDE9165200244D4E2D
:103CB000884681462C80A246B07B694601F04CFACA
:103CC0004FF0FF3B18B158460DB0BDE8F08F70893A
:103CD00010F0140F3ED0009909BA21F0FF029DF8B0
:103CE00003100A433A6001999DF8073009BA21F0A0
:103CF000FF0119437960029B9DF80B401BBA23F02A
:103D0000FF032343BB60039C121424BA24F0FF0C6E
:103D10009DF80F4009144CEA040C1024C7F80CC09D
:103D20001B144FEA2C4712FB02F211FB012113FB7B
:103D300003F217FB07221144A1F17061B1F1007F7A
:103D400004D901F07BFAA5F800A0BCE7298841F46A
:103D5000807129804206694611D50A19A41D13886D
:103D60005BBAA8F8003053885BBAA8F80230928892
:103D700052BAA8F804202A8842F008022A8010F4D7
:103D8000C07F11D00A19A41D13885BBAA9F80030AE
:103D900053885BBAA9F80230928852BAA9F8042075
:103DA0002A8842F070022A80800716D00C44E078FE
:103DB00000F0C00500F03F016078C00706D0C808D9
:103DC00001F007013268491C02B190476078000792
:103DD00003D5716809B1A80988470C9800F074FEF2
:103DE000002071E7F84B00202DE9FF41044603A8AD
:103DF00000F0B6FFBDF80C00410CC3032F48028948
:103E000002F00300550754F8200000D54042C2F3E9
:103E1000C105960654F8255000D56D42C2F38116AF
:103E2000D20554F8264000D56442A0FB0367C217B0
:103E300002FB037200FB0120820042EA9670A5FBA0
:103E40000367EA1702FB037205FB0122950045EAAE
:103E50009672A4FB0367E51705FB037304FB0131AE
:103E60008B0043EA9671030E8DF80030030C8DF839
:103E70000130030A8DF802308DF80300100E8DF822
:103E80000400100C8DF80500100A8DF80600080ECD
:103E90008DF80800080C8DF80900080A8DF80A0052
:103EA0008DF807208DF80B106A460C214FF4257011
:103EB00001F004FD04B0BDE8F0810000F84B0020E3
:103EC00030B5044613A285B007CA8DE807004FF04D
:103ED000FF35C82C16D8C820B0FBF4F1491E080ADB
:103EE0008DF80C008DF80D1003AA022140F2162067
:103EF00001F0E4FC30B96A460C2140F6C12001F023
:103F0000DDFC10B1284605B030BD05488481002095
:103F1000F9E70000FEF2ABC4AAF1DFDFBBAFDFDFE1
:103F2000F84B0020F8B53049098901F0030250F838
:103F300022404A0700D56442C1F3C1028B0650F803
:103F4000222000D55242C1F3811350F82330C80516
:103F500000D55B42254984FB0140850045EA947009
:103F600082FB0142A40F44EA820483FB0121950FE6
:103F700045EA8105010E8DF80010010C8DF8011045
:103F8000010A8DF802108DF803006A4604214FF4EF
:103F9000747001F093FC4FF0FF3688B9200E8DF855
:103FA0000000200C8DF80100200A8DF802008DF829
:103FB00003406A4604214FF4757001F07FFC08B19C
:103FC0003046F8BD280E8DF80000280C8DF8010051
:103FD000280A8DF802008DF803506A4604214FF438
:103FE000767001F06BFCF8BDF84B002009E3CA02C3
:103FF0002DE9FF4104463CA004F003030068029051
:104000003AA0006803903AA006683AA0056802A8A2
:10401000C15C8DF80010C4F3C101425C8DF8012031
:10402000C4F38112805C8DF8020003A8C35C8DF894
:104030000430415C8DF80510805C8DF806006A46FE
:10404000032140F2264001F039FC4FF0FF37E0BB7E
:1040500001AA032140F22A4001F030FCA8BBCDE9BF
:10406000006560070BD59DF8000040F001008DF859
:1040700000009DF8040040F001008DF80400A00647
:104080000BD59DF8010040F001008DF801009DF86E
:10409000050040F001008DF80500E0050BD59DF806
:1040A000020040F001008DF802009DF8060040F08B
:1040B00001008DF806006A4603214FF4886001F084
:1040C000FDFB10B901AA032100E004E040F23140F9
:1040D00001F0F4FB18B1384604B0BDE8F0810648A1
:1040E00004810020F8E700004CCD6C000CC92C00C6
:1040F0003656760026466600F84B00204FF47A725A
:1041000090FBF2F008B54843010E8DF80010010C49
:104110008DF80110010A8DF802108DF803006A462F
:1041200004214FF4AE7001F0C9FB08BD0521B0FBBE
:10413000F1F008B5010A8DF800108DF801006A460B
:1041400002214FF4AD7001F0B9FB08BD0521B0FBB1
:10415000F1F008B5010A8DF800108DF801006A46EB
:1041600002214FF4AC7001F0A9FB08BD08B5002195
:104170008DF80010C10702D030218DF800108107A2
:1041800005D59DF8001041F00C018DF80010400796
:1041900005D59DF8000040F003008DF800006A4648
:1041A00001214FF4A47001F089FB08BD08B560B18E
:1041B000042800D90420401E8DF800006A46012121
:1041C00040F24F1001F07AFB08BD0120F3E7000038
:1041D00070B504462DED028B82B040074FF0FF35DD
:1041E0007ED0B1F5C86F7BD800EE101AB8EE400A49
:1041F000DFED460A01A880EE208A00F093FD9DF8CD
:104200000400022806D0042810D0082835D0102831
:1042100074D13EE09FED3E0A28EE000ABCEEC00AD3
:1042200010EE100A9FED3B0A82B20AE09FED3A0AB7
:1042300028EE000ABCEEC00A10EE100A9FED370A05
:1042400082B228EE000A6E46BCEEC00A10EE100ADA
:1042500081B2100A8DF800008DF80120080A8DF84F
:1042600002008DF80310E00726D0324602214FF4F9
:10427000EA7001F023FB98BB17E09FED290A28EEB6
:10428000000ABCEEC00A10EE100A9FED260A82B2A8
:10429000D7E79FED250A28EE000ABCEEC00A10EE13
:1042A000100A9FED220A82B2CBE7B21C02214FF422
:1042B000927001F003FB98B9A0070DD56A46022160
:1042C0004FF4EC7001F0FAFA50B9B21C02214FF42D
:1042D000947001F0F3FA18B9600714D56A4600E04B
:1042E0000CE002214FF4EE7001F0E8FA30B9B21C94
:1042F00002214FF4967001F0E1FA20B1284602B095
:10430000BDEC028B70BD0020F9E7000000004843BF
:104310000000804600004046000000460000C04506
:104320000000804500004045000000450000C044FA
:104330000521B0FBF1F008B5010A8DF800108DF8E9
:1043400001006A4602214FF4EF7001F0B7FA08BD90
:104350000521B0FBF1F008B5010A8DF800108DF8C9
:1043600001006A4602214FF4ED7001F0A7FA08BD82
:1043700082B0CDE9000121F0004001909DED000BDD
:1043800002B051EC100B704705490968C90105D509
:104390004FF060410A68002AFCD0087070470000A6
:1043A000FCED00E01FB50446274802AB042240683C
:1043B0000D210078FDF738FC10B1072004B010BDC6
:1043C0009DF808101C2000EAD1029DF80B10DFEDCB
:1043D0001F0AC1F301131A438DF800209DF809202C
:1043E000C1F3810300EAD2021A438DF801209DF83F
:1043F0000A2001F0030100EAD20008439FED141ADD
:104400009FED140A8DF8020000216A46505C0028D6
:1044100004EB810002D080ED001A09E0C0ED000A33
:104420000CE000BFD0ED001A61EE801AC0ED001A5A
:10443000535C5B1E13F0FF035354F3D1491CC9B204
:104440000329E3D30020B9E7A80000200000000002
:104450007B14AE3E1D5A843F2DE9FE4F05460120D8
:10446000C14E8DF800004FF000088DF801803068D3
:104470000C461746817C70686B4602220078FDF777
:1044800009FC4FF0FF3A00287AD1C820FCF7CAFB9C
:104490008DF8008030686B460122C17B706800781F
:1044A000FDF7F8FB0028EFD130686B460122417917
:1044B00070680078FDF7EEFB0028E5D130686B46A8
:1044C0000122817C70680078FDF7E4FB0028DBD1D5
:1044D00030686B460122C17D70680078FDF7DAFB19
:1044E0000028D1D130686B460122017970680078CC
:1044F000FDF7D0FB0028C7D14FF00C098DF80090D4
:1045000030686B460122017970680078FDF7C2FBC4
:10451000002835D10F20FCF785FBB06A6B460122DD
:10452000407A8DF800003068817870680078FDF777
:10453000B1FB002824D1B06A6B460122007A8DF8C5
:1045400000003068417870680078FDF7A3FB002810
:1045500073D1B06A807A0FB140F0E0008DF80000AE
:1045600030686B460122817970680078FDF792FB14
:10457000002862D12FB1B06AC07A40F0E00001E0BB
:104580004AE018208DF8000030686B460122C1799E
:1045900070680078FDF77EFBF0BB17B1C820FCF710
:1045A00041FB40208DF8000030686B460122017904
:1045B00070680078FDF76EFB70BB78208DF8000006
:1045C00030686B460122417970680078FDF762FB24
:1045D00010BB3220FCF726FB8DF800803068474680
:1045E0006B464179706801220078FDF753FB98B95A
:1045F00031687068B046897A00786B460222FDF710
:1046000013FB48B9BDF80000AF6040BAB0FBF9F049
:104610006F60C6B22F6000E00FE0A76067602760A0
:10462000002739E0D8F80010D8F804006B46C97AA2
:1046300000780C22FDF7F8FA10B15046BDE8FE8F65
:10464000BDF80000236840BA02B2BDF80200BDF810
:1046500004101A44226040BA626800B210446060DC
:1046600049BAA06809B20844A060BDF806002B68EA
:1046700040BA02B2BDF808001A4440BA01B2BDF80F
:104680000A002A606A6840BA11446960A96800B2E9
:1046900008447F1CFFB2A860B742C3D328688322B6
:1046A000C117090441EA104100040023FBF719FE79
:1046B00032460023FBF715FE286068688322C11785
:1046C000090441EA104100040023FBF70AFE3246C8
:1046D0000023FBF706FE6860A8688322C11709045F
:1046E00041EA104100040023FBF7FBFD32460023A2
:1046F000FBF7F7FDA86020684FF40065C1170904B7
:1047000041EA104100042A460023FBF7EAFD324645
:104710000023FBF7E6FD206060682A46C117090404
:1047200041EA104100040023FBF7DBFD3246002381
:10473000FBF7D7FD6060A0682A46C117090441EA6B
:10474000104100040023FBF7CCFD32460023FBF7A9
:10475000C8FDA060002802DDA0F5803001E000F572
:104760008030A060002069E7A8000020F8B5064668
:104770002E480D46002440686B46032200780D2128
:10478000FDF752FA08B10720F8BD9DF8000000229D
:1047900000F01F008DF800009DF801009FED241A25
:1047A00000F01F008DF801009DF802006B4600F03C
:1047B0001F008DF80200012156F8220055F82270E2
:1047C000C01B00D5404200EE100A985CB8EEC00A4B
:1047D00060EE010AD0B1B3EE090ADFED161A01E06E
:1047E00020EE210AC0B2401E10F0FF009854F7D10D
:1047F000C0EE801AB7EE000A0F4F31EEC00AB0EEDD
:10480000C00A10EE100AB84207DC09E010EE900A68
:104810000A4F3844B0F1D97F02D901FA02F00443BB
:10482000521C032AC8DB2046F8BD0000A800002067
:104830000000803754E3853F295C0F3E0000E0BE56
:1048400010B5094C4FF40000206000F00FF8402034
:10485000206000F00BF84FF48000206000F006F8B4
:104860008020206010BD0000180402400020401C81
:10487000C0B2A828FBD3704770B5074C80252560CF
:10488000FFF7F4FF40202060FFF7F0FFE80320600F
:10489000FFF7ECFF256070BD180402402DE9F047DA
:1048A00000240F4E4027DFF83880254608364FF4A5
:1048B00080096006040E3760FFF7D8FFD8F80000C3
:1048C000000601D5641CE4B2C6F80090FFF7CEFFE5
:1048D0006D1CEDB2082DECD32046BDE8F08700003A
:1048E000100402402DE9F0470025124C06464FF413
:1048F000000A4FF040084FF480098027300601D5A8
:10490000276001E0C4F800A0FFF7B0FFC4F8008002
:10491000FFF7ACFFC4F80090072D00D127607006A8
:10492000060EFFF7A3FF6D1CEDB2082DE6D3BDE820
:10493000F08700001804024010B5094C8020206068
:1049400040202060FFF792FF4FF400002060FFF747
:104950008DFF4FF480002060BDE81040FFF786BF58
:104960001804024010B5074C4FF4000020604020AE
:104970002060FFF77BFF80202060BDE81040FFF73C
:1049800075BF00001804024070B50B4D80202860F0
:1049900040202860FFF76AFF0748083800680006D3
:1049A00001D5012400E000244FF480002860FFF7C7
:1049B0005DFF204670BD00001804024000B50246AD
:1049C00000F00DF80346D01C00F009F843EAC003DC
:1049D000901D00F004F843EA801080B200BD90F909
:1049E0000010002902DD4FF00000704702DA4FF09E
:1049F0000400704790F90110002902DD4FF001001A
:104A0000704702DA4FF00500704790F90200002865
:104A100002DD4FF00200704702DA4FF006007047E7
:104A20004FF007007047000092B0FCF7F9F9FDF76E
:104A300079FCFDF753F91F481D494FF6FF720160DD
:104A4000A72141600021C0E902120161802181613A
:104A5000FCF76BFDFDF7DAF9FDF708FAFDF734FA1C
:104A6000FDF760FAFDF78CFAFDF7DEFAFDF7A2F923
:104A7000FBF7D0FF00F066FF24220F496846FBF7E2
:104A800061FC6A4600210D4800F098FF0C4C0A4971
:104A900024222060243109A8FBF754FC09AA002134
:104AA000084800F08BFF606000F068FFFEE7000040
:104AB00000200040A4020020E8710008DF21000867
:104AC00000000020E9210008704700002DE9F041B6
:104AD000124C20F00101002594F8240010B10020B0
:104AE000BDE8F081A07A4FF0FF3668B10840277C1E
:104AF0002074884200D0354641B1012001F018FCF5
:104B000000F09CFB38B127743046E9E7207D00B106
:104B1000012001F00DFC2846E2E70000A80000207B
:104B200070B50D462DED0C8B8EB006460CA902A873
:104B30001446F7EE00BACDE900010BAB03AA09A9B0
:104B400007A8FFF7ADF820B101200EB0BDEC0C8B2B
:104B500070BDBDF80800C0057ED59DED030AF8EED6
:104B6000C00A9FED450AB0EE00CA60EE809ADDED06
:104B7000040AF8EEE00A69EE8CCA20EE808ADDEDC8
:104B8000050AF8EEE00A60EE808ADDED060AF8EE2E
:104B9000E00A20EE809AB8EE000A28EE00BA2BEE6A
:104BA000090A0CEEA80A10EE100AFBF795FD41EC7D
:104BB000100BFDF7A1FD9FED31AB51EC100B53EC49
:104BC0001A2BFBF797FCFBF79AFD2BEE080A28EE51
:104BD0008CDA30600DEE680A30EE2B0A10EE100A07
:104BE000FBF77AFD2DEE090A41EC1B0B0CEE880A4F
:104BF00010EE100AFBF770FD41EC100BB0EE4B1AF3
:104C0000F0EE6B1AFEF794F853EC1A2B51EC100BE4
:104C1000FBF770FCFBF773FD29EEA90A286008EE8C
:104C2000080A08EEE80A09EE490A10EE100AFBF736
:104C300053FD28EE280A41EC1B0B09EE890A20EEF1
:104C40000C0A10EE100AFBF747FD41EC100BB0EE1A
:104C50004B1AF0EE6B1A00E00CE0FEF769F853EC2B
:104C60001A2B51EC100BFBF745FCFBF748FD2060BD
:104C700000206AE7022068E700008030666666660A
:104C800066A64C4010B500F0F7F808B10A2010BD38
:104C9000782000F0B7FD10F0FF0F01D0012010BD0B
:104CA0007820FFF713FF10F0FF0F01D0022010BD96
:104CB000642000F067FD10F0FF0F01D0032010BD4D
:104CC000FEF7E4FF10F0FF0F01D0042010BD1448E0
:104CD000FFF774FEFFF78CF910F0FF0F01D00520ED
:104CE00010BD40F27310FEF7A9FE10F0FF0F01D0C7
:104CF000062010BD6420FFF7E3F810F0FF0F01D08D
:104D0000072010BD01F0D0FA08B1082010BD012025
:104D100000F05EFC10F0FF00F8D0092010BD00008C
:104D2000D40000200D494A7A42B1012A08D0022A53
:104D30000FD0032A0FD04FF0FF307047022200E05F
:104D400004220270C97C11B11106C90D0170002046
:104D500070470822F5E71022F3E70000A8000020C2
:104D60000F494A7A42B1012A09D0022A11D0032AF6
:104D700012D04FF0FF3070474FF4804201E041F60F
:104D80009C720280C97C11B1C2F34E0101800020E7
:104D900070474FF48052F4E74FF40062F1E70000EF
:104DA000A80000200B49097A39B1012907D002294E
:104DB0000AD003290BD0002103E0FA2101E04FF4CF
:104DC000FA710180002070474FF47A71F9E74FF4CF
:104DD000FA61F6E7A80000200D49097A41B10129DE
:104DE00009D002290DD003290ED04FF0FF307047B3
:104DF0009FED080A01E09FED080A80ED000A0020FF
:104E000070479FED060AF8E79FED050AF5E70000F9
:104E1000A800002000000343000083423333034214
:104E2000333383410C49C97A072913D2DFE801F0F3
:104E30001204060A0C0E1000BC2100E06221018061
:104E4000002070472A21FAE71421F8E70A21F6E743
:104E50000521F4E70021F2E7A8000020054991F8B8
:104E6000242012B14FF0FF307047C9890180002023
:104E700070470000A80000202DE9FC414C4C802028
:104E80008DF8000020686B460122817C6068007804
:104E9000FCF700FF4FF0FF37002832D16420FBF70A
:104EA000C1FE00258DF8005020686B460122817CF0
:104EB00060680078FCF7EEFE002870D120686B4631
:104EC0000622817D60680078FCF7AEFE002866D17E
:104ED0009DF805009DF80310C007400F01F0010187
:104EE00040EA41019DF801004FF0010600F0010089
:104EF000014309D0012905D0022915D02DA0FDF7C5
:104F0000C1FB4CE0E67410E020686B460122C178DA
:104F100060680078FCF788FE40BB9DF8000010F048
:104F20000F0020D0042822D0E574FF2004F80A0FD7
:104F30004FF6FF7104F8020C04F8010C6070A180B8
:104F4000A0712072A67026766576E572A572E5607E
:104F500025616561A576E576A5834FF4FA6000F0DA
:104F600073FB18B907E01D48FDF78CFB17E01CA088
:104F7000FDF788FBC6E7022000F088FA78B92A20FE
:104F800000F0CAFB58B9322000F0FCFB38B9002011
:104F9000FFF79CFD18B9002000F0ACFA10B13846BC
:104FA000BDE8FC81002000F02DFC0020F8E70000A7
:104FB000A8000020556E737570706F727465642060
:104FC000736F6674776172652070726F6475637455
:104FD000207265762025642E0A000000947F000868
:104FE00048616C662073656E73697469766974795B
:104FF000207061727420666F756E642E0A00000066
:105000002DE9FF4FDFF89480064685B098F825001B
:1050100015460F464FF0FF39B0BBAFB3002420E078
:10502000301B102800DD102080B283463A1901465B
:105030009246204600F042FC30BB6A465946204664
:1050400000F0D2F800BB50465A466946FBF79EF97D
:1050500020B16FF0010009B0BDE8F08F04EB0B0048
:1050600084B2B442DCD3280A8DF810008DF81150B8
:10507000D8F80000444604AB817ED8F80400022230
:105080000078FCF707FE08B14846E4E7012084F801
:1050900025000898E0840020DDE70000A80000203B
:1050A0002DE9F84305464FF0FF39282844D8072753
:1050B000284C00267DB1012000F0FCFA20208DF85C
:1050C00000004FF00108012D17D0052D18D88DF8DC
:1050D000018005201FE0002000F0ECFA8DF8006050
:1050E0008DF8017020686B460222817C6068007830
:1050F000FCF7D0FD00BB267529E08DF80160E8E7DC
:10510000142D04D802208DF801000A2003E00320AA
:105110008DF80100142000F0FFFA9DF801006B46A5
:1051200007EB80108DF8010020680222817C606806
:105130000078FCF7AFFD10B14846BDE8F8830820C1
:10514000A072267384F814800020FFF7BFFC0020B3
:10515000F3E70000A80000202DE9F843214C0646A3
:10516000174694F8240089464FF0FF3890B3A07A90
:1051700080B320686B460222817A60680078FCF771
:1051800053FD38BBBDF8000045BAB54202D200203D
:1051900038701FE060684188B5EB510F11D9216864
:1051A00000786B46497C0122FCF73EFD90B99DF8E2
:1051B0000000C00605D500F041F86FF00100BDE821
:1051C000F8832068F2B24B46C17A60680078FCF739
:1051D0002BFD08B14046F2E7B5FBF6F0401E3870F3
:1051E0000020ECE7A8000020F8B516000D464FF0AF
:1051F000FF371FD0104CA17AE1B1010A8DF80010E1
:10520000C0B28DF80100411960684289914211D8FD
:10521000216800786B46097E0222FCF73BFD48B905
:105220002068EAB23346417D60680078FCF7FCFCF8
:10523000002800D03846F8BDA8000020F8B5564C2C
:105240004FF0FF36A07A00287DD000258DF8005061
:1052500020686B460122C17B60680078FCF71AFD6C
:10526000002870D120686B4601224179606800787F
:10527000FCF710FD002866D120686B4601220179F9
:1052800060680078FCF706FD00285CD194F82400E3
:10529000E0B30C208DF8000020686B4601220179F4
:1052A00060680078FCF7F6FC002872D13220FBF72A
:1052B000B9FCC0208DF80000A07AC00702D0E02021
:1052C0008DF8000020686B46012201796068007843
:1052D000FCF7E0FC00285CD1607C18B102208DF85E
:1052E000000001E08DF8005020686B460122C17B70
:1052F00060680078FCF7CEFC28BB8DF80050206871
:105300006B4601224179606800783EE0FFE70420A7
:105310008DF8000020686B460122017960680078F2
:10532000FCF7B8FC78B9A07C90B9A07AC0070FD080
:105330005FF060008DF8000020686B460122017963
:105340006068007800E024E0FCF7A4FC08BB01E002
:105350004020EFE73220FBF765FC607C18B10120AC
:105360008DF8000001E08DF8005020686B460122A6
:10537000C17B60680078FCF78DFC50B92068064B53
:1053800001224179606810330078FCF783FC002823
:1053900000D03046F8BD0000A80000202DE9F047FD
:1053A000394C82468AB094F824000F4620B1002080
:1053B00000F00EF9012600E0002607A8FFF7F2FC36
:1053C00006A8FFF7AFFC09A8FFF72CFD08A8FFF718
:1053D00045FD94F80A9094F8108000250022394683
:1053E0005046FFF739F810B16D1C022DF6DB022D87
:1053F0001AD00025012203A96846FFF72DF810B145
:105400006D1C022DF6DB022D0ED003A93846FEF7E7
:10541000A7FAC7B269465046FFF7A8F910F0FF0F88
:105420004FF0000502D002E0002503E001250FB98E
:1054300045F00205FF2020726072E0724FF6FF71A6
:10544000E181A072207401202073BDF81C0000F0DF
:10545000FBF89DF8180000F019F8BDF8240000F0E2
:105460005BF9BDF8200000F08DF9484600F0CAF95C
:105470004046FFF72BFB16B1012000F0A9F80AB057
:105480002846BDE8F0870000A800002038B5184C79
:105490004FF0FF35A17A19B3022806D0042806D0B0
:1054A00008280ED010281BD10DE0002000E00820B5
:1054B0008DF80000607A9DF80010B0EBD10F04D099
:1054C00005E01020F4E71820F2E7002038BD20683E
:1054D0006B460122C17960680078FCF7DBFB08B1FC
:1054E000284638BD9DF80000C0086072EDE7000056
:1054F000A8000020F8B5354C0546A07CA84201D193
:105500000020F8BD31484FF0FF366B46D0E900105F
:105510004FF001020979007835B3FCF785FB70BBC9
:105520009DF800006B4620F020008DF800002068F8
:105530000122017960680078FCF7ACFBF8B9032020
:10554000FBF770FB02208DF8000094F8220078B37E
:1055500082202BE020686B460122017D6068007884
:10556000FCF798FB58B92EE0FCF75EFB38B9A07A3F
:10557000C0079DF8000003D040F0200002E00CE0DE
:1055800020F020008DF8000020686B460122017990
:1055900060680078FCF77EFB08B13046F8BD032058
:1055A000FBF740FB94F8220000B180208DF800004A
:1055B00094F823000028CDD09DF8000040F0300082
:1055C0008DF80000C6E7A5749AE70000A800002047
:1055D00038B51C4C94F8241081421DD0002500B32E
:1055E00094F82500D0B1002000F0A2FE0020FFF7C3
:1055F00081FFE08C00F0C6F88DF8005060686B46C3
:10560000012200782321FCF745FB012084F82400C7
:1056100000F08EFEFFF712FE002038BD4FF0FF3085
:1056200038BD002000F084FE207C8DF8000060680A
:105630006B46012200782321FCF72CFB84F82450D0
:10564000E8E70000A800002038B5194C4FF0FF35FE
:10565000A17A31B3FA2809D0B0F5FA7F08D0B0F5B5
:105660007A7F0FD0B0F5FA6F1BD10DE0002000E07B
:1056700008208DF80000207A9DF80010B0EBD10FC3
:1056800004D005E01020F4E71820F2E7002038BD30
:1056900020686B460122817960680078FCF7FAFA8D
:1056A00008B1284638BD9DF80000C0082072EDE71B
:1056B000A800002038B5174C054694F82300A842EE
:1056C00001D1002038BD0DB1302000E000208DF860
:1056D0000000A07C28B19DF8000040F002008DF889
:1056E000000094F8220028B19DF8000040F08000EE
:1056F0008DF8000020686B460122017D606800780B
:10570000FCF7C8FA10B14FF0FF3038BD84F82350D1
:10571000D7E70000A800002038B5194C4FF0FF353E
:10572000A17A31B3BC2801D3012010E0622801D353
:1057300002200CE02A2801D3032008E0142801D31A
:10574000042004E00A2801D3052000E006208DF89B
:105750000000E07A9DF80010884201D1002038BD99
:1057600020686B460122817860680078FCF792FA25
:1057700008B1284638BD9DF80000E072EEE7000051
:10578000A8000020F8B51E4D04464FF0FF37A87A58
:1057900048B395F8240030BB287D4FF47A7648B1A1
:1057A00064B1282C03D8E0B2FFF77AFC26E0002091
:1057B000FFF776FC042C05D2042406E00020FFF756
:1057C0006FFCF9E7B44200D93446B6FBF4F0401E52
:1057D0008DF8000028686B460122417868680078DF
:1057E000FCF758FA08B13846F8BD9DF80000401C97
:1057F000B6FBF0F0E8814008FFF78EFF0020F8BD0F
:10580000A8000020F8B5054610F0700F4FF0000614
:1058100001D0012004E015B18DF8006002E04020C5
:105820008DF80000244C6B4601222068817C606862
:105830000078FCF72FFA4FF0FF3760BB9DF80000AF
:1058400020F0400020738DF80060680602D4042028
:105850008DF80000A80605D49DF8000040F0020075
:105860008DF80000E80605D49DF8000040F0010026
:105870008DF80000280705D49DF8000040F038009E
:105880008DF8000020686B460122C17C60680078BA
:10589000FCF700FA10B1A6723846F8BD25B1082D04
:1058A00002D00020FFF706FFA57226753220FBF715
:1058B000B9F90020F8BD0000A8000020F8B51600D6
:1058C0000D464FF0FF371FD0104CA17AE1B1010A0D
:1058D0008DF80010C0B28DF801004119606842894E
:1058E000914211D8216800786B46097E0222FCF7AC
:1058F000D1F948B92068EAB23346417D6068007842
:10590000FCF7C8F9002800D03846F8BDA8000020F0
:1059100010B5EFF3058149B9EFF3108131B90849AA
:105920000968022905D1EFF3118111B16FF0050467
:1059300003E0002408B100F08DFE204610BD0000F9
:1059400068000020EFF3058058B9EFF3108040B9EC
:1059500009490868022801D030B109E0EFF311804D
:1059600030B16FF0050070470120086000207047DB
:105970004FF0FF30704700006800002010B5EFF3D3
:10598000058060B9EFF3108048B90B490868022818
:1059900002D0012806D00BE0EFF3118040B16FF088
:1059A000050010BD0220086000F0BCFE002010BD04
:1059B0004FF0FF3010BD000068000020F0B585B04A
:1059C0004FEA01034FF00004EFF305810394A1BBFC
:1059D000EFF3108189BB21490968022902D1EFF355
:1059E000118151BB48B3802618218DF8104004ADB9
:1059F00042B3176807B13D4697691FB139467F1E0C
:105A0000382F02D21779FF0702D0002005B0F0BD71
:105A1000576907B1BE08D2F808C0BCF1000F0DD01D
:105A2000D4685C2C18D312693AB137B18DE80610EE
:105A30003246294601F0F7F903900DE0D7685FB9C7
:105A400012694AB903AACDE90012B2B2294601F09F
:105A5000BDF9012800D003940398D7E7680000201F
:105A60002DE9F041134C0F46054666692068001D7C
:105A700000F0C1FC681C07D137B12168BDE8F041D6
:105A80000D48091D00F006BD20683544B54245604B
:105A9000216805D2A068BDE8F041091D00F0E2BC14
:105AA0006068091D00F0DEFC206B854200D2256392
:105AB000BDE8F08118000020140800202DE9F04115
:105AC000054600F0F3FC2D4C2069401C2061206845
:105AD0002B4F10B1E06930B32BE02560206901281D
