:020000040800F2
:10000000700500209D010008271200084511000816
:1000100025120008A902000875170008000000005A
:10002000000000000000000000000000191300089C
:10003000AB0200080000000029120008B50100080A
:10004000B7010008B7010008B7010008B7010008B0
:10005000B7010008B7010008B7010008B7010008A0
:10006000B7010008B7010008B7010008B701000890
:10007000B7010008B7010008B7010008B701000880
:10008000B7010008B7010008B7010008B701000870
:10009000B7010008B7010008B7010008B701000860
:1000A000B7010008B7010008B7010008B701000850
:1000B000F5130008B7010008B7010008B7010008F0
:1000C000B7010008B7010008B7010008B701000830
:1000D000B7010008B7010008B7010008B701000820
:1000E000B7010008B7010008B7010008B701000810
:1000F000B7010008B7010008B7010008B701000800
:10010000B7010008B7010008B7010008B7010008EF
:10011000B7010008B7010008B7010008B7010008DF
:10012000B7010008B7010008B7010008B7010008CF
:10013000B7010008B7010008B7010008B7010008BF
:10014000B7010008B7010008B7010008B7010008AF
:10015000B7010008B7010008B7010008B70100089F
:10016000B7010008B7010008B7010008B70100088F
:10017000B7010008B7010008B7010008000000003F
:10018000B7010008B7010008DFF80CD000F07AF8DA
:1001900000480047D51A000870050020064880472F
:1001A00006480047FEE7FEE7FEE7FEE7FEE7FEE75C
:1001B000FEE7FEE7FEE7FEE7A1130008890100085D
:1001C0002DE9F05F0546002092469B46884606468C
:1001D000814640241BE0284641464746224600F01F
:1001E00041F853465A46C01A914110D31146184659
:1001F000224600F028F82D1A67EB01084F462246E8
:100200000120002100F01FF817EB00094E41201ECD
:10021000A4F10104DFDC484631462A464346BDE8E6
:10022000F09FD2B201E000F8012B491EFBD27047CB
:100230000022F6E710B513460A4604461946FFF7B2
:10024000F0FF204610BD202A04DB203A00FA02F11C
:10025000002070479140C2F1200320FA03F31943B4
:1002600090407047202A04DB203A21FA02F0002156
:10027000704721FA02F3D040C2F1200291400843B6
:1002800019467047064C074D06E0E06840F0010350
:1002900094E8070098471034AC42F6D3FFF778FF94
:1002A000241C0008441C0008FEE7704770B5044693
:1002B00000F0ECF80546601C02D0044800780444C5
:1002C00000F0E4F8401BA042FAD370BD000000200B
:1002D0002DE9F84FDFF87CB100224FF001084FF014
:1002E000030A4FF00F090BF1040E00BF0B6808FA68
:1002F00002F42340A3426ED14D68022D01D0122D8D
:100300000ED1D50800EB850CDCF820505607F70E0F
:1003100009FA07F6B5430E69BE402E43CCF82060BB
:10032000066855000F790AFA05FC07F0030726EA6C
:100330000C06AF40374307604E68012E05D0022EF1
:1003400003D0112E01D0122E0ED18668CF6826EA76
:100350000C06AF40374387604668A6430C79C4F368
:100360000014944034434460C6688C6826EA0C0646
:10037000AC403443C4604C68E40065D5364C256815
:1003800045F480452560246822F0030504F4804488
:100390000094324C2E19D6F8084895072F0F09FA09
:1003A00007F5AC432E4DA84201D1002524E02D4D88
:1003B000A84201D101251FE02B4DA84201D1022501
:1003C0001AE02A4DA84201D1032515E0284DA84284
:1003D00002D1042510E037E0264DA84201D10525C1
:1003E0000AE0254DA84201D1062505E0234DA8428B
:1003F00001D1072500E00825BD402543C6F808586F
:10040000DBF800405D464E689C43F60300D51C4374
:100410002C60DEF8004075464E689C43B60300D55C
:100420001C432C600B4D08352C684E689C43F6022B
:1004300000D51C432C60074D0C352C684E689C433E
:10044000B60200D51C432C60521C102AFFF44EAF9C
:10045000BDE8F88F003C01404438024000300140C4
:10046000000002400004024000080240000C02406C
:10047000001002400014024000180240001C02401C
:100480000AB1816170470904FBE7000001488068F8
:100490007047000000000020024881680278114483
:1004A00081607047000000200B4810B5016841F4DE
:1004B00000710160016841F480610160016841F4EC
:1004C00080710160032000F089F8002000F006F838
:1004D00000F03EF8002010BD003C024010B501467F
:1004E00088B000221C2000F059F81C2000F048F8C9
:1004F00014480024016841F001010160006805A969
:1005000000F001000690684600F012F900F030F9A2
:100510000D494000B0FBF1F10C484FF08042491EFC
:10052000026040F2E732C0E90324C0E9011400F0A0
:1005300068FC10B1012008B010BD044800F0A2FC16
:10054000F9E700004038024040420F002C01002033
:100550000A4808B5016841F480410160006800F470
:10056000804000900548001F016841F08051016003
:10057000006800F08050009008BD00004438024040
:10058000002809DB00F01F02012191404009800092
:1005900000F1E020C0F8001170470000F0B40E4BED
:1005A0001B680C46C3F30223C3F10705042D00D9D1
:1005B0000425191D072901D2002300E0DB1E0126B6
:1005C00006FA05F1491E214099409E40761E1640CC
:1005D0003143F0BC01F0E0B80CED00E0064900F05A
:1005E000070208684FF6FF03184040EA0220034A5A
:1005F00010430860704700000CED00E00000FA05B1
:100600002DE9F0470E46050065D0DFF81481D8F8D3
:100610000000F7B200F00F00B04207D288F8007077
:10062000D8F8000000F00F00B04254D128683D4CCB
:10063000810712D5400703D5206840F4E0502060C0
:100640002878000703D5206840F4604020602068C7
:10065000A96820F0F000084320602878C0072DD05A
:10066000304968680839012812D0022813D00328BD
:1006700011D00968890700292DDA216821F00301CA
:1006800001432160FFF702FF814641F2883A0EE004
:1006900009688903EFE709688901ECE7FFF7F6FECF
:1006A000A0EB0901514502D90320BDE8F08720687D
:1006B000696800F00C00B0EB810FEFD1D8F80010A2
:1006C000404601F00F01B14207D90770006800F001
:1006D0000F00B04201D00120E7E72878400705D598
:1006E0002068E96820F4E05008432060287800077B
:1006F00006D52068296920F4604040EAC1002060E6
:1007000000F056F82168084AC1F30311515CC84053
:10071000064908600020FFF7E1FE0020C5E7000061
:10072000003C0240083802400C1C00080C0000206D
:100730000F2202600C4A136803F00303436013683E
:1007400003F0F0038360136803F4E053C36012689E
:100750004FF4E05303EAD20202610448006800F05B
:100760000F0008607047000008380240003C02405B
:100770000448054900680968044AC1F38221515CB4
:10078000C84070470C000020083802401C1C0008BC
:100790000448054900680968044AC1F34231515CC4
:1007A000C84070470C000020083802401C1C00089C
:1007B000154810B5006810F00C02144813D0144905
:1007C000042A0FD0082A0ED10F4C241F2268236858
:1007D00002F03F025B0207D52068C0F38810A0FB3F
:1007E000010106E0084610BD2168C1F38811A1FB94
:1007F00000010023FFF7E4FC2168C1F30141491C1B
:100800004900B0FBF1F010BD083802400024F400AC
:1008100040787D012DE9F84F050076D02878DFF883
:10082000F8B2BE4CC00749D0DBF800105846C1F3FF
:100830008101012908D00068C0F3810002280AD193
:10084000201D0068400206D52068800336D5686800
:100850000028E2D032E06868B0F5803F10D0B0F5F3
:10086000A02F206810D020F480302060206820F471
:10087000802020606868A0B1FFF708FE06460CE003
:10088000206840F48030F4E740F480202060F7E7EF
:10089000FFF7FCFD801B642873D820688003F7D520
:1008A0000CE0FFF7F3FD064605E000BFFFF7EEFDA5
:1008B000801B6428F0D820688003F7D42878DFF8FC
:1008C000608280074FF000093ED5DBF800105846E3
:1008D00011F00C0F09D00068C0F3810002280BD181
:1008E0008D48001F0068400206D42068800715D597
:1008F000E868012809D111E0E868B8B10120C8F81A
:100900000000FFF7C3FD064605E002E1FFF7BEFD6C
:10091000801B0228C0D820688007F7D52068296985
:1009200020F0F80040EAC10020600DE0C8F8009017
:10093000FFF7ACFD064604E0FFF7A8FD801B022888
:100940001FD820688007F7D42878000722D5724E78
:10095000744869696C3671B101210160FFF796FD39
:10096000074604E0FFF792FDC01B022809D8306853
:100970008007F7D50EE0C0F80090FFF787FD074627
:1009800005E083E0FFF782FDC01B02287ED83068B7
:100990008007F7D42878400768D5DFF87CA10027C6
:1009A0000AF1380ADAF80000C0000BD4DAF80010B7
:1009B00041F08051CAF80010DAF80000012700F079
:1009C00080500090584E3068C00510D4306840F414
:1009D00080703060FFF75AFD009005E0FFF756FD8C
:1009E0000099401A022851D83068C005F6D54A4E01
:1009F000A868683601280FD00528306810D020F08C
:100A000001003060306820F004003060A868B8B1A0
:100A1000FFF73CFD00900FE0306840F00100F4E784
:100A200040F004003060F7E7FFF730FD0099411A0D
:100A300041F28830814264D830688007F4D50EE0F6
:100A4000FFF724FD009007E0FFF720FD0099411A11
:100A500041F28830814254D830688007F4D42FB1F5
:100A6000DAF8001021F08051CAF80010A869C0B36C
:100A7000DBF80010C1F3810102294AD00228484660
:100A800007D0C8F86000FFF701FD00E039E0054637
:100A90003AE04746C8F86000FFF7F8FC064604E075
:100AA000FFF7F4FC801B02282BD820688001F7D4C4
:100AB000D5E907010843A96A1C4A490802EB01412C
:100AC0006A6A41EA8211084395F82C1040EA0161F4
:100AD0001148001F016001203866FFF7D7FC05466A
:100AE00005E014E0FFF7D2FC401B022809D820687B
:100AF0008001F7D50BE000BFFFF7C8FC401B0228C0
:100B000002D90320BDE8F88F20688001F4D40020CA
:100B1000F8E70120F6E700000838024000380240FC
:100B200000004742800E4742007000400000FFFF77
:100B300070B5040005D00025A56294F8510010B1ED
:100B400006E0012070BD84F85050204600F030F8D7
:100B5000022084F851002068016821F04001016002
:100B6000D4E901010843D4E9031211430843616940
:100B70000843218B01F400710843E1690843216AAD
:100B80000843A16A084321680860A069042101EABA
:100B90001040616A0843216848602068C16921F4F7
:100BA0000061C1616565012084F85100002070BDBD
:100BB00010B586B0044614216846FFF739FB144986
:100BC0002068884221D113480021026842F4004283
:100BD0000260006800F4004005900E48103802687A
:100BE00042F004020260006800F0040005904FF437
:100BF000E05000900220CDE901010320039006207F
:100C0000049069460448FFF763FB06B010BD00007E
:100C1000003C004040380240000802402DE9F84FF7
:100C2000044690F8500000270A9E1D4692468B46C7
:100C30004FF0010901280ED0012084F85000FFF781
:100C400025FC804694F85100616801280CD0B1F56C
:100C5000827F07D102E00220BDE8F88FA16809B9C0
:100C6000042801D00227C2E0BBF1000F27D0BAF15F
:100C7000000F24D01DB394F85100042802D00520A1
:100C800084F8510000206065C4F838A0E587A58786
:100C9000C4F830B0E586A5862064606420680168E9
:100CA000490603D4016841F040010160E068B0F5F5
:100CB000006F606805D0E8B3012D46D07FE00127C2
:100CC00095E008B1012D39D1206B21680088C860FA
:100CD000206B801C2063E08E401EE0862EE02068A2
:100CE000816889070FD5E18E69B1B9F1010F0AD189
:100CF000216B0988C160206B801C2063E08E401E40
:100D0000E0864FF0000920688168C9070CD0E18FA8
:100D100051B1C068A16B0880A06B801CA063E08FFC
:100D2000401EE0874FF00109FFF7B0FBA0EB080081
:100D3000B04200E009E001D3701C50D1E08E0028E1
:100D4000CDD1E08F0028CAD13FE0206B2168007828
:100D50000873206B401C2063E08E401EE0862EE06E
:100D60002068816889070FD5E18E69B1B9F1010F5B
:100D70000AD1216B09780173206B401C2063E08E3F
:100D8000401EE0864FF0000920688168C9070CD03A
:100D9000E18F51B1C068A16B0870A06B401CA063CB
:100DA000E08F401EE0874FF00109FFF76FFBA0EBDB
:100DB0000800B04202D3701C01D010E07EB1E08E7A
:100DC0000028CDD1E08F0028CAD1424631462046C6
:100DD00000F02CFA28B101272020606507E00327E6
:100DE00005E0A06818B92068C168806800900120FB
:100DF00084F85100002084F8500038462CE77047F2
:100E0000704710B5040003D094F83D0010B107E01E
:100E1000012010BD002084F83C00204600F00CF8B2
:100E2000022084F83D00211D206800F0E9FA01202D
:100E300084F83D00002010BD08B5006806498842CE
:100E400008D10648016841F480710160006800F42F
:100E50008070009008BD0000002000404038024033
:100E6000022180F83D1001688A6802F00702062A14
:100E700003D00A6842F001020A60012180F83D10A7
:100E8000002070470168CA6842F00102CA60006829
:100E9000816801F00701062903D0016841F00101D2
:100EA000016000207047022180F83D1001680A6A45
:100EB00041F211131A4207D10A6A9B101A4203D158
:100EC0000A6822F001020A60012180F83D1000202A
:100ED0007047704770B50446006801694FF000051F
:100EE000C943890715D4C168C943890711D4E91ECC
:100EF000016101202077206880698007204602D0A8
:100F0000FFF7E7FF04E000F098F8204600F096F8BD
:100F1000257720680169C943490717D4C168C943C7
:100F2000490713D46FF00401016102202077206883
:100F3000806910F4407F204602D0FFF7CAFF04E02A
:100F400000F07BF8204600F079F8257720680169E9
:100F5000C943090716D4C168C943090712D46FF001
:100F600008010161042020772068C06980072046BD
:100F700002D0FFF7AEFF04E000F05FF8204600F07B
:100F80005DF8257720680169C943C90617D4C1688F
:100F9000C943C90613D46FF01001016108202077FE
:100FA0002068C06910F4407F204602D0FFF791FF0F
:100FB00004E000F042F8204600F040F82577206871
:100FC0000169C943C90708D1C168C943C90704D128
:100FD000891E0161204600F032F820680169C9438A
:100FE000090609D4C168C943090605D46FF0800118
:100FF00001612046FFF703FF20680169C9434906E4
:1010000009D4C168C943490605D46FF040010161A4
:10101000204600F01BF820680169C94389060BD4FB
:10102000C168C943890607D46FF0200101612046D9
:10103000BDE87040FFF7E4BE70BD704770470068C0
:10104000B0F1804F01D1FFF727BA7047704770B5F4
:10105000040004D094F83900002510B106E0012006
:1010600070BD84F83850204600F022F8242084F81F
:1010700039002068C16821F40051C160204600F0A9
:1010800023FA2068016921F49041016120684169D7
:1010900021F02A0141612068C16841F40051C1601A
:1010A000E563202084F8390084F83A00002070BD00
:1010B000F0B587B0044614216846FFF7B9F81D4F14
:1010C00022681D4902230124032507261B48BA4232
:1010D00013D1194A1432176847F0100717601268C5
:1010E00002F0100205920A6842F001020A600968E3
:1010F00001F001010591690215E0114FBA4217D1C3
:101100000D4A1032176847F400371760126802F46E
:10111000003205920A6842F001020A60096801F093
:10112000010105910C218DE87A006946FFF7D0F89E
:1011300007B0F0BD0010014030380240000002400E
:1011400000440040FEE70000F0B587B01421684677
:10115000FFF76EF822480024016841F08001016029
:10116000016801F080010591016841F00101016011
:10117000016801F001010591016841F0040101607D
:10118000016801F004010591016841F00801016066
:101190000068144E00F008004FF40045059000224E
:1011A00029463046FFF76CF90F4F002203213846DD
:1011B000FFF766F90220CDE9020400950125694692
:1011C00001953046FFF784F803200090CDE90154E3
:1011D000694638460394FFF77BF807B0F0BD00007E
:1011E0003038024000000240000C02400C480B491D
:1011F000022201604FF48271416000218160C0E9E8
:10120000031201224261520282612022C0E90721B9
:10121000416281620A21C162FFF78ABC003C004042
:1012200014000020FEE770477047000038B5044600
:101230001248134B0068B0FBF3F04FF47A73584335
:1012400000906068B0F5827F0DD10B4600920022BD
:101250008021204600F016F870B1606D40F020004B
:101260006065032038BD009830B1401E00902068B2
:101270008068C0430006F6D5002038BD0C00002071
:1012800000366E012DE9F0411D4617460E46044614
:10129000DDF8188008E0681C06D0FFF7F7F8A0EB2F
:1012A0000800A8420BD255B12068806836EA0000D9
:1012B00030D00020B842EED10020BDE8F081206897
:1012C000416821F0E00141606068B0F5827F0BD198
:1012D000A068B0F5004F02D0B0F5806F04D120684F
:1012E000016821F040010160A06AB0F5005F09D1FA
:1012F0002068016821F4005101602068016841F410
:1013000000510160012084F85100002084F8500051
:101310000320D2E70120CDE77047000030B593B03D
:1013200030216846FEF784FF14210CA8FEF780FFE9
:1013300019480025016841F080510160006800F003
:10134000805011901548016841F4804101600068A7
:10135000022400F48040119001200390102004909A
:10136000009406940820CDE90750A820CDE909048F
:1013700004200B906846FFF74DFA0CA90F2081E876
:1013800031004FF4A0500F90E002109005210CA8FE
:10139000FFF736F913B030BD40380240007000400E
:1013A0001048016841F4700101600F48016841F084
:1013B000010101600C4A00210832116002680B4BE8
:1013C0001A400260031D0A4A1A60026822F4802251
:1013D000026005480C3001600249580680390860F7
:1013E0007047000088ED00E000380240FFFFF6FE85
:1013F000103000240148FFF76DBD00002C010020D3
:10140000F0B50268254C264D264E274F274B4FF04E
:10141000804CA04209D0604507D0A84205D0B04218
:1014200003D0B84201D0984204D122F0700E4A682D
:1014300042EA0E02A0421BD0604519D0A84217D044
:10144000B04215D0B84213D0984211D0184DA842DE
:101450000ED0184DA8420BD0174DA84208D0174DFA
:10146000A84205D0164DA84202D0164DA84203D17D
:1014700022F44075CA682A434D6922F080022A434B
:1014800002608A68C2620A688262A04201D0984201
:1014900001D10969016301214161F0BD00000140F2
:1014A0000004004000080040000C0040000401401F
:1014B0000040014000440140004801400018004045
:1014C000001C0040002000402DE9F0410446006867
:1014D0000169E26821F44051114301612169A0686A
:1014E000E26908436169114322680843D16849F2FF
:1014F0000C6399430143D16020684169A26921F4DA
:10150000407111434161E2696425B2F5004F97488B
:10151000974922684FF032083FD08A4201D0824278
:101520007CD1FFF735F900EBC00101EB00106168D9
:101530008900B0FBF1F6FFF72BF900EBC00101EBDE
:10154000001061688900B0FBF1F0B0FBF5F06FF0BE
:101550001801484306EB800108EB0110B0FBF5F0E1
:1015600000F0F006FFF714F900EBC00101EB0010EA
:1015700061688900B0FBF1F0B0FBF5F006EB0016F6
:10158000FFF706F900EBC00101EB0010616889006C
:10159000B0FBF1F7FFF7FCF8D2E08A4201D08242BB
:1015A0003DD1FFF7F5F800EBC00101EB00106168D9
:1015B0004900B0FBF1F0B0FBF5F00601FFF7E8F8E9
:1015C00000EBC00101EB001061684900B0FBF1F7CE
:1015D000FFF7DEF800EBC00101EB00106168490085
:1015E000B0FBF1F0B0FBF5F06FF01801484307EBEA
:1015F000800108EBC100B0FBF5F000F0F80006EB4D
:101600004006FFF7C5F800EBC00101EB0010616870
:101610004900B0FBF1F7FFF7BBF83CE055E0FFF7FE
:10162000A7F800EBC00101EB001061684900B0FBB6
:10163000F1F0B0FBF5F00601FFF79AF800EBC001FE
:1016400001EB001061684900B0FBF1F7FFF790F87B
:1016500000EBC00101EB001061684900B0FBF1F044
:10166000B0FBF5F06FF01801484307EB800108EB81
:10167000C100B0FBF5F000F0F80006EB4006FFF704
:1016800077F800EBC00101EB001061684900B0FB86
:10169000F1F7FFF76DF800EBC00101EB0010616896
:1016A0004900B0FBF1F0B0FBF5F06FF018014843D2
:1016B00007EB800108EBC100B0FBF5F000F007007C
:1016C000216830448860BDE8F081FFF751F800EBF5
:1016D000C00101EB001061688900B0FBF1F6FFF773
:1016E00047F800EBC00101EB001061688900B0FB16
:1016F000F1F0B0FBF5F06FF01801484306EB800104
:1017000008EB0110B0FBF5F000F0F006FFF730F841
:1017100000EBC00101EB001061688900B0FBF1F043
:10172000B0FBF5F006EB0016FFF722F800EBC00166
:1017300001EB001061688900B0FBF1F7FFF718F8C2
:1017400000EBC00101EB001061688900B0FBF1F013
:10175000B0FBF5F06FF01801484307EB800108EB90
:101760000110B0FBF5F000F00F00A9E700140140F4
:1017700000100140FEE700000FB4054B10B503A9AF
:10178000044A029800F028F810BC5DF814FB000031
:10179000991A0008100000200907090E002804DB30
:1017A00000F1E02080F80014704700F00F0000F115
:1017B000E02080F8141D704702E008C8121F08C11D
:1017C000002AFAD170477047002001E001C1121FC2
:1017D000002AFBD1704700002DE9FF4F8DB09B46DA
:1017E0000F460446002606E025280BD05A460F99DE
:1017F0009047641C761C20780028F5D111B0304643
:10180000BDE8F08F0025A8460122984900E0054375
:1018100014F8013F203B02FA03F00842F7D1207888
:101820002E2817D114F8010F45F004052A280ED0F0
:101830006FF02F022078A0F1300109290AD808EBB7
:10184000880102EB410100EB0108641CF2E757F844
:10185000048B641C20786C280DD004DC4C2812D03A
:101860006A2811D104E074280DD07A280CD10AE03E
:1018700045F4001507E0617845F48015814202D1F6
:10188000641C05F58015641C2278692A45D008DCA3
:10189000002AB3D0582A69D0632A10D0642A08D10C
:1018A0003BE0702A67D0732A13D0752A5CD0782A5F
:1018B0005CD010465A460F999047761CD3E017F833
:1018C000040B8DF8000000208DF80100E94601208E
:1018D00003E057F8049B4FF0FF3069074FF0000515
:1018E00001D40AE06D1C45450DDA8542FADB19F892
:1018F00005100029F6D106E06D1C8542FCDB19F8C5
:1019000005100029F8D12E4404E019F8010B5A46BD
:101910000F9990476D1EF8D2A5E00A200021CDE96D
:101920000801C5F3025002280DD001CFC117031ED4
:1019300071F100030DDA4FF0000CD0EB0C006CEBF2
:1019400001012D2308E0FF1D27F00707F7E802013A
:10195000EDE72B0504D52B238DF8283001233BE040
:10196000EB0739D02023F7E70A2000E01020002100
:10197000CDE9080107E01020002145F00405CDE97C
:1019800008014FF00808C5F3025002280FD001CF1C
:1019900000214FF0000A2B071FD5702A0DD0DDE97A
:1019A00008C38CF0100C5CEA030C0CD015E0FF1D92
:1019B00027F00707F7E80201EBE740228DF828201F
:1019C0004FF0010A0BE050EA010306D030238DF8F6
:1019D00028308DF8292002239A46582A04D024A2C0
:1019E0000DF120090B9209E026A2F9E7DDE90823B1
:1019F000FEF7E6FB0B9B9B5C09F8013D50EA0102F8
:101A0000F4D1ADEB090020300890680701D44FF005
:101A100001080899884502DDA8EB010000E00020DC
:101A20008046002506E00AA85A46405D0F99904777
:101A30006D1C761C5545F6DB04E030205A460F99A4
:101A40009047761CB8F10001A8F10108F5DC05E02B
:101A500019F8010B5A460F999047761C0899481EB1
:101A600008900029F4DC641CC5E600000928010088
:101A70003031323334353637383961626364656604
:101A800000000000303132333435363738394142C6
:101A90004344454600000000024948600A681206B7
:101AA000FCD570470010014070B54FF6FA76301A39
:101AB00084B20D460846FFF7D3F92868446202E075
:101AC0002868406A84B2B442FAD32846BDE8704020
:101AD000FFF7E9B9FEF7E8FCFFF720FCFFF734FB5E
:101AE00025482449002401604FF41651C0E901142F
:101AF0000C25C460C0E904458461C461FFF7A7FAFE
:101B00001D481E49403001604FF4E131C0E9011425
:101B1000C460C0E904458461C461FFF798FA1648BF
:101B20001749403801605321C0E901140121C0E97F
:101B300003148461FFF765F9FFF758FB4FF47A74DB
:101B4000022000F037F801460EA0FFF715FE032033
:101B500000F030F801460FA0FFF70EFE042000F061
:101B600029F801460FA0FFF707FE2046FEF79EFB6F
:101B7000E6E7000000100140AC00002000440040F7
:101B8000002000407374617465203D2025780D0AA3
:101B90000000000064656C746158203D2025780DBC
:101BA0000A00000064656C746159203D2025780DA1
:101BB0000A00000031B5124D82B000220F212846E4
:101BC000FEF75EFC6424012301AA02A90D480094DB
:101BD000FFF724F80C494B20FFF766FFFF208DF834
:101BE0000800012301AA02A906480094FFF716F88D
:101BF00001220F212846FEF743FC9DF804003EBD5C
:101C000000000240140000206C00002000000000D2
:101C1000000000000102030406070809000000009C
:101C200001020304441C000800000020140000000E
:101C3000B8170008581C0008140000205C050000BC
:101C4000C81700080100000010000000000000009C
:081C50000024F4000000000074
:040000050800018965
:00000001FF
