:020000040800F2
:10000000E00600209D010008FB1000089910000880
:10001000F9100008DD050008BD160008000000000A
:10002000000000000000000000000000391100087E
:100030003D06000800000000371100080912000802
:10004000B7010008B7010008B7010008B7010008B0
:10005000B7010008B7010008B7010008B7010008A0
:10006000B7010008B7010008B7010008B701000890
:10007000B7010008B7010008B7010008B701000880
:10008000B7010008B7010008B7010008B701000870
:10009000B7010008B7010008B7010008B701000860
:1000A000B7010008B7010008B7010008B701000850
:1000B000B7010008B7010008B7010008B701000840
:1000C000B7010008B7010008B7010008B701000830
:1000D000B7010008B7010008B7010008B701000820
:1000E000B7010008B7010008B7010008B701000810
:1000F000B7010008B7010008B7010008B701000800
:10010000B7010008B7010008B7010008B7010008EF
:10011000B7010008B7010008B7010008B7010008DF
:10012000B7010008B7010008B7010008B7010008CF
:10013000B7010008B7010008B7010008B7010008BF
:10014000B7010008B7010008B7010008B7010008AF
:10015000B7010008B7010008B7010008B70100089F
:10016000B7010008B7010008B7010008B70100088F
:10017000B7010008B7010008B7010008000000003F
:10018000B7010008B7010008DFF80CD000F014FA3E
:100190000048004771190008E00600200648804723
:1001A00006480047FEE7FEE7FEE7FEE7FEE7FEE75C
:1001B000FEE7FEE7FEE7FEE791120008890100086E
:1001C0002DE9F05F0546002092469B46884606468C
:1001D000814640241BE0284641464746224600F01F
:1001E00034F953465A46C01A914110D31146184665
:1001F000224600F01BF92D1A67EB01084F462246F4
:100200000120002100F012F917EB00094E41201ED9
:10021000A4F10104DFDC484631462A464346BDE8E6
:10022000F09FD2B201E000F8012B491EFBD27047CB
:100230000022F6E710B513460A4604461946FFF7B2
:10024000F0FF204610BD421C10F8011B0029FBD115
:10025000801A70472DE9FE4F804681EA0300C00FE7
:100260000C46009021F0004123F00045B8EB02005D
:10027000A94105D24046214690461C460B460246FF
:1002800023F00040104347D0270DC7F30A00C3F303
:100290000A510290401A019040286BDAC3F3130010
:1002A00040F4801B0098924620B10023D2EB030A51
:1002B00063EB0B0B01985946C0F14002504600F029
:1002C000B5F806460D4650465946019A00F0CDF85D
:1002D00010EB08006141002487EA115284EAE773B9
:1002E0001A4340D0009A62B3019A012A4FEA07529A
:1002F00015DC001B61EB02014FF0004202EA0752DD
:10030000CDE90042001C41F5801132462B4600F039
:1003100004F903B0BDE8F08F40462146F9E7001B21
:1003200061EB0201001C41F5801300185B412018AD
:10033000A2F5001747EB030140EAD570B6196D41ED
:1003400011E06D084FEA360645EAC0754FEA0752DC
:10035000001B61EB0201001C41F5801149084FEAC6
:1003600030000019514132462B4603B0BDE8F04F32
:1003700000F0C4B80098012240000023D0EB020234
:1003800063EBE073009821464FEAE074B8EB00009D
:1003900061EB0401E9E783F000435BE781F0004192
:1003A00058E700F0004230F000400AD0C10D01F5DE
:1003B0006071C0F3160042EA0151C20840071143C0
:1003C000704700200146704701F0004330B421F02F
:1003D000004150EA010206D00A0DA2F56072C1F395
:1003E0001301002A02DC30BC00207047440F44EAAD
:1003F000C104C100E01830BC00EBC25000F047B8A7
:1004000030B50B46014600202022012409E021FAE4
:1004100002F59D4205D303FA02F5491B04FA02F5E1
:100420002844151EA2F10102F1DC30BD202A04DBB4
:10043000203A00FA02F1002070479140C2F12003F7
:1004400020FA03F3194390407047202A04DB203A36
:1004500021FA02F00021704721FA02F3D040C2F1E4
:1004600020029140084319467047202A06DBCB172B
:10047000203A41FA02F043EAE07306E041FA02F35F
:10048000D040C2F12002914008431946704700292C
:10049000A8BF7047401C490008BF20F0010070470A
:1004A00010B4B0FA80FC00FA0CF050EA010404BF6A
:1004B00010BC704749B1CCF1200421FA04F411FAC0
:1004C0000CF118BF012121430843A3EB0C01CB1D04
:1004D0004FEA00614FEA102042BF002010BC704775
:1004E00000EBC35010440029A4BF10BC7047401C4F
:1004F000490008BF20F0010010BC704710B5141E61
:1005000073F1000408DA401C41F1000192185B41CC
:100510001A4301D120F0010010BD2DE9F04D9246A3
:100520009B4611B1B1FA81F202E0B0FA80F22032BA
:100530009046FFF77BFF04460F4640EA0A0041EA77
:100540000B0153465A46084313D0114653EA0100A3
:1005500019D0C8F140025046FFF777FF05460E4616
:10056000504659464246FFF761FF084305D0012037
:1005700004E020463946BDE8F08D0020054346EAF8
:10058000E0762C4337430A986305E40AA0EB0800A1
:100590000022FD0A44EA47540A3002D500200146F1
:1005A000E9E7010510196941DDE9084500196941CC
:1005B000BDE8F04DA2E70000064C074D06E0E068FC
:1005C00040F0010394E8070098471034AC42F6D39A
:1005D000FFF7DEFD141B0008341B0008FEE70000D7
:1005E000D0ED000A90ED071A70EE600AB0EEE00A56
:1005F000B4EEC10AF1EE10FA18DD90ED050A30EE06
:10060000200A80ED050A90ED041AC0ED040AD0ED31
:10061000021A21EE800AD0ED011A01EEA00A70EE56
:10062000C10AD0ED031A01EEA00A7047C0ED040A1A
:100630009FED010A704700000000000070470000B5
:100640002DE9F84FDFF87CB100224FF001084FF0A0
:10065000030A4FF00F090BF1040E00BF0B6808FAF4
:1006600002F42340A3426ED14D68022D01D0122D19
:100670000ED1D50800EB850CDCF820505607F70E9C
:1006800009FA07F6B5430E69BE402E43CCF8206048
:10069000066855000F790AFA05FC07F0030726EAF9
:1006A0000C06AF40374307604E68012E05D0022E7E
:1006B00003D0112E01D0122E0ED18668CF6826EA03
:1006C0000C06AF40374387604668A6430C79C4F3F5
:1006D0000014944034434460C6688C6826EA0C06D3
:1006E000AC403443C4604C68E40065D5364C2568A2
:1006F00045F480452560246822F0030504F4804415
:100700000094324C2E19D6F8084895072F0F09FA95
:1007100007F5AC432E4DA84201D1002524E02D4D14
:10072000A84201D101251FE02B4DA84201D102258D
:100730001AE02A4DA84201D1032515E0284DA84210
:1007400002D1042510E037E0264DA84201D105254D
:100750000AE0254DA84201D1062505E0234DA84217
:1007600001D1072500E00825BD402543C6F80858FB
:10077000DBF800405D464E689C43F60300D51C4301
:100780002C60DEF8004075464E689C43B60300D5E9
:100790001C432C600B4D08352C684E689C43F602B8
:1007A00000D51C432C60074D0C352C684E689C43CB
:1007B000B60200D51C432C60521C102AFFF44EAF29
:1007C000BDE8F88F003C0140443802400030014051
:1007D000000002400004024000080240000C0240F9
:1007E000001002400014024000180240001C0240A9
:1007F0000AB1816170470904FBE700000148806885
:10080000704700000000002002488168027811440F
:1008100081607047000000200B4810B5016841F46A
:1008200000710160016841F480610160016841F478
:1008300080710160032000F061F8002000F006F8EC
:1008400000F024F8002010BD003C024070B50D4DB2
:1008500004464FF47A712878B1FBF0F00A49096830
:10086000B1FBF0F000F0D4FA48B9102C07D2002206
:100870002146501E00F022F800206C6070BD01205F
:1008800070BD0000000000200C0000200A4808B5E0
:10089000016841F480410160006800F480400090EC
:1008A0000548001F016841F080510160006800F0B8
:1008B0008050009008BD000044380240F0B40E4B58
:1008C0001B680C46C3F30223C3F10705042D00D9AE
:1008D0000425191D072901D2002300E0DB1E012693
:1008E00006FA05F1491E214099409E40761E1640A9
:1008F0003143F0BC00F0F4BE0CED00E0064900F01E
:10090000070208684FF6FF03184040EA0220034A36
:1009100010430860704700000CED00E00000FA058D
:100920002DE9F0470E46050065D0DFF81481D8F8B0
:100930000000F7B200F00F00B04207D288F8007054
:10094000D8F8000000F00F00B04254D128683D4CA8
:10095000810712D5400703D5206840F4E05020609D
:100960002878000703D5206840F4604020602068A4
:10097000A96820F0F000084320602878C0072DD037
:10098000304968680839012812D0022813D003289A
:1009900011D00968890700292DDA216821F00301A7
:1009A00001432160FFF72AFF814641F2883A0EE0B9
:1009B00009688903EFE709688901ECE7FFF71EFF83
:1009C000A0EB0901514502D90320BDE8F08720685A
:1009D000696800F00C00B0EB810FEFD1D8F800107F
:1009E000404601F00F01B14207D90770006800F0DE
:1009F0000F00B04201D00120E7E72878400705D575
:100A00002068E96820F4E050084320602878000757
:100A100006D52068296920F4604040EAC1002060C2
:100A200000F036F82168084AC1F30311515CC84050
:100A3000064908600020FFF709FF0020C5E7000015
:100A4000003C024008380240FC1A00080C0000205C
:100A50000448054900680968044AC1F38221515CD1
:100A6000C84070470C000020083802400C1B0008EA
:100A70000448054900680968044AC1F34231515CE1
:100A8000C84070470C000020083802400C1B0008CA
:100A9000154810B5006810F00C02144813D0144922
:100AA000042A0FD0082A0ED10F4C241F2268236875
:100AB00002F03F025B0207D52068C0F38810A0FB5C
:100AC000010106E0084610BD2168C1F38811A1FBB1
:100AD00000010023FFF774FB2168C1F30141491CA9
:100AE0004900B0FBF1F010BD083802400024F400CA
:100AF00040787D012DE9F84F050076D02878DFF8A1
:100B0000F8B2BE4CC00749D0DBF800105846C1F31C
:100B10008101012908D00068C0F3810002280AD1B0
:100B2000201D0068400206D52068800336D568681D
:100B30000028E2D032E06868B0F5803F10D0B0F510
:100B4000A02F206810D020F480302060206820F48E
:100B5000802020606868A0B1FFF750FE06460CE0D8
:100B6000206840F48030F4E740F480202060F7E70C
:100B7000FFF744FE801B642873D820688003F7D5F4
:100B80000CE0FFF73BFE064605E000BFFFF736FE30
:100B9000801B6428F0D820688003F7D42878DFF819
:100BA000608280074FF000093ED5DBF80010584600
:100BB00011F00C0F09D00068C0F3810002280BD19E
:100BC0008D48001F0068400206D42068800715D5B4
:100BD000E868012809D111E0E868B8B10120C8F837
:100BE0000000FFF70BFE064605E002E1FFF706FEF8
:100BF000801B0228C0D820688007F7D520682969A3
:100C000020F0F80040EAC10020600DE0C8F8009034
:100C1000FFF7F4FD064604E0FFF7F0FD801B022815
:100C20001FD820688007F7D42878000722D5724E95
:100C3000744869696C3671B101210160FFF7DEFD0E
:100C4000074604E0FFF7DAFDC01B022809D8306828
:100C50008007F7D50EE0C0F80090FFF7CFFD0746FC
:100C600005E083E0FFF7CAFDC01B02287ED830688C
:100C70008007F7D42878400768D5DFF87CA10027E3
:100C80000AF1380ADAF80000C0000BD4DAF80010D4
:100C900041F08051CAF80010DAF80000012700F096
:100CA00080500090584E3068C00510D4306840F431
:100CB00080703060FFF7A2FD009005E0FFF79EFD19
:100CC0000099401A022851D83068C005F6D54A4E1E
:100CD000A868683601280FD00528306810D020F0A9
:100CE00001003060306820F004003060A868B8B1BE
:100CF000FFF784FD00900FE0306840F00100F4E75A
:100D000040F004003060F7E7FFF778FD0099411AE2
:100D100041F28830814264D830688007F4D50EE013
:100D2000FFF76CFD009007E0FFF768FD0099411A9E
:100D300041F28830814254D830688007F4D42FB112
:100D4000DAF8001021F08051CAF80010A869C0B389
:100D5000DBF80010C1F3810102294AD0022848467D
:100D600007D0C8F86000FFF749FD00E039E005460C
:100D70003AE04746C8F86000FFF740FD064604E049
:100D8000FFF73CFD801B02282BD820688001F7D498
:100D9000D5E907010843A96A1C4A490802EB014149
:100DA0006A6A41EA8211084395F82C1040EA016111
:100DB0001148001F016001203866FFF71FFD05463E
:100DC00005E014E0FFF71AFD401B022809D820684F
:100DD0008001F7D50BE000BFFFF710FD401B022894
:100DE00002D90320BDE8F88F20688001F4D40020E8
:100DF000F8E70120F6E7000008380240003802401A
:100E000000004742800E4742007000400000FFFF94
:100E100010B5401EB0F1807F01D3012010BD4FF00E
:100E2000E02460610F21601700F05AFC0020A061EF
:100E300007202061002010BD10B5040003D094F8F5
:100E40003D0010B107E0012010BD002084F83C00F7
:100E5000204600F00DF8022084F83D00211D206896
:100E600000F040FA012084F83D00002010BD000091
:100E700008B500680649884208D10648016841F46F
:100E800080710160006800F48070009008BD00006F
:100E90000020004040380240022180F83D100168E7
:100EA0008A6802F00702062A03D00A6842F00102AB
:100EB0000A60012180F83D1000207047022180F86F
:100EC0003D1001680A6A41F211131A4207D10A6AF9
:100ED0009B101A4203D10A6822F001020A60012124
:100EE00080F83D100020704770B5040004D094F8DD
:100EF0003900002510B106E0012070BD84F838509B
:100F0000204600F023F8242084F839002068C168C6
:100F100021F40051C160204600F048FA20680169C0
:100F200021F4904101612068416921F02A01416169
:100F30002068C16841F40051C160E563202084F855
:100F4000390084F83A00002070BD0000F0B587B089
:100F5000044614216846FFF76BF91D4F22681D49AE
:100F600002230124032507261B48BA4213D1194A3C
:100F70001432176847F010071760126802F0100269
:100F800005920A6842F001020A60096801F0010155
:100F90000591690215E0114FBA4217D10D4A10327E
:100FA000176847F400371760126802F400320592A0
:100FB0000A6842F001020A60096801F00101059126
:100FC0000C218DE87A006946FFF73AFB07B0F0BDC7
:100FD0000010014030380240000002400044004050
:100FE0002DE9F843044690F83A00994616460D4616
:100FF00020284FD195B18EB194F83800012849D0FE
:10100000012084F838000027E763222084F83A00A2
:10101000FFF7F4FBA6858046E68531E00120BDE8B8
:10102000F883E08D401EE085A0684346B0F5805F00
:101030004FF000024FF020012046CDF8009004D080
:1010400000F00AFB98B10320E9E700F005FB002857
:10105000F9D1206900282068406803D0C1B225F882
:10106000011B0DE0C0F3080125F8021B08E0206910
:1010700000282068406801D000F07F0005F8010BCF
:10108000E08D0028CDD1202084F83A0084F8387013
:101090000020C4E70220C2E7FEE7000030B587B0B9
:1010A00014216846FFF7C4F811480024016841F094
:1010B00001010160016801F001010591016841F041
:1010C0000801016000680B4D00F008000590224601
:1010D00003212846FFF78CFB032000900120CDE977
:1010E0000104694628460394FFF7AAFA07B030BD09
:1010F00030380240000C0240FEE7704710B5202057
:101100002DED068BB0EE428AF0EE618AB0EE419A88
:10111000F0EE609AB0EE40AA00F0BAFC80ED00AAB2
:10112000C0ED019A80ED029AC0ED038A80ED078A36
:10113000BDEC068B10BD7047704700002DE9F041F3
:1011400007461C4615460E461420DDF8188000F0B0
:101150009FFC07600681456044819FED040AC0F84A
:101160000C8080ED040ABDE8F08100000000000062
:1011700070B504462DED028B00293BD01F489FED32
:10118000208B90FBF1F5012A26D0521C32D1206928
:10119000FFF707F953EC182BFFF7FDF8FFF714F9E9
:1011A0002061618901226068FFF722FB2189012209
:1011B0002068FFF71DFBA8B2E16800F0C3FB21899E
:1011C00000222068FFF714FBE168A8B2BDEC028B97
:1011D000BDE8704000F0B6BB2069FFF7E2F853ECC1
:1011E000182BFFF737F8FFF7EFF82061618900222D
:1011F0006068D9E7BDEC028B70BD000074B70100D8
:10120000CDCCCCCCCCCCCC3FFFF7FEBA30B593B034
:1012100030216846FFF70CF814210CA8FFF708F8F6
:1012200019480025016841F080510160006800F014
:10123000805011901548016841F4804101600068B8
:10124000022400F4804011900120039010200490AB
:10125000009406940820CDE90750A820CDE90904A0
:1012600004200B906846FFF745FC0CA90F2081E88D
:1012700031004FF4A0500F90E002109005210CA80F
:10128000FFF74EFB13B030BD403802400070004005
:101290001048016841F4700101600F48016841F095
:1012A000010101600C4A00210832116002680B4BF9
:1012B0001A400260031D0A4A1A60026822F4802262
:1012C000026005480C300160024958068039086008
:1012D0007047000088ED00E000380240FFFFF6FE96
:1012E00010300024F0B50268254C264D264E274FBD
:1012F000274B4FF0804CA04209D0604507D0A84250
:1013000005D0B04203D0B84201D0984204D122F0B7
:10131000700E4A6842EA0E02A0421BD0604519D006
:10132000A84217D0B04215D0B84213D0984211D07D
:10133000184DA8420ED0184DA8420BD0174DA84208
:1013400008D0174DA84205D0164DA84202D0164D20
:10135000A84203D122F44075CA682A434D6922F09D
:1013600080022A4302608A68C2620A688262A042DE
:1013700001D0984201D10969016301214161F0BDA9
:10138000000001400004004000080040000C004044
:101390000004014000400140004401400048014079
:1013A00000180040001C0040002000402DE9F041E2
:1013B000044600680169E26821F44051114301616B
:1013C0002169A068E2690843616911432268084302
:1013D000D16849F20C6399430143D16020684169A7
:1013E000A26921F4407111434161E2696425B2F5BB
:1013F000004F9748974922684FF032083FD08A4201
:1014000001D082427CD1FFF733FB00EBC00101EB3E
:10141000001061688900B0FBF1F6FFF729FB00EBD3
:10142000C00101EB001061688900B0FBF1F0B0FB76
:10143000F5F06FF01801484306EB800108EB01104E
:10144000B0FBF5F000F0F006FFF712FB00EBC00177
:1014500001EB001061688900B0FBF1F0B0FBF5F022
:1014600006EB0016FFF704FB00EBC00101EB0010D8
:1014700061688900B0FBF1F7FFF7FAFAD2E08A421F
:1014800001D082423DD1FFF7F3FA00EBC00101EB3E
:10149000001061684900B0FBF1F0B0FBF5F0060107
:1014A000FFF7E6FA00EBC00101EB001061684900AC
:1014B000B0FBF1F7FFF7DCFA00EBC00101EB001025
:1014C00061684900B0FBF1F0B0FBF5F06FF0180176
:1014D000484307EB800108EBC100B0FBF5F000F0DA
:1014E000F80006EB4006FFF7C3FA00EBC00101EB82
:1014F000001061684900B0FBF1F7FFF7B9FA3CE072
:1015000055E0FFF7A5FA00EBC00101EB00106168A0
:101510004900B0FBF1F0B0FBF5F00601FFF798FAD7
:1015200000EBC00101EB001061684900B0FBF1F76E
:10153000FFF78EFA00EBC00101EB00106168490073
:10154000B0FBF1F0B0FBF5F06FF01801484307EB8A
:10155000800108EBC100B0FBF5F000F0F80006EBED
:101560004006FFF775FA00EBC00101EB001061685F
:101570004900B0FBF1F7FFF76BFA00EBC00101EB9C
:10158000001061684900B0FBF1F0B0FBF5F06FF0BE
:101590001801484307EB800108EBC100B0FBF5F0F0
:1015A00000F00700216830448860BDE8F081FFF753
:1015B0004FFA00EBC00101EB001061688900B0FB3D
:1015C000F1F6FFF745FA00EBC00101EB001061688E
:1015D0008900B0FBF1F0B0FBF5F06FF01801484363
:1015E00006EB800108EB0110B0FBF5F000F0F0060F
:1015F000FFF72EFA00EBC00101EB001061688900D3
:10160000B0FBF1F0B0FBF5F006EB0016FFF720FAA7
:1016100000EBC00101EB001061688900B0FBF1F73D
:10162000FFF716FA00EBC00101EB001061688900BA
:10163000B0FBF1F0B0FBF5F06FF01801484307EB99
:10164000800108EB0110B0FBF5F000F00F00A9E7F6
:1016500000140140001001402DE9F0419846174662
:101660000E460446069D1DE0681C1BD02DB1FFF7F9
:10167000C5F8A0EB0800A84214D92068C16821F47D
:10168000D071C1602068416921F0010141612020D1
:1016900084F8390084F83A00002084F838000320E8
:1016A000BDE8F0812068006836EA000004D0002020
:1016B000B842D9D00020F3E70120F9E7FEE70000A7
:1016C0000FB4054B10B503A9044A029800F028F89E
:1016D00010BC5DF814FB0000E118000810000020A9
:1016E0000907090E002804DB00F1E02080F800144F
:1016F000704700F00F0000F1E02080F8141D7047E3
:1017000002E008C8121F08C1002AFAD170477047CA
:10171000002001E001C1121F002AFBD17047000028
:101720002DE9FF4F89B09B460446002506E0252899
:101730000BD05A460B999047641C6D1C20780028EA
:10174000F5D10DB02846BDE8F08F0027B84601223C
:10175000474900E0074314F8013F203B02FA03F039
:101760000842F7D120782E2819D114F8010F47F03C
:1017700004072A280ED06FF02F022078A0F1300144
:1017800009290CD808EB880102EB410100EB0108A4
:10179000641CF2E70A98641C50F8048B0A902078C5
:1017A0000028CED0642808D0692806D075281ED01D
:1017B0005A460B9990476D1C58E00A994FF00A0958
:1017C00001C90A91002802DA40422D2102E03905C0
:1017D00004D52B218DF82010012103E0F90704D056
:1017E0002021F7E78A4608AE0DE00021FAE70A99C2
:1017F0004FF00A0901C90A91F7E74946FEF700FED2
:10180000303106F8011D0028F7D1ADEB060000F1DC
:101810002009780701D44FF00108C84502DDA8EB84
:10182000090000E000208046002706E008A85A468C
:10183000C05D0B9990476D1C7F1C5745F6DB04E09B
:1018400030205A460B9990476D1CB8F10001A8F161
:101850000108F5DC05E016F8010B5A460B99904794
:101860006D1CB9F10001A9F10109F4DC641C65E704
:10187000092801002DE9F0410D460446FEF7E3FC7E
:1018800000210B4610B12078542802D00020BDE87A
:10189000F08101206278861E2D2A00D13046022276
:1018A00007E000BF01EB81014900303F10FB071149
:1018B000521CA75C202FF5D1521CA75C2D2F00D104
:1018C0003046521CA65C202E06D003EB83035B003F
:1018D000303E10FB0633F4E7C5E900130120D6E7DC
:1018E00003490860091F0A681206FCD5704700000A
:1018F0000444004010B5002821D0114B0022001FE5
:10190000196803E0814203D80A4649680029F9D1E1
:1019100052B11368841A9C4204D1006818441060C4
:10192000104602E0506000E0186039B102680B1AFE
:10193000934203D10B681A4402604968416010BDAC
:101940001400002070B54FF6FA76301A84B20D46B6
:101950000846FFF7A1FA2868446202E02868406A56
:1019600084B2B442FAD32846BDE87040FFF7A6BA65
:1019700086B0FEF751FF3B48394D02230246012154
:101980000095FFF7DBFBDFED380A8046B0EE082A52
:10199000F0EE601A9FED351A9FED350AFFF7AEFBAA
:1019A0008146FFF733FCFFF779FB05F14000314931
:1019B0004FF4E13600240160C0E901640C27C460E3
:1019C000C0E904478461C461FFF78EFA05F1800025
:1019D00029490160C0E90164C460C0E90447846129
:1019E000C461FFF781FA254828605320C5E9010446
:1019F0000120C5E903042846AC61FFF71DFA184829
:101A00000A230F2201A94030FFF7EAFA082000F06C
:101A10003FF80646014601A8FFF72CFFE0B1356804
:101A2000484600EE105AB8EEC00AFEF7D9FDBDEEEA
:101A3000C00A10EE104A002C00DA6442214610A0C1
:101A4000FFF73EFE002D01DA012201E04FF0FF32E8
:101A500021464046FFF78CFB3046FFF74BFFCEE7B1
:101A60001C000020000C0240CDCC4C3F0AD7233C88
:101A70000000000000100140004400400020004031
:101A80007370656564203D2025640D0A0000000028
:101A9000F0B50B30154D20F007010024144A0FE07B
:101AA00003688B420BD38B4205D95E1A43184768F3
:101AB000C3E9006700E04368136002C004E0021D50
:101AC00010680028ECD12046002802D1286808B10F
:101AD0000020F0BD064A07481060074A121A22F09B
:101AE0000702C0E9002401202860D7E71800002081
:101AF00014000020E4000020E002002000000000AC
:101B000000000000010203040607080900000000AD
:101B100001020304341B0008000000201C00000028
:101B200000170008501B00081C000020C40600001D
:101B30001017000801000000100000000000000065
:101B40000024F4000000000000000000000000007D
:040000050800018965
:00000001FF
